:100000000056002051690000A1680000B16800009E
:10001000C9680000E1680000F96800000000000005
:100020000000000000000000000000001169000056
:1000300021690000000000003169000041690000F2
:10004000896800000000000000000000C9160100DF
:1000500005160100751601000000000000000000F8
:1000600089490000C9F70000A9F700003D17010009
:100070000000000000000000000000005D1701000B
:100080002DE9F843054689464FF00108154E164CF8
:10009000164F12E0236943F00403236187F832808E
:1000A000BFF34F8F00BF30BF87F83200236923F0C2
:1000B00004032361BFF34F8F62B600F01DF872B6E0
:1000C000735D33B900F014F80028E3D000BF30BFEF
:1000D000F2E700237355B9F1000F00D0C84762B6AC
:1000E000BDE8F8839022002000ED00E000001050F1
:1000F0005FF800F0D94700005FF800F01DFB00003A
:10010000FFFFFFFFFFFFFFFFFFFFFFFFFFFFFFFFFF
:10011000FFFFFFFFFFFFFFFFFFFFFFFFFFFFFFFFEF
:10012000FFFFFFFFFFFFFFFFFFFFFFFFFFFFFFFFDF
:10013000FFFFFFFFFFFFFFFFFFFFFFFFFFFFFFFFCF
:10014000FFFFFFFFFFFFFFFFFFFFFFFFFFFFFFFFBF
:10015000FFFFFFFFFFFFFFFFFFFFFFFFFFFFFFFFAF
:10016000FFFFFFFFFFFFFFFFFFFFFFFFFFFFFFFF9F
:10017000FFFFFFFFFFFFFFFFFFFFFFFFFFFFFFFF8F
:10018000FFFFFFFFFFFFFFFFFFFFFFFFFFFFFFFF7F
:10019000FFFFFFFFFFFFFFFFFFFFFFFFFFFFFFFF6F
:1001A000FFFFFFFFFFFFFFFFFFFFFFFFFFFFFFFF5F
:1001B000FFFFFFFFFFFFFFFFFFFFFFFFFFFFFFFF4F
:1001C000FFFFFFFFFFFFFFFFFFFFFFFFFFFFFFFF3F
:1001D000FFFFFFFFFFFFFFFFFFFFFFFFFFFFFFFF2F
:1001E000FFFFFFFFFFFFFFFFFFFFFFFFFFFFFFFF1F
:1001F000FFFFFFFFFFFFFFFFFFFFFFFFFFFFFFFF0F
:10020000FFFFFFFFFFFFFFFFFFFFFFFFFFFFFFFFFE
:10021000FFFFFFFFFFFFFFFFFFFFFFFFFFFFFFFFEE
:10022000FFFFFFFFFFFFFFFFFFFFFFFFFFFFFFFFDE
:10023000FFFFFFFFFFFFFFFFFFFFFFFFFFFFFFFFCE
:10024000FFFFFFFFFFFFFFFFFFFFFFFFFFFFFFFFBE
:10025000FFFFFFFFFFFFFFFFFFFFFFFFFFFFFFFFAE
:10026000FFFFFFFFFFFFFFFFFFFFFFFFFFFFFFFF9E
:10027000FFFFFFFFFFFFFFFFFFFFFFFFFFFFFFFF8E
:10028000704700BF034613F8012B002AFBD1181A50
:10029000013870470048704798D6010033207047F6
:1002A0000120704708B506F06DFA08BD08B506F0E4
:1002B000E7FA43690148984708BD00BF98D6010096
:1002C00010B50C4611461A46012807D010B1022875
:1002D0000BD010BDE0B200F041F8FAE7BDF80830ED
:1002E000C9B2E0B200F07CF8F3E7E0B200F02AF91E
:1002F000EFE700BF044B00229A80DA805A819A818E
:10030000B4221A81704700BF98230020014B18784F
:10031000704700BF9823002010B40446034B0FCB56
:1003200084E80F00204610BC704700BF9C230020CB
:1003300082B0094B5B690020DAB262F30700C3F3B5
:10034000072262F30F20C3F3074262F317401B0E2C
:1003500063F31F6002B070479823002010B5044675
:100360001D4B1B7813F0030F02D010F00C0F15D1AA
:1003700014F0030F1CD113F0080F02D014F0040F77
:1003800022D113F0040F15D014F0080F12D0124B25
:1003900000229A80DA80B4221A810BE006F0F2F98A
:1003A00002690D4B1A61FFF7A5FF00F001F901E0AA
:1003B000FFF7A0FF084B1C70084C204600F03CFEE5
:1003C000204600F023FB10BD034B00229A80DA8008
:1003D000B4221A81EEE700BF98230020A0D60100C6
:1003E00010B5044600F050FF042C00D010BDFFF7FC
:1003F0008DFF10F00C0F05D000F057FF43689847B1
:1004000000F0E0F84B4C204600F064FE204600F07F
:10041000A3FB494B1A78042A37D0082A4AD0464B06
:100420005B89B3F5616F05D3434B002159819989ED
:1004300001319981404B99894EF66023994251D000
:100440003D4BD9884EF6602399424FD03A4B99885C
:100450004EF6602399424DD012F0080FC6D000F03E
:1004600024FF4368984703689847002846D1324BD9
:100470001B7813F0080FB9D02E4800F065FE002855
:1004800048D02D4BB4221A81B0E72B49CB880133D9
:100490009BB2CB802949A1FB0301490901EB8101F2
:1004A000A3EBC1039BB2002BB9D123494B89013384
:1004B0004B81B4E720490B89013B0B818B880133C9
:1004C0009BB28B801E49A1FB03014909C1EB0111BD
:1004D000A3EB81039BB2002BA1D117494B890133B8
:1004E0004B819CE7144B00219981A9E7124B002115
:1004F000D980ABE7104B00219980ADE700F0D5FE25
:100500004368984700F071FD0128B0D10A4BB4222E
:100510001A81ACE7084B1B7813F0080F3FF466AF65
:10052000054B1B89002B7FF461AF06F0A9F9036826
:1005300098475BE7A0D6010098230020CDCCCCCC17
:100540008988888810B5062819D8DFE800F01904D2
:100550001D201823260006F015F9044606F090F930
:10056000C3684FF48062002120469847FFF7C2FE1F
:100570000D4800F061FD04F1F00000F034FA10BD08
:10058000094800F07DFDFAE7084B1975F7E7074BBE
:100590005975F4E7054B9975F1E7044BD975024895
:1005A00000F04AFDEBE700BFA0D601009823002031
:1005B00008B588220021024819F097F908BD00BF4C
:1005C000B02300202DE9F04F85B0824600229249E9
:1005D00011F832306FF3C71301F8323001EBC20368
:1005E00058786FF3C710587098786FF3C7109870E9
:1005F000D8786FF3C710D87018796FF3C7101871D7
:1006000058796FF3C710587198796FF3C7109871C4
:10061000D8796FF3C710D8710132112AD8D1DAF81E
:100620000030984703900023029345E04FF0010803
:100630004FF0140CB5423AD801974FF04C093346AD
:10064000464698462BE04FF001084FF0140CF1E7B6
:10065000425C42F08002425402F07F0202EB0C0B3B
:10066000BBF14C0F0FDD425C69F3060242540133CB
:100670009BB29C420FD319461EF80320D209E7D043
:10068000002EF4D0E4E7624410F801B062F3060BE8
:1006900000F801B0EBE70135ADB2A84507D3A7429A
:1006A000F9D8019B5C4A02EBC50E7046E3E7029B5A
:1006B000013302930A2B66D09DF80880DAF81C30CB
:1006C00040469847012805D0DAF81C304046984744
:1006D0000228ECD1DAF80C30404698478146DAF827
:1006E000103040469847834600EB00134B4A82FB8C
:1006F0000312DE17C6EB22264FEAC903484A82FBE3
:1007000003271F44DB17C3EBA727DAF81430404652
:100710009847DAF8083040469847002814BF11245B
:100720000224B6B2351B25EAE575ADB22644102E7B
:10073000A8BF1026B6B2BBB21F1B27EAE777BFB22D
:100740001C44072CA8BF0724A4B2DAF8083040469E
:100750009847A9F141091FFA89F940F2B633994542
:100760003FF664AFBBF1B90F7FF66DAF002814BF41
:100770004FF0140C4FF0010C002814BF4FF001088B
:100780004FF0000856E70026234F1FE0043AE55CCF
:1007900062F30605E55404E0013AE55C62F3060500
:1007A000E5540133082B0ED0C25CD209F9D1C25CEA
:1007B00002F07F02122AEFD8032AE7D8E25C6FF337
:1007C0000602E254EDE70136112E04D0002307EBB8
:1007D000C6000446E8E7039B1BB1002421460E4DEA
:1007E00005E0FFF7E5FEF8E70134112C0DD00023FA
:1007F00005EBC400C25C02F07F02092A84BF01310C
:1008000089B20133082BF5D1EEE7034BA3F888102A
:1008100005B0BDE8F08F00BFB0230020B5814E1BAE
:1008200049D6B9F22DE9F04F83B00646019114463E
:100830000368984770B13E4A92F88A30013382F8D3
:100840008A30A146002C5ED00027B8469346DFF8D8
:10085000E8A037E0FFF7ACFE4FF00008019B83F8FB
:10086000008055E0F3682046984740B3336920463E
:10087000984720B3F36820469847054633692046D9
:10088000984700EB00108AFB0023C017C0EB232021
:1008900080B2ED00274B83FB05232B44ED17C5EBFE
:1008A000A325ADB20BEBC000435D03F07F03122B19
:1008B00005D808F101085FFA88F8019B1C70013720
:1008C0004F4510D0FCB2F369204698470128C9D0A3
:1008D000F369204698470228C4D0F3692046984718
:1008E0000328ECD1BEE7B8F1000F0CD0104BB3F8E1
:1008F0008830442B10D8B8F1010F09D012D9002349
:10090000019A137004E04FF00008019B83F8008007
:10091000404603B0BDE8F08F4FF00008019B83F81C
:100920000080F5E74FF00008019B83F80080EFE7B7
:10093000B023002049D6B9F2B5814E1B431E9BB2AD
:100940004FF6FD7293421BD84B1E9BB2934219D8AF
:1009500001EB01110C4B83FB0131090AC0000B4B69
:1009600083FB00231844C0F38F20094B03EBC10124
:10097000085C00F07F0013288CBF00200120704726
:100980000120704701207047B5814E1B49D6B9F24E
:10099000B0230020F8B506460F4C2568238903EBE9
:1009A00083035B00F4336B8005F06AFF0435238911
:1009B00003EB830307690A22314605EB4300B8477E
:1009C000238901339BB22381226852789A4201D84D
:1009D00000222281F8BD00BF3C240020704708B5EA
:1009E000FFF7D8FF08BD10B5044605F049FFC368FE
:1009F0004FF44472002120469847034B1C60462365
:100A000063700A23237010BD3C24002030B5A5B0CC
:100A10000446436898474F4B1B7913F0030F09D0E6
:100A2000A368984710F0080F21D1A368984710F0E9
:100A3000040F1CD1474B1B7913F00C0F09D0A3688E
:100A4000984710F0020F41D1A368984710F0010FAA
:100A50003CD1A36898473F4D2871E36804A89847A4
:100A6000BDF81830EB8000236B8125B030BD002528
:100A700001950295ADF80C5005F002FFC3680A22FB
:100A8000294601A898479DF80430022262F3020328
:100A90008DF80430E36810A89847BDF80430BDF81D
:100AA000462062F30F13ADF80430E3680CA89847B2
:100AB000BDF83E30ADF80630E36808A898470B9BB8
:100AC000ADF8083001A8FFF765FFB3E700250195F1
:100AD0000295ADF80C5005F0D3FEC3680A222946F2
:100AE00001A898479DF80430032262F302038DF8B1
:100AF000043063689847BDF80430028862F30B1332
:100B0000ADF80430134A52891209C3F3072362F384
:100B100007138DF80530E36820A89847BDF88230A8
:100B2000ADF80630E3681CA89847BDF87030ADF802
:100B30000830E36818A89847BDF86E30ADF80A3061
:100B4000E36814A89847179BADF80C3001A8FFF78D
:100B500021FF7EE73C2400202DE9F04FA7B004469A
:100B600043689847A368984710F0080F04D1A3681A
:100B7000984710F0040F3BD0236898474368984784
:100B8000054600F032FA90B12368984743689847C9
:100B90008046002603960496ADF8146002460A21AA
:100BA00003A800F00EFA37464FF00A09B0E02846D5
:100BB00000F01FFA0028E7D163689847B0F860306A
:100BC000002B40F037819A4BDD880135E36816A889
:100BD0009847BDF860309D4200F09B81E3680DA806
:100BE0009847934BBDF83C20DA805A8901325A81EC
:100BF00027B0BDE8F08FDAF80C3028469847DAF8CD
:100C0000103028469847236898474368984782469B
:100C100000F0F7F9051EC0F2068163689847C388A3
:100C2000ADF80430636898470389ADF8063063680F
:100C300098474388BDF804201344ADF80830636832
:100C400098478388BDF806201344ADF80A30EDB20A
:100C5000DAF80C30284698478346DAF810302846F0
:100C6000984701AA0146584600F084F9002840F050
:100C7000DC804FF4C973ADF8043040F66A03ADF878
:100C8000063040F2A623ADF8083040F62413ADF844
:100C90000A30DAF80C30284698478346DAF81030E4
:100CA0002846984701AA0146584600F063F90030EB
:100CB00018BF01209DF81E3060F345138DF81E30DB
:100CC0006368984790F86330C3F302039DF82020CF
:100CD00063F302028DF820206368984790F8623031
:100CE000C3F30203BDF8202063F38812ADF820207F
:100CF0006368984790F86530C3F302039DF820209D
:100D000063F3C5028DF8202006A8FFF743FE0136E5
:100D1000D8F800309847F3B28342BFF44DAFF3B236
:100D200026AA134413F88C5C06970797ADF8207039
:100D3000D8F81C3028469847012805D0D8F81C3030
:100D4000284698470328E2D1236898474368984784
:100D50008246E36809A89847BDF828B005F090FDE1
:100D6000C3684A46394606A898479DF818306FF37D
:100D700002038DF81830DAF81C302846984701280D
:100D800014BF002001209DF8183060F3C3038DF8D4
:100D90001830BDF81830BDF82A2062F30F13ADF8F3
:100DA00018304FEA1B129DF81A3062F303038DF8D6
:100DB0001A309DF81C306BF303038DF81C30DAF801
:100DC0000C3028469847BDF81A3060F30F13ADF881
:100DD0001A30DAF8103028469847BDF81C3060F316
:100DE0000F13ADF81C302369984711909DF81E3001
:100DF000C0B260F301038DF81E30DAF818302846CF
:100E000098479DF81E3060F383038DF81E3003F081
:100E10000C030C2B7FF4EFAE9DF81E3043F00C0357
:100E20008DF81E30E7E6384644E7012042E700BF70
:100E30003C240020002309930A93ADF82C3023684A
:100E4000984743689847064600F0DBF8051E4FDBDD
:100E500005F016FDC3680A22002109A898479DF8ED
:100E60002430012262F302038DF82430E36812A8D3
:100E70009847BDF82430BDF84E2062F30F13ADF84B
:100E800024306368984790F8603013F0020F3AD12D
:100E90006368984790F8603013F0040F35D16368A9
:100EA000984790F8603013F0080F30D16368984786
:100EB00090F8603013F0100F14BF062200229DF846
:100EC000263062F303038DF82630EDB2F36828462E
:100ED0009847BDF8263060F30F13ADF8263033691C
:100EE00028469847BDF8283060F30F13ADF8283036
:100EF00009A8FFF74FFD636898470023A0F860300A
:100F00001B4A53815FE60122D9E70422D7E7052275
:100F1000D5E7002509950A95ADF82C5005F0B0FCF1
:100F2000C3680A22294609A898479DF8243004225C
:100F300062F302038DF82430E36822A89847BDF8D5
:100F40002430BDF88E2062F30F13ADF82430E3682F
:100F50001EA89847BDF88630ADF82630E3681AA879
:100F600098471D9BADF8283009A8FFF713FD35E61B
:100F70003C240020134672B1128882420DD89A8810
:100F800082420CD3DA888A420BD3588888428CBFBD
:100F9000002001207047002070470020704700208B
:100FA00070470020704710B50446084611460023DC
:100FB000224600F0BBF90021204600F0E4F9C0B25F
:100FC00010BD08B5002300F0B1F908BD08B500F068
:100FD000ADF908BD08B5002100F0D5F9C0B208BDD3
:100FE00008B500F0D0F9C0B208BD08B500F076F938
:100FF00008BD08B500F086F908BD08B500F05AF93B
:1010000008BD08B500F0E6F908BD000010B543685A
:1010100098470488003418BF012405F031FC836828
:10102000224603210220984705F02AFC83682246C5
:1010300003210420984710BDF8B507460F4B1B68E5
:10104000BBB1002425460D4E56F8253053B156F855
:101050002530984703682BB156F825309847036828
:10106000384698470134E4B2254656F82430002B20
:10107000EAD13846FFF7CAFFF8BD00BF9C0F002039
:10108000F8B50746124B1B68F3B100242546104EF5
:1010900056F825308BB156F82530984743683846C6
:1010A000984750B156F825309847C3682BB156F889
:1010B00025309847C368384698470134E4B225463E
:1010C00056F82430002BE3D13846FFF79FFFF8BDD8
:1010D0009C0F00202DE9F04107461A4B1B68002B9E
:1010E0002DD000242646174D05E00134E4B22646F3
:1010F00055F824301BB355F82630002BF5D055F8A1
:10110000263098474368384698470028EDD055F870
:101110002630984790F81480BB68984718EA000F6B
:10112000E3D055F8263098478368002BDDD055F87A
:10113000263098478368384698470028D5D0BDE8C0
:10114000F08100BF9C0F00202DE9F04107461C4BA9
:101150001B68002B32D000242646194D05E00134CF
:10116000E4B2264655F824302BB355F82630002B30
:10117000F5D055F8263098474368384698470028F8
:10118000EDD055F82630984790F81480BB68984702
:1011900018EA000FE3D055F8263098470369002B72
:1011A000DDD055F82630984703693846984700281F
:1011B000D5D0012000E00020BDE8F0810020FBE751
:1011C0009C0F002008B5436898470078C0F34000A2
:1011D00008BD704730B587B0044603689847436838
:1011E000984702461F4903A800F0CFFE9DF815302E
:1011F00013F0020F2ED0BDF80C30CD3B9BB240F265
:101200009D22934229D8BDF80E2040F6B7039A429A
:1012100025D99DF81430043BDBB2382B01D90020CE
:1012200019E00023019302934FF00203012565F3B7
:1012300087138DF8043005F023FB436801A8984715
:101240006368984790F8603043F0020380F860309C
:10125000284600E0002007B030BD0020FBE700205A
:10126000F9E700BF4824002008B540F237135422A4
:101270003E21024800F074FE08BD00BF4824002053
:1012800000487047B4D6010010B51446012802D0BA
:10129000022805D010BD1A46204601F023F8F9E7D0
:1012A0001946104600F0E4FFF4E70148704700BF1C
:1012B000CCD6010038B505460368984748B10024EC
:1012C000AB68E0B29847034630B901340A2CF7D135
:1012D00000E00023184638BD0123FBE738B505467A
:1012E0000368984750B10024EB69E0B298470128A1
:1012F00006D001340A2CF7D1002000E0002038BDD0
:101300000120FCE738B505460368984750B1002432
:10131000EB69E0B29847032806D001340A2CF7D1D4
:10132000002000E0002038BD0120FCE72DE9F84F47
:10133000824689461646984600252F4609E07B1CC2
:10134000DBB20AF807404B451BD01F4601350A2D7A
:1013500017D0ECB2F369204698470028F6D0F3681E
:10136000204698478346336920469847B8F1000FD6
:10137000E5D0424601465846FFF7FCFD0028DED185
:10138000E4E7BDE8F88F2DE9F843074688460024D6
:10139000264604E00136F6B201340A2C17D0E5B235
:1013A000FB69284698470028F6D0FB6828469847EE
:1013B00081463B6928469847B8F1000FEAD042467B
:1013C00001464846FFF7D6FD0028E3D1E4E770B2B6
:1013D000BDE8F88338B505460368984760B1002436
:1013E000EB69E0B2984728B901340A2CF8D14FF0E4
:1013F000FF3038BD60B2FCE74FF0FF30F9E7000086
:1014000008B5436898470078C0F3C00008BD064B94
:1014100041221A80BA225A8040F2F7329A8040F66E
:10142000A602DA80704700BF64240020F0B585B0C2
:10143000054603689847436898470246204902A832
:1014400000F063FC9DF80830022B03D000242046F6
:1014500005B0F0BDBDF80A70BDF80C60194A314600
:101460003846FFF787FD04460028F0D0002300939C
:1014700001934FF00203042262F38503012464F315
:1014800087138DF8003047FA02F38DF8023046FAE0
:1014900002F38DF8033006F00F0646EA07168DF8C2
:1014A000046005F0EDF94368684698476B68984713
:1014B00090F8603043F0080380F86030C7E700BF61
:1014C0006C2400206424002010B584B00D4C0E2341
:1014D00003935D2302931E230193022200921223A1
:1014E000012104F1080000F0E9FB41232380BA2325
:1014F000638040F2F733A38040F6A603E38004B094
:1015000010BD00BF6424002000487047D4D60100FD
:1015100008B543689847037813F0240F14BF0120DF
:10152000002008BD38B543689847C58804894188BC
:10153000294482882244034B5D809C80D9801A8193
:1015400038BD00BF982400202DE9F04784B08046C4
:10155000436898470378C3F38009C3F34017D8F86A
:1015600000309847436898473C4E024606F1140104
:1015700002A800F0CAFB9DF808A0BDF80A50BDF80B
:101580000C40B21C21462846FFF7F4FC30BB06F1A4
:101590000A0221462846FFF7EDFC034600285AD1EF
:1015A000184604B0BDE8F0872C4B1A700023F7E70B
:1015B0001FB32A4B1B78012B1FD00023F0E7D8F86C
:1015C0000430984790F8603043F0040380F86030AE
:1015D0000123E5E70023E3E70023E1E70022BAF176
:1015E000010FE1D0BAF1020FF4D1B9F1000FDFD051
:1015F0001FB91A4B1B78002BEED1002301934FF03B
:101600000203012262F3850362F387138DF8003031
:10161000124E33788DF801302B118DF802302311E2
:101620008DF8033004F00F0444EA05158DF80450DA
:1016300005F026F94368684698473378002BBED0FA
:10164000D8F80430984790F8603043F0200380F8D1
:1016500060300123A4E70122C1E700BF98240020E5
:1016600030B587B00546036998470590030E1FD132
:10167000254C0A2303935D2302932423019305231E
:10168000009312230222114604F1140000F016FB0D
:101690006B689847C588018942882A4483880B442F
:1016A0006580A180E2802381BA2140F6A6021FE076
:1016B000154C0A23039366230293242301930723E3
:1016C000009312230322022104F1140000F0F6FA21
:1016D0006B689847C588018942882A4483880B44EF
:1016E0006580A180E280238140F2864140F69E021F
:1016F000054B41205881998140F2F731D9811A82F6
:1017000000221A7007B030BD9824002000487047AE
:10171000ECD6010070B5064600242546736898474C
:101720002044457601341C2CF8D170BDF8B503680F
:1017300098474368984705460C4CC368A07A984779
:1017400006462B69A07A98470746EB69A07A984726
:10175000022801D00020F8BD04F1140239463046B9
:10176000FFF708FC003018BF0120F4E7D824002060
:1017700038B5044643689847037D012B0CBF01210F
:101780000321244800F0CBFC63689847B0F84B4035
:1017900040F2A913002C18BF23461E4A9382B0F8CA
:1017A0004D1040F2E173002918BF0B46D382B0F808
:1017B0004F2040F28F23002A18BF1346154D2B836C
:1017C000B0F8513040F6C700002B18BF18466883A8
:1017D0009CB14E3CA4B20F48848389B14E3989B282
:1017E0000C48C1837AB14E3292B20A490A846BB175
:1017F0004E339BB2074A538438BD40F25B14EAE78C
:1018000040F29371ECE740F2DD22EEE740F615136B
:10181000F0E700BFD82400202DE9F04F8DB0064638
:1018200003689847436898470446924901F11403B6
:10183000024609A800F082FCBDF824300093BDF8F0
:1018400026A09DF82D509DF82EB0BBF1010F13D0AE
:10185000884B93F82430012B40F00981E369284636
:10186000984703280DD060B102283DD0BBF1010F8D
:1018700000F0C180002433E07E4B012283F8242055
:10188000ECE77C4B002483F8244083F82540304665
:10189000FFF740FF0394022343F00C02012464F39A
:1018A00087128DF808208DF80930009A13118DF8F1
:1018B0000A304FEA2A138DF80B300AF00F0A4AEA71
:1018C000021A8DF80CA004F0DBFF436802A89847C9
:1018D0007368984790F8603043F0100380F86030E8
:1018E00020460DB0BDE8F08F624B93F82530002BF9
:1018F000BCD1E3682846984707462369284698479D
:101900005D4A01463846FFF735FB60BB0121594B64
:1019100083F82510002303934FF00203032262F3A0
:10192000850361F387138DF808308DF80920009A3C
:1019300013118DF80A304FEA2A138DF80B300AF094
:101940000F0343EA02138DF80C3004F099FF43684B
:1019500002A898477368984790F8603043F01003E6
:1019600080F8603082E70027029703970497059775
:1019700006970797089714234FF00109CDF804A0A4
:101980009A4624E00135102D19D07C19A4B2336891
:10199000984703680320984703684146E8B2984790
:1019A0007D28EFDD0CAB03EBD40304F0070409FA48
:1019B00004F413F8282C144303F8284CE2E71037FA
:1019C000BFB20AF1010A1FFA8AFAE02F03D00025FC
:1019D0005FFA8AF8D9E7DDF804A002AF0DF1240818
:1019E0003C46E51B7368984714F8013B284443764E
:1019F000A045F6D13AE7214ABDF82A10BDF82800E3
:101A0000FFF7B8FA044600283FF46AAF73689847B6
:101A1000027D012A14BF00220122002303934FF00C
:101A20000203032161F38503012464F387138DF816
:101A300008308DF80920009A13118DF80A304FEA0A
:101A40002A138DF80B300AF00F0343EA02138DF8C6
:101A50000C3004F015FF436802A898477368984754
:101A600090F8603043F0100380F8603038E70024CD
:101A700036E700BFD8240020F4240020EC24002006
:101A800010B5436898470478C4F300140CB9204695
:101A900010BD04F0F5FE836801220321104698472B
:101AA000F5E770B5044643689847037D012B114E56
:101AB0004FF04E030CBF012203221946304600F0BE
:101AC00030FB002586F8245086F825502046FFF785
:101AD00021FE6368984710234375636898470E2377
:101AE0008375636898471C23C375636898470576B8
:101AF00070BD00BFD82400200048704704D7010003
:101B000010B50446C28A038A9A4202D9012343755A
:101B1000837494F82530012B0FD0227D0A4B53F8A3
:101B200022302046984701280CD0022814BF0020FC
:101B30000220638D0133638510BD04236375012387
:101B4000A374EAE70120F4E7B00F0020C289B0F9DE
:101B50001830B0F920105B1A002BB8BF5B429342DB
:101B600018DCB0F91A30B0F922105B1A002BB8BF9C
:101B70005B429A4210DBB0F9262043889A4207DC88
:101B8000B0F92A3040898342CCBF00200120704741
:101B900000207047002070470020704770B5044651
:101BA00090F82450012D05D9AB1EDBB2012B08D9CA
:101BB000002070BD0123837400202075032363750A
:101BC000F7E7C68C013636B2C684FFF7BFFF08B907
:101BD0000123A374032D01D00020EAE723889E424D
:101BE000BCBF0123A37463889E42C4BF0123A374B6
:101BF00000232375E27C237B9A4201D00020D8E7A2
:101C0000B4F92830A2889342BCBF0122A274E288B2
:101C10009342C4BF0123A374B4F92A3022899342AA
:101C2000BCBF0122A27462899342C4BF0123A37482
:101C300000232385A37C4BB10020A0746685A38B71
:101C40002383E38B63830123E374B2E70023E3740C
:101C50000220AEE710B5044690F8243023B9038D76
:101C600001330385002010BD012B25D1FFF76EFF46
:101C700018B9022363750123A3740122E284E37C73
:101C80001344DBB2E3742275B4F92010A183B4F9D4
:101C90002220E2833BB1A37C2BB9E07C012814BF56
:101CA00000200120DFE70020A07401236385208548
:101CB00021836283E374F0E70020D4E730B4BDF8F9
:101CC0000850BDF80C400280438001FB02F292B242
:101CD000AB1A8380A21AC280058144810173BDF8CA
:101CE0001030C381BDF81430038200238374C374A1
:101CF00003854385C38443754FF6FF720283428395
:101D00008283C283037530BC7047F0B585B0054649
:101D10000C461646002301930293ADF80C30498B14
:101D2000208BFEF70BFED0B10A2201A93046FEF748
:101D300079FD012822D90023A374E37423856385E8
:101D4000E38463754FF6FF7222836283A283E2838A
:101D500023752B706B80AB80284605B0F0BD002347
:101D6000A374E37423856385E38463754FF6FF7280
:101D700022836283A283E2832375D5E79DF80470F2
:101D800000B3F3683846984720843369384698474B
:101D90006084F3693846984784F8240073693846AC
:101DA0009847E0823046FFF728F9A0B9002384F86D
:101DB00025302046FFF7A4FE228B638B28706A80B3
:101DC000AB80C9E74FF6FF7323846384002384F854
:101DD0002430E382E6E7012384F82530E9E700BFF9
:101DE00070B504460E461578CB69284698470128F9
:101DF00001D0012070BD002323806380A380E38095
:101E000023816381A381E38123746374227E02F0C2
:101E1000F80263F3C3022276F36828469847A0814C
:101E2000336928469847E081237C01332374E0E737
:101E30002DE9F04104460F461678CB6830469847A6
:101E400080463B69304698470546FB6930469847CF
:101E5000032841D0A389A8EB03031BB22380B4F964
:101E600002209A42B8BF1A4616466280B4F904703E
:101E70009F42A8BF1F46A780E089281A00B2E080D1
:101E8000B4F908208242B8BF02462281B4F90A1090
:101E90008142A8BF01466181B4F9125001EB050CE3
:101EA000604553DA491B884250DD521B904203DCE7
:101EB000227E42F002022276EA1993424BDA7F1B1D
:101EC000BB4248DD721B9342DEBF237E43F0080312
:101ED00023760120BDE8F08100232374B4F90020AB
:101EE000E38A9A4222DB217E01F00801002914BF17
:101EF0000020102059428A4206DC227E12F0040F94
:101F000004BF40F00800C0B2B4F9062093420FDCD1
:101F1000237E13F0020F0BD140F00400C0B29142B7
:101F2000D8DB237E13F0010F08D0D3E70020E1E7D0
:101F3000914207DB237E13F0010F03D140F0020032
:101F4000C0B2C7E7002808BF0120C3E7217E41F0E7
:101F500001012176A9E7227E42F004022276B1E750
:101F600041828282C3820023038043808380C380B6
:101F7000038143818381C38103744374027E02F031
:101F8000F80263F3C302027670472DE9F04186B090
:101F900004460D46164600238DF81730314903AA32
:101FA00003C982E8030000930193ADF808300A22C8
:101FB00069463046FEF7F7FF80469DF800708DF8C1
:101FC0001770F36938469847002831D0B8F1010FEF
:101FD0002ED1736938469847AB8A834228D3B368B9
:101FE0003846984720BBF3689DF81700984780460D
:101FF00033699DF81700984707462B7C06AA02EB29
:10200000830353F80C3C0DF11702314628469847DC
:10201000A989EA896B7C5E1C6E7421806280A4F8B9
:102020000480E78023726072204606B0BDE8F0812C
:1020300000232B806B80AB80EB802B816B81AB818D
:10204000EB812B746B742A7E02F0F80263F3C302F7
:102050002A7623806380A380E38023720123637246
:10206000E2E700BF1CD7010070B504460E461546D6
:10207000CB6910469847012801D0002070BD00238D
:10208000237223806380A380E3806372A372E37270
:10209000F36828469847208033692846984760802F
:1020A000A572637A01336372E7E7F8B504460E461A
:1020B0001546CB69104698470746F3682846984767
:1020C000A080336928469847E080238A9BB9A2897B
:1020D000B4F90030B4F904105B1A002BB8BF5B42AE
:1020E000934213DCB4F9023000B2181A0028B8BFCA
:1020F000404282420ADB227AE3899A4209D30023D2
:102100006372E07AB0FA80F04009F8BD0123E3720F
:10211000F1E7032F4FF0000008BF6072F5E7C181BF
:1021200070478181C2810382002303720380438050
:102130008380C38043728372C37270472DE9F0417C
:1021400086B004460D4617461E46002303604360D2
:10215000836003930493ADF814300B8A3288D21A4B
:10216000ADF804207288D21AADF80620B2881A445D
:10217000ADF80820F2881344ADF80A3001A93846BA
:10218000FEF72EFF804631463846FEF729FFB8F1AC
:10219000010F0DD0AA7A00236B7223806380A38085
:1021A000E38023726272A372204606B0BDE8F0811C
:1021B00008B900232B7201AB3A460A2103A8FEF7A7
:1021C00005FF6A7A0D4B53F822309DF80C203946F2
:1021D00028469847B5F800C06F88AE88E9882B7A02
:1021E000AA7A03F1010E85F808E0A4F800C0678020
:1021F000A680E18023726272A072D5E7B80F00203A
:10220000014B1888704700BF002500200A20704746
:10221000024B5B6803EB0010807B704700250020B9
:10222000024B5B680001185C704700BF002500206E
:10223000024B5B6803EB00104088704700250020CC
:10224000024B5B6803EB001080887047002500207C
:10225000024B5B6803EB00100089704700250020EB
:10226000024B5B6803EB00104078704700250020AC
:10227000014B1980586070470025002000487047C6
:1022800024D7010000EB001001EB4001024B1B685A
:1022900033F91100704700BF0825002000EB001043
:1022A00001EB4001024B5B6833F91100704700BF3E
:1022B0000825002000EB001001EB4001024B9B6859
:1022C00033F91100704700BF0825002000EB001013
:1022D00001EB4001024BDB6833F91100704700BF8E
:1022E00008250020014B43F82100704708250020F5
:1022F000014B03EB8000704744D7010030B4184D08
:102300000022D5F8014001322346186802EBC201D1
:10231000294480B1586898B19868B0B1D868C8B1FC
:10232000042A1BD0D1F801300132186802EBC20137
:1023300029440028EED12068186058680028EBD1A5
:102340006068586098680028E8D1A0689860D868EC
:102350000028E5D1E068042AD860E3D130BC70479A
:102360007C03002030B4184D0022D5F80140013222
:102370002346186802EBC201294480B1586898B11D
:102380009868B0B1D868C8B1042A1BD0D1F8013020
:102390000132186802EBC20129440028EED12068FE
:1023A000186058680028EBD1606858609868002869
:1023B000E8D1A0689860D8680028E5D1E068042AD0
:1023C000D860E3D130BC7047AC03002010B502F0F8
:1023D0006DF8094B1B689847084B1B689847084BDA
:1023E0001B689847BDE81040064A074B127853F81F
:1023F00022305B68184700BF100F0020100D00202E
:10240000D80C0020C10F002000A3010070B50024EB
:102410009AB010AE2146304628220BADCDE90B44D0
:10242000CDE90D440F9417F060FA08ABCDE9033302
:10243000CDE90544CDE90056064802930894099475
:10244000ADF828402B4604682A4629460A20A047B2
:102450001AB070BD102600200B4A08B512780B4B3D
:1024600053F82230DB689847FFF7D0FF084B1B6911
:102470009847084B1B699847074B1B699847BDE86D
:10248000084001F0AFBF00BFC10F002000A3010052
:10249000100F0020100D0020D80C002070B58AB05D
:1024A000054607F0FDFF0128044606D02DB1012D99
:1024B00028D0032D14BF04460224174D2B78A342C5
:1024C0001ED001A807F064FD2246297801200DF0F6
:1024D00081FF214601200DF0EBFE2B78012B13D05C
:1024E0000E4E56F82330DB68984756F824302C708F
:1024F0005B68984728780AB0BDE8704007F0D6BFFF
:102500000AB070BD0024D8E7002CE9D1FFF7A4FF82
:102510002C70FFF75BFFEDE7C10F002000A3010067
:102520002DE9F04F93B007F01BFD09A807F030FD2F
:1025300009A80DF00BFF614A614B1278614C53F80A
:1025400022309B6898470890C0F3072AC0F30746DB
:1025500004F002F907F0B4FF22789DF82A30834690
:102560009A4206D09DF82A0006F032F89DF82A30EB
:102570002370554B0124986805F0DAFB0025CA2327
:10258000DFF868815148DFF85891514F0593224692
:1025900021464346CDE90309CDE901550094642065
:1025A00000F0D4F93B6898F800209978914213D054
:1025B000D021CDE901552546464A023305910392C3
:1025C000CDF81090009422462146642000F0BEF918
:1025D0003B689B7888F800300DF0A6FB3B688DF8CF
:1025E0001F00DB7883422CD1BBF1000F3DD1002DC1
:1025F0003BD1002E44D09DF83D30002B4AD19DF8B0
:102600003C30002B56D1012E01D10FF025FA7E224D
:10261000314B00921A683149314B632000F0E8F9E0
:10262000FFF71AFFFFF7D2FE83222E4B00921A68A3
:102630002A492B4B632000F0DBF9012013B0BDE8E1
:10264000F08F0122DF2100232748CDE90491CDE955
:10265000013303900DF11F0364200092114600F036
:1026600075F93B68D8780DF04BFB002007F02EFF82
:102670009DF83C30002BCAD0002007F017FFC6E7BA
:102680009DF83C3083B95046FFF708FF012013B096
:10269000BDE8F08F9DF83C30002BF4D0284607F0C1
:1026A00005FF4FF0010AEEE7304607F0FFFE4FF05E
:1026B000010AE8E7284607F0F9FEA4E7C10F002069
:1026C00000A30100C00F002088050020CCA201005B
:1026D000B4050020D8A20100DC030020A8A201005C
:1026E000BCA20100E0030020F4A2010010040020BD
:1026F0002DE9F0479CB0044603A8884607F048FC43
:1027000000235B4E9DF82320C6E90033C6E902335F
:102710003382002A58D094F82B0094F82AA094F819
:102720002990504594F828E03AD8A0F11D01A0F175
:102730001007821EC9B2FFB2D2B2F14526D84B466D
:1027400014E0A3F10B04022C41D803EB031400EBBB
:10275000440438F91450002436F914C0AC45B8BF0D
:1027600026F814500133DBB29E450FD3022AE8D974
:10277000022F37D8A3F10B04022C47D803EB031424
:1027800000EB440438F914500324E5E70130C0B2EB
:102790000131013701328245C9B2FFB2D2B2CCD287
:1027A0003E2200210DF1320017F09FF8002340F681
:1027B0000115822400961A460CA91E20ADF830504F
:1027C0008DF8354008F02CF81CB0BDE8F087DC1F10
:1027D000022C29D803EB031400EB440438F91450FD
:1027E0000124B9E70229BDD8A3F10B04022C26D994
:1027F000DC1F022C33D99C1E022CB3D803EB03142C
:1028000000EB440438F914500824A5E7DC1F022C1F
:102810001DD99C1E022CA5D803EB031400EB440425
:1028200038F91450052497E79C1E022C9AD803EB24
:10283000031400EB440438F9145002248CE703EB32
:10284000031400EB440438F91450062484E703EB26
:10285000031500EB4505042438F915507CE703EB1C
:10286000031400EB440438F91450072474E700BF44
:10287000C40F0020F0B5204E83B0054601F12000C2
:1028800014461F467160FDF7FDFC1C4B1C4A9968FD
:10289000213037604860946060782278E37802FBEA
:1028A00000F203F07F0303FB02F3164C22790B6066
:1028B000D3B2012B01D003B0F0BD7721FF221E4619
:1028C000114F397022712379FF2B10D12022294614
:1028D000684616F0DBFF009B032B04EB830206DC4B
:1028E000019BD2F8052006FA03F31342EBD105232E
:1028F0003B7003B0F0BD00BF0C1A0020D8050020CB
:10290000BC070020F41B00208806002070B5044698
:102910000E461546049A194620F8022B20341E2232
:1029200017F0A2F820463146DF2217F09DF845B196
:102930003046FDF7A7FC2946C0F1DF02204417F01E
:1029400093F82046BDE87040FDF79CBC2DE9F041AE
:10295000C4B004460E4615460146202204A81F4670
:1029600016F094FF049B032B0EDC01221F480599EF
:1029700000EB8303D3F805C002FA01F313EA0C0F4E
:1029800002D00379934202D044B0BDE8F0814FF009
:1029900000084FF48072414604A816F0A6FF4F9B32
:1029A000424600934D994E9B04A8CDE90288FFF75B
:1029B000ADFF9DF80BC04A9B4B9A8DF80F0063F357
:1029C000060C20464C9C62F3C71C3B4604A902AA95
:1029D0008DF808608DF809508DF80C808DF80E4048
:1029E0008DF80BC0FFF746FFCEE700BFF41B0020B9
:1029F0002DE9F041C4B004460D461646014620229A
:102A000004A81F4616F042FF049B032B0EDC012294
:102A10001948059900EB8303D3F805C002FA01F3C6
:102A200013EA0C0F02D00379934202D044B0BDE800
:102A3000F0814FF000084FF48072414604A816F070
:102A400054FF4A9B3246009329463B4604A8CDE9F1
:102A50000288FFF75BFF43468DF80F0002AA04A926
:102A60002046ADF808808DF80B808DF80C808DF82D
:102A70000E80FFF7FFFED9E7F41B0020F0B587B00A
:102A8000654601F05BFF01F0AFFE0021084601F052
:102A900097FBD5E90121044604204FF4457C00272B
:102AA00001260090074D08482346CDE90305CDF8DF
:102AB00014C0CDE901677220FFF748FF204607B038
:102AC000F0BD00BFBCA40100CCA401002DE9F0477B
:102AD00090F815C082B0BCF1000F2BD01C46002529
:102AE0004FEA4C0606EB8C0603EB0616216294F8BF
:102AF000247084F8245094F8257084F8255094F8B4
:102B0000267084F8265094F8277084F8275094F89B
:102B1000287084F8285094F8297084F8295094F883
:102B20002A7084F82A5094F82B7084F82B50303493
:102B3000A642DBD1BCF1000F2FD0984691468246C9
:102B400000269AF814301BB300257700DAF800301D
:102B500006225C5D68466110013116F097FE9AF816
:102B6000142004F0010406FB0291009B3C449B00EE
:102B700004EB440403EB041401984B5D4444216AC4
:102B800000EB8000834001350B43AA422362DDDC69
:102B90009AF815300136B342D3DC02B0BDE8F087B5
:102BA0002DE9F04100241962196593F8241083F887
:102BB000244093F8251083F8254093F8261083F8D5
:102BC000264093F8271083F8274093F8541083F891
:102BD000544093F8551083F8554093F8561083F8F5
:102BE000564093F8571083F8574093F8281083F80D
:102BF000284093F8291083F8294093F82A1083F885
:102C00002A4093F82B1083F82B4093F8581083F840
:102C1000584093F8591083F8594093F85A1083F8A4
:102C20005A4093F85B1083F85B40017D82B019B382
:102C300006461D46571E3368062213F80480684670
:102C40004FEA6801013116F021FE08F001080099F1
:102C50004FEA480290448A0002EB081201992A4484
:102C600017F8013F106A01EB81018B4003431362A7
:102C7000337D0134A342DEDC02B0BDE8F08100BF49
:102C80002DE9F04F97B006AFD1F8016004463863E4
:102C9000022100203E6101F093FA0021F86108460C
:102CA00001F08EFA01F0D4FBEC4694F81490647DA8
:102CB000804604FB09F2D01DC008ACEBC00085467D
:102CC00095002B46EC460A33DB08ACEBC30306A8A1
:102CD0009D46002106AB7B62FC62FD60786116F0C8
:102CE00004FE2A46FF21786A16F0FFFD07F1400333
:102CF0001A46042302F8043D114601207A6001F0CF
:102D0000D1FCB2684FEA89039178BB61D37812781D
:102D10005B1A01339A4240F35D810A234E46BB623F
:102D20006300BB60BB6AB2491F2B40F340811A4667
:102D300001FB03F103EB431302EB431303EBC33338
:102D400001F1404103F140432031AA4A013341F0EF
:102D50001F01A9489362C2E9081330328242F8D1B8
:102D60004FF48073002401224FF004090593A34B14
:102D700001920493A24BCDF80090CDE90243BD6AC5
:102D800011467B686420FD63FFF7E0FDFD69FA688A
:102D90002146284616F0A9FDFB6A002B00F0F580BD
:102DA0007D634FF0405B25463C624FF0000A4FF0D8
:102DB00001094FF4FA743B6A3A695344137701F0FE
:102DC000BDFD01F011FD8BF8F390D6B1D7E90C3CB5
:102DD000186806EB000E10F8013B03F001025245A3
:102DE0000BD15B1008EBC313B3F840201988DCF853
:102DF0000030521A1344CCF8003070450CF1040C2A
:102E0000E9D1013C8BF8F350D9D1BAF1000F02D1CE
:102E10004FF0010ACDE77A6BB9693B6A0A447A63DD
:102E2000BA68023393423B62BFD140F219120423C5
:102E300072490592049173490093CDE902410194CE
:102E4000FD6932462B46F96A6420FFF77FFDD7E91A
:102E5000059A7B6AD7F828B0A5F1040EA3F1040CFB
:102E600086B162467046002350F8041F52F8045F92
:102E7000A94238BF09F803B003F1010338BF11605C
:102E80009E42F1D1FB6A0134A342D644D444B144FA
:102E9000E6D100244FF491720123CDE90144574952
:102EA00059480491039005920093D7F82C907B69C0
:102EB000324649466420FFF749FD40F223120423BD
:102EC000BD6A4E490135BD625048CDE901440491C7
:102ED0000390059200937B6A324649466420FFF7CF
:102EE00035FD3E2D7FF41EAFFB6AB146B3B17B6A60
:102EF000474D1A1F5EB11046002150F8043F0131C2
:102F0000A5FB03C38E424FEA53130360F5D1BB699F
:102F100001341A44FB6AA342ECD1B1464FF49672D5
:102F200000240092354B00223A496420FFF760FDEF
:102F300040F22D110122314E334B049603937B69ED
:102F4000CDE9014405910092D7F82C804A464146CC
:102F50006420FFF7FBFC40F22F13224600932E491A
:102F600033466420FFF744FD4FF498750420CDE903
:102F70000144264B049603937B6A4A4600904146DF
:102F800005956420FFF7E2FC2DE040F219131B4A7F
:102F9000642004921B4A0392F96ACDF80090CDE9AF
:102FA00001110593FB693246FFF7D0FC71E7BB6A5C
:102FB0001A4601FB03F103EB431302EB43130D4AE3
:102FC00003EBC3330C489362C2E9081330328242E8
:102FD000F8D1C5E64FF49A72084B00920F490022CF
:102FE0006420FFF705FD4437BD46BDE8F08F00BF04
:102FF000208410029800046098060460BCA40100BC
:10300000F4A3010000A4010014A4010020A4010005
:10301000D34D62102CA4010040A4010050A4010073
:103020002DE9F043437D8646007DF3B1002601F192
:10303000FF3C0F494FEA430898B16446DEF8002090
:10304000871812F8019B14F8015F09F0010333445B
:1030500003EB430301EB031303EB59039742DD73C7
:10306000EFD1023646458444E6D1BDE8F08300BF87
:1030700098000460F0B5DCF8000087B064460F46A5
:10308000FFF7CEFFD4E90121002040F21D360125D3
:10309000CDE90100054C06483B46CDE90304059601
:1030A00000956420FFF752FC07B0F0BDBCA40100FE
:1030B000C0A30100427D02B3F0B40026037DDFF817
:1030C0003CC0ABB100247700056806FB03122D5D00
:1030D00005F001033B4403EB43030CEB031303EB49
:1030E0005503DB7B1355037D0134A342ECDC427DA9
:1030F0000136B242E5DCF0BC7047704798000460CE
:103100002DE9F04F8046A3B00391602200210AA868
:1031100016F0EBFB4FF4C0620021894816F0E5FB86
:1031200098F814309E4643B3D8F8000001241D18C7
:1031300007E056F85C3C854243EA070346F85C3CEE
:103140001BD010F8013B03F001014E000E441F2B71
:1031500022A904FA03F701EB0616EADD16F8582C4B
:10316000203B114604FA03F3C2F30102134363F355
:103170000101854206F8581CE3D198F81550002D3E
:1031800000F04A8200210124D8F80420A81812F87F
:10319000013B04FA03F3904241EA0301F7D1C1F382
:1031A000130200234FF0405C9DF83600039E9DF80B
:1031B0006670140CD6F8049092B220F00F002043F1
:1031C000ADF83420ADF864209DF8292027F00F07D2
:1031D0008DF8360099F800003C436FF3C3028DF878
:1031E00066408DF85700BDF830408DF887008DF8A7
:1031F00029209DF832009DF856209DF8597004F062
:10320000030420F03F0022F01F02ADF830408DF89B
:103210003200BDF860409DF862008DF856209DF8A0
:10322000862063F3C3078DF8597022F01F0204F063
:10323000030420F03F008DF88620ADF854308DF85F
:103240003330ADF884308DF86330ADF860408DF8E0
:1032500062003269CCF84810002D00F0CE81CDE933
:1032600000329A46364B4FF0010B0293774641F4F9
:10327000801349460993D8F804C02AF003031A467C
:1032800005931CF80A304FF0000E0BFA03F9C9F34E
:103290001309C9F30D039B000793CDF810904FEA73
:1032A000993389460432029C0692089326464FEAD7
:1032B0004E0522AB754403EB0515603D0FCD0FC6DF
:1032C0000FCD0FC695E80F0086E80F00009A2388FF
:1032D00062F309032380002F00F08D8101996FF0C4
:1032E00000420B460F4413F8011B8A42A8BF0A464E
:1032F0009F42F8D1D2B2E27299F80630002B40F02A
:103300005A812368049A62F31F33236094F82E30A5
:1033100099F8052023F01F0398F8151084F82E3033
:103320004FF00003501EA385062800F27881DFE8E5
:1033300010F01B010801E200E000DE00DC000900E3
:10334000980004600B1F534540F364810CEB0A03A3
:103350001D7994F82E300BFA05F5C5F3044023F0DF
:103360001F030343A58584F82E30C5F31405BAF175
:10337000030F12DD0CEB0A0313F8040C94F82E3043
:103380000BFA00F00543C5F3044023F01F03034389
:10339000A58584F82E30C5F31405CB1E534511DDE9
:1033A0000CEB0A03D87894F82E300BFA00F00543A2
:1033B000C5F3044023F01F030343A58584F82E3092
:1033C000C5F31405BAF1020F12DD0CEB0A0313F872
:1033D000030C94F82E300BFA00F00543C5F30440BB
:1033E00023F01F030343A58584F82E30C5F314058D
:1033F0008B1E534511DD0CEB0A03987894F82E30A0
:103400000BFA00F00543C5F3044023F01F03034308
:10341000A58584F82E30C5F31405BAF1010F08DD37
:103420000CEB0A0313F8023C0BFA03F31D43C5F33C
:103430001405236894F82E0045EA133545F48015E9
:10344000C5F3140320F01F00013940EA1340514531
:10345000A58584F82E000FDD0CEB0A035B78C1B262
:103460000BFA03F32B43C3F3140321F01F0141EACA
:103470001341A38584F82E10BAF1000F07D0D4446D
:103480001CF8011C0BFA01F10B43C3F3140383F482
:10349000FF13099883F4FF5394F82E1083F01F0351
:1034A0000340C3F3044021F01F010143012AA38517
:1034B00084F82E100BD0DB43E268A17BC2F3130229
:1034C000134021F00F0242EA1342A381A273303469
:1034D000BEF1000F57D1039BD8F804C0D3F8049075
:1034E00098F814704FF0010EE0E6002555E700252E
:1034F0007EE700259DE70139514540F381800CEBC3
:103500000A035B7894F82E100BFA03F3C3F304421A
:1035100021F01F011143A385C3F3140284F82E1078
:10352000BAF1000F70D0D4441CF8013C0BFA03F33D
:103530001343099AC3F314031340C3F31401DB4389
:1035400008E0394A236882EA1333099A1340C3F327
:103550001401DB4394F82E20A18522F01F0242EAD9
:10356000114284F82E20A7E74FF0000294F82E3085
:10357000A28523F01F0343F0100384F82E3030346B
:10358000BEF1000FA7D0009A98F815302232C2F38E
:1035900009020092029A0AF1010A60320292019A2B
:1035A000534502F12202019227DD039B98F8147023
:1035B0005B6819465FE6059B0CEB0301069B0CEB71
:1035C000030511F8013B20680BFA03F3226843EA74
:1035D000103363F31F328D422260F2D12389079AA0
:1035E00003F0030313432381A37A089A23F03F03D4
:1035F0001343A3728AE6FF227DE623B0BDE8F08F75
:103600000022BAF1000F8ED1099B1340C3F31401BD
:10361000DB439FE70025AAE62A462946C1E54FF08D
:10362000FF33002196E700BFFFFF0F00002900F0E5
:10363000A3802DE9F04FD1F80120ADF5137D0CCA20
:1036400093F8009093F801B01278884609EB0B07C5
:103650000AA9064607929D7893F804A0DC78FFF744
:1036600029FD464BF9B2481C83F8290009F1010CE9
:1036700009F1FF3083F8221083F824C083F8250075
:10368000079A002A73D1A9F10A0983F827904FF00D
:1036900000093A4B4A469E460AF03F0C05F01F00CF
:1036A00004F00F0183F8289002F114030EEB43039A
:1036B0009C7801326CF305049C705C88112A60F3DD
:1036C0008A14C4F3072561F3C6055C80DD70EBD175
:1036D0004FF04050002280F8A720347DBCB14FF05D
:1036E000010C3168254D013911F8013F1C2BEA54BA
:1036F00002F1010209DD90F8A7E01D3B0CFA03F38B
:1037000043EA0E03DBB280F8A730A242ECD1D8F82E
:1037100001103046FFF7F4FC0AA93046FFF780FCA1
:10372000D8F8013030465968DA68C979144BFFF788
:10373000CDF949F640435E210137012400250420DC
:103740007F0093FBF7F705910E4A0F49CDE900047E
:1037500004920391029509AB224621466420099701
:10376000FFF7F4F820460DF5137DBDE8F08F0BF15F
:10377000010B83F827B08AE7084670470000046011
:1037800098000460BCA40100ACA40100F0B50C4694
:1037900099B0602200210746684616F0A6F830224C
:1037A0000021544816F0A1F84FF408709DF801303C
:1037B000626843F008038DF80130BDF800105379BA
:1037C00060F30901013BADF80010032B03D8DFE8DB
:1037D00003F07F6D02024FF0FF344FF040510020A4
:1037E0009DF82E30ADF82C4043F01F038DF82E309D
:1037F000C1F830014FF0013300216D461278CDF849
:1038000013308DF82F20CDF81730CDF81B308DF800
:103810001F30CDF80F308DF80B100CAC0FCD0FC44E
:103820000FCD0FC495E80F0084E80F003D7D3DB338
:103830003C680126254407E052F85C3CA54243EA77
:10384000070342F85C3C1BD014F8013B03F0010075
:10385000420002441F2B18A806FA03F700EB0212DD
:10386000EADD12F8581C203B084606FA03F3C1F3C0
:1038700001010B4363F30100A54202F8580CE3D1A8
:103880006C461C4F0FCC0FC70FCC0FC794E80F002E
:1038900087E80F00184E0CAD0FCD0FC60FCD0FC629
:1038A00095E80F0086E80F0019B0F0BD4FF0FF3427
:1038B0004FF0405100209DF82E30ADF82C4023F001
:1038C0001F0343F00F038DF82E30C1F8300191E74C
:1038D00000204FF040519DF82E30ADF82C0023F021
:1038E0001F03064843F010038DF82E30C1F8300155
:1038F00080E700BF98060460C8060460FFFF0F0061
:10390000002900F086802DE9F84FD1F80160424A85
:10391000D6E900531C7893F8018095F800A004EBD9
:103920000805EDB204F1010993F802C093F804E030
:10393000DF7805F1010B5FFA89F9631E82F829B07F
:1039400082F8225082F8253082F82490BAF1000FD4
:103950005AD10A3C82F8274000242F4B2246984631
:103960000EF03F0E0CF01F0C07F00F0783F82840F5
:1039700002F1140308EB43039C7801326EF3050453
:103980009C705C88112A6CF38A14C4F3072567F3D2
:10399000C6055C80DD70EBD14FF0405500221F4C16
:1039A0001F4B85F8A72084F82F9083F82F90077D70
:1039B000CFB14FF0010E0468DFF85CC0013C14F891
:1039C000013F1C2B0CF8032002F1010209DD95F8E0
:1039D000A7801D3B0EFA03F343EA0803DBB285F828
:1039E000A730BA42EBD10D4604463146FFF7CEFE72
:1039F000D5F8013020465968DA68C979074BFFF7D6
:103A0000CFF80120BDE8F88F08F1010882F827807F
:103A1000A2E70846704700BF4C00046098060460A7
:103A2000C8060460F0B400254FF040530326D0F8D8
:103A3000011001248A684D741778042083F82C71D2
:103A400057784FF4C07C83F82D71977983F82A71E9
:103A5000177A83F82B71977883F82E71D27883F8D0
:103A60002F21D1E90021177883F8257183F88E6022
:103A7000C9780F27491B18BF012183F8841083F8E8
:103A8000814083F8805083F8AE0083F8AF0055780A
:103A900093F8891085EA040666F30511022683F877
:103AA000891093F8A11065F3041183F8A11083F82D
:103AB0008D0083F8B04083F8C570A3F8C8C083F8C0
:103AC000CC60507A517983F80001907883F8050131
:103AD000D07883F80A0183F80D11117983F8101159
:103AE000117A83F8DA10D27983F8A020F0BC00F0C4
:103AF000BBBD00BF012138B54FF04053D0F80140A5
:103B0000084693F8415100F05BFB637C074903EBE7
:103B10000313EDB200EBC30001EB0541882215F061
:103B2000D9FE637C0133637438BD00BF8008016037
:103B3000D0F801305B689B794BB3F0B44FF0C047CD
:103B400084B0DFF84CC004AE002568466A463B46A8
:103B5000002153F82540883342F8044B9642214413
:103B6000F7D13C4650F8043BA1EB43035B10904275
:103B700044F8253004F18804F4D10135222DE4D134
:103B800007F508776745DFD104B0F0BC7047704790
:103B9000800800604FF04053F0B503260025D0F8B0
:103BA00001400127A268042011784FF00F0C83F820
:103BB000E010517883F8E110917883F8E210D17821
:103BC00083F8E310917983F8E610127A83F8E720FE
:103BD000626883F88E60D278521B18BF012283F886
:103BE000842083F8817083F8805083F8AE0083F8D6
:103BF000AF00226893F88910547884EA070E6EF3B8
:103C000005114FF0200E83F8891093F8A11064F38A
:103C1000041183F8A11083F88D0083F8B07083F845
:103C2000C5C083F88760A3F8C85083F8CCE0517A08
:103C300083F80011917883F80511D17883F80A117F
:103C4000117983F81011117A83F8DA10D27983F898
:103C5000A020BDE8F04000F007BD00BF4FF040538A
:103C6000F0B403264FF0000CD0F801000125826863
:103C7000017F147801EB410183F8E040547883F828
:103C8000E14097788C0083F8E270D178042783F8BC
:103C9000E310917983F8E610127A83F8E7204268FE
:103CA00083F88E60D278B2EB0C0218BF012283F841
:103CB000842083F8815083F880C0026893F88910CB
:103CC000507880EA050C6CF305114FF00F0C83F867
:103CD000891093F8A11060F3041183F8A11083F800
:103CE0008D7083F8B05083F8C5C083F88760A3F85F
:103CF000C84083F8CC50517A83F80011917883F84A
:103D00000511D17883F80A11117983F81011117A0D
:103D100083F8DA10D27983F8A020F0BC704700BF96
:103D20002DE9F04F95B006AF07F138056A4CDFF882
:103D3000B8C145F8300D07F1240607F1140894E8DE
:103D40000F0088E80F0007F1600340463146C8E9DC
:103D5000025C7B63FCF794FA94E80F005F4C86E802
:103D60000F00304607F13401C6E90254FCF788FA27
:103D7000012000F0E7FC002800F0A7800021E946C0
:103D80000A46BB6805461C7DD0F8010093F815E093
:103D9000D0F804C00368C7E9034E04FB0EFA9CF890
:103DA00002403C605C7859707C604D4C02F1140319
:103DB00004EB43035988013241F4F861112A598018
:103DC000F4D16A460AF10703DB08A2EBC3039D4660
:103DD00006AC0169524620469CF801B015F07AFD08
:103DE000BAF1000F09D0234604EB0A0113F8012BA6
:103DF00004328B4203F8012CF8D148F0010346F05D
:103E00000106CDE90063524659462346012002F0DF
:103E1000D3FED7E903214FF0000A40F222300123FC
:103E2000DFF8C8802F4E05900093CDE901AACDE9B7
:103E3000036823466420FEF789FDD7F810B0D34508
:103E400047DDD646D7E9020ABAF1000F0EDD00229F
:103E5000037DD5F801100EFB0323496914F803C054
:103E6000895C013261445245E154F1D10EF1010EF9
:103E7000DE45E9D12146FFF7D3F8D7E9032140F227
:103E80002D3C4FF0000A01202346CDE9000ACDE980
:103E9000048C6420CDE902A6FEF758FD3B6810486B
:103EA00003F01F010AF1140300EB43035A880AF1DF
:103EB000010A61F38A12BAF1110F5A80F2D1D5F8D2
:103EC00001303A791B685A70CD463C37BD46BDE893
:103ED000F08FB868CEE700BFC09A010075300000CF
:103EE00000000460C0A301007D2A0000BCA4010002
:103EF0002DE9F04FADF5177D06AF786001200C4637
:103F000000F020FC0026D0F80130D4F801201B6816
:103F100054685A78B8605E70FA6001214FF40872F4
:103F200007F1200094F801B015F0DFFCADF6880D24
:103F300006AB184631464FF4086215F0D6FCBBF1CB
:103F4000010F40F38E800124DFF83081031FC7F892
:103F50001080A1469846444D7E61DFF824A150466A
:103F6000112221460AF1300A15F0BFFCAA45F6D10C
:103F7000012240F252334FF0040A3C493E6903915A
:103F800079696420CDE901910593114607F11C037D
:103F90000496CDF800A0FC61FEF7D8FC00F0CEFC42
:103FA00000F022FC40F256337969314ACDE90191A3
:103FB0000392059322224FF0C0431021CDF800A0B8
:103FC00004967220FEF7C2FC41464FF0C043DFF872
:103FD000B4E007F12002186851F8046F04338642F8
:103FE000BCBF14700860734502F10102F3D14FF4B5
:103FF00059733A69059304921E4ACDF800900392D2
:104000007A690134CDE9012207F12003222210212F
:104010006420FEF79BFCA3459FD1D7F810807868F9
:1040200007F12001FEF7FCFF40F269340022012075
:10403000BB683E7BD3F8011007F120030D680E49E1
:104040006E70CDE9012200900391CDE90484222213
:1040500010216420FEF77AFC07F51177BD46BDE814
:10406000F08FDFF81880DAE7A7060460CCA3010020
:10407000FCCB0100C0A30100DCA30100BCA4010033
:10408000A70004608008006008B500F0ADFBBDE843
:1040900008400021084600F093B800BF012170B528
:1040A0000446084600F08CF800210546012000F087
:1040B00087F8D4F801202B1F147C011F05F184061A
:1040C00053F8042F02FB04F2B3424FEAE21241F824
:1040D000042FF5D100F1840105F5867053F8042F03
:1040E00002FB04F298424FEAE21241F8042FF5D1A4
:1040F00070BD00BF704700BF10B572B60C4A14689F
:10410000A4B90C490C4B08681160027803EBC20398
:104110005B6898470422094B1A75BFF34F8F4FF025
:104120004053012206490C721A709A7062B610BD93
:10413000D80F0020001000201404002000001050B0
:10414000902200204FF0405393F84121002082F04C
:10415000010283F8412193F8432182F0010283F8A0
:10416000432170474FF0405310B593F82430CBB142
:1041700072B60E4A14689CB90D490E4B086811605E
:10418000027803EBC2035B68984701230A4A137560
:10419000BFF34F8F4FF0405208490C721370937069
:1041A00062B610BD0BF074FEE2E700BFD80F00202E
:1041B0000010002014040020000010509022002065
:1041C00001290CD007D3022903D1074B53F8200053
:1041D000704700207047054B53F820007047044B90
:1041E00053F82000704700BF281000204010002026
:1041F000581000204FF0C04370B5584C584E594DE0
:10420000594962682360336029601AB15749201DFB
:1042100008F094F873681BB15549564808F08EF8B9
:104220006B681BB15449554808F088F84F4A4FF461
:104230008871534807F0F6FF4D4A4FF488714D4896
:1042400007F0F0FF4C4A4FF488714C4807F0EAFF42
:10425000A3681BB14B494C4808F070F8B3681BB118
:104260004A494B4808F06AF8AB681BB149494A48CB
:1042700008F064F8434A8821434807F0D3FF434AD3
:104280008821434807F0CEFF424A8821424807F080
:10429000C9FFE3681BB14149414808F04FF8F36892
:1042A0001BB14049404808F049F8EB681BB13F4951
:1042B0003F4808F043F8394A5021394807F0B2FF27
:1042C000384A5021384807F0ADFF384A5021384865
:1042D00007F0A8FF23691BB13649374808F02EF8CC
:1042E00033691BB13549364808F028F82B691BB1F2
:1042F0003449354808F022F82E4A88212E4807F024
:1043000091FF2E4A88212E4807F08CFF2D4A8821E4
:104310002D4807F087FF63691BB12C492C4808F032
:104320000DF873691BB12B492B4808F007F86B692E
:104330001BB12A492A4808F001F8244A5021244890
:1043400007F070FF234A5021234807F06BFFBDE8B8
:104350007040224A5021224807F064BF40100020DC
:1043600058100020281000200000856020A50100C2
:1043700034A501005C10002050A501002C10002085
:10438000441000206CA501004810002088A5010001
:1043900060100020A8A5010030100020C8A5010071
:1043A0004C100020E4A501006410002004A60100C8
:1043B0003410002024A601005010002040A6010067
:1043C0006810002060A601003810002080A60100BF
:1043D000541000209CA601006C100020BCA6010017
:1043E0003C1000202DE9F047114C124E124DDFF821
:1043F0004CA0DFF84C90DFF84C8004F1140754F81F
:10440000043F1BB15146204607F098FF55F8043F82
:104410001BB14946284607F091FF56F8043F1BB1EF
:104420004146304607F08AFFBC42E8D1BDE8F0873C
:10443000401000202810002058100020E0A40100A7
:10444000F0A4010008A50100004870470000846046
:104450000048704700000230F8B516461D46044675
:104460000F46FFF7E3F808B10F4B1F6031462046B7
:10447000FFF746FA08B10C4B5E60069A29462046C3
:1044800001F04AFD18B1084B069AC3E90225DDE99F
:104490000712204601F05AFD20B1034B089A1A6119
:1044A000079A5A610120F8BDE00F00202DE9F04F76
:1044B0008DB004AF0BF0F4F802240546B8609822E2
:1044C00000215F4815F011FA5E4B2A7D2968D3F868
:1044D000010000945C4B00F047FD5C4B6A7D69680D
:1044E000D3F801005A4B009400F03EFD2422002135
:1044F0005848C7F804D015F0F8F90BF0D1F8437D0F
:10450000544D1A467B612B46073202F4FC72ADEB28
:10451000020D4268067D3A61046804AAFA60A5F1BA
:1045200024011A7F093B42F00A0283F825208B42BE
:10453000F7D17B69002B77D03869F96802460139D9
:10454000184412F8013BC3F12103824201F8013FF4
:10455000F7D100F001FD814600F002FD8246002EF9
:104560006BD0A3194FF0010B984607F11806C7F856
:1045700000A014F801AB08224FEA4A01304615F0BA
:1045800085F919F90A30B96903EBC3032B44FA69B9
:10459000585C0BFA02F20243A0455A54E9D17B69F8
:1045A000D7F800A013B34FF0010B7B69FC682344DC
:1045B0007B613B6903F1FF3814F8011B18F8019F78
:1045C00049000822304615F061F91AF90930B96935
:1045D000023303EBC303FA692B44585C01320BFA34
:1045E00002F202435A547B69A342E5D1D7F804D0C2
:1045F0000FF00EF90FF056F90FF0C4F8FDF77EFE3C
:10460000FDF7B0FE1149144A144B0091B8681449E3
:10461000CDE901320B4B134AFFF71EFFFFF7EAFD0E
:104620002437BD46BDE8F08F00F096FC814600F0CF
:1046300097FC8246002ED9D093E707F11806B2E71F
:10464000000004607C030020502F0020AC030020F9
:10465000CC2A0020942B0020A0030020A8010020D9
:10466000080A00204C0A002008B50BF043FB054B5C
:104670001B78984204D01846BDE808400BF01CBBDC
:1046800008BD00BF1004002010B50BF033FB04463A
:104690000BF024FB844203D0BDE810400BF00CBBB0
:1046A00010BD00BF2DE9F04100248046104B0E469E
:1046B000202221460F481C6015F017F9A04514DD93
:1046C0002146013E0C4D0B4F06EB080C16F8014F2E
:1046D0000A4B53F8042F1078A04204BF47F821205A
:1046E0000131AB42F5D16645F0D1BDE8F08100BFA4
:1046F000D80F002000100020FC0F0020DC0F00204D
:1047000070B50E4D2C68B4B1206803780A2B12D80E
:104710000B4E56F833309847636863B12B682268B4
:10472000191D29603AB15868037806EBC30673680F
:104730009847012070BD0020286070BDD80F002070
:1047400014040020074B10B403F1200453F8042F85
:104750001178814202D0A342F8D10022104610BC49
:10476000704700BFDC0F0020044B11B143F820104C
:104770007047034A43F82020704700BFE40300203D
:10478000F540000070B5094C094E04F1200554F8BD
:10479000040F03785A1E092A02D856F82330984786
:1047A000AC42F4D1BDE87040FFF76EBFFC0F0020B3
:1047B000E403002008B50BF0AFFF002303480449D1
:1047C000044A03600B60136008BD00BF2410002082
:1047D0002010002070100020024B1868003018BF15
:1047E00001207047D80F002008B5084908200BF0B9
:1047F00065F9FFF7C7FF0BF08FFF00230448054959
:10480000054A03600B60136008BD00BF454100000E
:1048100024100020201000207010002038B572B63F
:104820000BF07AFF00200E490E4A0F4B0860106013
:10483000186062B60D4B1C6884B10D4BA3F12005C6
:1048400053F804292168914218BF5860AB42F7D150
:10485000BDE83840074908200BF030B938BD00BF2B
:10486000241000202010002070100020D80F0020FD
:104870001C10002045410000002230B5284B85B0B7
:1048800004461A72002932D168460BF0B7FC022C9C
:104890009DF800500CD1FFF7C1FF012D2BD0022D48
:1048A00004D1204B2049214A0B60136005B030BD74
:1048B000FFF7B4FF012D0CD0022DF7D11C4B002CBB
:1048C000F0D11C4A1C4911601749184A0B6013604B
:1048D000ECE70023174D1448144A15492B60036078
:1048E0001160ACB105B0BDE83040FFF73BBC0846F5
:1048F0000BF07EFCC8E700230E4C0B480B4A09491D
:1049000023600360116005B0BDE83040FFF7F4BBE1
:1049100001980BF0E1FE05B0BDE83040FFF722BC86
:1049200090220020F94000002410002020100020D8
:104930006541000070100020F906010000210120EF
:10494000FFF79ABF00210220FFF796BF0146002023
:10495000FFF792BF08B5054908200BF0AFF8FFF745
:1049600011FFBDE808400BF07FBC00BF45410000CF
:1049700008B50449082015F09FF8BDE80840FFF786
:1049800001BF00BF45410000082270B5304C314DD9
:1049900023682A60B3B118680278022A31D05A68B5
:1049A00082B1FFF7ADFE00283FD001232A4A1375DC
:1049B000BFF34F8F4FF04052002028490872137008
:1049C000937012E001260020244A23491672244ADB
:1049D000087512680AB1904723681868214B02785D
:1049E00053F8323098470023236010221E4B2A6070
:1049F000D3F8002112071CD44FF0405300225A7004
:104A000070BDD0F80120567C002EC8D1154B1B6913
:104A100098470123104A1375BFF34F8F4FF0405250
:104A20000E490E7213709370DFE701220B4B1A725E
:104A3000DBE7002208240D480D49C3F880410270CD
:104A40004FF04053C1F8402100225A7070BD00BFA2
:104A5000D80F00200C0900200000105090220020E8
:104A6000B02200201404002000E100E00B09002027
:104A700000000250F0B5012A83B0164605460C46E8
:104A80001F462DDC0146684614F000FF36B3009B3C
:104A90003F2B1D46A8BF3F25019A002B134405F06C
:104AA0003F05B8BF00253F2B1A46A8BF3F22002B69
:104AB0004FF0000102F03F03B8BF002304F11002E1
:104AC00007EB420C09B30A19103207EB4202907946
:104AD00065F3050090710131B142F3DB03B0F0BD25
:104AE000104607F069FB044106FB04F40F2C29462D
:104AF00006DD0122684614F0C9FE0126009BC7E7C7
:104B00003246684614F0C2FEC1E79CF8062063F303
:104B100005028CF80620DEE7F0B5012A83B01546C1
:104B200004460E461F462DDC0146684614F0AEFED4
:104B3000009B2DB33F2B1C46A8BF3F24019A002B9E
:104B4000134404F03F04B8BF00243F2B1A46A8BF0B
:104B50003F22002B4FF0000102F03F03B8BF0023BB
:104B600006F1100207EB420CF1B18A19103207EB83
:104B70004202907964F30500907101318D42F3D1C6
:104B800003B0F0BD104607F017FBF30744BF064122
:104B90006E4321462A46684654BF06F1FF36013669
:104BA00014F074FE009BC5E79CF8062063F3050231
:104BB0008CF80620E1E700BF70B5DCF8103086B055
:104BC000644600259847FFF70FFED4E90232012121
:104BD000042040F297260295CDE90001054D0648D4
:104BE0000596CDE903057220FDF7B0FEA06806B07A
:104BF00070BD00BFF8A6010004A7010070B5DCF885
:104C0000103086B0644600259847FFF7EDFDD4E9E3
:104C100002320121042040F2CD260295CDE90001A7
:104C2000054D06480596CDE903057220FDF78EFE79
:104C3000A06806B070BD00BFF8A6010004A701007F
:104C400030B5DCF80C3087B064469847FFF7CCFDF0
:104C500040F26340002201210425A36805900292DE
:104C60000648074ACDE90051CDE9032014227220FD
:104C7000FDF76CFEA06807B030BD00BFF8A60100CC
:104C800004A7010030B5DCF80C3087B064469847C3
:104C9000FFF7AAFD4FF49360002201210425A368C9
:104CA000059002920648074ACDE90051CDE903205C
:104CB00014227220FDF74AFEA06807B030BD00BF85
:104CC000F8A6010004A701002DE9F04F0D46CC1D08
:104CD000890087B024F007040A3121F0070106AFEC
:104CE000ADEB040D0DF11808ADEB010D9B4606AEC2
:104CF000BC6A9DB10023013800EB050E10F8011FBE
:104D00001AB112F801C008F803C01CB154F8211000
:104D100046F82310704503F10103EFD112B340F2BE
:104D20001A424FF0010A4FF00009344B0592344A01
:104D30005146CDE90332CDE9019943462A46CDF8E3
:104D400000A06420FDF702FEFB6AFA6AD3F8013086
:104D50001178D3E9002312780A299B7952441BD099
:104D6000062939D0A4B140F23A404FF0000E01219B
:104D70004FF0040C224C059022483346CDE9030441
:104D80002A46CDE9011ECDF800C06420FDF7DEFD06
:104D90000437BD46BDE8F08F009340F64A30CDE9B8
:104DA000036BCDE901584FF4D7734FF4487102F00B
:104DB00087F840F22A4C0420134A114B00900493C8
:104DC0000392CDE901995B465146CDF814C02A46BD
:104DD0006420FDF7BBFDC5E7009340F64A30CDE9FE
:104DE000036BCDE9015882234FF4487102F068F853
:104DF00040F2364C0420054ADFE700BF80A70100DF
:104E0000F8A601009CA7010088A7010094A7010053
:104E10002DE9F04F0D46CC1D890087B024F0070422
:104E20000A3121F0070106AFADEB040D0DF11808B2
:104E3000002DADEB010D9B4606AEBC6A13DD0023D1
:104E4000013800EB050E10F8011F1AB112F801C06D
:104E500008F803C01CB154F8211046F8231070451F
:104E600003F10103EFD112B340F261224FF0010AC6
:104E70004FF00009334B0592334A5146CDE90332D6
:104E8000CDE9019943462A46CDF800A06420FDF7FC
:104E90005DFDFB6AFA6AD3F801301178D3E900238B
:104EA000127809299B7952441BD0052939D0A4B125
:104EB0004FF420704FF0000E01214FF0040C224CF3
:104EC000059022483346CDE903042A46CDE9011E68
:104ED000CDF800C06420FDF739FD0437BD46BDE8BC
:104EE000F08F009340F64A30CDE9036BCDE90158CD
:104EF0004FF4D7734FF4487101F0E2FF4FF41C7C7C
:104F00000420134A104B009004930392CDE90199B9
:104F10005B465146CDF814C02A466420FDF716FDC5
:104F2000C5E7009340F64A30CDE9036BCDE901585F
:104F300082234FF4487101F0C3FF4FF41F7C04201B
:104F4000044ADFE758A70100F8A6010074A7010092
:104F500060A701006CA7010000487047502F002097
:104F600000487047CC2A00202DE9F04F87B04068F8
:104F700006AFD7F828904578D01D20F0070009FB30
:104F800005F5ADEB000D0DF1180A0E465046002157
:104F900090461C4614F0A9FCA94541DB4FF0000BDC
:104FA00008F1FF3922224FF0FF31204614F09DFC1A
:104FB00033784FFA8BF0B8F1010FE0542DDD4FF04C
:104FC000000E6FEA060C711C11F8012BA356B3F109
:104FD000FF3F05D1431CAB42ACBF00235BB2A354DF
:104FE00098421AD092FBF5F005FB1020012814BF5F
:104FF00001204FF0FF30204482569A420DD00CEB36
:1050000001029145A1EB060200F09580904501DD7B
:105010001846D9E7BEF1000F4CD1BBF1000F46D0C6
:10502000C623DFF82CB1009300225B46454964207B
:10503000FDF7DEFCB8F1000F6CDD013EB14606EB7A
:10504000080119F8013F93FBF5F205FB12324945BF
:10505000E254F6D10121CC2000223B4BCDE904B033
:10506000CDE9011203930091234642466420FDF7E7
:105070006DFC0AF1FF3316F8012FA256B14503F873
:10508000012FF8D101210024D0253048CDF810B0EF
:1050900003905346642042460595CDE901140091E2
:1050A000FDF754FC20460437BD46BDE8F08F4FF0B5
:1050B000010B77E70121BC200022234BDFF890B0E1
:1050C000CDE9011205900091CDE9033B424623460C
:1050D0006420013EFDF73AFC06EB08010AF1FF33BC
:1050E00016F8012FA256B14203F8012FF8D101247E
:1050F0000021C0251548CDE901410390CDF810B03D
:10510000642053464246059500942146FDF71EFC57
:105110002046C8E70121CC2500200B4ACDE901102B
:105120000392CDF810B023460595009142466420C5
:10513000FDF70CFCA6E79045BCDD4FF0010E1846CC
:1051400042E700BF20A7010044A7010010A701000B
:10515000F8A601002DE9F047D2F8017006467A68FA
:105160000D4652789846012A19D9002815DD0024E9
:105170004FF04C094D1E01E07B685A78510094FBBA
:10518000F1F301FB134315F8010F611009FB0383D1
:105190000134FFF76FFCA642EED1BDE8F08700288E
:1051A000FBDD00244FF04C0ADFF8249019F904309D
:1051B0006110002B06DB7A680AFB03835278285DB6
:1051C000FFF758FC0134A642F0D1BDE8F08700BFDC
:1051D000502F002070B5644686B0DCF804200B4BDD
:1051E000FFF7B8FF4FF42876012100202368E2681A
:1051F000074D084CCDE9010005960091CDE9034526
:105200007220FDF7A3FB06B070BD00BF90070460DD
:10521000F8A60100ECA6010070B5644686B0DCF883
:1052200004200B4BFFF796FF40F2D6260121002009
:105230002368E268074D084CCDE90100059600910E
:10524000CDE903457220FDF781FB06B070BD00BFBC
:10525000C0080460F8A60100ECA601002DE9F047A3
:10526000D2F801601F4672685278012A1ED90028C0
:105270001ADD4D1E21244FF04C0805EB000901E01A
:1052800073685A78510094FBF1F301FB134315F84E
:10529000010F04EBD47108FB03734910FFF73CFCCA
:1052A000A94504F1FF34EBD1BDE8F0870028FBDD10
:1052B0000D464FF04C0A0D4C01EB000904F1220899
:1052C00014F9013BA8EB040101EBD171002B4FEA6B
:1052D000610106DB72680AFB037352782878FFF7D6
:1052E0001BFC01354D45EBD1BDE8F087CC2A0020F1
:1052F00030B5644687B0DCF804200B4BFFF7AEFFF7
:1053000040F26C450121002223680848084CCDE991
:105310000122CDE903040595009114227220FDF7C6
:1053200015FB07B030BD00BFF8060460ECA6010015
:10533000F8A6010030B5644687B0DCF804200B4BBA
:10534000FFF78CFF40F2A2450121002223680848A4
:10535000084CCDE90122CDE9030405950091142202
:105360007220FDF7F3FA07B030BD00BF28080460D3
:10537000ECA60100F8A60100F0B403268C68012514
:1053800027784FF0060C80F8E8706778002B80F8DB
:10539000E970A778B8BF033380F8EA70E778C3F301
:1053A0008F0380F8EB70A779D2B280F8EE70247A80
:1053B000072780F8EF4080F88E60002690F889403B
:1053C000096844F0300480F8894090F8A1406FF3F8
:1053D000041480F8A1400C7880F8A94080F8985017
:1053E00090F88B406FF3000480F88B4080F88D704C
:1053F00080F8B05080F8C56080F8815080F8805007
:1054000080F8AEC080F8AF7080F884604C7A80F885
:105410009F408C7A80F89E4080F89C60A0F8CA304B
:1054200080F8CD204B7BF0BC80F800318B7880F881
:105430000531CB7880F80A310B7980F810310B7B7D
:1054400080F8DA3090F8A330CA7962F3061380F856
:10545000A33090F8A3300A7A62F3020380F8A330F5
:10546000CB7A80F8A0307047D0F8011008B54A68B0
:105470004FF4F26352784FF040505200FFF77CFF38
:10548000BDE80840FFF700B9D0F8011008B54A6838
:105490004FF40C6352784FF040505200FFF76CFF0E
:1054A000BDE80840FFF7F0B849F640430144114415
:1054B0000331490093FBF1F140F2E91070B501228C
:1054C0000026042588B008AB43F8041D064C05905F
:1054D0000648CDE90126CDE9030411460095642074
:1054E000FDF734FA08B070BDF8A60100DCA6010093
:1054F0002DE9F04F98464C230D4603FB08F1CB1DD8
:1055000083B023F0070300AFADEB030D79600646CF
:10551000144668460A468946002114F0E6F9B8F1B7
:10552000000F69465FFA85FC57DD6B465C250DEB85
:1055300009005A781D7002F0EC0242F002025A7023
:105540004C338342F5D1636893F80190BCF1000FAE
:1055500029D000244FF04C0B0123DFF88CA0013E32
:1055600005E0426901342A436445426118DA16F8BD
:10557000012F1AF902001F2A03FA02F50BFB001093
:10558000EFDD057E203AAE4603FA02F2C5F30105CF
:105590001543013465F3010E644580F818E0E6DB3D
:1055A000B8F1000F10DD00234C255524B9F1020F8E
:1055B00007D105FB0312D07C547420F001009474D1
:1055C000D07401339845F1DC7A68386B14F082F9B5
:1055D000386B0C37BD46BDE8F08FBCF1000FF3D03F
:1055E000636893F80190B4E7502F00202DE9F04F45
:1055F00085B01546D0F801800A7DD8F8044002AF86
:105600006678086803FB06F603EBC30A11463346C7
:1056100000954246FFF76CFF0AF10703D8F80440F3
:1056200023F00703C7F804D0ADEB030D94F805B0E1
:105630000DF10809484652460021647814F055F9E6
:10564000BBF1020F00F0CC80BBF1040F00F0B18081
:10565000BBF1010F00F0838052460021484614F050
:1056600044F9002E40F3DD802C464FF0000C4A46F2
:105670000023E11812F8010B0133092B0872F8D14D
:105680000CF1010C664509F1090904F14C04EEDC4A
:105690004FF0000E2846F146D8F80480D7F804D021
:1056A00098F8064004F01F0404F0030C4FEA8C1C29
:1056B000A408002101F1100300EB430393F806A0B6
:1056C000DA790AF03F0A22F0070201314AEA0C0AAD
:1056D0002243112983F806A0DA71EBD190F84A3001
:1056E0000EF1010E23F01F03764580F8489080F8F4
:1056F000499080F84A3000F14C00DADC002398F839
:10570000049098F803A098F802B0504649465A46CB
:105710009846012409EB0A0E0BEB090CAEF10A0EB8
:105720000CF1010C5FFA8EFE5FFA8CFC01339E4295
:1057300085F802A02C7185F803C085F8059085F8DE
:1057400006B085F807E085F81980AC7605F14C05C0
:10575000ECDCFFF7A9FE0C37BD46BDE8F08F002E4C
:105760005FDDCB464FF0000EDFF8E0A05946DFF8D2
:10577000D4C00023022C03D0012C03D1012B01DC67
:105780009E4506D003EBC30208781CF802200243B2
:105790000A700133042BEDD10CF1010CE24501F14B
:1057A0000101E6D10EF1010E76450BF1090BDDD1B9
:1057B0005AE7002E35DDCC4606EBC60E1F4CCE4414
:1057C00061461F4B13F8012F587AA34242EA0002A8
:1057D00001F8012BF6D10CF1090CF445F0D143E7A7
:1057E000002E1EDD4C46174806EBC60C90F801E073
:1057F000837ACC444EEA030E08300EF0F50E2146B3
:10580000114B13F8012F93F809A0834242EA0A02D0
:1058100001F8012BF5D184F801E009346445EED19B
:1058200022E7D8F80430D7F804D0D87819799A78D4
:10583000FFF73AFE0C37BD46BDE8F08FAE2B0020D7
:10584000A52B0020942B0020932B00209D2B0020C3
:105850002DE9F04792B0DFF8F0C002AFDFF8ECA01E
:1058600007F12C0407F11C0907F1080605468846D4
:10587000BA619AE80F0089E80F00214607F160033A
:10588000C9E9026C4846FB63FAF7FAFC9AE80F0094
:10589000DFF8BCC084E80F00C4E9026C204607F1C1
:1058A0003C01FAF7EDFC0520FEF74CFF0346002112
:1058B0000220D3F80160FB60FEF782FC0523AA7E7C
:1058C00007F1400101F83C3DD31D03F4FC73ADEB3F
:1058D000030D02AB386101207A61BB60FEF7E2FE86
:1058E000BB699847FEF780FF736844F0010458785D
:1058F000800106F061FCB26849F001065189BB687D
:10590000CDE900467A6901F013FA796928688B00BD
:105910000A3323F00703ADEB030D02ADD7E90343D0
:10592000BA68CDE900342B46FFF772FAB8F1000FE0
:1059300005D07A6929464046920013F0CBFF4037E4
:10594000BD46BDE8F08700BFB94B0000D09A01000A
:10595000D55100002DE9F04792B0DFF8F0C002AF5A
:10596000DFF8ECA007F12C0407F11C0907F1080689
:1059700005468846BA619AE80F0089E80F0021467B
:1059800007F16003C9E9026C4846FB63FAF778FC4B
:105990009AE80F00DFF8BCC084E80F00C4E9026C8D
:1059A000204607F13C01FAF76BFC0920FEF7CAFE1E
:1059B000034600210420D3F80160FB60FEF700FCE1
:1059C0000923AA7E07F1400101F83C3DD31D03F4F1
:1059D000FC73ADEB030D02AB386101207A61BB6053
:1059E000FEF760FEBB699847FEF7FEFE736844F061
:1059F00001045878800106F0DFFBB26849F0010627
:105A00005189BB68CDE900467A6901F091F979695D
:105A100028688B000A3323F00703ADEB030D02ADBA
:105A2000D7E90343BA68CDE900342B46FFF7F0F914
:105A3000B8F1000F05D07A6929464046920013F06C
:105A400049FF4037BD46BDE8F08700BFFD4B000071
:105A5000D09A010019520000F8B59B0003F10A0426
:105A600024F0070400AF002AADEB040DEC460CDD7A
:105A7000BC69ACF10405013C224414F8016F51F8F3
:105A80002660944245F8046FF7D11A46614613F038
:105A900021FFBD46F8BD00BF70B582B009F000FE21
:105AA000012104460220FEF78BFB0021064602205E
:105AB000FEF786FB0546A27E3146920013F00AFFF0
:105AC0002168A37E227D284600912946FFF7C4FF66
:105AD00002B070BD38B509F0E3FD01210546022092
