:1000000000560020496B0000996A0000A96A0000B0
:10001000C16A0000D96A0000F16A00000000000017
:10002000000000000000000000000000096B00005C
:10003000196B000000000000296B0000396B000004
:10004000816A00000000000000000000A51101000E
:10005000D510010051110100000000000000000057
:10006000594900009DF500007DF50000ED110100EB
:100070000000000000000000000000000D12010060
:100080002DE9F843054688464FF0A0441C4EDFF8A2
:1000900078901C4F237E002BFCD1A37E2BB94FF010
:1000A00001022274A37E002BFBD072B6735DF3B9FC
:1000B00000F02EF8C0B90122D9F8103043F0040343
:1000C000C9F8103087F83220BFF34F8F00BF30BF20
:1000D00087F83200D9F8103023F00403C9F8103043
:1000E000BFF34F8F62B6D5E700BF30BFFAE70023FA
:1000F0007355B8F1000F00D0C04762B6BDE8F88371
:10010000A82800200000105000ED00E000000000D2
:100110005FF800F0A1480000FFFFFFFFFFFFFFFFB7
:10012000FFFFFFFFFFFFFFFFFFFFFFFFFFFFFFFFDF
:10013000FFFFFFFFFFFFFFFFFFFFFFFFFFFFFFFFCF
:10014000FFFFFFFFFFFFFFFFFFFFFFFFFFFFFFFFBF
:10015000FFFFFFFFFFFFFFFFFFFFFFFFFFFFFFFFAF
:10016000FFFFFFFFFFFFFFFFFFFFFFFFFFFFFFFF9F
:10017000FFFFFFFFFFFFFFFFFFFFFFFFFFFFFFFF8F
:10018000FFFFFFFFFFFFFFFFFFFFFFFFFFFFFFFF7F
:10019000FFFFFFFFFFFFFFFFFFFFFFFFFFFFFFFF6F
:1001A000FFFFFFFFFFFFFFFFFFFFFFFFFFFFFFFF5F
:1001B000FFFFFFFFFFFFFFFFFFFFFFFFFFFFFFFF4F
:1001C000FFFFFFFFFFFFFFFFFFFFFFFFFFFFFFFF3F
:1001D000FFFFFFFFFFFFFFFFFFFFFFFFFFFFFFFF2F
:1001E000FFFFFFFFFFFFFFFFFFFFFFFFFFFFFFFF1F
:1001F000FFFFFFFFFFFFFFFFFFFFFFFFFFFFFFFF0F
:10020000FFFFFFFFFFFFFFFFFFFFFFFFFFFFFFFFFE
:10021000FFFFFFFFFFFFFFFFFFFFFFFFFFFFFFFFEE
:10022000FFFFFFFFFFFFFFFFFFFFFFFFFFFFFFFFDE
:10023000FFFFFFFFFFFFFFFFFFFFFFFFFFFFFFFFCE
:10024000FFFFFFFFFFFFFFFFFFFFFFFFFFFFFFFFBE
:10025000FFFFFFFFFFFFFFFFFFFFFFFFFFFFFFFFAE
:10026000FFFFFFFFFFFFFFFFFFFFFFFFFFFFFFFF9E
:10027000FFFFFFFFFFFFFFFFFFFFFFFFFFFFFFFF8E
:10028000704700BF034613F8012B002AFBD1181A50
:1002900001387047004870472CE501003220704754
:1002A0000920704708B506F057FB08BD08B506F0F1
:1002B000E3FB43690148984708BD00BF2CE50100F6
:1002C00010B50C4611461A46012807D010B1022875
:1002D0000BD010BDE0B200F047F8FAE7BDF80830E7
:1002E000C9B2E0B200F082F8F3E7E0B200F040F902
:1002F000EFE700BF054B00229A80DA805A819A818D
:10030000B42119811A765A769A767047B42900205A
:10031000014B1878704700BFB429002010B4044680
:10032000034B0FCB84E80F00204610BC704700BF82
:10033000B82900200346054901F1140248691860F4
:10034000098B927999809A7118467047B4290020D8
:10035000044B187E012803D0987E003018BF01207E
:10036000704700BFB429002010B504461D4B1B7810
:1003700013F0030F02D010F00C0F15D114F0030F7F
:100380001CD113F0080F02D014F0040F22D113F087
:10039000040F15D014F0080F12D0124B00229A80CF
:1003A000DA80B4221A810BE006F0D6FA02690D4B0E
:1003B0001A61FFF79FFF00F013F901E0FFF79AFFC2
:1003C000084B1C70084C204600F08AFE204600F0C6
:1003D00037FB10BD034B00229A80DA80B4221A81C9
:1003E000EEE700BFB429002034E5010010B5044653
:1003F00000F09EFF042C00D010BDFFF789FF10F025
:100400000C0F05D000F0A5FF4368984700F0F2F804
:10041000534C204600F0B2FE204600F0B7FB514B93
:100420001A78042A30D0082A43D04E4B5B89B3F5A2
:10043000616F05D34B4B0021598199890131998115
:10044000484B99894EF6602399424AD0454BD9884A
:100450004EF66023994248D0424B99884EF660236D
:10046000994246D012F0080F47D13E4B1B8BB3F593
:10047000807F70D03B4B9B7E13B1013B394A937612
:10048000384B1A7E5A76B7E73649CB8801339BB290
:10049000CB803549A1FB0301490901EB8101A3EBA5
:1004A000C1039BB2002BC0D12E494B8901334B8134
:1004B000BBE72C490B89013B0B818B8801339BB235
:1004C0008B802A49A1FB03014909C1EB0111A3EB70
:1004D00081039BB2002BA8D122494B8901334B8168
:1004E000A3E7204B00219981B0E71E4B0021D98062
:1004F000B2E71C4B00219980B4E700F02AFF436863
:1005000098470368984760B9164B1B7813F0080F9B
:10051000ABD0134800F06CFE78B1124BB4221A81B4
:10052000A3E700F016FF4368984700F0B2FD0128EA
:10053000EAD10C4BB4221A81E6E70A4B1B7813F080
:10054000080F92D0074B1B89002B8ED106F094FA2E
:100550000368984789E7034B06229A7690E700BF25
:1005600034E50100B4290020CDCCCCCC8988888822
:1005700010B5072819D8DFE800F019041D2018234A
:10058000262C06F0E9F9044606F076FAC3684FF423
:100590008062002120469847FFF7ACFE0E4800F02D
:1005A0009FFD04F1F00000F038FA10BD0A4800F099
:1005B000BBFDFAE7094B1975F7E7084B5975F4E7E6
:1005C000064B9975F1E7054BD975034800F088FD96
:1005D000EBE7024B1976E8E734E50100B429002087
:1005E00008B580220021024819F03DFE08BD00BF79
:1005F000D02900202DE9F04F85B082460022924993
:1006000011F832306FF3C71301F8323001EBC20337
:1006100058786FF3C710587098786FF3C7109870B8
:10062000D8786FF3C710D87018796FF3C7101871A6
:1006300058796FF3C710587198796FF3C710987194
:10064000D8796FF3C710D8710132102AD8D1DAF8EF
:100650000030984703900023029345E04FF00108D3
:100660004FF0140CB5423AD801974FF04C0933467D
:10067000464698462BE04FF001084FF0140CF1E786
:10068000425C42F08002425402F07F0202EB0C0B0B
:10069000BBF14C0F0FDD425C69F30602425401339B
:1006A0009BB29C420FD319461EF80320D209E7D013
:1006B000002EF4D0E4E7624410F801B062F3060BB8
:1006C00000F801B0EBE70135ADB2A84507D3A7426A
:1006D000F9D8019B5C4A02EBC50E7046E3E7029B2A
:1006E000013302930A2B66D09DF80880DAF828308F
:1006F00040469847012805D0DAF828304046984708
:100700000228ECD1DAF80C30404698478146DAF8F6
:10071000103040469847834603014C4A82FB03262B
:10072000F218DE17C6EBE2264FEAC903484A82FBFD
:1007300003271F44DB17C3EBA727DAF8183040461E
:100740009847DAF8083040469847002814BF10242C
:100750000424B6B2351B25EAE575ADB226440F2E4A
:10076000A8BF0F26B6B2BBB21F1B27EAE777BFB2FE
:100770001C44072CA8BF0724A4B2DAF8083040466E
:100780009847A9F143091FFA89F940F2B233994514
:100790003FF664AFBBF16E0F7FF66DAF002814BF5C
:1007A0004FF0140C4FF0010C002814BF4FF001085B
:1007B0004FF0000856E70026234F1FE0043AE55C9F
:1007C00062F30605E55404E0013AE55C62F30605D0
:1007D000E5540133082B0ED0C25CD209F9D1C25CBA
:1007E00002F07F02122AEFD8032AE7D8E25C6FF307
:1007F0000602E254EDE70136102E04D0002307EB89
:10080000C6000446E8E7039B1BB1002421460E4DB9
:1008100005E0FFF7E5FEF8E70134102C0DD00023CA
:1008200005EBC400C25C02F07F02092A84BF0131DB
:1008300089B20133082BF5D1EEE7034BA3F8801002
:1008400005B0BDE8F08F00BFD0290020E1000EE028
:1008500049D6B9F22DE9F04F83B00646019114460E
:100860000368984770B13E4A92F88230013382F8AB
:100870008230A146002C5ED00027B8469346DFF8B0
:10088000E8A037E0FFF7ACFE4FF00008019B83F8CB
:10089000008055E0F3682046984740B3336920460E
:1008A000984720B3F36820469847054633692046A9
:1008B000984700018AFB00230344C017C0EBE320E4
:1008C00080B2ED00274B83FB05232B44ED17C5EBCE
:1008D000A325ADB20BEBC000435D03F07F03122BE9
:1008E00005D808F101085FFA88F8019B1C700137F0
:1008F0004F4510D0FCB2B36A204698470128C9D0B2
:10090000B36A204698470228C4D0B36A2046984765
:100910000328ECD1BEE7B8F1000F0CD0104BB3F8B0
:100920008030402B10D8B8F1010F09D012D9002324
:10093000019A137004E04FF00008019B83F80080D7
:10094000404603B0BDE8F08F4FF00008019B83F8EC
:100950000080F5E74FF00008019B83F80080EFE787
:10096000D029002049D6B9F2E1000EE0431E9BB227
:100970004FF6FD7293421CD84B1E9BB293421AD87D
:1009800009010E4B83FB01231944C1F3CF21C000A1
:100990000B4B83FB00231844C0F38F20094B03EB60
:1009A000C101085C00F07F0013288CBF00200120EB
:1009B0007047012070470120704700BFE1000EE042
:1009C00049D6B9F2D0290020F8B506460F4C256863
:1009D000238903EB83035B00F4336B8006F04CF850
:1009E0000435238903EB830307690A22314605EBAB
:1009F0004300B847238901339BB223812268527890
:100A00009A4201D800222281F8BD00BF542A00205A
:100A1000704708B5FFF7D8FF08BD10B5044606F0CB
:100A20002BF8C3684FF44472002120469847034BCB
:100A30001C60462363700A23237010BD542A0020D3
:100A400030B5A5B00446436898474F4B1B7913F067
:100A5000030F09D0A368984710F0080F21D1A368AD
:100A6000984710F0040F1CD1474B1B7913F00C0F63
:100A700009D0A368984710F0020F41D1A3689847A6
:100A800010F0010F3CD1A36898473F4D2871E368EF
:100A900004A89847BDF81830EB8000236B8125B07F
:100AA00030BD002501950295ADF80C5005F0E4FF2E
:100AB000C3680A22294601A898479DF804300222FB
:100AC00062F302038DF80430E36810A89847BDF87C
:100AD0000430BDF8462062F30F13ADF80430E3682C
:100AE0000CA89847BDF83E30ADF80630E36808A87A
:100AF00098470B9BADF8083001A8FFF765FFB3E7F7
:100B0000002501950295ADF80C5005F0B5FFC368BE
:100B10000A22294601A898479DF80430032262F36F
:100B200002038DF8043063689847BDF804300288EA
:100B300062F30B13ADF80430134A52891209C3F360
:100B4000072362F307138DF80530E36820A8984760
:100B5000BDF88230ADF80630E3681CA89847BDF8B0
:100B60007030ADF80830E36818A89847BDF86E30CB
:100B7000ADF80A30E36814A89847179BADF80C301D
:100B800001A8FFF721FF7EE7542A00202DE9F04F4E
:100B9000A9B0044643689847A368984710F0080F27
:100BA00004D1A368984710F0040F39D02368984700
:100BB00043689847054600F06CFA80B1236898476F
:100BC000436898478146002704970597ADF8187049
:100BD00002460A2104A800F048FAB846EEE028468A
:100BE00000F05BFA0028E9D163689847B0F86030FC
:100BF000002B40F07381B84BDD880135E36818A8FD
:100C00009847BDF868309D4200F0D781E3680EA890
:100C10009847B14BBDF84020DA805A8901325A8199
:100C200029B0BDE8F08FF368284698473369284615
:100C300098472368984743689847834600F035FAF9
:100C4000B0F1000AC0F2448163689847C388ADF8E8
:100C50000830636898470389ADF80A30636898479D
:100C60004388BDF808201344ADF80C3063689847FA
:100C70008388BDF80A201344ADF80E305FFA8AFA73
:100C8000DBF80C30504698470190DBF810305046A6
:100C9000984702AA0146019800F0C0F9002840F0E8
:100CA00019814FF4C973ADF8083040F66A03ADF806
:100CB0000A3040F2A623ADF80C3040F62413ADF80C
:100CC0000E30DBF80C30504698470190DBF81030BE
:100CD0005046984702AA0146019800F09FF900305B
:100CE00018BF01209DF8223060F345138DF82230A3
:100CF0006368984790F86330C3F302039DF824209B
:100D000063F302028DF824206368984790F866A088
:100D10000AF0FD0A6369984701280ED14AF0020AD9
:100D20006368984790F86830FF2B06D0636898474F
:100D300090F86830013380F868306368984780F82D
:100D400066A063689847BDF8243090F8662062F387
:100D5000C803ADF82430B368284698479DF825307D
:100D600060F382038DF82530B369284698471F2821
:100D700028BF1F20BDF8223060F38A13ADF822305F
:100D8000F369284698471F2828BF1F209DF8233065
:100D900060F3C7038DF82330336A28469847C0F3C1
:100DA0008F001F2828BF1F209DF8253060F3C70340
:100DB0008DF8253007A8FFF707FE0137D9F8003076
:100DC0009847FBB28342BFF40FAFFBB228AA13448B
:100DD00013F8905CCDF81C80CDF82080ADF824800D
:100DE000D9F8283028469847012805D0D9F8283066
:100DF000284698470328E0D12368984743689847D6
:100E00000646E3680AA89847BDF82CA005F034FE12
:100E1000C3680A22414607A898479DF81C306FF323
:100E200002038DF81C30B36A28469847012814BF86
:100E3000002001209DF81C3060F3C3038DF81C30A6
:100E4000BDF81C30BDF82E2062F30F13ADF81C3036
:100E50004FEA1A129DF81E3062F303038DF81E301C
:100E60009DF820306AF303038DF82030F36828469C
:100E70009847BDF81E3060F30F13ADF81E3033698C
:100E800028469847BDF8203060F30F13ADF82030A6
:100E9000236912A898479DF822309DF8482062F3F4
:100EA00001038DF82230736A284698479DF8223056
:100EB00060F383038DF8223003F00C030C2B7FF4D6
:100EC000B2AE9DF8223043F00C038DF82230AAE632
:100ED000404607E7012005E7542A002000230A9333
:100EE0000B93ADF83030236898474368984706461F
:100EF00000F0DBF8051E4FDB05F0BEFDC3680A22DB
:100F000000210AA898479DF82830012262F30203C5
:100F10008DF82830E36814A89847BDF82830BDF84C
:100F2000562062F30F13ADF828306368984790F8A5
:100F3000603013F0020F3AD16368984790F8603040
:100F400013F0040F35D16368984790F8603013F0C0
:100F5000080F30D16368984790F8603013F0100F95
:100F600014BF062200229DF82A3062F303038DF895
:100F70002A30EDB2F36828469847BDF82A3060F36E
:100F80000F13ADF82A30336928469847BDF82C3046
:100F900060F30F13ADF82C300AA8FFF715FD636856
:100FA00098470023A0F860301B4A538123E60122B2
:100FB000D9E70422D7E70522D5E700250A950B9546
:100FC000ADF8305005F058FDC3680A2229460AA83A
:100FD00098479DF82830042262F302038DF82830E8
:100FE000E36824A89847BDF82830BDF8962062F33E
:100FF0000F13ADF82830E36820A89847BDF88E306D
:10100000ADF82A30E3681CA898471F9BADF82C3038
:101010000AA8FFF7D9FCF9E5542A0020134672B15B
:10102000128882420DD89A8882420CD3DA888A428A
:101030000BD3588888428CBF0020012070470020C5
:10104000704700207047002070470020704710B59F
:101050000446084611460023224600F0BBF9002151
:10106000204600F0E4F9C0B210BD08B5002300F03E
:10107000B1F908BD08B500F0ADF908BD08B500210B
:1010800000F0D5F9C0B208BD08B500F0D0F9C0B283
:1010900008BD08B500F076F908BD08B500F086F97E
:1010A00008BD08B500F05AF908BD08B500F0E6F92A
:1010B00008BD000010B5436898470488003418BF85
:1010C000012405F0D9FC83682246032102209847B9
:1010D00005F0D2FC8368224603210420984710BD06
:1010E000F8B507460F4B1B68BBB1002425460D4ED3
:1010F00056F8253053B156F82530984703682BB180
:1011000056F8253098470368384698470134E4B2CA
:10111000254656F82430002BEAD13846FFF7CAFF9F
:10112000F8BD00BF1C120020F8B50746124B1B6823
:10113000F3B100242546104E56F825308BB156F8F1
:101140002530984743683846984750B156F82530BF
:101150009847C3682BB156F825309847C36838467E
:1011600098470134E4B2254656F82430002BE3D1E9
:101170003846FFF79FFFF8BD1C1200202DE9F04113
:1011800007461A4B1B68002B2DD000242646174D0E
:1011900005E00134E4B2264655F824301BB355F877
:1011A0002630002BF5D055F826309847436838464E
:1011B00098470028EDD055F82630984790F81480CD
:1011C000BB68984718EA000FE3D055F826309847D7
:1011D0008368002BDDD055F8263098478368384661
:1011E00098470028D5D0BDE8F08100BF1C12002030
:1011F0002DE9F04107461C4B1B68002B32D0002420
:101200002646194D05E00134E4B2264655F824304F
:101210002BB355F82630002BF5D055F826309847DB
:101220004368384698470028EDD055F8263098474F
:1012300090F81480BB68984718EA000FE3D055F87F
:10124000263098470369002BDDD055F826309847A3
:101250000369384698470028D5D0012000E00020D7
:10126000BDE8F0810020FBE71C12002008B54368B0
:1012700098470078C0F3400008BD704730B587B08C
:101280000446036898474368984702461F4903A8E5
:1012900000F0DFFE9DF8153013F0020F2ED0BDF8E0
:1012A0000C30CD3B9BB240F29D22934229D8BDF831
:1012B0000E2040F67B039A4225D99DF81430043B5A
:1012C000DBB2382B01D9002019E0002301930293EF
:1012D0004FF00203012565F387138DF8043005F004
:1012E000CBFB436801A898476368984790F8603043
:1012F00043F0020380F86030284600E0002007B089
:1013000030BD0020FBE70020F9E700BF602A002085
:1013100008B54FF49F7354224021024800F084FE28
:1013200008BD00BF602A0020004870474CE501005E
:1013300010B51446012802D0022805D010BD1A4667
:10134000204601F043F8F9E71946104601F00CF881
:10135000F4E70148704700BF64E5010038B5054671
:101360000368984748B10024AB68E0B29847034649
:1013700030B901340A2CF7D100E00023184638BDFB
:101380000123FBE738B505460368984750B10024B0
:10139000AB6AE0B29847012806D001340A2CF7D195
:1013A000002000E0002038BD0120FCE738B50546EC
:1013B0000368984750B10024AB6AE0B2984703280D
:1013C00006D001340A2CF7D1002000E0002038BDFF
:1013D0000120FCE72DE9F84F8246894616469846DB
:1013E00000252F4609E07B1CDBB20AF807404B457D
:1013F0001BD01F4601350A2D17D0ECB2B36A204628
:1014000098470028F6D0F36820469847834633690A
:1014100020469847B8F1000FE5D0424601465846AD
:10142000FFF7FCFD0028DED1E4E7BDE8F88F2DE9E9
:10143000F843074688460024264604E00136F6B203
:1014400001340A2C17D0E5B2BB6A28469847002819
:10145000F6D0FB682846984781463B69284698475E
:10146000B8F1000FEAD0424601464846FFF7D6FDE4
:101470000028E3D1E4E770B2BDE8F88338B505464B
:101480000368984760B10024AB6AE0B2984728B976
:1014900001340A2CF8D14FF0FF3038BD60B2FCE7C0
:1014A0004FF0FF30F9E7000008B54368984700782F
:1014B000C0F3C00008BD064B43221A80BE225A80EA
:1014C00040F2F5329A8040F6B502DA80704700BFEC
:1014D0007C2A0020F0B585B0044643699847244D26
:1014E000A8762368984743689847024605F10801A3
:1014F00002A800F06EFC9DF80830022B03D00025F6
:10150000284605B0F0BDBDF80A70BDF80C602A464B
:1015100031463846FFF782FD05460028F0D000230B
:10152000009301934FF00203042262F38503012527
:1015300065F387138DF8003047FA02F38DF8023017
:1015400046FA02F38DF8033006F00F0646EA071656
:101550008DF8046005F090FA436868469847636820
:10156000984790F8603043F0080380F86030C7E790
:101570007C2A002010B584B00D4C462303936423CD
:1015800002931E230193032200921223012104F1EE
:10159000080000F0F7FB43232380BE23638040F262
:1015A000F533A38040F6B503E38004B010BD00BF5F
:1015B0007C2A0020004870476CE5010008B54368AC
:1015C0009847037813F0240F14BF0120002008BDB2
:1015D00038B543689847C58804894188294482887A
:1015E0002244034B5D809C80D9801A8138BD00BFA6
:1015F000B42A00202DE9F04784B08046436898471C
:101600000378C3F38009C3F34017D8F81430984720
:101610003F4D85F82600D8F8003098474368984732
:10162000024605F1140102A800F0D3FB9DF808A0C2
:10163000BDF80A60BDF80C40AA1C21463046FFF7F1
:10164000EDFC30BB05F10A0221463046FFF7E6FC0F
:10165000034600285AD1184604B0BDE8F0872C4B49
:101660001A700023F7E71FB3294B1B78012B1FD0FB
:101670000023F0E7D8F80430984790F8603043F042
:10168000040380F860300123E5E70023E3E700234B
:10169000E1E70022BAF1010FE1D0BAF1020FF4D173
:1016A000B9F1000FDFD01FB9194B1B78002BEED119
:1016B000002301934FF00203012262F3850362F3DA
:1016C00087138DF80030124D2B788DF801303311CF
:1016D0008DF8023023118DF8033004F00F0444EA32
:1016E00006168DF8046005F0C7F943686846984708
:1016F0002B78002BBED0D8F80430984790F8603093
:1017000043F0200380F860300123A4E70122C1E701
:10171000B42A002030B587B00546036904A898476D
:101720009DF81330FBB9264C462303935D230293A7
:10173000242301930523009312230222114604F16E
:10174000140000F01FFB6B689847C5880189428828
:101750002A4483880B446580A180E28023816F2125
:1017600040F6F4021FE0164C0A2303935D23029314
:10177000242301930723009312230322022104F15F
:10178000140000F0FFFA6B689847C5880189428809
:101790002A4483880B446580A180E280238140F243
:1017A0002C4140F66602064B43205881998140F255
:1017B000F531D9811A8200221A7007B030BD00BFFE
:1017C000B42A00200048704784E5010070B5064641
:1017D00000242546736898472044457601341B2C25
:1017E000F8D170BDF8B50368984743689847054637
:1017F0000C4CC368A07A984706462B69A07A984794
:101800000746AB6AA07A9847022801D00020F8BDAD
:1018100004F1140239463046FFF700FC003018BFCF
:101820000120F4E7F82A002038B5044643689847B9
:10183000037D012B0CBF01210321244800F0D3FCC0
:1018400063689847B0F84B4040F2A713002C18BFCC
:1018500023461E4A9382B0F84D1040F29A73002935
:1018600018BF0B46D382B0F84F2040F29223002AD3
:1018700018BF1346154D2B83B0F8513040F6850044
:10188000002B18BF184668839CB14F3CA4B20F4888
:10189000848389B14F3989B20C48C1837AB14F3200
:1018A00092B20A490A846BB14F339BB2074A538400
:1018B00038BD4FF4AC74EAE740F24B71ECE740F20C
:1018C000E122EEE740F6D403F0E700BFF82A00205B
:1018D0002DE9F04F8DB00646036898474368984756
:1018E0000446924901F11403024609A800F08AFC5B
:1018F000BDF824300093BDF826A09DF82D509DF82A
:101900002EB0BBF1010F13D0884B93F82430012B7C
:1019100040F00A81A36A2846984703280DD060B199
:1019200002283DD0BBF1010F00F0C280002433E05B
:101930007E4B012283F82420ECE77C4B002483F8C3
:10194000244083F825403046FFF740FF03940223EC
:1019500043F00C02012464F387128DF808208DF8FF
:101960000930009A13118DF80A304FEA2A138DF8C6
:101970000B300AF00F0A4AEA021A8DF80CA005F0A3
:101980007BF8436802A898477368984790F86030DE
:1019900043F0100380F8603020460DB0BDE8F08FB2
:1019A000624B93F82530002BBCD1E368284698475A
:1019B00007462369284698475D4A01463846FFF79F
:1019C0002DFB60BB0121594B83F8251000230393A5
:1019D0004FF00203032262F3850361F387138DF84E
:1019E00008308DF80920009A13118DF80A304FEA5B
:1019F0002A138DF80B300AF00F0343EA02138DF817
:101A00000C3005F039F8436802A898477368984786
:101A100090F8603043F0100380F8603082E70027D0
:101A2000029703970497059706970797CDF81F70BD
:101A300012234FF00109CDF804A09A4624E00135A5
:101A40000F2D19D07C19A4B233689847036803207E
:101A5000984703684146E8B298478228EFDD0CAB0F
:101A600003EBD40304F0070409FA04F413F8282C58
:101A7000144303F8284CE2E70F37BFB20AF1010A1A
:101A80001FFA8AFAD22F03D000255FFA8AF8D9E725
:101A9000DDF804A002AF0DF123083C46E51B736896
:101AA000984714F8013B28444376A045F6D139E71E
:101AB000204ABDF82A10BDF82800FFF7AFFA044607
:101AC00000283FF469AF73689847027D012A14BF6C
:101AD00000220122002303934FF00203032161F34C
:101AE0008503012464F387138DF808308DF80920ED
:101AF000009A13118DF80A304FEA2A138DF80B3033
:101B00000AF00F0343EA02138DF80C3004F0B4FF1F
:101B1000436802A898477368984790F8603043F08C
:101B2000100380F8603037E7002435E7F82A0020FA
:101B3000142B00200C2B002010B543689847047824
:101B4000C4F300140CB9204610BD04F095FF83685F
:101B50000122032110469847F5E770B50446436813
:101B60009847037D012B114E4FF04F030CBF01220C
:101B700003221946304600F038FB002586F8245031
:101B800086F825502046FFF721FE636898470F230B
:101B90004375636898470E238375636898471B23D2
:101BA000C37563689847057670BD00BFF82A0020AA
:101BB000004870479CE5010010B50446028B038A7B
:101BC0009A4202D90123C375037594F82730012B7B
:101BD00012D0A37C012B14D0A27D0D4B53F82230E0
:101BE00020469847012811D0022814BF0020022067
:101BF000A38D0133A38510BD0423E3750123237551
:101C0000E7E70523E37501232375E5E70120EFE707
:101C100030120020C289B0F91A30B0F922105B1AD4
:101C2000002BB8BF5B42934218DCB0F91C30B0F90E
:101C300024105B1A002BB8BF5B429A4210DBB0F94C
:101C4000282043889A4207DCB0F92C30408983422F
:101C5000CCBF002001207047002070470020704753
:101C60000020704770B5044690F82650012D05D924
:101C7000AB1EDBB2012B08D9002070BD0123037518
:101C80000020A0750323E375F7E7068D013636B211
:101C90000685FFF7BFFF08B901232375032D01D087
:101CA0000020EAE723889E42BCBF01232375638896
:101CB0009E42C4BF012323750023A375627D237B4D
:101CC0009A4201D00020D8E7B4F92A30A288934282
:101CD000BCBF01222275E2889342C4BF0123237551
:101CE000B4F92C3022899342BCBF0122227562894B
:101CF0009342C4BF0123237500236385237D4BB129
:101D000000202075A685E38B6383238CA3830123A6
:101D10006375B2E7002363750220AEE710B5044691
:101D200090F8263023B9438D01334385002010BD40
:101D3000012B25D1FFF76EFF18B90223E3750123AC
:101D4000237501222285637D1344DBB26375A2757E
:101D5000B4F92210E183B4F9242022843BB1237D1D
:101D60002BB9607D012814BF00200120DFE700208F
:101D700020750123A38560856183A2836375F0E7E5
:101D80000020D4E730B4BDF80850BDF80C40028004
:101D9000438001FB02F292B2AB1A8380A21AC28086
:101DA000058144810173BDF81030C381BDF8143042
:101DB0000382002303754375438583850385C375BB
:101DC0004FF6FF7242838283C2830284837530BCE4
:101DD0007047F0B585B005460C46164600230193C2
:101DE0000293ADF80C30898B608BFEF7BFFDD0B14C
:101DF0000A2201A93046FEF72DFD012822D9002331
:101E0000237563756385A3852385E3754FF6FF729C
:101E10006283A283E2832284A3752B706B80AB80E4
:101E2000284605B0F0BD0023237563756385A3853F
:101E30002385E3754FF6FF726283A283E2832284D7
:101E4000A375D5E79DF8047000B3F368384698474A
:101E50006084336938469847A084B36A3846984707
:101E600084F82600B3693846984720833046FFF748
:101E700018F9A0B9002384F827302046FFF79CFE0C
:101E8000628BA38B28706A80AB80C9E74FF6FF7323
:101E90006384A384002384F826302383E6E70123A8
:101EA00084F82730E9E700BF70B504460E46157880
:101EB0008B6A28469847012801D0012070BD002375
:101EC00023806380A380E38023816381A381E381F6
:101ED00023746374227E02F0F80263F3C302227655
:101EE000F36828469847A081336928469847E081DF
:101EF000237C01332374E0E72DE9F04104460F46CB
:101F00001678CB683046984780463B6930469847FC
:101F10000546BB6A30469847032841D0A389A8EB01
:101F200003031BB22380B4F902209A42B8BF1A46B9
:101F300016466280B4F904709F42A8BF1F46A7806E
:101F4000E089281A00B2E080B4F908208242B8BFC4
:101F500002462281B4F90A108142A8BF014661817C
:101F6000B4F9125001EB050C604553DA491B884265
:101F700050DD521B904203DC227E42F002022276A8
:101F8000EA1993424BDA7F1BBB4248DD721B934236
:101F9000DEBF237E43F0080323760120BDE8F081F5
:101FA00000232374B4F90020E38A9A4222DB217EC5
:101FB00001F00801002914BF0020102059428A4274
:101FC00006DC227E12F0040F04BF40F00800C0B20D
:101FD000B4F9062093420FDC237E13F0020F0BD1DD
:101FE00040F00400C0B29142D8DB237E13F0010F11
:101FF00008D0D3E70020E1E7914207DB237E13F00E
:10200000010F03D140F00200C0B2C7E7002808BFAB
:102010000120C3E7217E41F001012176A9E7227E5C
:1020200042F004022276B1E741828282C382002319
:10203000038043808380C380038143818381C38184
:1020400003744374027E02F0F80263F3C302027663
:1020500070472DE9F04186B004460D461646002330
:102060008DF81730314903AA03C982E803000093B1
:102070000193ADF808300A2269463046FEF7E7FFC3
:1020800080469DF800708DF81770B36A38469847FF
:10209000002831D0B8F1010F2ED1B36938469847E6
:1020A000AB8A834228D3B3683846984720BBF3688D
:1020B0009DF817009847804633699DF817009847A8
:1020C00007462B7C06AA02EB830353F80C3C0DF168
:1020D0001702314628469847A989EA896B7C5E1C1D
:1020E0006E7421806280A4F80480E780237260729D
:1020F000204606B0BDE8F08100232B806B80AB80CA
:10210000EB802B816B81AB81EB812B746B742A7E0E
:1021100002F0F80263F3C3022A7623806380A3806F
:10212000E380237201236372E2E700BFB4E501009C
:1021300070B504460E4615468B6A1046984701282E
:1021400001D0002070BD0023237223806380A38010
:10215000E3806372A372E372F36828469847208095
:102160003369284698476080A572637A01336372A9
:10217000E7E7F8B504460E4615468B6A10469847C1
:102180000746F36828469847A08033692846984751
:10219000E080238A9BB9A289B4F90030B4F9041015
:1021A0005B1A002BB8BF5B42934213DCB4F90230D8
:1021B00000B2181A0028B8BF404282420ADB227AD5
:1021C000E3899A4209D300236372E07AB0FA80F07F
:1021D0004009F8BD0123E372F1E7032F4FF000003F
:1021E00008BF6072F5E7C18170478181C2810382B7
:1021F00000230372038043808380C3804372837211
:10220000C37270472DE9F04186B004460D4617466B
:102210001E46002303604360836003930493ADF87C
:1022200014300B8A3288D21AADF804207288D21A80
:10223000ADF80620B2881A44ADF80820F28813449D
:10224000ADF80A3001A93846FEF71EFF8046314638
:102250003846FEF719FFB8F1010F0DD0AA7A002316
:102260006B7223806380A380E38023726272A37207
:10227000204606B0BDE8F08108B900232B7201ABFF
:102280003A460A2103A8FEF7F5FE6A7A0D4B53F889
:1022900022309DF80C20394628469847B5F800C0F2
:1022A0006F88AE88E9882B7AAA7A03F1010E85F847
:1022B00008E0A4F800C06780A680E1802372627203
:1022C000A072D5E738120020014B1888704700BF74
:1022D000202B00200A207047024B5B6803EB0010A4
:1022E000807B7047202B0020024B5B680001185C4C
:1022F000704700BF202B0020024B5B6803EB0010EF
:1023000040887047202B0020024B5B6803EB0010D5
:1023100080887047202B0020024B5B6803EB001085
:10232000C0887047202B0020024B5B6803EB001035
:1023300000897047202B0020024B5B6803EB0010E4
:1023400040897047202B0020024B5B6803EB001094
:1023500080897047202B0020024B5B6803EB001044
:1023600040787047202B0020014B1980586070473F
:10237000202B002000487047BCE5010001EB401114
:10238000024B1B6833F91100704700BF282B002057
:1023900001EB4011024B5B6833F91100704700BF3D
:1023A000282B002001EB4011024B9B6833F91100F0
:1023B000704700BF282B002001EB4011024BDB6867
:1023C00033F91100704700BF282B0020014B43F860
:1023D00021007047282B0020014B03EB8000704741
:1023E000E8E50100004870471800002000487047E9
:1023F000E404002010B5064C04F110000DF03CF888
:10240000207504F118000DF03DF82077204610BD2E
:102410004C050020024A4FF4F071024809F008BE52
:10242000CCAE01002C0500200149024809F08CBE09
:10243000CCAE01002C050020024A4021024809F0E0
:10244000F7BD00BFE0AE0100700500200149024861
:1024500009F07ABEE0AE0100700500200048704728
:1024600088050020704700BF704700BF10B5054CBD
:1024700004F10C000DF000F8E3682075236120469C
:1024800010BD00BFD8050020004870473000002074
:1024900070B546780C4CB500294604F114000B4A7F
:1024A00009F0C6FD31462046094A09F0C1FD29461A
:1024B000201D084A09F0BCFD294604F10800064A1F
:1024C000BDE8704009F0B4BD14060020D0AF010093
:1024D000E4AF010000B001001CB0010010B50A4CCF
:1024E0000A4904F1140009F02FFE2046084909F0BA
:1024F0002BFE201D074909F027FE04F108000649BC
:10250000BDE8104009F020BE14060020D0AF010045
:102510007CAF010094AF0100ACAF010010B5054CD9
:1025200004F10C000CF0A8FFE3682075236120463D
:1025300010BD00BF3406002000487047480000204E
:1025400010B5074C074A04F108000C2109F070FD92
:102550002046BDE81040044A062109F069BD00BFCD
:102560007006002048B0010060B0010010B5064CB4
:10257000064904F1080009F0E7FD2046BDE81040D7
:10258000034909F0E1BD00BF7006002048B001001A
:1025900060B0010000487047A0050020704700BFF0
:1025A000704700BF10B5064C04F10C000CF06AFF38
:1025B000207504F110000CF06BFF204610BD00BF29
:1025C000A8060020004870476000002070B506781B
:1025D0000C4CB500294604F114000B4A09F028FD03
:1025E00031462046094A09F023FD2946201D084AA4
:1025F00009F01EFD294604F10800064ABDE87040B6
:1026000009F016BDE4060020DCB00100F0B00100C6
:1026100008B1010020B1010010B50A4C0A4904F1CB
:10262000140009F091FD2046084909F08DFD201D98
:10263000074909F089FD04F108000649BDE810408A
:1026400009F082BDE4060020DCB00100F0B001001A
:1026500008B1010020B1010010B5064C04F10C00D6
:102660000CF010FF207504F110000CF011FF204653
:1026700010BD00BF040700202DE9F0410CF0F8FE6A
:102680000446FFF7B7FE0546FFF748FF0746FFF78A
:10269000E3FF224606462946012001F04BFE224672
:1026A0002946022001F046FEFFF7E0FE8046FFF7D4
:1026B00079FF054622464146092001F03BFE2246AD
:1026C00029460A2001F036FE22463946052001F04F
:1026D00031FE22463146062001F02CFEFFF79AFE1D
:1026E000BDE8F041FFF7A8BE10B5FFF7C5FF094BE5
:1026F0001B689847084B1B689847084B1B6898470E
:10270000BDE81040064A074B127853F822305B6848
:10271000184700BF90110020F4100020BC100020CA
:1027200069160020D0B1010070B5FFF763FE0446C2
:10273000FFF7F4FE0646FFF78FFF0546FFF774FE2E
:10274000FFF784FE2146012001F042FE21460220CF
:1027500001F03EFE3146052001F03AFE29460620F2
:1027600001F036FEFFF782FE0546FFF71BFF044629
:102770002946092001F02CFE2146BDE870400A20C0
:1027800001F026BE70B500249CB011AE2146304643
:102790002C220BADCDE90B44CDE90D440F94ADF8DF
:1027A000404017F060FD08ABCDE90233CDE90544A8
:1027B000CDE900560648049309940894CDF82740C3
:1027C0002B4604682A4629460B20A0471CB070BD42
:1027D000D02B00200B4A0C4B127810B553F8223046
:1027E000DB689847FFF7CEFFFFF79EFF074B1B699B
:1027F0009847074B1B699847BDE81040054B1B697C
:10280000184700BF69160020D0B1010090110020C8
:10281000F4100020BC10002070B5064607F0EAFD59
:10282000194D012804462B781CD09EB99C421BD020
:10283000012B1AD0154E56F82330DB6898472046F6
:102840002C7007F0DDFD2B7856F82330BDE8704082
:102850005B681847012E12D0032EE7D1022B03D05C
:102860000224E5E7012B00D170BDFFF7B3FF20463E
:102870002C7007F0C5FDBDE87040FFF735BF002B99
:10288000F2D00024D4E700BF69160020D0B10100C7
:10289000614A2DE9F04F1278604B8BB053F822302B
:1028A0005F4C9B689847C0F3074307930990C0F3B8
:1028B000072A07F0ABFD064607F0ACFDB379227896
:1028C00083469A4204D0B07905F0CAFCB3792370EC
:1028D000544B0124986805F049F80025ED23DFF8F2
:1028E00068815148DFF85491504F059322462146A4
:1028F0004346CDE90309CDE901550094642000F079
:102900009BF93B6898F800209978914213D0F32105
:10291000CDE901552546464A023305910392CDF88B
:102920001090009422462146642000F085F93B680F
:102930009B7888F800300DF097F83B688DF82300FD
:10294000DB7883422CD1BBF1000F3ED1002D3CD16E
:10295000079B002B43D0737E002B49D1337E002B85
:1029600055D1079B012B01D10EF0FAFD7222314B9C
:1029700000921A683049314B632000F0A5F9FFF747
:1029800029FFFFF7B1FE77222D4B00921A682A49E2
:102990002A4B632000F098F901200BB0BDE8F08FBE
:1029A00001224FF4817100232648CDE90491CDE93D
:1029B000013303900DF1230364200092114600F0CF
:1029C0003BF93B68D8780DF03BF8002007F028FD74
:1029D000337E002BCAD0002007F012FDC6E7337EFD
:1029E0007BB95046FFF718FF01200BB0BDE8F08F10
:1029F000337E002BF5D0284607F002FD4FF0010A88
:102A0000EFE7079807F0FCFC4FF0010AE9E72846DA
:102A100007F0F6FCA5E700BF69160020D0B1010061
:102A200068160020080A00209CB10100340A00202A
:102A3000A8B101004C07002044B101008CB1010095
:102A400050070020C4B10100840700202DE9F047A1
:102A500092B00446884607F0D9FC00233F4FC27D60
:102A6000C7E900333B81002A56D094F82B0094F834
:102A70002AA094F82990504594F8281038D8A0F14D
:102A8000160EC21FA0F10F065FFA8EFED2B2F6B28A
:102A9000894521D84B4612E0A3F10A04022C4ED8F6
:102AA00000EB431438F91450012437F914C0AC4535
:102AB000B8BF27F814500133DBB299420CD3022A75
:102AC000EAD9022E2BD89C1F022C28D800EB4315E4
:102AD000022438F91550E8E70130C0B20EF1010EBA
:102AE0000132013682455FFA8EFED2B2F6B2CFD203
:102AF0003E2200210DF10A0017F0B5FB002340F241
:102B00000155822400971A4602A91E20ADF80850EC
:102B10008DF80D4007F036FE12B0BDE8F087BEF12B
:102B2000020FC8D8A3F10A04022C11D99C1E022C52
:102B3000C1D800EB431438F914500324B5E79C1EA8
:102B4000022CB8D800EB431438F914500024ACE739
:102B500000EB431438F914500424A6E76C16002047
:102B6000F0B5204E83B0054601F1200014461F4603
:102B70007160FDF787FB1C4B1C4A99682130376058
:102B80004860946060782278E37802FB00F203F0FA
:102B90007F0303FB02F3164C22790B60D3B2012BA7
:102BA00001D003B0F0BD7721FF221E46114F3970CE
:102BB00022712379FF2B10D120222946684617F075
:102BC00023FB009B032B04EB830206DC019BD2F862
:102BD000052006FA03F31342EBD105233B7003B043
:102BE000F0BD00BF44210020580A00203C0C00200A
:102BF00004220020080B002070B504460E4615463E
:102C0000049A194620F8022B20341E2217F0EAFB02
:102C100020463146DF2217F0E5FB45B13046FDF78F
:102C200031FB2946C0F1DF02204417F0DBFB2046D0
:102C3000BDE87040FDF726BBF0B5C5B004460E46B2
:102C400015460146202204A81F4617F0DDFA049B12
:102C5000032B0EDC01221B48059900EB8303D3F8FC
:102C600005C002FA01F313EA0C0F02D00379934274
:102C700001D045B0F0BD4F9B4D99009300224E9B73
:102C800004A8FFF7B9FF4FF0000E9DF80BC04A9B58
:102C90004B9A63F3060C8DF80F0020464C9C62F3B0
:102CA000C71C3B4604A902AA8DF808608DF809509C
:102CB0008DF80E408DF80BC08DF80CE0FFF750FF3B
:102CC000D7E700BF04220020F0B5C5B004460D468A
:102CD00016460146202204A81F4617F095FA049BC9
:102CE000032B0EDC01221548059900EB8303D3F872
:102CF00005C002FA01F313EA0C0F02D003799342E4
:102D000001D045B0F0BD4A9B3246009329463B4670
:102D100004A8FFF771FF00258DF80F0004A902AA8F
:102D200020462B46ADF808508DF80B508DF80C500E
:102D30008DF80E50FFF714FFE3E700BF04220020D8
:102D4000F0B5644687B001F069FD002601F0B8FDDA
:102D50000125042040F22F372369A268DB68E1686F
:102D6000CDE901560090064D06480597CDE90305CB
:102D70007220FFF761FF2369D86807B0F0BD00BF7C
:102D800060B30100C8B201002DE9F04F91F81CE0DA
:102D900090F802C00F460EFB0CF5097D85B001913D
:102DA000DDF838804DB34446002605EB450C08EBB2
:102DB0000C1C226294F8245084F8246094F8255066
:102DC00084F8256094F8265084F8266094F82750FB
:102DD00084F8276094F8285084F8286094F82950E3
:102DE00084F8296094F82A5084F82A6094F82B50CB
:102DF00084F82B603034A445DBD1BEF1000F32D013
:102E00003D460026074603F1FF3921B3CB46002497
:102E10002B69062213F804A002A84FEA6A010131C7
:102E200017F0F2F9BA780AF0010306FB0233029AAE
:102E300003EB4303920002EB0313039943441BF893
:102E4000012F186A01EB81018A4002431A622B7D2F
:102E50000134A342DCDC2B7F0136019AB34291445A
:102E600001DD297DD1E705B0BDE8F08F2DE9F04106
:102E7000002482B0089D2A622A6595F8242085F8EE
:102E8000244095F8252085F8254095F8262085F8DA
:102E9000264095F8272085F8274095F8542085F896
:102EA000544095F8552085F8554095F8562085F8FA
:102EB000564095F8572085F8574095F8282085F812
:102EC000284095F8292085F8294095F82A2085F88A
:102ED0002A4095F82B2085F82B4095F8582085F846
:102EE000584095F8592085F8594095F85A2085F8AA
:102EF0005A4095F85B2085F85B400A7D12B30F4677
:102F00005E1E3B69062213F8048068464FEA68019A
:102F1000013117F079F908F00108009A4FEA4803E7
:102F20009844930003EB081301992B4416F8012FE2
:102F3000186A01EB81018A4002431A623B7D013429
:102F4000A342DEDC02B0BDE8F08100BF2DE9F04F06
:102F500097B06846D1F8013006AF1E7D1D7F7960BD
:102F600006FB05F3D1F809205C00FA62DA1DD208ED
:102F7000A0EBC200854604F10803DB08DB0006A8CD
:102F8000ADEB030DF86006A8ADEB030D06AAADEBA3
:102F9000030DFB6ABC60DB68BA623B620A2322460F
:102FA0007400A046FF217B61386117F05CF906AB25
:102FB0007B62B3007B637A697B681F2AD3F8053094
:102FC00040F3198110464446954901FB02F102EB9A
:102FD000421200EB421202EBC23201F1404102F117
:102FE00040422031013241F01F0103F5B460196203
:102FF0005A629A6230338342F9D18A48012204909E
:1030000089488D21039004230020A046029001925C
:10301000059100937C6907F13C0311466420FC6331
:10302000FFF70AFEBC6800212246B86A17F01BF9B8
:103030002246FF21786A17F016F9142344463B63B1
:1030400001F0ECFB01F03CFC0421FB6A4FF0000CAA
:10305000DB68009196210591724920220491734901
:10306000722003910121CDE9011C0F21FFF7E4FD3E
:1030700045B34FF000093B6AD7F824A0A3F1040B35
:10308000BB6AA3F10208002E00F0AB80D446DE46F6
:103090004346A0445EF8042F33F8020FBCF800103A
:1030A0008242C8BF90B28A42B8BF91B243451880ED
:1030B0002CF8021BEED109F101097B6B4D459B44B5
:1030C000A244E0D13B6B013B3B63B9D1A046002D4C
:1030D00035D09B46BB6AD7F80C90023BFB617B6AFC
:1030E000D7F81480023B3B633B69BD61A3F1020A40
:1030F000B6B150460021D7F830C0FD6935F8023F1F
:103100003CF802EF30F8022FA3EB0E039A42C8BF3F
:1031100009F8018001F10101C8BF03808E42EDD1A1
:10312000FB690BF1010B2344FB613B6BA24423447D
:103130003B63BB69B1445B45DAD1A046BD69A921B7
:103140007869FB6A01307861DB68059135490422B2
:103150000491364904460391002001210092CDE9F3
:10316000011020220F216420FFF766FD3E2C7FF422
:1031700022AFAC222B4B00922D4900226420FFF796
:10318000A3FD0020CDE901000120AD21254B294AF6
:1031900000900493FB68642005910392294632460F
:1031A000FFF74AFDAF221F4B009223490022642003
:1031B000FFF78AFD1B4B4FF0B00C04930023022451
:1031C000CDE901331D483B69324603902946CDF8CD
:1031D00014C000946420FFF72FFD4437BD46BDE8BE
:1031E000F08F09F101097B6B4D45A0449B44A2443B
:1031F0007FF449AF66E77A6944461146084800FB08
:1032000002F002EB421201EB421202EBC23203F572
:10321000B46118625A629A6230338B42F9D1ECE69B
:103220002084100260B3010018B30100C8B201008D
:1032300024B3010038B3010044B3010054B30100CA
:103240002DE9F04FD2F80180D2F805C098F81C9013
:1032500098F814A0B9F1000F22D04FF0000E0139F8
:10326000BAF1000F17D00C468678D8F810200EFB64
:1032700006F60AEB020712F801BB14F8015F0BF027
:103280000103334403EB43030CEB031303EB5B0336
:103290009742DD73EFD10EF1010ECE455144DFD1DF
:1032A000BDE8F08FF0B5DCE9002087B064460F463A
:1032B000FFF7C6FFD4E90221002040F2393601258C
:1032C000CDE90100054C06483B46CDE903040596CF
:1032D00000956420FFF7B0FC07B0F0BD60B30100BB
:1032E00090B201002DE9F04F8DB082788A4602EB52
:1032F0004202120100AFADEB020D6E46F8610021F3
:10330000684616F0B0FF4FF4B4620021C84816F0CA
:10331000AAFF9AF81450BE6135B3DAF81000012400
:10332000054406E05368854243EA0E0EC2F804E005
:103330001AD010F8013B03F0010C4FEA4C02624432
:103340001F2B04FA03FE06EB0212EBDD117A203B81
:103350008C4604FA03F3C1F301010B4363F3010C40
:10336000854282F808C0E4D19AF81C30BB62002B79
:1033700000F08381DAF81820002411460120FA6257
:10338000194412F8013B00FA03F3914244EA0304A2
:10339000F7D1FB693C6293F802C0BCF1000F00F06A
:1033A0007D810021BA69C7F82CA010460D464FF068
:1033B000010B4FF0190992463B6AC3F313065FFAFB
:1033C00086F8C6F3072E360C01EB41030AEB031314
:1033D0005C781A7A6FF3C3045C709C7A02F0030283
:1033E00024F03F049C7293F82E401A7224F01F04BC
:1033F0005D7283F82C5083F82D5083F82E4003F132
:10340000080280F80BB080F82F909379013123F0F7
:103410000F0333438C4582F8048082F805E000F105
:1034200030009371D0D14FF040533A6AD7F82CA0B6
:103430009A64BB6A002B00F02A81DAF81830FB622C
:1034400000234FF0010B7B629946794BBB624FF032
:10345000000CFB6A29F0030213F80930BC6A0BFA6E
:1034600003F8C8F31308C8F30D039B00BB604FEAD1
:1034700098337B60131D3A61FB60C7F81480A64641
:103480004FEA4C05BB69654403EB051505F13008AF
:10349000764628686968AA68EB68103545450EF1DC
:1034A000100E0FC6F4D12388796A9AF80B2061F3C5
:1034B00009032380002A40F0BD8023687A6962F303
:1034C0001F332360FB699AF80C00DB783A6A0BFA29
:1034D00003F3013842EA03019AF81C20032800F2A2
:1034E000C880DFE800F0825B3602206894F82E5036
:1034F00043EA103025F01F05C0F31403013A45EAF2
:1035000013454A45A08584F82E500FDDFA6A4A44D7
:103510005078EAB20BFA00F00343C3F3140322F02D
:103520001F0242EA1342A38584F82E20B9F1000F4E
:1035300008D0FA6A4A4412F8012C0BFA02F213433B
:10354000C3F3140383F4FF1383F4FF5383F01F03C7
:103550002AE0E36A013A4A45C3F3140311DDFA6A2B
:103560004A44507894F82E200BFA00F00343C3F33A
:10357000044022F01F020243A38584F82E20C3F3E7
:103580001403B9F1000F0FD0FA6A4A4412F8012C63
:103590000BFA02F21343C3F3140305E0226843EA73
:1035A0001233DB43C3F31403E2681940A07B94F8A1
:1035B0002E30C2F3130222EA0102A18520F00F008F
:1035C00023F01F03C1F3044140EA12401943A281D2
:1035D000A07384F82E103034BCF1000F15D1DAF846
:1035E00018304FF0010CFB6249E794F82E20C3F32A
:1035F0001403194022F01F0242EA1142A18584F807
:103600002E203034BCF1000FE9D07A6A9AF81C30D1
:103610002032C2F309027A62BA6A09F10109603202
:103620004B45BA6233DDDAF81830FB620FE700BFB2
:1036300098000460FB6A3A699918FA689D1811F8B5
:10364000013B20680BFA03F3226843EA103363F36B
:103650001F328D422260F2D12389BA6803F003033E
:1036600013432381A37A7A6823F03F031343A372A1
:1036700028E7E36AC3F3140396E7FB6993F802C0F3
:10368000BCF1000F07D14FF04053C3F848C03437A6
:10369000BD46BDE8F08FBB6A3B6282E64FF0405307
:1036A0003A6A9A64CCE600BF2DE9F041827800AF17
:1036B00002EB42021201ADEB020D884605460021E5
:1036C000684616F0D0FD30220021614816F0CBFD8F
:1036D0006FF01F019DF8013098F80C2003F0F403FF
:1036E00043F00903013A8DF800108DF801306C4663
:1036F000032A03D8DFE802F0948002024FF0FF3281
:103700004FF04051002094F82E3084F82C2043F0E4
:103710001F0384F82E3084F82D20C1F830014FF0BB
:103720000132192604F1300528462346C4F80F203B
:10373000C4F81320C4F81720C4F81B20E277E27203
:1037400084F82F60D3F800C05E689968DA68103397
:10375000AB42C0F800C046608160C26000F110005A
:10376000F0D198F814303BB3D8F81000012603EBE1
:10377000000C06E05368844543EA0808C2F8048058
:103780001AD010F8013B03F0010E4FEA4E027244CA
:103790001F2B06FA03F804EB0212EBDD117A203B33
:1037A0008E4606FA03F3C1F301010B4363F3010EE6
:1037B000844582F808E0E4D12646DFF894E0F44638
:1037C00030687168B268F3681036AE420EF1100EC0
:1037D000ACE80F00F3D1DFF880C060346546306894
:1037E0007168B268F3681036A6420CF1100C0FC570
:1037F000F4D1BD46BDE8F0814FF0FF324FF04051AB
:10380000002094F82E3084F82C2023F01F0343F07E
:103810000F0384F82E3084F82D20C1F830017EE7A4
:1038200001224FF04051E87894F82E308240C2F3E4
:10383000044523F01F0307482B43C2F3072584F8F0
:103840002C2084F82D5084F82E30C1F8300166E722
:1038500038060460FFFF0F0068060460F0B50D46EF
:10386000A9B04C220021044602A816F0FCFC00205E
:103870004FF040522978ADF8040082F8A81069781A
:10388000BDF80420A87861F38A12C2F3072160F31F
:10389000C601ADF804208DF80510BDF8041002AB88
:1038A0000DF12A02598502339342FBD14FF0405665
:1038B000002286F8A7202F7DC7B14FF0010C29699F
:1038C000013911F8013F28A818441C2B00F8982C46
:1038D00002F1010208DD96F8A7001D3B0CFA03F384
:1038E0000343DBB286F8A7309742EAD102A915A8B4
:1038F0004C2216F0ADFC15A94C22094816F0A8FC84
:103900004C2215A9074816F0A3FC29462046FFF7CC
:10391000E9FC20462946FFF7C7FE024829B0F0BD62
:103920004C000460000004602DE9F04FD0F80D4019
:10393000D0F80160D4F800C0D6F820E09CF8003040
:103940009CF8012096F80090D5185FFA85F808F1E8
:10395000010B03F1010A0F46591ED0F8090089B086
:103960008EF829B08EF822808EF824A08EF82510CB
:10397000B9F1000F4CD001328EF8272000238EF8C9
:1039800028301A46636893F8008008F03F0802F177
:1039900014030EEB43039978013268F30501112AF1
:1039A0009970F4D119211C4B1C4A83F82F10303325
:1039B0009342FAD133796BB143685BB1164D9CF8F1
:1039C0000D20314600953846FFF7DEF923685A7816
:1039D0001B78D51849F6404301356D0093FBF5F58A
:1039E00040F2E91001220021042608AB43F8045DEF
:1039F0000B4C05900B48CDE90121CDE9030411469C
:103A000000966420FFF718F9034809B0BDE8F08F6D
:103A10000A3B8EF82730B1E798000460380604604E
:103A200060B30100D8B201002DE9F047D0F80D8055
:103A3000D0F80150D8F800302C6A93F801C01B78F8
:103A400095F800E00CEB0302D2B202F1010A03F197
:103A500001090F46591ED0F8096082B084F875A09C
:103A600084F86E2084F8709084F87110BEF1000F15
:103A70003BD00CF1010C84F873C000231A4684F883
:103A80007430D8F804C09CF8020000F03F0002F146
:103A9000140304EB430393F84E10013260F3050165
:103AA000112A83F84E10F2D19CF80010114AC90176
:103AB000301D08F0BDFAD8F804300F4A197806F125
:103AC0000800C90108F0B4FA2B7953B1736943B106
:103AD000D8F80020094C527B294638460094FFF75D
:103AE000C5F9064802B0BDE8F0870A3B84F8733098
:103AF000C3E700BFACB20100C4B2010038060460E5
:103B0000F0B500264FF0405301250424D0F80D20D5
:103B1000D0F8011050681268467090784FF00F0E80
:103B200083F82C01D0784FF4B47C83F82D01107AFF
:103B300083F82A01907A83F82B01107983F82E01FB
:103B4000507983F82F010F78C87883F825714F7961
:103B500083F88E7083F8840083F8815083F8806046
:103B600083F8AE4083F8AF400E7993F8890086EA77
:103B7000050767F30510022783F8890093F8A10071
:103B800066F3041083F8A10083F88D4083F8B050E9
:103B900083F8C5E0A3F8C8C083F8CC70947B087A9A
:103BA00083F800418C7983F80541CC7983F80A4188
:103BB00083F80D01497A83F81011117B83F8DA102C
:103BC000D27A83F8A020BDE8F04000F095BB00BF9A
:103BD0004FF0405310B5D0F80D10D0F809204C68C4
:103BE000526893F841116078054B02EBC01003EB6B
:103BF0000141802216F02CFB63780133637010BD05
:103C00008007016070B5194B84B01B78044613B16E
:103C100006F0FCFBC37ED4F80130DB7A23B3D4F882
:103C20000930DE6806F1800506F50866A5F180001A
:103C300000231946DA0182584DF823200133042B62
:103C40001144F7D100225DF82230D401A1EB4303E7
:103C500001325B10042A0351F5D10430A842E7D1A8
:103C600005F50075B542E1D104B070BDA317002081
:103C70004FF040532DE9F041012604240025D0F8EF
:103C80000D20D0F8011012684FF00F0890784FF017
:103C9000030E83F8E000D07883F8E100107983F810
:103CA000E200507983F8E300107A83F8E600907A16
:103CB00083F8E7004F79C87883F88E7083F8840022
:103CC00083F8816083F8805083F8AE4083F8AF407A
:103CD0000F7993F8890087EA060C6CF305104FF012
:103CE0001E0C83F8890093F8A10067F3041083F891
:103CF000A10083F88D4083F8B06083F8C58083F815
:103D000087E0A3F8C85083F8CCC0907B83F800010B
:103D1000887983F80501C87983F80A01497A83F81C
:103D20001011117B83F8DA10D27A83F8A020BDE855
:103D3000F04100F0E1BA00BF4FF040532DE9F041EF
:103D400001260025D0F80D10D0F80100D1E900219E
:103D50009478497883F8E040D4784FF0040883F8E9
:103D6000E14014794FF00F0E83F8E2405479B140EE
:103D700083F8E340147A314483F8E640947AC9B278
:103D800083F8E7404779C47883F88E7083F88440DD
:103D900083F8816083F88050077993F8894087EA37
:103DA000060C6CF305144FF0030C83F8894093F86C
:103DB000A14067F3041483F8A14083F88D8083F851
:103DC000B06083F8C5E083F887C0A3F8C85083F8D3
:103DD000CC10917B83F80011817983F80511C179AA
:103DE00083F80A11417A83F81011117B83F8DA10F5
:103DF000D27A83F8A020BDE8F08100BF2DE9F04F12
:103E000099B0734C06AF07F1240A7861714D0E46E4
:103E100094E80F008AE80F0007F1700307F13408F7
:103E20007B6407F1100350464146CAF80830CAF8CF
:103E30000C50FCF725FA94E80F00674C88E80F0057
:103E400007F11003404607F14401C8E90234FCF7CA
:103E500017FA012000F06CFC3861002800F0B380F4
:103E60000023E9461A46D0F801505C48297D2C7F92
:103E7000B961FC6101FB04FB6978B96029792B7198
:103E8000F96002F1140300EB43035988013241F455
:103E9000F861112A5980F4D169460BF10703DB0858
:103EA000A1EBC3039D46D6F80D20D6F809C01368D0
:103EB00006AC5B78DCF8081020465A467B60C7F8F1
:103EC00020C016F0C5F97B68BBF1000F09D022466F
:103ED00004EB0B0012F8011B0431824202F8011CB2
:103EE000F8D148F001024AF00101CDE9002101209A
:103EF00019465A46234602F05BFF3B6A5A46186849
:103F0000214616F0A5F940F241304FF0000B4FF07A
:103F1000010C3B6ABA691B68F969DFF8CC8005902F
:103F20002F48CDE901BBCDE90308CDF800C06420DE
:103F3000FEF782FED7F81CA0DA4518DD5846D7F800
:103F400018C0D7F820E0BCF1000F0DDD00222B7D5A
:103F5000DEF81C1000FB0323895C14F803B0013267
:103F600059446245E154F2D101305045EBD132461B
:103F700021467869FFF764F9D7E9062140F24B3012
:103F800000250126CDE90480164823460390CDE99B
:103F9000015564200096FEF74FFE2A46BB680F4C81
:103FA00003F01F0002F1140304EB430359880132AC
:103FB00060F38A11112A5980F4D13B693A7BD3F816
:103FC00001301A71CD464C37BD46BDE8F08F00BFB9
:103FD00038A40100412D0000A5320000000004605B
:103FE0009CB2010090B2010060B301002DE9F04FD6
:103FF000ADF50D7D06AF78608A4600F065FA061EC5
:1040000040F3C580002403E00134A64200F0BF80E5
:104010002146012000F066FA0028F5D007F1140EC1
:104020000546F446D0F8014004F1200866462068B1
:104030006168A268E368103444450CF1100C0FC6A7
:10404000F4D1002620684FF4F072CCF800008EF80E
:104050000460C5F801E0DAF80D3001211B6807F1B2
:1040600038005B781C46FB6016F0FDF8ADF5F16D8D
:1040700006AB184631464FF4F06216F0F4F8012C06
:1040800040F389800124A146031FDFF82081BB6033
:10409000DAF8055005F10F0B05F2AF55584611221D
:1040A00021460BF1300B16F0DEF8AB45F6D10122BC
:1040B00040F27A33042539496420CDE90261059341
:1040C000114607F11003CDF81080CDF8049000954B
:1040D0003C61FEF7B1FD00F0A1FB00F0F1FB40F206
:1040E0007E332F4A0593CDE902624FF0C043202270
:1040F0000F210095CDF81080CDF804907220FEF7C6
:104100009BFD4FF0C043B968DFF8A4C007F1380247
:10411000186851F8045F04338542BCBF147008600E
:10412000634502F10102F3D14FF463731D4A059315
:10413000CDE9026207F13803CDF81080CDE9009691
:1041400020220F216420FEF777FDFB680134A34293
:104150009ED15246786807F13801FFF771F84FF4A5
:10416000647400220120104907F13803CDE90122CF
:1041700000900391CDF81080059420220F21642037
:10418000FEF75AFD07F50777BD46BDE8F08F00231F
:10419000D3F80130FFDEDFF81480DAE7E8B201007F
:1041A000F8B2010090B2010000B3010060B3010059
:1041B0008007006008B500F083FB022000F0B8FA29
:1041C000D0F80930986808BD08B500F079FB0120E7
:1041D00000F0AEFAD0F80930D86808BD30B4D0F895
:1041E0000D20D0F80930526815789DB19C685B6845
:1041F000803C03F17C00E41A00EBC515A0F18003BC
:10420000221853F8041F834242F8041FF9D180306A
:10421000A842F3D130BC7047704700BF0020704700
:104220004FF0405393F84121002082F0010283F8BF
:10423000412193F8432182F0010283F84321704722
:104240002DE9F047482286B0FF212A4816F00BF8E6
:1042500001A80BF011F9804602A80BF013F90746EC
:1042600003A80BF015F918F0FF081DD04FF0000A55
:104270004FF001091F4E04AD019B082213F80A40BC
:104280002846610004F0030415F0BEFF04EBC404EB
:10429000049A3444059BA15C09FA03F30AF1010A6C
:1042A0000B43C245A354E7D117F0FF071FD04FF0CF
:1042B00000094FF001080F4E04AD039B082213F8CC
:1042C00009402846610004F00304043404EBC404EC
:1042D000344415F099FFDDE90423A15C013308FAA9
:1042E00003F309F101090B43B945A354E5D106B025
:1042F000BDE8F087BC2C002008B50BF09BFB054BFC
:104300001B78984204D01846BDE808400BF074BBF7
:1043100008BD00BF8407002010B50BF08BFB0446DE
:104320000BF07CFB844203D0BDE810400BF064BB73
:1043300010BD00BF30B5013885B00C460A2810D832
:10434000DFE800F03B3E0F3B26110F0F2611060061
:1043500003A80BF091F82246C1B2039801F07AFD50
:10436000A06305B030BD03A80BF08CF80223C5B2E2
:1043700003992A460093204604F1150300F092FCAD
:1043800022462946039801F079FBA06305B030BDB1
:1043900003A80BF071F80223C5B203992A460093D3
:1043A000204604F1150300F07DFC224629460398BF
:1043B00001F022F8A06305B030BDCB7A002BD0D03D
:1043C00010462146FFF74AFA206205B030BD00BF13
:1043D0000138092808D8DFE800F0080808070505B3
:1043E0000505050500238B63704700230B627047AA
:1043F000037810B5022B04460BD0042B03D1002206
:10440000D0F801301A6200236374A374E374237537
:1044100010BDD0F809000849043007F095FED4F823
:1044200009000649083007F08FFE00236374A37467
:10443000E374237510BD00BF78B3010098B3010089
:10444000002230B504460D4683B002AB43F8042D7C
:1044500018460E4A152107F0EBFD22780C4B294631
:1044600053F8223020469847C4F80500A068226817
:104470006568E168019B98601A605D60D960226997
:1044800001981A61227D1A7503B030BD70B3010026
:10449000D4B301000B4B1A680AB90CE01A46D2F8E3
:1044A0001130002BFAD10023C2F811004374837439
:1044B000C374037570471860002343748374C37416
:1044C0000375704778160020054B1B6833B1002038
:1044D000D3F811300130002BFAD1704718467047DD
:1044E0007816002070B5164B88B01B687BB100248D
:1044F00002E0D3F8113053B11A788242F9D1013475
:104500000029F6D0A142F4D1184608B070BD4FF48E
:10451000E17001220024042608AB43F8041D094D74
:1045200005900948CDE90124CDE90305114600961F
:104530006420FEF781FB2346184608B070BD00BF1B
:1045400078160020BCB30100C4B3010070B5094E59
:1045500082B034684CB1084D0194D4F8114029461A
:1045600001A807F0F1FD002CF6D10023C6E90033C5
:1045700002B070BD78160020B4B30100F8B54468ED
:1045800005460AF075FFACB123780B2B12D80B4E01
:104590000146074656F8333020469847D4F81100B4
:1045A00040B10378394606EBC306686073689847E4
:1045B0000120F8BD00206860F8BD00BF880700201A
:1045C00010B504460AF054FF636843B11C78054AED
:1045D000014652F8342018469047012010BD184675
:1045E00010BD00BF8807002038B5446805460AF0B2
:1045F0003FFF4CB12278054B014653F8323020463C
:10460000984700236B6038BD6C6038BD8807002078
:1046100070B582B005460C460AF02AFF4FF04053B1
:1046200093F84121014682F0010283F8412193F879
:10463000432182F0010283F84321286818B90CE075
:10464000D0F8110058B10278A242F9D10A4A686044
:1046500002EBC40253689847012002B070BD4FF4CA
:104660000B76064D064C00962B4600222146642010
:10467000FEF72AFBF7E700BF88070020BCB3010064
:1046800004B4010038B5046805460AF0F1FE6CB1C7
:104690006B685BB92178064B2A6803EBC1035B6842
:1046A00001466A6020469847012038BD002038BD89
:1046B0008807002008B54FF0405393F8243093B199
:1046C00072B60A48FFF7DEFF58B10123084A137596
:1046D000BFF34F8F4FF0405200200649087213700D
:1046E000937062B608BD0BF075FAE9E77816002002
:1046F00000001050A828002008B572B60948FFF73E
:10470000C1FF60B10422084B1A75BFF34F8F4FF001
:10471000405301220020054908721A709A7062B64F
:1047200008BD00BF7816002000001050A828002007
:10473000054B1B6833B11A78824203D0D3F811308D
:10474000002BF8D11846704778160020044B11B1A1
:1047500043F820107047034A43F82020704700BFF9
:1047600054070020194200000B4B70B51C680AF07A
:104770007FFE7CB10546094E23782046294656F82F
:1047800023309847D4F81140002CF5D1BDE8704093
:10479000FFF7C2BD70BD00BF78160020540700208F
:1047A00008B50E4B5A6802B108BD01461846FFF71E
:1047B0002FFF0028F8D00A4B1B680BB10BF00AFA48
:1047C0000123084A1375BFF34F8F4FF0405200206A
:1047D000054908721370937008BD00BF7816002059
:1047E000CC28002000001050A828002038B5002355
:1047F000064D074C074A08492B72236011600BF0E5
:104800005BFCBDE83840FFF755BF00BFA82800207B
:10481000A8170020A4170020B5460000002330B4DC
:1048200001240649064D0748074A0B7207492B60C9
:10483000047030BC1160FFF73DBF00BFA828002006
:10484000A8170020A3170020A4170020B5460000D9
:10485000002330B401240649064D0748074A0B726D
:1048600007492B60047030BC1160FFF745BF00BFE3
:10487000A8280020A8170020A3170020A4170020B4
:10488000F946000008B50BF02BFC00230249034A4F
:104890000B60136008BD00BFA4170020A8170020FC
:1048A000024B5868003018BF01207047781600206E
:1048B000024B1868B0FA80F0400970477816002063
:1048C00008B5074908200AF0E5FFFFF74DFF0BF098
:1048D00007FC00230349044A0B60136008BD00BFB6
:1048E00021420000A4170020A817002008B572B6C6
:1048F0000BF0F6FB00230849084A0B60136062B610
:10490000074A516831B1536006490820BDE80840A4
:104910000AF0C0BF08BD00BFA4170020A8170020E0
:10492000781600202142000008B5044908200AF04A
:10493000B1FFBDE80840FFF717BF00BF21420000EC
:1049400008B50449082015F073FDBDE80840FFF7DD
:104950000BBF00BF2142000008222F4838B52F4C62
:10496000436822602E4ACBB10025197815700229C0
:1049700037D0D3F8113093B12748FFF7FFFD002857
:1049800046D00123274A1375BFF34F8F4FF0405293
:10499000002025490872137093700DE013700125F3
:1049A0000021224B20481F4A1B680572117503B174
:1049B00098471948FFF718FE10221D4B2260D3F8C4
:1049C0000021120708D5002208241A481A49C3F802
:1049D00080410270C1F840214FF0405300225A70CC
:1049E00038BDD3F80D2051680A784978013A9142D0
:1049F000BFDAFFF7E5FD58B101230A4A1375BFF38B
:104A00004F8F4FF0405208490D7213709370D3E7E7
:104A10000122054B1A72CFE778160020A40C002063
:104A2000A217002000001050A8280020C82800204D
:104A300000E100E0A00C002000000250B8B48500A6
:104A400005F10A0323F00703002800AFADEB030DC7
:104A500011DD6B46043A15440239181F31F8024F34
:104A600052F8043F03FB04F3AA424FEA132440F830
:104A7000043F1460F2D1BD46B8BC70472DE9F04345
:104A8000089D1DB34FF04C0C01264FF00009079C08
:104A9000D2B20CFB054CC9B29719C0B20F44A1F1B8
:104AA0000A08A1F1030EFFB280448644002B14BF14
:104AB00045467546A0702671E7706171A27184F851
:104AC0001990A676E5714C346445EFD1BDE8F083CA
:104AD000F0B5012A83B0164605460C461F462DDC6C
:104AE0000146684615F090FB36B3009B3F2B1D46F0
:104AF000A8BF3F25019A002B134405F03F05B8BF1E
:104B000000253F2B1A46A8BF3F22002B4FF0000183
:104B100002F03F03B8BF002304F1100207EB420C80
:104B200009B30A19103207EB4202907965F30500C8
:104B300090710131B142F3DB03B0F0BD104607F0D4
:104B400041FA044106FB04F40F2C294606DD01223C
:104B5000684615F059FB0126009BC7E732466846B8
:104B600015F052FBC1E79CF8062063F305028CF8B0
:104B70000620DEE7F0B5012A83B0154604460E464E
:104B80001F462DDC0146684615F03EFB009B2DB309
:104B90003F2B1C46A8BF3F24019A002B134404F06E
:104BA0003F04B8BF00243F2B1A46A8BF3F22002B6A
:104BB0004FF0000102F03F03B8BF002306F11002DE
:104BC00007EB420CF1B18A19103207EB42029079DF
:104BD00064F30500907101318D42F3D103B0F0BD53
:104BE000104607F0EFF9F30744BF06416E43214634
:104BF0002A46684654BF06F1FF36013615F004FB1D
:104C0000009BC5E79CF8062063F305028CF806209C
:104C1000E1E700BF70B5DCF80C3086B064460025D3
:104C20009847FFF74DFED4E901230121042040F20B
:104C300053261B690295CDE90001064D06480596ED
:104C4000CDE903057220FDF7F7FFA368186906B0E8
:104C500070BD00BF50B401005CB4010070B5644683
:104C600086B0DCF808309847FFF72AFE00220121C1
:104C70004FF475760425636808481B690292084A58
:104C80000596CDE90320CDE9005114227220FDF7ED
:104C9000D3FF6368186906B070BD00BF50B401004F
:104CA0005CB401002DE9F04F87B006AF4578D7F826
:104CB0002890D01D20F0070009FB05F5ADEB000D95
:104CC0000DF1180A0E465046002190461C4615F07C
:104CD000CAFAA94541DB4FF0000B08F1FF39222247
:104CE0004FF0FF31204615F0BEFA33784FFA8BF0C3
:104CF000B8F1010FE0542DDD4FF0000E6FEA060C05
:104D0000711C11F8012BA356B3F1FF3F05D1431CD1
:104D1000AB42ACBF00235BB2A35498421AD092FBC3
:104D2000F5F005FB1020012814BF01204FF0FF30E3
:104D3000204482569A420DD00CEB01029145A1EB22
:104D4000060200F09580904501DD1846D9E7BEF1D6
:104D5000000F4CD1BBF1000F46D09323DFF828B1F0
:104D6000009300225B4645496420FDF7ADFFB8F192
:104D7000000F6CDD013EB14606EB080119F8013F5A
:104D800093FBF5F205FB12324945E254F6D10121BD
:104D9000992000223A4BCDE904B0CDE901120393EA
:104DA0000091234642466420FDF746FF0AF1FF3397
:104DB00016F8012FA256B14503F8012FF8D10121B1
:104DC00000249D252F48CDF810B003905346642051
:104DD00042460595CDE901140091FDF72DFF2046CF
:104DE0000437BD46BDE8F08F4FF0010B77E7012196
:104DF00089200022224BDFF890B0CDE90112059006
:104E00000091CDE9033B424623466420013EFDF775
:104E100013FF06EB08010AF1FF3316F8012FA25623
:104E2000B14203F8012FF8D1012400218D25154846
:104E3000CDE901410390CDF810B0642053464246BD
:104E4000059500942146FDF7F7FE2046C8E70121AD
:104E5000992500200A4ACDE901100392CDF810B03F
:104E600023460595009142466420FDF7E5FEA6E73E
:104E70009045BCDD4FF0010E184642E77CB40100BE
:104E8000A0B401006CB4010050B401002DE9F84356
:104E9000D2F80160074672780D46012A984618D963
:104EA000002814DD00244FF04C094D1E00E07278FC
:104EB000510094FBF1F301FB134315F8010F61104E
:104EC00009FB03830134FFF703FEA742EFD1BDE8DE
:104ED000F8830028FBDD00244FF04C09331993F9C7
:104EE00015306110002B05DB09FB03837278285D08
:104EF000FFF7EEFD0134A742F0D1BDE8F88300BF13
:104F000070B5644686B0DCF800200B4BFFF7BEFF9F
:104F1000D4E9012301214FF417760020074D084CF6
:104F20001B68CDE9010005960091CDE9034572208B
:104F3000FDF782FE06B070BD1408046050B4010095
:104F40003CB401002DE9F843D2F801501E466A78BE
:104F5000012A1ED900281ADD01F1FF3821244FF063
:104F60004C0908EB000700E06A78510094FBF1F36C
:104F700001FB134318F8010F04EBD47109FB036321
:104F80004910FFF7F7FD474504F1FF34ECD1BDE8C8
:104F9000F8830028FBDD0C464FF04C0905F114089E
:104FA00008EB000718F9013FC8F13601294401EB6D
:104FB000D171002B4FEA610105DB09FB03636A78BD
:104FC0002078FFF7D7FDB84504F10104EAD1BDE828
:104FD000F88300BF30B5644687B0DCF800200B4B87
:104FE000FFF7B0FF40F2DD35012100226368084879
:104FF000084C1B68CDE90122CDE903040595009119
:1050000014227220FDF718FE07B030BD9806046028
:105010003CB4010050B40100F0B4147980F8E840C9
:105020005579049C80F8E950957980F8EA50D57953
:1050300080F8EB50957A80F8EE50157B80F8EF50B1
:105040008D790E7880F88E5090F8895045F03005B3
:1050500080F8895090F8A1506FF3041580F8A150A2
:10506000CD7880F8A950002E51D180F8986090F842
:105070008B5045F0010580F88B500125072700264D
:105080004FF0060C80F88D7080F8B05080F8C56045
:1050900080F8815080F8805080F8AEC080F8AF7002
:1050A0000D79002C80F88450557CB8BF033480F80B
:1050B0009F50957CC4F38F04DBB280F89E5080F83B
:1050C0009C60A0F8CA4080F8CD30D37C80F80031D5
:1050D000CB7980F805310B7A80F80A314B7A80F869
:1050E0001031137D80F8DA3090F8A330917D61F3B0
:1050F000061380F8A33090F8A330D17D61F302034A
:1051000080F8A330537DF0BC80F8A03070470125B3
:1051100080F8985090F88B506FF3000580F88B5012
:10512000ABE700BF2DE9F047D0F80160D0F80930B7
:10513000747882B06400D0F80D5033B10F46024647
:1051400019687878274BFFF7A1FEB76B95F80DC06B
:105150008CB34FF04C0938464FF0000809FB047936
:105160000CF01F0C0CF0030E4FEA8E1E4FEA9C0C45
:10517000002101F1100300EB430393F806A0DA7954
:105180000AF03F0A22F0070201314AEA0E0A42EA17
:105190000C02112983F806A0DA71EAD190F84A309E
:1051A00080F8488023F01F0380F8498080F84A3057
:1051B0004C308145DCD133782A78A9786878CDE9FC
:1051C0000074FFF75BFC40F61400234600902A466B
:1051D00031464FF04050FFF71FFF02B0BDE8F047E7
:1051E000FFF79AB81408046049F64043014411449B
:1051F0000331490093FBF1F140F2A51070B5012293
:105200000026042588B008AB43F8041D064C059021
:105210000648CDE90126CDE9030411460095642036
:10522000FDF70AFD08B070BD50B401002CB40100B8
:105230002DE9F04FD0F80130D0F80D605C785A7944
:105240008BB0650096F80380002A46D0D0F809207C
:105250009269002A41D0197D96F810B0DB68F1B14F
:105260004FF04C0E9446614A0CEB010A0EFB052EE2
:1052700003F1FF3919F8013F5B0865B110335B4A50
:1052800058001118CB799CF800704C3267F3C703B3
:105290007245CB71F5D10CF1010CD445EAD1002D4A
:1052A00000F09E804C2251490B4602FB051283F808
:1052B00025B04C339342FAD101AF38462422002165
:1052C00014F0D1FFB8F1020F21D0B8F1040F45D08E
:1052D000B8F1010F52D000212AE001AF3846242254
:1052E000002114F0C0FFB8F1020F10D0B8F1040F84
:1052F00034D0B8F1010F41D0002DECD17078327864
:10530000B178FFF771FF39480BB0BDE8F08F002D81
:10531000F4D03B46552105EBC500384403F10902A2
:1053200003F8011B9A42FBD19842F7D19DF8041073
:105330004FF0000C2D4C3846002301E010F8011FFF
:10534000E2180133092B1172F8D10CF1010C6545FB
:1053500004F14C04D2DD17F8091FECE7002DCDD085
:105360003B46AA2105EBC500384403F1090203F8C6
:10537000011B9A42FBD18342F7D1D7E7002DBDD064
:10538000B9464FF0000EDFF868804946DFF864C088
:10539000002311E0012C05D1032B03F0010201DCF5
:1053A000724506D003EBC30208781CF802200243C2
:1053B0000A700133082B06D0022CEBD19E45F1D1A7
:1053C0000133082BF8D10CF1010CE04501F101018A
:1053D000DED10EF1010E754509F10909D5D1A5E718
:1053E0002946242201A814F03EFF87E71408046030
:1053F000C52C0020BC2C00202DE9F04F83B04C239D
:105400000C4692F8018000AF4FEA480603FB06F312
:10541000ADEB030D0021914605461A4668467B60B8
:105420009A4614F020FF69465FFA84FC002E53D0A0
:105430006B461A240DEB0A005A781C7002F0EC023D
:1054400042F002025A704C339842F5D1BCF1000F81
:1054500028D000204FF04C0B4FF0010E013D05E02D
:10546000536901302343604553611ADA15F8013F4F
:1054700009EB030292F915201F2B0EFA03F40BFB24
:105480000212EDDD147E203BA2460EFA03F3C4F3B4
:1054900001041C43013064F3010A604582F818A03E
:1054A000E4DB86B100234C255524B8F1020F07D167
:1054B00005FB0312D07C547420F001009474D07466
:1054C00001339E42F1DC7A68054814F0C1FE0448BD
:1054D0000C37BD46BDE8F08FBCF1000FF3D0B8E744
:1054E00014080460F0B5D0F80130D0F809701E7DC2
:1054F00087B0FD69BB6806B300224FF4807C14E0DE
:10550000786835F8124050F822002402012838BF8C
:105510000120B4FBF0F0B0F5DC7F28BF4FF4DC7065
:1055200023F812000132B24207D028880028E7D1C0
:1055300023F812C00132B242F7D140F20726002010
:1055400002254A78064C0749CDE90100CDE903144C
:105550000596009501216420FDF76EFB07B0F0BDB4
:1055600050B4010010B401002DE9F04F97B081460E
:1055700006AFDFF8D8C16E4E07F11C0807F12C0406
:1055800007F10C05F960BA6196E80F0088E80F0092
:10559000C8E9025C4046214607F16803FB63FAF75D
:1055A0006FFE96E80F00634E84E80F00C4E90256D0
:1055B000204607F13C01FAF763FEFB6899F80120E9
:1055C000D3F80160D3F80D507078D3F809A08001AA
:1055D000C7E9042A44F0010406F0F4FCE98948F024
:1055E0000105DAF800303A69CDE9004501F09CFC8C
:1055F000DAE900013D69EB46EA1DAB0022F0070243
:105600000A33ADEB020D23F007037A690DF1180898
:10561000002DADEB030D7960F368146906AED7F881
:105620000CA014DD002205F1FF3C9C44013B13F863
:10563000011F18B110F801E008F802E01CB154F89D
:10564000211046F82210634502F10102EFD1F0B1BA
:1056500040F2212205920022CDE901220122364B9F
:1056600011460092354A6420CDE9033243462A466A
:10567000FDF7E2FADAF80130DAF80D10DA789AF884
:1056800000300132092B497B1ED0052B3ED094B14E
:105690000024042001214FF4107C0294CDE9000184
:1056A000264C27483346CDE903042A46CDF814C0DA
:1056B0006420FDF7C1FA4946F868DD46FFF712FF9E
:1056C0004437BD46BDE8F08F7B6840F64A30CDE9EF
:1056D00003630091CDE901584FF4F0734FF4487122
:1056E00001F0EAFC4FF40C7C0420164A1349002315
:1056F00004910121CDE901137B6800900392CDF85C
:1057000014C02A466420FDF797FAC0E77B6840F68C
:105710004A30CDE903630091CDE9015882234FF46B
:10572000487101F0C9FC4FF40F7C0420064ADDE704
:1057300048A40100014F0000B4B4010050B40100BE
:10574000C8B40100BCB40100E8BE0100154C000063
:10575000F8B59B0003F10A0424F0070400AF002A07
:10576000ADEB040DEC460CDDBC69ACF10405013C6D
:10577000224414F8016F51F82660944245F8046FF2
:10578000F7D11A46614614F063FDBD46F8BD00BF6F
:1057900010B5D0F80140D0F809204B781169227D6E
:1057A000E46882B008460094FFF7D2FF02B010BD53
:1057B00070B5D0F80150D0F80940EE6882B04B784F
:1057C0002A7DD4E903100096FFF7C2FF287D2269E5
:1057D000A16802B0BDE87040FFF730B9D0F80930D9
:1057E0004A7818699200D96814F032BD2DE9F04763
:1057F000D0F80160D0F80930747882B06400D0F835
:105800000D5033B10F46024619683878274BFFF721
:1058100099FBB76B95F80DC08CB34FF04C09384627
:105820004FF0000809FB04790CF01F0C0CF0030E7C
:105830004FEA8E1E4FEA9C0C002101F1100300EB91
:10584000430393F806A0DA790AF03F0A22F0070230
:1058500001314AEA0E0A42EA0C02112983F806A035
:10586000DA71EAD190F84A3080F8488023F01F03BB
:1058700080F8498080F84A304C308145DCD133785B
:105880002A78A9786878CDE90074FFF7F7F84FF423
:10589000D360234600902A4631464FF04050FFF730
:1058A000BBFB02B0BDE8F047FEF736BD98060460CA
:1058B0002DE9F04FD0F80130D0F80D605C785A79BE
:1058C0008BB0650096F80380002A44D0D0F80920F8
:1058D000906900283FD01A7DD96896F810E0E2B1AF
:1058E0004FF04C0ADFF8889101EB020C013811F8F7
:1058F000013B10F8017FC3F1210393FBF5F205FB97
:1059000012320AFB029223F0010320331344DA79A6
:10591000614567F3C702DA71E9D1002D00F0A1807B
:105920004C2253490B4602FB051283F825E04C3309
:105930009342FAD101AF38462422002114F093FC9F
:10594000B8F1020F21D0B8F1040F45D0B8F1010F22
:1059500052D000212AE001AF38462422002114F061
:1059600082FCB8F1020F10D0B8F1040F34D0B8F1B6
:10597000010F41D0002DECD170783278B178FFF76B
:1059800033FC3B480BB0BDE8F08F002DF4D03B4614
:10599000552105EBC500384403F1090203F8011B4A
:1059A0009A42FBD19842F7D19DF804104FF0000CB9
:1059B0002F4C3846002301E010F8011FE218013394
:1059C000092B1172F8D10CF1010C654504F14C045E
:1059D000D2DD17F8091FECE7002DCDD03B46AA21F8
:1059E00005EBC500384403F1090203F8011B93429B
:1059F000FBD18342F7D1D7E7002DBDD0B9464FF098
:105A0000040CDFF8748005F1040A49461948ACF12A
:105A1000040E002312E0012C05D1032B03F0010238
:105A200001DD964507D003EBC30291F800B0825C1C
:105A300042EA0B020A700133082B06D0022CEAD18D
:105A40009C45F0D10133082BF8D10130804501F19C
:105A50000101DED10CF1010CE24509F10909D4D1B3
:105A6000A2E72946242201A814F0FDFB84E700BF29
:105A700098060460BC2C0020C52C00202DE9F04FB6
:105A800083B04C23567800AF750003FB05F3ADEBF4
:105A9000030D9046834689461A46684600217B607E
:105AA0009A466C4614F0DFFB002D5BD06B4600205D
:105AB0000DEB0A015A78187002F0EC0242F0120263
:105AC0005A704C339942F5D1B9F1000F2EDD002107
:105AD0004FF04C0A4FF0010E0BF1FF3C07E0536909
