:1007E00000CD000000030000906600000000000043
:1007F00000000000000000000000000000000000F9
:100800000235A8009600960701F4000234E50500C1
:10081000140014022DDC0102200102020826023C11
:10082000F300000225D5D2AF320000022DD9208A74
:1008300003020E2A900178E06003020E2A9001C69E
:10084000E07002A3E06003020E2A9001C4E070028F
:10085000A3E06003020E2A900165E07002A3E0604D
:1008600003020E2A9000F1E064206003020E2A9039
:10087000013DE0FF6003020E2AEF704B900117E08C
:10088000FBA3E0FAA3E0F91214F3FFAEF090010528
:10089000E0FBA3E0FAA3E0F91214F3D39FE5F09E86
:1008A0004003020E2A7E007F0A7D007B017A0179D7
:1008B0003E121736E4900171F0A3F09001CCF0A342
:1008C000F09001CAF0A3F0E4F5B2900175E0FFA347
:1008D000E09001F7CFF0A3EFF0C20B300403020D5C
:1008E000FF758D20438D20758D8043A808D2AF758C
:1008F0008B02758EC820042E9000F1E064207026D3
:10090000200923E5DB5404701D758AA4200913E532
:10091000DB5404700DF586758703000000758601B1
:100920008006D20B8002D20B758B01758A3053A8DA
:10093000F7D39001C5E094909001C4E09401400E7B
:10094000A3E02470F09001C4E034FEF08007E4904E
:1009500001C4F0A3F0D39001D1E094909001D0E0D5
:100960009401400EA3E02470F09001D0E034FEF03A
:100970008007E49001D0F0A3F0E49001FBF0A3F035
:1009800012229D90015DEEF0A3EFF0900161EEF078
:10099000A3EFF0C39001F8E09FFF9001F7E09EFE07
:1009A000123D469001F9EEF0A3EFF0D39414EE94CB
:1009B00000502E9001FCE004F070069001FBE00472
:1009C000F0D39001FCE094059001FBE0940040021C
:1009D000D20BD39001FAE0940F9001F9E09400500B
:1009E0009FC39001FAE094149001F9E09400400351
:1009F000020DE2300B03020DE2900151E0FEA3E094
:100A0000FF900161E0FCA3E0FD9FEC9E4053ED9F51
:100A1000FFEC9EFE7C007D0212170990019E1216CB
:100A2000CCE47FB87E88FDFC90019EE0F8A3E0F95D
:100A3000A3E0FAA3E0FBD31216A890019E400A128D
:100A400016D80000EA60020ACAE0FCA3E0FDA3E0B9
:100A5000FEA3E024A8FFEE3461FEE43DFDE43C800B
:100A600062900161E0FEA3E0FFC3900152E09FFFAE
:100A7000900151E09EFE7C007D0212170990019EBC
:100A80001216CCE47FA87E61FDFC90019EE0F8A3E5
:100A9000E0F9A3E0FAA3E0FBD31216A890019E4070
:100AA000091216D8000000008020E0F8A3E0F9A3A6
:100AB000E0FAA3E0FBC374A89BFF74619AFEE4997B
:100AC000FDE498FC90019E1216CC90019EA3A3E039
:100AD000FFA3E090019CCFF0A3EFF09001F7E0FEC0
:100AE000A3E0FF7C007D09121709ECF8EDF9EEFA9E
:100AF000EFFB900161E0FEA3E0FFE4FCFDEB2FFFC4
:100B0000EA3EFEED39FDEC38FCE47B0AFAF9F81216
:100B100016009001F7EEF0A3EFF090013DE06003C6
:100B2000020BF7900108E0FBA3E0FAA3E0F912142E
:100B3000F3FFAEF07C007D03121709ECF8EDF9EE3F
:100B4000FAEFFB90019CE0FEA3E0FFE4FCFDEB2F3D
:100B5000FFEA3EFEED39FDEC38FCE47B04FAF9F8DF
:100B6000121600900100EEF0A3EFF0900108E0FBF8
:100B7000A3E0FAA3E0F91214F3FFAEF07C007D03CA
:100B8000121709ECF8EDF9EEFAEFFB900100E0FE28
:100B9000A3E0FFE4FCFDEB2FFFEA3EFEED39FDECA8
:100BA00038FCE47B04FAF9F8121600900108E0FB27
:100BB000A3E0FAA3E0F9EE8FF0121556900100E0E1
:100BC000F9A3E0FFA3E0FBA3E0FAA3E0C98FF012D2
:100BD0001556900105E0FBA3E0FAA3E0F9E4F5F077
:100BE00012155690010EE0FBA3E0FAA3E0F9E4F53C
:100BF000F0121556020DE2900100E0FEA3E0FF7C2A
:100C0000007D03121709ECF8EDF9EEFAEFFB900105
:100C10009CE0FEA3E0FFE4FCFDEB2FFFEA3EFEEDCF
:100C200039FDEC38FCE47B04FAF9F8121600900167
:100C300000EEF0A3EFF0A3E0FBA3E0FAA3E0F9EEEF
:100C40008FF0121556900108E0FBA3E0FAA3E0F93B
:100C50001214F3FFD390019DE09F90019CE095F06A
:100C60005003020DFF1214F3FFAEF0900102E0FBFF
:100C7000A3E0FAA3E0F91214F3C39FFFE5F09EFE90
:100C8000C3EF9511EE95105003020DFF900105E0A2
:100C9000FBA3E0FAA3E0F91214F3FFAEF07C007DB1
:100CA00002121709ECC0E0EDC0E0EEC0E0EFC0E0DA
:100CB000900108E0FBA3E0FAA3E0F91214F3FFAE01
:100CC000F0900102E0FBA3E0FAA3E0F91214F3C3F1
:100CD0009FFFE5F09EFEE4FCFDD0E0FBD0E0FAD003
:100CE000E0F9D0E0F8EB2FFFEA3EFEED39FDEC38FD
:100CF000FCE47B03FAF9F8121600900105E0FBA36F
:100D0000E0FAA3E0F9EE8FF0121556900105E0FB32
:100D1000A3E0FAA3E0F91214F3D39430E5F094754C
:100D20004008747575F030121556900178E0700324
:100D3000020DE290017CE0FEA3E0FFD39400EE946C
:100D4000005003020DE2900105E0FBA3E0FAA3E0EE
:100D5000F91214F3C39FFFE5F09EFE123D46900189
:100D6000A2EEF0A3EFF0900105E0FBA3E0FAA3E010
:100D7000F91214F3FFC390017DE09F90017CE09590
:100D8000F050209001A3E0940A9001A2E09400406A
:100D900012900108E0FBA3E0FAA3E0F9E475F00784
:100DA00012151E900105E0FBA3E0FAA3E0F912146E
:100DB000F3FFD390017DE09F90017CE095F040220D
:100DC000D39001A3E0940A9001A2E0940040139014
:100DD0000108E0FBA3E0FAA3E0F974FF75F0F91253
:100DE000151E200B1AC39001FAE094149001F9E04B
:100DF0009400500B9000F1E0642070030208DB9037
:100E00000177E004F09001801216D800000000E4A1
:100E1000900184F0A3F0A3F0A3F09001ED1216D896
:100E200000000000123CF3123BA92290019EEFF05B
:100E3000A3ECF0A3EDF0EFC454F024E3F582E43426
:100E400001F583E0FEA3E0C39DFFEE9CFE123D464C
:100E5000D3EF9428EE64809480406C90019EE0FB78
:100E6000C454F024D9F582E43401F5831216D80075
:100E7000000000EBC454F024DDF582E43401F58376
:100E8000E4F0A3F090019EE0FFC454F024E1F58269
:100E9000E43401F583E4F0A3F0EFC454F024E6F564
:100EA00082E43401F583E4F090019FE0FEA3E0FFCB
:100EB00090019EE0C454F024E3F582E43401F5830C
:100EC000EEF0A3EFF0806C90019EE0C454F024DFBC
:100ED000F582E43401F583E0FEA3E0FFD39400EE55
:100EE0009400404F90019FE0FCA3E0FDD3EF9DEE06
:100EF0009C401490019EE0C454F024E6F582E43452
:100F000001F583E04401F090019EE0FFC454F02419
:100F1000DFF582E43401F583E0FAA3E0C39DEA9CA7
:100F20005011EFC454F024E6F582E43401F583E077
:100F30004402F090019EE0C454F024D9F582E434D8
:100F400001F583C083C082E0F8A3E0F9A3E0FAA32F
:100F5000E0FB90019FE0FEA3E0FFE4FCFDEB2FFF30
:100F6000EA3EFEED39FDEC38FCD082D0831216CC7F
:100F700090019EE0FFC454F024DDF582E43401F5D5
:100F800083E475F0011214DDEF75F007A42408F571
:100F900082E43408F583E493FE740193FF90019E8C
:100FA000E0FDC454F024E1F582E43401F583E0FA75
:100FB000A3E0C39FEA9E5003021276EDC454F024CE
:100FC000DDF582E43401F583E0FEA3E0FBEEFAE414
:100FD000F9F890019EE0C454F024D9F582E434017C
:100FE000F583E0FCA3E0FDA3E0FEA3E0FF12160002
:100FF0009001A11216CC9001A1A3A3E0FEA3E0FFF3
:1010000090019EE0C454F024DFF582E43401F583BE
:10101000E0FCA3E0C39FFFEC9EFE123D469001A5BD
:10102000EEF0A3EFF090019EE0FD75F007A424031D
:10103000F582E43408F583C37401939FE4939E40E2
:1010400031EDC454F024DFF582E43401F583E0FE91
:10105000A3E04E601D90019EE0FBC454F024E7F530
:1010600082E43401F583E0FEA3E0C394B8EE940B70
:10107000504790019EE0FFC454F024DFF582E43431
:1010800001F583E0FCA3E04C7011EFC454F024E7B9
:10109000F582E43401F583E4F0A3F09001A1A3A369
:1010A000E0FEA3E0FF90019EE0C454F024DFF5824F
:1010B000E43401F583EE021199EB600302119F9075
:1010C00001A7F09001A5E0FEA3E0FFD39450EE94B9
:1010D000004006A37408F0803B90019EE0C454F0E9
:1010E00024E6F582E43401F583E064036026D3EF5F
:1010F000943CEE940040089001A77404F08015D34E
:101100009001A6E094289001A5E09400400690018B
:10111000A77402F090019EE0C454F024DFF582E44D
:101120003401F583E0FEA3E0FFE4FCFD9001A1E0C3
:10113000F8A3E0F9A3E0FAA3E0FBD31216A8401E3F
:101140009001A7E0FF90019EE0C454F024DFF582F7
:10115000E43401F583E48FF01214DD02120AD39017
:1011600001A6E094509001A5E09400500302120AF9
:1011700090019EE0C454F024DFF582E43401F5834D
:10118000C083C082E0FEA3E0FF9001A7E0FDC3EFB3
:101190009DFFEE9400D082D083F0A3EFF0806B909F
:1011A000019EE0C454F024DFF582E43401F583E0CD
:1011B000FEA3E0FF4E70169001A1E0F8A3E0F9A3B2
:1011C000E0FAA3E0FFEAFEE9FDE8FC80287C007D70
:1011D000071217099001A1E0F8A3E0F9A3E0FAA330
:1011E000E02FFFEA3EFEE93DFDE83CFCE47B08FA27
:1011F000F9F812160090019EE0C454F024DFF58245
:10120000E43401F583EEF0A3EFF090019EE0FBC41F
:1012100054F024D9F582E43401F5831216D8000085
:101220000000EBC454F024DDF582E43401F583E4DE
:10123000F0A3F090019EE0FFC454F024E1F582E4B5
:101240003401F583E4F0A3F0EFC454F024E6F58212
:10125000E43401F583E4F09001A1A3A3E0FEA3E050
:10126000FF90019EE0C454F024E3F582E43401F5DC
:1012700083EEF0A3EFF090019EE0C454F024DFF57C
:1012800082E43401F583E0FEA3E0FFD39400EE9402
:101290000050030213419001A0E09FFF90019FE0E6
:1012A0009EFE123D4690019EE075F007A42405F5D0
:1012B00082E43408F583D37401939FE4939E402E17
:1012C00090019EE0FFC454F024DFF582E43401F580
:1012D00083E0FDA3E090019FCDF0A3EDF0EFC454B7
:1012E000F024E5F582E43401F583E4F080539001C5
:1012F0009EE0FF75F007A42407F582E43408F58327
:10130000E493FEEFC454F024E5F582E43401F58360
:10131000E0C39E502C90019EE0C454F024DFF5827F
:10132000E43401F583E0FDA3E090019FCDF0A3ED4F
:10133000F0EFC454F024E5F582E43401F583E004D1
:10134000F090019FE0FEA3E0FF22E709F608DFFA34
:101350008046E709F208DFFA803E88828C83E7093D
:10136000F0A3DFFA8032E309F608DFFA8078E309B8
:10137000F208DFFA807088828C83E309F0A3DFFA39
:10138000806489828A83E0A3F608DFFA8058898224
:101390008A83E0A3F208DFFA804C80D280FA80C60C
:1013A00080D4806980F28033801080A680EA809AA1
:1013B00080A880DA80E280CA803389828A83ECFA4E
:1013C000E493A3C8C582C8CCC583CCF0A3C8C582AA
:1013D000C8CCC583CCDFE9DEE7800D89828A83E44F
:1013E00093A3F608DFF9ECFAA9F0EDFB2289828AD3
:1013F00083ECFAE0A3C8C582C8CCC583CCF0A3C8EF
:10140000C582C8CCC583CCDFEADEE880DB89828A6E
:1014100083E493A3F208DFF980CC88F0EF60010E3B
:101420004E60C388F0ED2402B4040050B9F582EB9D
:101430002402B4040050AF232345822390139A73EF
:10144000EF8DF0A4A8F0CF8CF0A428CE8DF0A42EC0
:10145000FE22BC000BBE0029EF8DF084FFADF02210
:10146000E4CCF875F008EF2FFFEE33FEEC33FCEE22
:101470009DEC984005FCEE9DFE0FD5F0E9E4CEFD15
:1014800022EDF8F5F0EE8420D21CFEADF075F008E8
:10149000EF2FFFED33FD4007985006D5F0F222C341
:1014A00098FD0FD5F0EA22C2D5EC30E709B2D5E4B9
:1014B000C39DFDE49CFCEE30E715B2D5E4C39FFF6D
:1014C000E49EFE121452C3E49DFDE49CFC800312D2
:1014D000145230D507C3E49FFFE49EFE22C5F0F806
:1014E000A3E028F0C5F0F8E582158270021583E0CC
:1014F00038F022BB010A89828A83E0F5F0A3E0225A
:10150000500687F009E71922BBFE07E3F5F009E36F
:10151000192289828A83E493F5F074019322BB0136
:101520000789828A830214DD500B09C5F027F7C5AD
:10153000F01937F722BBFE0D09F8E325F0F3C5F0EB
:1015400019E338F322F889828A8374019325F0C560
:10155000F0F8E4933822BB010A89828A83F0E5F02F
:10156000A3F0225006F709A7F01922BBFE06F3E507
:10157000F009F31922E88FF0A4CC8BF0A42CFCE93D
:101580008EF0A42CFC8AF0EDA42CFCEA8EF0A4CD05
:10159000A8F08BF0A42DCC3825F0FDE98FF0A42C19
:1015A000CD35F0FCEB8EF0A4FEA9F0EB8FF0A4CFCC
:1015B000C5F02ECD39FEE43CFCEAA42DCE35F0FD7D
:1015C000E43CFC2275F008758200EF2FFFEE33FE3D
:1015D000CD33CDCC33CCC58233C5829BED9AEC990B
:1015E000E58298400CF582EE9BFEED9AFDEC99FCAD
:1015F0000FD5F0D6E4CEFBE4CDFAE4CCF9A88222F4
:10160000B800C1B90059BA002DEC8BF084CFCECD13
:10161000FCE5F0CBF97818EF2FFFEE33FEED33FD4C
:10162000EC33FCEB33FB10D703994004EB99FB0F31
:10163000D8E5E4F9FA227818EF2FFFEE33FEED3308
:10164000FDEC33FCC933C910D7059BE99A4007EC80
:101650009BFCE99AF90FD8E0E4C9FAE4CCFB2275C7
:10166000F010EF2FFFEE33FEED33FDCC33CCC8335B
:10167000C810D7079BEC9AE899400AED9BFDEC9ABD
:10168000FCE899F80FD5F0DAE4CDFBE4CCFAE4C835
:10169000F922EB9FF5F0EA9E42F0E99D42F0EC64FE
:1016A00080C864809845F022EB9FF5F0EA9E42F0F6
:1016B000E99D42F0E89C45F022E8600FECC313FC82
:1016C000ED13FDEE13FEEF13FFD8F122ECF0A3EDC6
:1016D000F0A3EEF0A3EFF022A8828583F0D083D0B0
:1016E000821216EF1216EF1216EF1216EFE473E4E1
:1016F00093A3C583C5F0C583C8C582C8F0A3C583BD
:10170000C5F0C583C8C582C822EC8EF0A4CCC5F054
:10171000CCCDF8EFA4CEC5F02DFDE43CFCE8A42E22
:10172000C8C5F03DFDE43CFCEFA4FFE5F028FEE475
:101730003DFDE43CFC22EF4E6012EF60010EEDBB7C
:10174000010B89828A83F0A3DFFCDEFA2289F05044
:1017500007F709DFFCA9F022BBFEFCF309DFFCA9B7
:10176000F022D39001C5E094009001C4E0940040C1
:1017700003021B40900108E0FBA3E0FAA3E0F9128A
:1017800014F3FFAEF0900102E0FBA3E0FAA3E0F94E
:101790001214F3FDACF0D39FEC9E4054900108E08E
:1017A000FBA3E0FAA3E0F91214F3FFC3ED9FFFECF3
:1017B00095F0FED3EF9430EE9475400C90019C743C
:1017C00075F0A37430F080211214F3FFAEF0900195
:1017D00002E0FBA3E0FAA3E0F91214F3C39FFFE5D4
:1017E000F09E90019CF0A3EFF0E490019602187F28
:1017F000900102E0FBA3E0FAA3E0F91214F3FFAEBC
:10180000F0900108E0FBA3E0FAA3E0F91214F3FD65
:10181000ACF0C39FFFEC9EFED3EF9410EE942740F4
:101820000C90019C7427F0A37410F0801D900102AD
:10183000E0FBA3E0FAA3E0F91214F3FFC3ED9FFE6F
:10184000EC95F090019CF0A3CEF090019CE0FFA3FA
:10185000E0900196CFF0A3EFF0300018D3E0942C85
:10186000900196E0940140139001987427F0A374BE
:1018700010F08007E4900198F0A3F0E490019CF050
:10188000A3F090013DE0605B90019CE0FEA3E0FFCF
:10189000D39400EE648094804014D3EF9509EE95C4
:1018A00008400B9001CAE4F0A37464F08027D39041
:1018B00001CBE094009001CAE0940040189001052B
:1018C000E0FBA3E0FAA3E0F91214F3FF90019CE51A
:1018D000F0F0A3EFF0D2089001D0740FF0A374A041
:1018E000F0800F9001CE7403F0A374E8F0E4FF12CF
:1018F0003B28D390019DE0940090019CE06480948B
:10190000805003021AEBE0F9A3E0FF900105E0FB31
:10191000A3E0FAA3E0C98FF012155690019CE0FEF7
:10192000A3E0FFEE3395E0FDFCE47BB87A88F9F89C
:10193000C3121692500A90019C7488F0A374B8F0F8
:10194000D39001CDE094009001CCE0940050089039
:1019500000F1E06420702290019CE0FEA3E0FFC350
:1019600094A0EE648094805010EF9400EE64809414
:101970008040447C007D0A803330003B90013DE094
:10198000701690019CE0FEA3E0FFC39511EE951048
:1019900050257C027DBC801490019CE0FEA3E0FFFA
:1019A000C39509EE9508500F7C027DBC1214A790D8
:1019B000019CEEF0A3EFF090013DE07003021A618C
:1019C0009001CEE07002A3E0701990019CE0FEA3AC
:1019D000E0FDEEFCE4FF120E2B90019CEEF0A3EF75
:1019E000F0803E90019CE0FEA3E0FFC3900136E052
:1019F0009FFF900135E09EFE123D46D3EF9428EE06
:101A000064809480401BD39001CFE094C89001CEB5
:101A1000E09400400CA3E0249CF09001CEE034FF61
:101A2000F0900135E0FEA3E0FF7C007D071217096E
:101A3000ECF8EDF9EEFAEFFB90019CE0FEA3E0FF7D
:101A4000EE3395E0FDFCEB2FFFEA3EFEE93DFDE8BD
:101A50003CFCE47B08FAF9F8121600900135EE80A0
:101A60000B90019CE0FFA3E0900135CFF0A3EFF0D5
:101A7000900135E0FEA3E0FFD39405EE9400400E04
:101A8000EF9410EE9400500690019CEE80169001A9
:101A900031E0FEA3E0FF900136E02FFF900135E03A
:101AA0003E90019CF0A3EFF0D390019DE094309024
:101AB000019CE0648094F540077475F0A37430F0E5
:101AC000E5DB5404707A90019CE0F9A3E0FF9001FB
:101AD0000EE0FBA3E0FAA3E0C98FF01215569001C7
:101AE0009DE024A8FF90019CE08042E5DB54047057
:101AF0004F900105E0FBA3E0FAA3E0F9E4F5F01252
:101B00001556900131E0F9A3E0FF90010EE0FBA330
:101B1000E0FAA3E0C98FF012155690010EE0FBA386
:101B2000E0FAA3E0F91214F324A8FFE5F03461F918
:101B300090010BE0FBA3E0FAA3E0C98FF012155669
:101B4000229001B1ECF0A3EDF09001B0EFF075F050
:101B50000EA424F1F582E43401F583E0704E900187
:101B6000B0E075F00EA424EDF582E43401F583E0D5
:101B7000FCA3E0FDA3E0FEA3E0FFE4FBFAF9F8C359
:101B80001216A860279001B0E075F00EA424E9F5C4
:101B900082E43401F583E0FCA3E0FDA3E0FEA3E0D2
:101BA000FFE4F8C31216A86003021CBD9001B3A3A2
:101BB000A3E0FEA3E0FFC39001B2E09FFF9001B15C
:101BC000E09EFE123D469001B0E0FD75F00EA424AB
:101BD000F2F582E43401F583EEF0A3EFF0ED75F059
:101BE0000EA424F1F582E43401F583E06041ED7543
:101BF000F005A42411F582E43408F583E493FE741F
:101C00000193FFED75F00EA424F2F582E43401F5A2
:101C100083E0FCA3E0D39FEC9E40149001B0E075FC
:101C2000F00EA424F1F582E43401F5837405F090FC
:101C300001B3E0FCA3E0FDA3E0FEA3E0FF9001B050
:101C4000E0FB75F00EA424EDF582E43401F5831277
:101C500016CCEB75F00EA424F5F582E43401F5837F
:101C6000E0FEA3E0FFE4FCFD9001B3E0F8A3E0F99F
:101C7000A3E0FAA3E0FB1215759001B0E0FB75F04C
:101C80000EA424E9F582E43401F5831216CCEB7539
:101C9000F00EA424F1F582E43401F583E0D394003E
:101CA000748094804011EB75F00EA424F1F582E469
:101CB0003401F583E014F09001B3021F059001B0E8
:101CC000E0FB75F00EA424EDF582E43401F583E029
:101CD000FCA3E0FDA3E0FEA3E0FF9001B71216CC49
:101CE000EB75F00EA424E9F582E43401F583E0FC01
:101CF000A3E0FDA3E0FEA3E0FF9001BB1216CC9091
:101D000001BBE0FCA3E0FDA3E0FEA3E0FF9001B077
:101D1000E075F00EA424F4F582E43401F583E0F9D3
:101D2000F81216B9EFFBEEFAEDF9ECF89001BBE012
:101D3000FCA3E0FDA3E0FEA3E0C39BFFEE9AFEED53
:101D400099FDEC98FCA31216CC9001B7E0FCA3E03F
:101D5000FDA3E0FEA3E0FF9001B3E0F8A3E0F9A348
:101D6000E0FAA3E02FFFEA3EFEE93DFDE83CFC90EF
:101D700001BFE0F8A3E0F9A3E0FAA3E02FFFEA3EF9
:101D8000FEE93DFDE83CFC9001BB1216CC9001B38E
:101D9000E0FCA3E0FDA3E0FEA3E0FF9001B0E0FBC8
:101DA00075F00EA424EDF582E43401F5831216CC0F
:101DB0009001BBE0FCA3E0FDA3E0FEA3E0FFEB7518
:101DC000F00EA424E9F582E43401F5831216CC90D8
:101DD00001BBE0FCA3E0FDA3E0FEA3E0FFECC0E05C
:101DE000EDC0E0EEC0E0EFC0E09001B0E075F00EB5
:101DF000A424F5F582E43401F583E0FEA3E0FBEED4
:101E0000FAE4F9F8D0E0FFD0E0FED0E0FDD0E0FC4D
:101E10001216009001BB1216CC9001B3A3A3E0FEF2
:101E2000A3E0FBEEFA9001BBA3A3E0FEA3E0C39BFB
:101E3000FFEE9AFE123D469001B0E0FD75F00EA453
:101E400024F2F582E43401F583EEF0A3EFF0ED75B2
:101E5000F005A4240FF582E43408F583E493FE74BE
:101E60000193FFED75F00EA424F2F582E43401F540
:101E700083E0FCA3E0D39FEC9E5003021F0290017D
:101E8000B3E0FCA3E0FDA3E0FEA3E0FF9001B0E01F
:101E9000FB75F00EA424EDF582E43401F5831216EF
:101EA000CCEB75F00EA424F5F582E43401F583E063
:101EB000FEA3E0FFE4FCFD9001B3E0F8A3E0F9A38A
:101EC000E0FAA3E0FB1215759001B0E0FB75F00E8F
:101ED000A424E9F582E43401F5831216CCEB75F005
:101EE0000EA424F1F582E43401F5837405F0900129
:101EF000B3E0FCA3E0FDA3E0FEA3E0FF9001BB1272
:101F000016CC9001BBA3A3E0FEA3E0FF2212332D69
:101F1000900180E0F8A3E0F9A3E0FAA3E0FBE8C0B9
:101F2000E0E9C0E0EAC0E0EBC0E090011DE0FBA307
:101F3000E0FAA3E0F91214F3FFE4FCFDD0E0FBD0DB
:101F4000E0FAD0E0F9D0E0F8EB2FFFEA35F0FEED53
:101F500039FDEC38FC9001801216CC900185E0042C
:101F6000F07006900184E004F0C3900187E094646F
:101F7000900186E09400500302229C900180E0FCD6
:101F8000A3E0FDA3E0FEA3E0FFECC0E0EDC0E0EEC7
:101F9000C0E0EFC0E0A3E0FEA3E0FBEEFAE4F9F856
:101FA000D0E0FFD0E0FED0E0FDD0E0FC12160090C3
:101FB00001801216CC900180A3A3E0FFA3E0900162
:101FC0007ECFF0A3EFF0A31216D800000000E4903B
:101FD0000184F0A3F0A3F0A3F09001C4E07002A389
:101FE000E0600302229C900188E07002A3E060039D
:101FF00002229C90013DE070030220BF90017AE034
:10200000FEA3E0FF4E703490017EE0FDA3E090015E
:102010007ACDF0A3EDF0900105E0FBA3E0FAA3E098
:10202000F91214F3FD90017CE5F0F0A3EDF09001BE
:102030008A7403F0A374E8F00220D890017EE0FCDB
:10204000A3E0FDC3EF9DFFEE9CFE123D4690019084
:10205000E0FBA3E0FAA3E0F9EE8FF0121556900131
:1020600078E07037900190E0FBA3E0FAA3E0F9126A
:1020700014F3C39419E5F09400501A900105E0FBA5
:10208000A3E0FAA3E0F91214F3FF90017CE5F0F06D
:10209000A3EFF080069001787401F090017EE0FEDD
:1020A000A3E0FFD390017BE09F90017AE09E400780
:1020B000E4900179F080219001797401F08019E4B5
:1020C00090017AF0A3F0A3F0A3F0900178F09001D2
:1020D0008CF0A3F0A3F0A3F0900178E0700302224B
:1020E0009C90017CE0FEA3E0FFD39400EE940050AE
:1020F0000302229C900105E0FBA3E0FAA3E0F912A1
:1021000014F3C39FFFE5F09EFE123D4690019CEE46
:10211000F0A3EFF0900194EEF0A3EFF0900105E052
:10212000FBA3E0FAA3E0F91214F3FFAEF090017CF8
:10213000E0FCA3E0FDD39FEC9E400FD390019DE017
:10214000945090019CE094005015C3ED9FEC9E507C
:102150004E90019DE094C890019CE094004040E4C2
:10216000900178F090017AF0A3F0900105E0FBA3D4
:10217000E0FAA3E0F91214F3FFC390017DE09F9011
:10218000017CE095F09001885008E4F0A374C8F059
:1021900080077401F0A3742CF0E4900179F0229090
:1021A0000105E0FBA3E0FAA3E0F91214F3FFD390DA
:1021B000017DE09F90017CE095F0406AD390019D05
:1021C000E0941E90019CE09400405B90018FE094AD
:1021D0005890018EE09402504D900108E0FBA3E07E
:1021E000FAA3E0F974FF75F0F912151E90018FE063
:1021F0002407F090018EE03400F090018CE0FEA303
:10220000E0FFC394E8EE9403501CEF9407EE9400B3
:10221000400DE024F9F090018CE034FFF08007E4F9
:1022200090018CF0A3F0900105E0FBA3E0FAA3E09D
:10223000F91214F3FFC390017DE09F90017CE095BB
:10224000F0505990019DE0941E90019CE094004054
:102250004B900108E0FBA3E0FAA3E0F9E475F00776
:1022600012151E90018DE02407F090018CE03400DF
:10227000F090018EE0FEA3E0FFC39458EE9402506C
:102280001BEF9407EE9400400CE024F9F090018ECF
:10229000E034FFF022E490018EF0A3F0227F0112DF
:1022A00039EF123C9A758A50902E207401F0902ECE
:1022B00020E030E2F990081AE49375F002A42400BB
:1022C000F582E5F0342EF583E0FFA3E09001AACF7C
:1022D000F0A3EFF0902E20E4F0758A307F01122DEC
:1022E000C8900157E0FEA3E0FF4E700E9001AAE0F7
:1022F000FCA3E0FDECFEEDFF801AEF25E0FFEE33DE
:10230000FE9001ABE02FFF9001AAE03EFE7C007D35
:1023100003121452900157EEF0A3EFF0900153E036
:102320007002A3E0700F900157E0FFA3E09001530B
:10233000CFF0A3EFF09001AC1216D800002710E404
:10234000FF1239EFE49001A7F09001A7E0C39403D6
:10235000748094804003022457E4FF123C9A758AEB
:1023600050902E207401F0902E20E030E2F9900879
:1023700019E49375F002A42400F582E5F0342EF5FB
:1023800083E0FFA3E09001A8CFF0A3EFF0902E2010
:10239000E4F0758A30FF122DC8900153E0FEA3E0EF
:1023A000FF9001A9E02FFF9001A8E03EFE900157A9
:1023B000E0FCA3E0FDC3EF9DFFEE9C9001A8F0A31D
:1023C000EFF0900155E0FEA3E0FF4E700E9001A8E3
:1023D000E0FCA3E0FDECFEEDFF801AEF25E0FFEE50
:1023E00033FE9001A9E02FFF9001A8E03EFE7C00A3
:1023F0007D03121452900155EEF0A3EFF0E4FCFDC2
:102400009001B31216CC900159E0FCA3E0FDE4FF6B
:10241000121B41900159EEF0A3EFF09001ACE0F8EF
:10242000A3E0F9A3E0FAA3E0FB900159E0FEA3E0EA
:102430002400FFEE34E0FE3395E0FDFCEB2FFFEAD5
:102440003EFEE93DFDE83CFC9001AC1216CC90014B
:10245000A7E004F0022349902E23E4F07F507EC3CE
:10246000FDFC9001ACE0F8A3E0F9A3E0FAA3E0FBE7
:10247000D3121692400A9001AC1216D80000C35035
:102480009001ACE0FCA3E0FDA3E0FEA3E0FFEC3391
:10249000500A9001AC1216D80000000090015FE0D5
:1024A000FAA3E0FB4A700C9001ACA3A3E0FEA3E00A
:1024B000FF80347E007F02EBFDEAFC121709ECF886
:1024C000EDF9EEFAEFFB9001ACE0FCA3E0FDA3E038
:1024D000FEA3E02BFFEA3EFEE93DFDE83CFCE47B89
:1024E00003FAF9F812160090015FEEF0A3EFF090F6
:1024F0000151E07002A3E0700F90015FE0FFA3E0E4
:10250000900151CFF0A3EFF0900127E0F8A3E0F99C
:10251000A3E0FAA3E0FB900159E0FEA3E0FFE4FC96
:10252000FDEB2FFFEA3EFEED39FDEC38FC90012774
:102530001216CC90012CE004F0700690012BE00400
:10254000F090012BE0FEA3E0FFD3940AEE9400404C
:1025500031EFFBEEFAE4F9F8900127E0FCA3E0FD8F
:10256000A3E0FEA3E0FF121600900125EEF0A3EF1A
:10257000F0E490012BF0A3F09001271216D8000090
:10258000000090012DE07002A3E07040900125E072
:10259000FEA3E0FFC390015AE09FFF900159E09E27
:1025A000FE123D46900123EEF0A3EFF0D39406EE29
:1025B0009400401890012D7403F0A374E8F090018A
:1025C00030E004F0700690012FE004F090015FE02D
:1025D000FEA3E0FF22C0E0C083C082C0D0D2AFD350
:1025E0009001C5E094009001C4E09400400CA3E089
:1025F00024FFF09001C4E034FFF0D39001C9E094CF
:10260000009001C8E09400400EA3E024FFF0900188
:10261000C8E034FFF08002D28AD39001C7E0940072
:102620009001C6E09400400CA3E024FFF09001C6A6
:10263000E034FFF0C3900147E094BC900146E09481
:1026400002500CA3E004F07006900146E004F0D3C1
:102650009001CBE094009001CAE09400400CA3E00C
:1026600024FFF09001CAE034FFF0D39001CDE09454
:10267000009001CCE09400400CA3E024FFF0900116
:10268000CCE034FFF0D39001D3E094009001D2E08D
:102690009400400CA3E024FFF09001D2E034FFF05E
:1026A000D39001CFE094009001CEE09400400CA3C1
:1026B000E024FFF09001CEE034FFF0D39001D1E0B0
:1026C00094009001D0E09400400CA3E024FFF0902F
:1026D00001D0E034FFF0D3900199E094009001988C
:1026E000E09400400CA3E024FFF0900198E034FF58
:1026F000F0D39001D5E094009001D4E09400400C18
:10270000A3E024FFF09001D4E034FFF0C3900187F0
:10271000E09464900186E09400500CA3E004F07013
:1027200006900186E004F0D3900189E094009001C6
:1027300088E09400400CA3E024FFF0900188E0348E
:10274000FFF0D390018BE0940190018AE094004067
:102750000CA3E024FFF090018AE034FFF0D3900155
:1027600066E09401900165E09400400CA3E024FF32
:10277000F0900165E034FFF0D390019BE09400906D
:10278000019AE09400400CA3E024FFF090019AE04D
:1027900034FFF0C39001E8E094B89001E7E0940BB7
:1027A000500CA3E004F070069001E7E004F0C39041
:1027B00001E2E094F49001E1E09401500CA3E00404
:1027C000F070069001E1E004F0D390012EE0940057
:1027D00090012DE09400400CA3E024FFF090012D27
:1027E000E034FFF0D0D0D082D083D0E032D390015B
:1027F000C5E09F9001C4E09E400AA3E09FF09001D5
:10280000C4E09EF0D39001C9E09F9001C8E09E40D3
:102810000CA3E09FF09001C8E09EF08002D28AD322
:102820009001C7E09F9001C6E09E400AA3E09FF0A0
:102830009001C6E09EF0C3900147E094BC90014631
:10284000E09402500AA3E02FF0900146E03EF0D35E
:102850009001CBE09F9001CAE09E400AA3E09FF068
:102860009001CAE09EF0D39001CDE09F9001CCE0B2
:102870009E400AA3E09FF09001CCE09EF0D390012F
:10288000D3E09F9001D2E09E400AA3E09FF0900128
:10289000D2E09EF0D39001CFE09F9001CEE09E4029
:1028A0000AA3E09FF09001CEE09EF0D39001D1E02A
:1028B0009F9001D0E09E400AA3E09FF09001D0E0FD
:1028C0009EF0D3900199E09F900198E09E400AA36A
:1028D000E09FF0900198E09EF0D39001D5E09F90AA
:1028E00001D4E09E400AA3E09FF09001D4E09EF066
:1028F000C3900187E09464900186E09400500AA39D
:10290000E02FF0900186E03EF0D3900189E09F90A7
:102910000188E09E400AA3E09FF0900188E09EF0CD
:10292000EF2401FDE43EFCD390018BE09D90018AF1
:10293000E09C400AA3E09FF090018AE09EF0EF2423
:1029400001FDE43EFCD3900166E09D900165E09CB2
:10295000400AA3E09FF0900165E09EF0D390019BB8
:10296000E09F90019AE09E400AA3E09FF090019AB8
:10297000E09EF0C39001E8E094B89001E7E0940B8A
:10298000500AA3E02FF09001E7E03EF0C39001E28F
:10299000E094F49001E1E09401500AA3E02FF0905C
:1029A00001E1E03EF0D390012EE09F90012DE09EEA
:1029B000400AA3E09FF090012DE09EF02290019C40
:1029C0007402F0A374BCF0D390019BE094009001DA
:1029D0009AE094004021900102E0FBA3E0FAA3E01A
:1029E000F91214F3FF900108E0FBA3E0FAA3E0F969
:1029F000E5F08FF01215569001C4E07002A3E0607C
:102A00000B90019CE4F0A37464F0800B90001AE03A
:102A1000641170037420F090013DE0600F7E007F30
:102A20000A7D007B017A01793E02173690013EE073
:102A3000F8A3E0F9A3E0FAA3E0FBE8C0E0E9C0E016
:102A4000EAC0E0EBC0E0900102E0FBA3E0FAA3E003
:102A5000F91214F3FFE4FCFDD0E0FBD0E0FAD0E083
:102A6000F9D0E0F8EB2FFFEA35F0FEED39FDEC3858
:102A7000FC90013E1216CC900143E004F0700690E9
:102A80000142E004F090019CE0FEA3E0FFC390014E
:102A900047E09F900146E09E5003022B8A90013E42
:102AA000E0FCA3E0FDA3E0FEA3E0FFECC0E0EDC08E
:102AB000E0EEC0E0EFC0E0A3E0FEA3E0FBEEFAE44E
:102AC000F9F8D0E0FFD0E0FED0E0FDD0E0FC121637
:102AD0000090013E1216CC900108E0FBA3E0FAA39F
:102AE000E0F91214F32432FFE435F0FEE4FCFD902B
:102AF000013EE0F8A3E0F9A3E0FAA3E0FBD312164D
:102B0000A8404D9001C4E07002A3E070432008404B
:102B1000900145E004F07006900144E004F0D39089
:102B20000145E09405900144E09400404690013E48
:102B3000A3A3E0F9A3E0FF900108E0FBA3E0FAA360
:102B4000E0C98FF0121556E4900144F0A3F0802301
:102B500090013EA3A3E0F9A3E0FF900108E0FBA3EE
:102B6000E0FAA3E0C98FF0121556E4900144F0A3F7
:102B7000F0C20890013E1216D800000000E4900157
:102B800042F0A3F0900146F0A3F022900171E0FE24
:102B9000A3E0FFC39404EE9400502F900100E0FCEA
:102BA000A3E0FDEF25E0FFEE33FE74692FF582749C
:102BB000013EF583ECF0A3EDF0900172E004F070BB
:102BC00006900171E004F0022C929001A97401F0CA
:102BD0009001A9E0FFC3940474809480502AEF25EB
:102BE000E02469F582E43401F583E0FCA3E0FDEF25
:102BF00025E02467F582E43401F583ECF0A3EDF0E1
:102C00009001A9E004F080C890013DE0600280736B
:102C1000900102E0FBA3E0FAA3E0F91214F3FF90A5
:102C20000100E0FCA3E0FDC3EF9DFFE5F09CFE1278
:102C30003D46C3EF9428EE6480948050469001088E
:102C4000E0FBA3E0FAA3E0F91214F3FFC390010143
:102C5000E09FFF900100E095F0FE123D46C3EF9427
:102C600014EE648094805005900108800390010266
:102C7000E0FBA3E0FAA3E0F91214F3FF90016FE583
:102C8000F0800B900100E0FFA3E090016FCFF0A374
:102C9000EFF09001A51216D800000000E49001A901
:102CA000F09001A9E0FFD3900172E09F900171E0E4
:102CB0009400403D9001A5E0F8A3E0F9A3E0FAA359
:102CC000E0FBA3E025E02469F582E43401F583E02C
:102CD000FEA3E0FFE4FCFDEB2FFFEA3EFEED39FD35
:102CE000EC38FC9001A51216CC9001A9E004F0800C
:102CF000B09001A5E0FCA3E0FDA3E0FEA3E0FFECA3
:102D0000C0E0EDC0E0EEC0E0EFC0E0900171E0FE99
:102D1000A3E0FBEEFAE4F9F8D0E0FFD0E0FED0E06B
:102D2000FDD0E0FC1216009001A51216CC9001A572
:102D3000A3A3E0FEA3E0FF22900137E0FBA3E0FAAB
:102D4000A3E0F91214F3641045F07003123A4890AE
:102D50000001E064AA700312398E900013E0FF7E38
:102D60000064107002D203EF64204E7002C203129E
:102D700037BF20070890001AE06410700E90001A08
:102D80007411F0C2079001C37401F09000FBE06081
:102D900006E4F09001C3F0900165E07004A3E064E4
:102DA000017015900165F0A3F090019A7407F0A3EB
:102DB00074D0F0E49001C3F030040CC2049001C65A
:102DC0007401F0A374F4F022EF90081993900816A0
:102DD000934291428843912022D2AF32D2AF320047
:102DE0000301ABCD74AA7583F5758255A57455752D
:102DF00083FA7582AAA574A57583F5758255A522F7
:102E000002040AB00BB60CFF090208FF0D770E048E
:102E100013071410108015001600019212072008E5
:102E20000F0202040101111010120A0A0302047EAB
:102E3000007FFF7D007B017A0079001217367E004B
:102E40007F9C7D007B017A0179001217367E007F1E
:102E5000147D007B017A0179C3121736902DE0E4CE
:102E600093900001F09000047411F0A37422F0A379
:102E70007433F0902DE2E493900012F0902DE3E48F
:102E800093900014F09000FB7401F09000367410E1
:102E9000F09000F1F0900024F0A37420F090010273
:102EA0007401F0A37400F0A37440F0900108740161
:102EB000F0A37400F0A37444F09001057401F0A332
:102EC0007400F0A37442F090010B7401F0A374003D
:102ED000F0A3742EF0A37401F0A37400F0A3742A7D
:102EE000F0A37401F0A37400F0A37428F090012003
:102EF0007401F0A37400F0A37460F090011D7401DC
:102F0000F0A37400F0A37422F09001907401F0A378
:102F10007400F0A37480F090013A7401F0A374007F
:102F2000F0A37418F09001377401F0A37400F0A3BB
:102F3000741BF09001147401F0A37400F0A37432B8
:102F4000F0A37401F0A37400F0A37426F0A374013D
:102F5000F0A37400F0A37434F0900114E0FBA3E03C
:102F6000FAA3E0F9E475F0C8121556900117E0FBDA
:102F7000A3E0FAA3E0F9E475F06412155690011A83
:102F8000E0FBA3E0FAA3E0F9E475F096121556759C
:102F900010007511C87508007509969001C4740772
:102FA000F0A374D0F0E49001C3F02290019FEFF001
:102FB000902E22E0FF9001A3E4F0A3EFF0758A5079
:102FC000902E227401F090019FE075F002A424106D
:102FD000F582E5F0342EF5837404F0A3E4F090015B
:102FE000A0F09001A0E0FFC3940D74809480400392
:102FF000023115EFF87E02E4088006CEA2E713CE78
:1030000013D8F8FF9001A1EEF0A3EFF04E700790F7
:1030100001A1F0A304F0902E207401F0902E20E086
:1030200030E2F990019FE0FF75F002A42400F582E0
:10303000E5F0342EF583E0FCA3E0D394FEEC940796
:10304000405975F002EFA42410F582E5F0342EF516
:1030500083E0FEA3E0FF9001A1E0FCA3E0FDEF2DE3
:10306000FFEE3CFEC3EF94FFEE940790019FE075E6
:10307000F0025013A42410F582E5F0342EF583EC11
:103080008DF01214DD807EA42410F582E5F0342E3C
:10309000F5837407F0A374FFF0806A90019FE0FF4E
:1030A00075F002A42410F582E5F0342EF583E0FCDF
:1030B000A3E0FD9001A1E0FAA3E0FBD3ED9BEC9A25
:1030C000402D75F002EFA42410F582E5F0342EF5C2
:1030D00083C083C082C3A3E09BFF0582D582021513
:1030E000831582E09AD082D083F0A3EFF08016900F
:1030F000019FE075F002A42410F582E5F0342EF56E
:1031000083E4F0A3F0902E20E4F0F58D9001A0E090
:1031100004F0022FE29001A3A3E0902E22F0758A22
:103120003022E4F516F515F514F513F516F515F539
:1031300014F513F512C3E51294027480948050279D
:10314000E51225E0240AF8E6FE08E6FFE4FCFDE5CA
:10315000162FF516E5153EF515ED3514F514EC357D
:1031600013F513051280CEE47B02FAF9F8AF16AE20
:1031700015AD14AC13121600900175EEF0A3EFF02C
:10318000E47516A8751561F514F513F512C3E5126B
:103190009402748094805073E51225E0240AF8E6C6
:1031A000FE08E6FF900175E0FCA3E0FDC3EF9DFF84
:1031B000EE9CFE123D46D3EF940AEE64809480406C
:1031C00012900175E0FEA3E0FF900151E0FCA3E046
:1031D000FD8015E51225E0240AF8E6FE08E6FF90DA
:1031E0000151E0FCA3E0FDC3EF9DFFEE9CFE339593
:1031F000E0FDFCE5162FF516E5153EF515E5143D49
:10320000F514E5133CF51305128082E47F607EEA35
:10321000FDFCAB16AA15A914A813D31216A8400BCF
:10322000E47516607515EAF514F513AE15AF1622A0
:103230001238B9123CB9E4900171F0A3F090015F2B
:10324000F0A3F090015DF0A3F0900161F0A3F07F96
:10325000021236BC900100E0F9A3E0FFA3E0FBA35B
:10326000E0FAA3E0C98FF0121556900100E0F9A32F
:10327000E0FF900108E0FBA3E0FAA3E0C98FF012A1
:103280001556900105E0FBA3E0FAA3E0F9E4F5F0A0
:1032900012155690010BE0FBA3E0FAA3E0F974616C
:1032A00075F0A8121556900111E0FBA3E0FAA3E017
:1032B000F9746175F0A812155690010EE0FBA3E0B9
:1032C000FAA3E0F9E4F5F0121556E490013DF0FEA2
:1032D0007F18FD7B017A0179781217367E007F0A0C
:1032E0007D007B017A01793E121736E49001D2F01D
:1032F000A3F09001D0F0A3F09000367410F0E490A9
:10330000004BF09001C67403F0A37420F09001D636
:10331000E0700FC39001C5E094F49001C4E0940103
:10332000500A9001C47401F0A374F4F022758D204A
:10333000438D20538D7FE4F5B275B6FF75B7FF75E9
:10334000B2A243B20153A8FB538B7F758B10438B02
:1033500008E58B20E7030080F8538B7F758B1143C2
:103360008B08E58B20E7030080F8900200E5B5F0BC
:10337000A3E5B4F0758B01E4F5B2123CF3E4F58DEE
:1033800090011DE0FBA3E0FAA3E0F91214F345F06D
:10339000701E9001FDE0FBA3E0FAA3E0F91214F324
:1033A000FF90011DE0FBA3E0FAA3E0F9E5F08064E3
:1033B00090011DE0FBA3E0FAA3E0F91214F3FFAEC5
:1033C000F07C007D03121709ECC0E0EDC0E0EEC018
:1033D000E0EFC0E09001FDE0FBA3E0FAA3E0F9120A
:1033E00014F3FFE4FCFDD0E0FBD0E0FAD0E0F9D02C
:1033F000E0F8EB2FFFEA35F0FEED39FDEC38FCE4A8
:103400007B04FAF9F812160090011DE0FBA3E0FA24
:10341000A3E0F9EE8FF012155622D39001C5E09487
:10342000009001C4E0940040030234E43000209096
:103430000198E07002A3E0600875101F75114080CC
:1034400006751017751170750813750988800C754D
:1034500010007511C8750800750996900105E0FB0C
:10346000A3E0FAA3E0F91214F3FFAEF0C39511EE56
:103470009510500F90013DE0601AC3EF9509EE954D
:103480000840119001CCE07002A3E0702E90013D45
:1034900004F080279000F1E064209001CC7005F0EA
:1034A000A3F08006E4F0A374C8F0E490013DF0902E
:1034B00001CAF0A3F09000367410F090013DE0FFD7
:1034C000601D900024E0641090003670057410F0C8
:1034D00080037420F09001C67403F0A37420F09070
:1034E000004BEFF022C0E0C083C082C0D075D0187E
:1034F000D2AFE5DB30E424D209C206E5DB30E116C9
:10350000123D3AF583E0F5DFEF64077067D28A90E9
:103510000007F0023599C20502359CE5DB30E52C49
:103520009000F0E064AA7017758A10F5DAC2AFF562
:10353000B2F5A8F5A9F58B758E01758DC080FED208
:1035400004300604C2068054C2098050C206E5DB7E
:1035500030E123E5DB30E044123D3AF583E0F5DF6E
:10356000EF24F9600824EE700BD20A8007D28A900B
:103570000007E4F0802320050A7817A6DFD205D2E1
:10358000068019123D3AF583E5DFF0EF64247009F7
:103590009001C604F0A374F4F078170675DBFFD031
:1035A000D0D082D083D0E032787FE4F6D8FD758128
:1035B000210235F202000002373FE493A3F8E493BE
:1035C000A34003F68001F208DFF48029E493A3F816
:1035D0005407240CC8C333C4540F4420C883400488
:1035E000F456800146F6DFE4800B01020408102047
:1035F0004080903C4AE47E019360BCA3FF543F307E
:10360000E509541FFEE493A360010ECF54C025E0EA
:1036100060A840B8E493A3FAE493A3F8E493A3C8A2
:10362000C582C8CAC583CAF0A3C8C582C8CAC58333
:10363000CADFE9DEE780BE9001487412F0A3745C33
:10364000F0123B697E007F047D007B017A01795195
:103650001217367F01123C76E4FF123C76902E1250
:10366000E0FEA3E0C39405EE9400400F902E12E01C
:10367000FEA3E0D394F0EE9407400BE4900148F0F1
:10368000A3F0FF123C76902E23E4F090001D7410FE
:10369000F0902E12E0FEA3E0FF7C007D0A121440A1
:1036A000900149E02FFF900148E03EF990013AE097
:1036B000FBA3E0FAA3E0C98FF00215569001A5EF35
:1036C000F0E4A3F09001A5E0FFA3E0C39F502E1209
:1036D000229D123D29900161EEF0A3EFF08E0EF5D0
:1036E0000FC8740AC87400FCE4FDFB7A00790CFE74
:1036F0007F0412141A9001A6E004F080C712312250
:10370000900100EEF0A3EFF090015FE0FEA3E0FF78
:10371000C3900134E09FFF900133E09EFE123D46CE
:103720007C007D051214A7900131ECF0A3EDF09020
:10373000015FE0FFA3E0900133CFF0A3EFF022534D
:10374000A87F123D0F122E2F123CD712081E43A83D
:1037500080E4F58D9000F17420F0122D389001C3B3
:10376000E014601814601A14602D14603F24047073
:10377000E01236379001C37401F080D512323080E8
:1037800023123C1C12383E900025E0641070C29059
:1037900001C37404F080BA12082E9001C67403F0BD
:1037A000A37420F09001C37402F080A5123AE09057
:1037B0000025E06410609A9001C37401F08092903B
:1037C00001D7E014602114604324027060300313B9
:1037D0009001D77401F0D202D2009001D404F0A37A
:1037E0007458F0C20180469001D4E07002A3E070EA
:1037F00002C2022003379001D77402F0D201C20244
:10380000C2009001D4F0A37458F080219001D4E05C
:103810007002A3E070179001D7200303F0800C74AE
:1038200001F09001D404F0A37458F0C20120010308
:1038300030020A900025E064106002D20722308A2C
:10384000779001C4E07002A3E0706D900165E070B4
:1038500002A3E07063F5B2758D20438D20758D80D5
:1038600043A808D2AFF58B90012DE0FEA3E0FF4EF8
:103870006005758E508003758EFE20042F20092C64
:10388000E5DB54047026758AA4200920E5DB540486
:10389000701AF586758703000000758601EF4E608B
:1038A000047F2880027F7F7E001227ED758B0175D3
:1038B0008A3053A8F7123CF3227E007F0E7D007BF6
:1038C000017A0179E9121736E4FDEDC394017480A1
:1038D00094805057ED75F005A4240EF582E4340869
:1038E000F583E493FFED75F00EA424F4F582E4343F
:1038F00001F583EFF0ED75F00EA424F4F582E434C5
:1039000001F583E004F87E007401088005C333CE1E
:1039100033CED8F9FFED75F00EA424F5F582E4342A
:1039200001F583EEF0A3EFF00D809F22300A5E20B8
:10393000005BC20A902E12E0FFA3E090019CCFF042
:10394000A3EFF0E4FF123C76902E12E0FEA3E0FF1E
:103950007C007D0A121440900149E02FFF9001483D
:10396000E03EFE90013AE0FBA3E0FAA3E0F9EE8F1F
:10397000F012155690019CE0FFA3E0902E12CFF0BC
:10398000A3EFF09001C67403F0A37420F02290011D
:103990009C7408F0A3E4F0A3743FF0A374DFF0E498
:1039A000FDFCF9758A10538AEF0090019CE0FEA39C
:1039B000E02DF582EE3CF583E493FF69F90DBD003F
:1039C000010CBC37E5BDDFE290019EE0FEA3E0F50F
:1039D000828E83E493FFE96F70089000017403F016
:1039E0008005E4900001F0758A30538AEF0022E4EC
:1039F000FEEEC39407748094805039EE75F003A4F2
:103A0000241BF582E4342EF583E5822FF582E4351C
:103A100083F583E493FDEE75F003A4241AF582E4A4
:103A2000342EF583E4932420F582E4342EF583EDDF
:103A3000F00E80BDEF7010900148E07002A3E070BE
:103A400006902E217412F022E490019CF0A3F075F0
:103A50008A10538AEF00122DE475EA81E4F5F6F539
:103A6000F475F308F5F275EB0700E5EC30E7FBAF12
:103A7000F3EFFEADF2EDFF900137E0FBA3E0FAA318
:103A8000E0F9EE8FF0121556E4F5EC75EB30758A1F
:103A900030538AEF0022900036E0FF9000FFE06F85
:103AA000603D900036E0FD9000FFF0900007E09050
:103AB00001D8F0540FF0ED7E0064207005E0442042
:103AC000800CEF64104E700B9001D8E04410F09021
:103AD0000007F0C28A9001C87403F0A374E8F022D2
:103AE000900025E06410703FF5B2758D20438D2065
:103AF000538D7F53A8F7F58BE5DB54047013200931
:103B000010F58AF586758703000000758601758AB1
:103B100030758B019001D67401F09001C67403F0EA
:103B2000A37420F0123CF32290019EEFF07E007F00
:103B300010EEC0E0EFC0E07D00E075F010A424D9E5
:103B4000F9740135F0FA7B01D0E0FFD0E0FE1217E6
:103B50003690019EE0C454F024E7F582E43401F588
:103B600083740BF0A374B8F022E4FFEFC3940D74D8
:103B7000809480502BEF25E02401F582E4342EF56B
:103B800083E493FEEF25E02400F582E4342EF583F0
:103B9000E4932420F582E4342EF583EEF00F80CBFD
:103BA000902F56E0902E2BF0229001A47401F090FB
:103BB00001A4E0C394027480948050217F011236E6
:103BC000BC122B8B900102E0FBA3E0FAA3E0F9EE1C
:103BD0008FF01215569001A4E004F080D2E4900119
:103BE000CCF0A3F022900152E02424FF900151E098
:103BF00034FAFEC3900160E09F90015FE09E501494
:103C0000900165E07002A3E0701190016504F0A3DB
:103C100074F4F022E4900165F0A3F0227F011236E3
:103C2000BC122B8B900102E0FBA3E0FAA3E0F9EEBB
:103C30008FF0121556121F0D12176212341A122924
:103C4000BD123A96123BE502392CC109C10A410165
:103C5000D8004101D700C103C101C100C102C105A3
:103C6000011700C104C106C108C1074100FF10438C
:103C700001FD0102000090019EEFF0123C9A9001BC
:103C80009EE0FF1239EF90019EE090081993FF1219
:103C90002FAB90019EE0FF022DC8EFF87401088061
:103CA00002C333D8FC42ABEF9008199390081693E7
:103CB000F4529152935391DF227E007F047D007B6A
:103CC000017A0179551217367E007F047D007B0151
:103CD0007A017959021736E4F5DA75DA4043DA20C9
:103CE00075D74075D64075DA5843A80275B8027585
:103CF000F80222E5B254016006E5A85410700F7571
:103D0000B29275B67CE4F5B743B20143A8102275B0
:103D10008A30538AEF758601758F04E4F5AB75AC74
:103D20000F75913FF592D28A2290015FE0FEA3E0E9
:103D3000FF90015DEEF0A3EFF0227817E6FF24007C
:103D4000F582E4340022EE30E707C3E49FFFE49EEF
:103D5000FE22000000000000000000000000000043
:103D60000000000000000000000000000000000053
:103D70000000000000000000000000000000000043
:103D80000000000000000000000000000000000033
:103D90000000000000000000000000000000000023
:103FD00000000000000000000000000000000007DA
:103FE00000000000000000000000000000000000D1
:103FF00000000000000000000000000000000000C1
:00000001FF
