:1007E0000070000000010000391E00000000000041
:1007F00000000000000000000000000000000000F9
:1008000078FFE4B8200118F6D8F99000007F007E48
:1008100007E4F0A3DFFCDEFA7581740226AF121D37
:100820006E12230990021E7401F022022DD874AAC0
:100830007583F5758255A574557583FA7582AAA5D9
:1008400074A57583F5758255A5220002200F90408E
:100850007FE493FF64326003EF7002002253A87FAD
:100860000080FD021BB5EE30E707C3E49FFFE49E66
:10087000FE2274C92F122F2BE4F022022DD5E70996
:10088000F608DFFA8046E709F208DFFA803E888240
:100890008C83E709F0A3DFFA8032E309F608DFFA78
:1008A0008078E309F208DFFA807088828C83E3099C
:1008B000F0A3DFFA806489828A83E0A3F608DFFA76
:1008C000805889828A83E0A3F208DFFA804C80D2C4
:1008D00080FA80C680D4806980F28033801080A640
:1008E00080EA809A80A880DA80E280CA8033898298
:1008F0008A83ECFAE493A3C8C582C8CCC583CCF044
:10090000A3C8C582C8CCC583CCDFE9DEE7800D89EA
:10091000828A83E493A3F608DFF9ECFAA9F0EDFBF1
:100920002289828A83ECFAE0A3C8C582C8CCC58339
:10093000CCF0A3C8C582C8CCC583CCDFEADEE88092
:10094000DB89828A83E493A3F208DFF980CC88F004
:10095000EF60010E4E60C388F0ED2402B404005035
:10096000B9F582EB2402B4040050AF23234582235F
:100970009008CE73EF8DF0A4A8F0CF8CF0A428CE11
:100980008DF0A42EFE22C2D5EC30E709B2D5E4C327
:100990009DFDE49CFCEE30E715B2D5E4C39FFFE477
:1009A0009EFE120BF2C3E49DFDE49CFC8003120B3F
:1009B000F230D507C3E49FFFE49EFE22C5F0F8A302
:1009C000E028F0C5F0F8E582158270021583E03862
:1009D000F022BB010A89828A83E0F5F0A3E022506D
:1009E0000687F009E71922BBFE07E3F5F009E319D2
:1009F0002289828A83E493F5F074019322BB010774
:100A000089828A830209BC500B09C5F027F7C5F01B
:100A10001937F722BBFE0D09F8E325F0F3C5F019ED
:100A2000E338F322F889828A8374019325F0C5F0B4
:100A3000F8E4933822BB010A89828A83F0E5F0A3A7
:100A4000F0225006F709A7F01922BBFE06F3E5F0E5
:100A500009F3192275F008758200EF2FFFEE33FEBF
:100A6000CD33CDCC33CCC58233C5829BED9AEC9986
:100A7000E58298400CF582EE9BFEED9AFDEC99FC28
:100A80000FD5F0D6E4CEFBE4CDFAE4CCF9A882226F
:100A9000B800C1B90059BA002DEC8BF084CFCECD8F
:100AA000FCE5F0CBF97818EF2FFFEE33FEED33FDC8
:100AB000EC33FCEB33FB10D703994004EB99FB0FAD
:100AC000D8E5E4F9FA227818EF2FFFEE33FEED3384
:100AD000FDEC33FCC933C910D7059BE99A4007ECFC
:100AE0009BFCE99AF90FD8E0E4C9FAE4CCFB227543
:100AF000F010EF2FFFEE33FEED33FDCC33CCC833D7
:100B0000C810D7079BEC9AE899400AED9BFDEC9A38
:100B1000FCE899F80FD5F0DAE4CDFBE4CCFAE4C8B0
:100B2000F922EB9FF5F0EA9E42F0E99D42F0EC6479
:100B300080C864809845F022EB9FF5F0EA9E42F071
:100B4000E99D42F0E89C45F022E8600FECC313FCFD
:100B5000ED13FDEE13FEEF13FFD8F122ECF0A3ED41
:100B6000F0A3EEF0A3EFF022A8828583F0D083D02B
:100B700082120B7F120B7F120B7F120B7FE473E448
:100B800093A3C583C5F0C583C8C582C8F0A3C58338
:100B9000C5F0C583C8C582C822EC8EF0A4CCC5F0D0
:100BA000CCCDF8EFA4CEC5F02DFDE43CFCE8A42E9E
:100BB000C8C5F03DFDE43CFCEFA4FFE5F028FEE4F1
:100BC0003DFDE43CFC22EF4E6012EF60010EEDBBF8
:100BD000010B89828A83F0A3DFFCDEFA2289F050C0
:100BE00007F709DFFCA9F022BBFEFCF309DFFCA933
:100BF000F022BC000BBE0029EF8DF084FFADF02287
:100C0000E4CCF875F008EF2FFFEE33FEEC33FCEE8A
:100C10009DEC984005FCEE9DFE0FD5F0E9E4CEFD7D
:100C200022EDF8F5F0EE8420D21CFEADF075F00850
:100C3000EF2FFFED33FD4007985006D5F0F222C3A9
:100C400098FD0FD5F0EA22208A03020FC3900221FB
:100C5000E07002A3E06003020FC390021FE0700285
:100C6000A3E06003020FC3900175E07002A3E0608F
:100C700003020FC31214536003020FC3900134E048
:100C8000703090011F1212C3FFAEF090010D1212CE
:100C9000C3D39FE5F09E4003020FC31213C2E4903A
:100CA0000181F0A3F01214D99002251214FAF57103
:100CB0008003757100757219E4F5B2F5BA9001857B
:100CC000E0F559A3E0F55AC209758D20438D2075D2
:100CD0008D8043AA08D2AF758B02758EAF20062493
:100CE000121453701F200C1CE5DB20E217758AC418
:100CF000200C0DE5DB20E20875870300000080066C
:100D0000D2098002D209758B11758A5053AAF7D384
:100D1000900220E0949090021FE09401400EA3E026
:100D20002470F090021FE034FEF08007E490021F70
:100D3000F0A3F0D390022CE0949090022BE0940169
:100D4000400EA3E02470F090022BE034FEF0800708
:100D5000E490022BF0A3F0122D67900055E075F09F
:100D600005A4902EC3F0A3E4F0A3F012133053991E
:100D70007F122F8F1213F9902EC0E030E2F9902EDF
:100D8000C0E4F0902E02E0F573A3E0F5744389020D
:100D90001213364380021213F6902EC0E030E2F9AF
:100DA000121515F522A3E0F523E5742527FFE57359
:100DB0003526FEC3EF9523F525EE9522F524121472
:100DC0009EE5259FE5249E40048E248F25902EC409
:100DD000E4F043998090016BE524F0A3E525F0C38E
:100DE000E55A9525FFE5599524FE1208668E5B8F1E
:100DF0005C1215324003020F98AE24AF257C007DB3
:100E000012120B9912153CAF70AE6FAD6EAC6D90B7
:100E100002D2121319FBD3120B389002D2401712D0
:100E200014219570FFEE956FFEED956EFDEC956DBE
:100E3000FC12153C8007120B6800000000E47F6084
:100E40007EEAFDFC9002D2121319FBD3120B38403C
:100E50000A9002D2120B680000EA601212C0FFAEC4
:100E6000F07C007D09120B999002D21213197B0AB3
:100E700012136312153C900134E07036AE59AF5A2C
:100E8000FC7D09121306E4FCFDEB2525FFEA352461
:100E900012134CE47B0A12136F8E598F5A9002D2B0
:100EA0001212D11213541214131212DB1213540221
:100EB0000F981214131212DB121354900110121215
:100EC000C3FFAEF09002D2121316FBD3120B3850B0
:100ED00003020FA81212AF12144CFE1214B64003F4
:100EE000020FA890010D1212C3FFAEF07C007D022C
:100EF000120B99C8ECC8EDC0E0EEC0E0EFC0E01204
:100F000012AF12144CFEE4FCFDD0E0FBD0E0FAD0AE
:100F1000E0F9EB2FFFEA3E12134CE47B0312136F50
:100F200090010D1212DB12143B90010D1212C3D36B
:100F30009430E5F094754008747575F030120A35F8
:100F4000900188E060521213B3404D90010D1212CF
:100F5000C312144CFE1208669002D6EEF0A3EFF016
:100F600090010D1212C312132495F0501012148523
:100F7000400B1212D8F9E475F0051209FD90010D2D
:100F80001212C3FFD312132695F0400CD31214850E
:100F900040061212D812152920090D1215325008D8
:100FA0001214537003020CC9900187E0041212E37B
:100FB000E49001671213ACF090013504F090022325
:100FC0001213E8221213EF121504F053997FF50B58
:100FD000F50CF50DF50EF50A122F8F1213301213C2
:100FE000F9902EC0E030E2F9902EC0E4F04389027F
:100FF000121336438002902E02E0FEA3E0250CF58A
:101000000CEE350BF50B1213F6902EC0E030E2F922
:10101000121515FEA3E0250EF50EEE350DF50D05A6
:101020000AE50AC3940540B0439980902EC5E4F0C8
:10103000E527240CFFE52634FEFED3EF950CEE9554
:101040000B4015900175E07002A3E07012900175DD
:1010500004F0A374F4F08007E4900175F0A3F0901D
:1010600001671213B64038121302E4FCFDEB250EA3
:10107000FFEA350D12134C7802120B498E0D8F0EBC
:10108000A3E0FEA3E0FF121302E4FCFDEB250CFF3E
:10109000EA350B12134C7802120B498E0B8F0CE5BC
:1010A0000C2527FFE50B3526FEC3EF950EF510EE58
:1010B000950DF50F12149EE5109FE50F9E40048ECE
:1010C0000F8F10900165E50FF0A3E510F0A3E50D7B
:1010D000F0A3E50EF0A3E50BF0A3E50CF0D390012F
:1010E00072E09400900171E094004071900134E04E
:1010F000600F90010D1212C3C394A0E5F0940F503D
:1011000009E490016FF0A3F08053D3900170E09454
:101110000090016FE094004030900171E0FEA3E088
:10112000FF12129F12130F90016FE0FEA3E0FF7CED
:10113000007D03120974EB2FFFEA3EFEEF7802CE2A
:10114000C313CE13D8F9FF800C900171E0FEA3E029
:10115000FFC312129F90016FEEF0A3EFF0D3900146
:1011600070E0940A90016FE094009001734009745C
:1011700028F0A37446F080077407F0A3740FF09072
:101180000165E0FFA3E0900171CFF0A3EFF0AF1095
:10119000AE0F12253C90016BEEF0A3EFF090001B18
:1011A000E0B420031212F390016BE0FEA3E0FFE431
:1011B000FCFDE5652FF565E5643EF564ED3563F509
:1011C00063EC3562F5620567E56770020566C3E5A5
:1011D0006B94E8E56A9403402AAE66AF67CBEFCB29
:1011E000121392AF65AE64AD63AC62120A908E6862
:1011F0008F69E4F565F564F563F562F566F567F505
:101200006AF56BD3E5699400E56894004074900139
:101210006CE09569FF90016BE09568FE9002D8F054
:10122000A3EFF0900173E0FDFBC3E49BFBE49400AB
:10123000FAD3EF9BEA6480F8EE648098401BEDFFE0
:101240009002D9E09F7480F89002D8E064809850B2
:10125000081214C2E4F56C80299002D8E0FEA3E0E5
:10126000FF120866900174E0FDD3EF9D7480F86E64
:10127000984003756C03E56CC3940350051214C2C7
:10128000056C90016BE0F54CA3E0F54D78287C00EF
:101290007D007B007A00792A7E007F2402094E902F
:1012A0000166E09FFF900165E09EFE1208662290B5
:1012B0000110E0FBA3E0FAA3E0F91209D2FFAEF0BF
:1012C00090010AE0FBA3E0FAA3E0F90209D2900141
:1012D00036A3A3E0F9A3E0FF900110E0FBA3E0FA3E
:1012E000A3E022F07E007F057D007B007A00795D1F
:1012F000120BC67A0079627E007F0B7D007B0002B4
:101300000BC67D037C00120B99C8ECC8C9EDC9CA95
:10131000EECACBEFCB22E4FCFDE0F8A3E0F9A3E0BA
:10132000FAA3E022FFC390018DE09F90018CE022A0
:1013300043AB025389FD5395FD5396FD22A3F0A3C1
:101340007401F0A322F9EB2FFFEA35F0FEED39FD31
:10135000EC38FC22C98FF0020A359002D4E0FEA3DB
:10136000E0FF222FFFEA3EFEE93DFDE83CFCE4FA07
:10137000F9F8020A90E50A25E02428F8E6FE08E6D6
:10138000229002217402F0A37458F022A3E0FEA37D
:10139000E0FBCAEECAE4F9F822902E427D14E0FE8A
:1013A000A3E0FF7C0002097490018AE4F0A3F0A39B
:1013B000F0A32290018CE0FEA3E0FFD39400EE9412
:1013C00000227F087A0179367E007D007B01020BC6
:1013D000C6902EC2F0902EC77401F0902EE57404D2
:1013E000F0902ECA229001A9E4F0A374C8F02290D4
:1013F0002EC07402F022122F6E902EC07419F022AB
:10140000E50D25E02479F582E43401F583E0FEA3BF
:10141000E0FF229002D2A3A3E0F9A3E0FF90010A2B
:1014200022E0FCA3E0FDA3E0FEA3E022F9E4F5F056
:10143000020A35FFE5F0F0A3EFF022F9EE8FF0029B
:101440000A35E4F50EF50DF50CF50B22C39FFFE50B
:10145000F09E2290001BE06420229002DAE0FEA3BE
:10146000E0FF22900108E0FCA3E0FD22AB0EAA0DF4
:10147000A90CA80BD3020B389002D5E0940A900275
:10148000D4E09400229002D7E0940A9002D6E0942F
:101490000022902EE7F0902EEAF0902EE822E52729
:1014A0002488FFE5263413FED322900108E0FFA331
:1014B000E090017FCF22D39001AAE09F9001A9E0A4
:1014C0009E2290016BE568F0A3E569F02225E024F7
:1014D00028F8A60F08A61022E4900227F0A3F02215
:1014E000900104E4F0A37496F022F9746175F0A8F9
:1014F000020A3590003A7410F022F0A3F090022D09
:10150000F0A3F022902EC4E4F0A322FEEF2401FF0A
:10151000E43EC31322902EC0E4F0902E1EE022FF82
:10152000C3ED9FFFEC95F0FE22F974FF75F0FB020E
:1015300009FDC3E55C9572E55B9571229002D202CC
:101540000B5C900190121319FBE9C0E0EAC0E0EBDC
:10155000C0E09001251212C3FFE4FCFDD0E0FBD0F7
:10156000E0FAD0E0121345900190120B5C900195C7
:10157000E004F07006900194E004F0900196E070B1
:1015800002A3E06003021799900190121421FFEE6C
:10159000C0E0EFC0E012138CD0E0FFD0E0FE120AF2
:1015A00090900190120B5C900190A3A3E0FFA3E048
:1015B00090018ECFF0A3EFF0A3120B6800000000A3
:1015C000E49001941213AC74C8F090021FE0700212
:1015D000A3E06003021799900198E07002A3E06015
:1015E00003021799900134E0700302169C90018A5F
:1015F000E0FEA3E0FF4E702290018EE0FDA3E0909C
:10160000018ACDF0A3EDF090010D1212C3FD9001FF
:101610008CE5F0F0A3EDF00216A490018EE0FCA39F
:10162000E0FDC3EF9DFFEE9CFE12086690019A124A
:1016300012DB12143B900188E0702690019A12127E
:10164000C3C3940FE5F09400500F90010D1212C324
:10165000FF90018C121434801F9001887401F08077
:101660001790019A1212C3C39402E5F09400500837
:101670001213A8F0900188F090018EE0FEA3E0FF25
:10168000D390018BE09F90018AE09E4007E4900197
:1016900089F080109001897401F080081213A8F07D
:1016A000900188F0900188E070030217991213B33B
:1016B000500302179990010D1212C312144CFE121E
:1016C00008669002D4EEF0A3EFF0A3E4F0A37464F4
:1016D000F090010D1212C3D39494E5F09411400AD6
:1016E0009002D67403F0A37420F09002D4A3E0908B
:1016F00001A1F090010D1212C3FFAEF0D312132618
:101700009E40159002D6E0FCA3E0FDD39002D5E008
:101710009D9002D4E09C501A1213259E50439002D3
:10172000D6E0FEA3E0FF9002D5E09F9002D4E09EB9
:10173000402FE4900188F090018AF0A3F090010D11
:101740001212C312132495F090019874015007F0FF
:10175000A3742CF08005F0A37490F0E4900189F05C
:101760002290010D1212C3FFD312132695F0400CE4
:10177000D312147840061212D812152990010D12B6
:1017800012C312132495F05010121478400B121249
:10179000D8F9E475F0051209FD221212AFFDACF084
:1017A000D39FEC9E40329001101212C312151FD32A
:1017B000EF9430EE9475400C9002D47475F0A374DD
:1017C00030F0800D1212BA12144C9002D4F0A3EF34
:1017D000F0E49001A20218491212C0FFAEF090018D
:1017E000101212C3FDACF0C39FFFEC9EFED3EF942A
:1017F00010EE9427400C9002D47427F0A37410F0DC
:1018000080121212C0FFC3ED9FFEEC95F09002D43F
:10181000F0A3CEF09002D4E0FFA3E09001A2CFF0BD
:10182000A3EFF0300018D3E0942C9001A2E09401D3
:1018300040139001A47427F0A37410F08007E49083
:1018400001A4F0A3F0E49002D4F0A3F0900134E0FE
:10185000605012135AD39400EE64809480401A9022
:101860000104E0FCA3E0FDD3EF9DEE9C400B900251
:1018700025E4F0A37464F0801BD3900226E094006A
:10188000900225E09400400C90010D1212C39002CA
:10189000D4121433D20B90022B740FF0A374A0F067
:1018A00080119002297403F0A374E8F07A00794E55
:1018B0001212F7D39002D5E094009002D4E0648035
:1018C000948050030219B3E0F9A3E0FF90010D12D8
:1018D00012DB12135412135AEE3395E0FDFCE47B35
:1018E000B87A88F9F8C3120B22500A9002D474888F
:1018F000F0A374B8F0D3900228E09400900227E09F
:101900009400500790001BE0B4201D12135AC3949A
:1019100096EE648094805010EF9400EE6480948082
:10192000402F7C007D0A801E300026900134E0703C
:10193000209001A9E0FCA3E0FD12135AC39DEE9C88
:10194000500F7C007D141209869002D4EEF0A3EFB4
:10195000F0900134E06036900229E07002A3E0705C
:101960002CE5DB20E2409001161212C3FFAEF07DA1
:101970000F12130412135AEE3395E0FDFCEB7B10AB
:101980001213639001161212DBF9EE8014E5DB20CE
:10199000E2149002D4E0F9A3E0FF9001161212DBEA
:1019A000C98FF0120A359001161212C324A8FFE560
:1019B000F0801D90010D1212DB12142C90011612F2
:1019C00012DB12142C9002D5E024A8FF9002D4E080
:1019D0003461F99001131212DB1213542290018129
:1019E000E0FEA3E0FFC39404EE9400502A121463B7
:1019F000EF25E0FFEE33FE74792FF58274013EF59A
:101A000083ECF0A3EDF0900182E004F07006900109
:101A100081E004F0021B57750D01121400E50D253D
:101A2000E02477F582E43401F583EEF0A3EFF005CE
:101A30000DE50DB404E4900134E07003021AFD904A
:101A400001101212C3FFAEF0121463D39FEC9E502C
:101A500003021B50ED9FFFEC9EFED3EF94F4EE9437
:101A6000015003021B50A31212C312151F9002D77C
:101A7000F0A3EFF0120866C3EF9450EE64809480F8
:101A80005063E49002D9F0A3F09002D7E0FEA3E007
:101A9000FF120866D3EF9432EE648094804025D321
:101AA0009002D8E094009002D7E064809480900285
:101AB000D94008E4F0A3740AF0801074FFF0A37416
:101AC000F6F08007E49002D9F0A3F01212C0FF9064
:101AD00002DAE02FFE9002D9E035F090017FF0A30A
:101AE000CEF0021B571214AAF0A3EFF09001A7E06A
:101AF00004F070069001A6E004F0021B571212C019
:101B0000FF121463C3EF9DFFE5F09CFE120866C34D
:101B1000EF9428EE6480948050369001101212C326
:101B2000FFC3900109E09FFF900108E095F0FE12CD
:101B30000866C3EF9414EE64809480500590011001
:101B4000800390010A1212C3FF90017FE5F0800329
:101B50001214AAF0A3EFF0E4F50CF50BF50AF50961
:101B6000F50DD3900182E0950D900181E094004045
:101B70001E121400E4FCFDE50C2FF50CE50B3EF500
:101B80000BED350AF50AEC3509F509050D80D3AFE3
:101B90000CAE0BAD0AAC09EEC0E0EFC0E0900181E5
:101BA00012138DD0E0FFD0E0FE120A908F0C8E0B46
:101BB0008D0A8C0922C0E0C083C082C0D0D2AF9011
:101BC0000232E004F0D3900220E0940090021FE083
:101BD0009400400CA3E024FFF090021FE034FFF0DB
:101BE000D3900222E09400900221E09400400CA3E4
:101BF000E024FFF0900221E034FFF0D3900224E0D3
:101C00009400900223E09400400CA3E024FFF090A5
:101C10000223E034FFF0D3900226E09400900225E6
:101C2000E09400400CA3E024FFF0900225E034FF94
:101C3000F0D3900228E09400900227E09400400C3A
:101C4000A3E024FFF0900227E034FFF0D3900230AD
:101C5000E0940090022FE09400400CA3E024FFF0F9
:101C600090022FE034FFF0D390022EE09400900217
:101C70002DE09400400CA3E024FFF090022DE0340E
:101C8000FFF0D390022AE09400900229E0940040F3
:101C90000CA3E024FFF0900229E034FFF0C3E56BD1
:101CA00094E8E56A94035008056BE56B7002056AD9
:101CB000C3E55794E8E556940350080557E5577077
:101CC000020556D3900197E09400900196E09400AD
:101CD000400CA3E024FFF0900196E034FFF0D39095
:101CE0000199E09400900198E09400400CA3E02456
:101CF000FFF0900198E034FFF0D3900176E094017A
:101D0000900175E09400400CA3E024FFF090017571
:101D1000E034FFF0D390022CE0940090022BE0948A
:101D200000400CA3E024FFF090022BE034FFF0D33E
:101D30009001A5E094009001A4E09400400CA3E081
:101D400024FFF09001A4E034FFF0D39001ACE094C4
:101D5000019001ABE09400400CA3E024FFF090015F
:101D6000ABE034FFF0D0D0D082D083D0E0327E0020
:101D70007FFF7D007B017A007904120BC69002E69A
:101D80007400F0A37404F09001D27401F0A3740005
:101D9000F0A374B8F09001D87401F0A37400F0744B
:101DA000AC122D1E7400F0A37494F09001D5740150
:101DB000F0A37400F0A374C6F09001DE7401F0A3E8
:101DC0007400F074D2122D1E7400F0A3741F122D33
:101DD0001F7401F0A37402F0902DE0E493FF9002D1
:101DE000E6E0FCA3E0FDF5828C83A3EFF090000217
:101DF000E0FFED2404122CF8900001E0FFED240533
:101E0000122CF8900003E0FFED2406122CF8902D20
:101E1000E2E493FFED2412122CF8902DE3E493FFFB
:101E2000ED2414122CF89001E77401F0A37400F073
:101E3000A3743CF0E4FF75F002EFA42401F582E501
:101E4000F0342EF583E493FE74542FF582E43400CD
:101E5000F583EEF0EF25E0242DF582E4342EF583B2
:101E6000E493FE122D26EEF0122D26E0FEEF25E083
:101E7000242CF582E4342EF583E49324C0F582E427
:101E8000342EF583EEF00FEFB416AB902F56E090A2
:101E90000058F0902F56E090006EF0902F56E09092
:101EA0000059F0902F56E090006FF09000FF740101
:101EB000F09000FEF090003A7410F090001BF0904B
:101EC0000028F0A37420F090021F7413F0A374880C
:101ED000F022121442F515F5168528118529128570
:101EE0002813852914F50A121375FFD3E5149FE50D
:101EF000139E40078E138F14850A16C3E5129FE5C3
:101F0000119E50078E118F12850A15050AE50AB435
:101F100012D5E4F50FF510F50AE516650A602EE511
:101F200015650A6028E510450F7010E50A25E024C4
:101F300028F8E6F50F08E6F5108012121375251043
:101F4000FFE50F3E12150BF50FEF13F510050AE52F
:101F50000AB412C5900185E50FF0A3E510F0E5166F
:101F6000C3940F5005E5161214CDE515C3940F5018
:101F700005E5151214CD121442F50A121375FFC3AC
:101F8000E5109FFFE50F9EFE120866D3EF9414EE56
:101F900064809480400FE4FCFDE50E2510F50EE50D
:101FA0000D350F800F121375FFE4FCFDE50E2FF5C4
:101FB0000EE50D3EF50DED350CF50CEC350BF50B86
:101FC000050AE50AC3941240B2AF70AE6FAD6EACB5
:101FD0006D12146C401AE50E9570F50EE50D956FB7
:101FE000F50DE50C956EF50CE50B956DF50B800385
:101FF000121442E47F607EEAFDFC12146C400BE494
:10200000750E60750DEAF50CF50BAE0DAF0E22C026
:10201000E0C083C082C0D0ECC0E0EDC0E0EEC0E024
:10202000EFC0E0D2AFE5DB30E419D20CC208E5DB4B
:1020300030E102802E9002E5E5DFF09002E8E4F066
:10204000022113E5DB30E50FD206300805C2080295
:102050002113C20C022113C208E5DB30E140E5DBAD
:1020600030E0109002E9E0FF04F0122FCBE0F5DF42
:102070000221139002E9E0FFB40819208A16D28ADF
:102080009002477401F09002E6E0FCA3E0240712FE
:102090002FD1E4F0EF641A707AD207022113900274
:1020A000E8E0700EA3E5DFF09002E87401F0D208DA
:1020B00080619002E9E0902D3193FFB4FF08900217
:1020C000E5E5DFF08047EF640F70299002E9E0FF5B
:1020D000A3E0FCA3E0FD122FD0E0540FF09002E942
:1020E000E0FF04F0ED122FD0E0FFE5DF54F0FEEF4B
:1020F0004EF0801F9002E9E0FF122FCBE5DFF0EFFA
:10210000B4240A9002217401F0A374F4F09002E95F
:10211000E004F075DBFFD0E0FFD0E0FED0E0FDD0C2
:10212000E0FCD0D0D082D083D0E0329002D8EFF063
:102130009002DDE4F0A374FFF0E4A3F0A3F0A304A5
:10214000F0A374FFF0902EC07402F0902EC37408B8
:10215000F0E49002D9F0A3F09002D9E0FEA3E0FFF2
:10216000C39409EE9400400302221AEF9407EE9400
:102170000040067E007F0180199002D9A3E004FF91
:10218000E47E01C8EFC8088006CEA2E713CE13D8BC
:10219000F8FF9002DBEEF0A3EFF0902EC07419F080
:1021A000902EC0E030E2F99002D8E0FF75F002A472
:1021B0002400122D0DE0FCA3E0FD902EC07402F06F
:1021C000D3ED94FFEC940F40179002DBE0FCA3E00A
:1021D000FD75F002EF122D0AEC8DF01209BC80297A
:1021E0009002D8E075F002122D0AC083C082E0FE92
:1021F000A3E0FF9002DBE0FCA3E0FDC3EF9DFFEE58
:102200009CD082D083F0A3EFF09002DAE004F0706B
:10221000069002D9E004F00221587F002290013498
:10222000E060061213C20222FE900136121319FB5F
:10223000E9C0E0EAC0E0EBC0E01212C0FFE4FCFD40
:10224000D0E0FBD0E0FAD0E0121345900136120B3B
:102250005C90013BE004F0700690013AE004F090DD
:102260000223E07002A3E06003022308900136120B
:102270001421FFEEC0E0EFC0E012138CD0E0FFD0DD
:10228000E0FE120A90900136120B5C9001101212BF
:10229000C32432FFE435F0FE900136121316FBD34F
:1022A000120B38403990021FE07002A3E0702F201B
:1022B0000B2C90013DE004F0700690013CE004F02E
:1022C000D390013DE0940590013CE09400401E1243
:1022D00012CE121354E490013CF0A3F0800F1212BE
:1022E000CE121354E490013CF0A3F0C20B900136DF
:1022F000120B6800000000E490013AF0A3F0900295
:10230000237402F0A374BCF0227FA07A0179081232
:1023100013C890010A7401F0A37400F074441213FE
:102320003D7400F0744612133D7400F0A37448121B
:10233000133E7400F0A3743212133E7400F0A374C1
:102340002E12133E7400F0A3742CF090012574013A
:10235000F0A37400F0A37426F090019A7401F0A326
:102360007400F0A3748412133E7400F0A37486F01A
:102370009001287401F0A37400F0A3741C12133EA2
:102380007400F0A37422F090011C7401F0A3740097
:10239000F0A3743612133E7400F0A3742A12133E95
:1023A0007400F0A37438F01213E590011C1212DBD4
:1023B000F9E475F0C8120A3590011F1212DBF9E436
:1023C00075F064120A351214E09001221212DBF942
:1023D000E475F096020A359002D4EEF0A3EF1212E3
:1023E000E39002D4E07002A3E060031225E8122912
:1023F000CEE4900181F0A3F07F12122D9D12138183
:10240000A37402F0A374BCF0900108E0F9A3E0FF0C
:10241000A31212DB12135490010D1212DB12142CB2
:102420009001131212DB1214EA9001161212DB1241
:10243000142C9001191212DB1214EA1214F3E49016
:102440000134F0900136120B680000000090013A50
:102450001213ABF09001081212D3121354E490013E
:1024600035F090022F1214FA90022BF0A3F0FE7FA9
:1024700012FD7B017A017988120BC6900125121298
:10248000C390018E1214339001961213E822D39058
:102490000220E0940090021FE09400400302253BDC
:1024A0003000299001A4E07002A3E09001A9600926
:1024B000740BF0A374B8F080077405F0A374DCF01B
:1024C0009001047405F0A37414F080061213E51251
:1024D00014E090010D1212C3FFAEF01214B64013B7
:1024E000900134E0601ED3900105E09F900104E06C
:1024F0009E5011900227E07002A3E07027900134F3
:1025000004F0802090001BE0B420051214D880064F
:102510009002271213E8E4900134F0900225F0A312
:10252000F01214F3900134E06011900028E0900064
:102530003AB410047410F0227420F0229002DAEE03
:10254000F0A3EFF0E560455F700C9002DAE0F55F14
:10255000A3E0F56080169002DBE02560FF9002DAD0
:10256000E0355F12150BF55FEF13F5600561E5616E
:10257000D3940A400D855F5D85605EE4F55FF5608C
:10258000F561D3E55E9400E55D940040579002DB71
:10259000E0955EFF9002DAE0955DFE120866C3EFFB
:1025A000940AEE64809480AE5DAF5E501512130203
:1025B00012145AE4FCFDEB2FFFEA3E12134C780292
:1025C0008017CBEFCBCAEECA12145AEB2FFFEA3EAC
:1025D000FEE433FDE433FC7801120B499002DAEE9D
:1025E000F0A3EFF012145A227F01122AD1902E424A
:1025F000E0FEA3E024B1FFEE34FE9002D6F0A3EF9C
:10260000F012133053997F122D67122F8F1213EF90
:10261000902EC314F01213F9902EC0E030E2F9901E
:102620002EC0E4F0902E027D0F12139E8E268F276F
:102630007D12120B99EF24E0F570EE34B1F56FEDD9
:1026400034FFF56EEC34FFF56D4389021213364307
:102650008002439980900107E0900021F0121399C5
:10266000EF2444FFEE34FDF99001281212DBC98FEC
:10267000F0020A35022E85E493A3F8E493A3400305
:10268000F68001F208DFF48029E493A3F8540724CC
:102690000CC8C333C4540F4420C8834004F456808C
:1026A0000146F6DFE4800B01020408102040809010
:1026B00027E4E47E019360BCA3FF543F30E5095456
:1026C0001FFEE493A360010ECF54C025E060A84034
:1026D000B8E493A3FAE493A3F8E493A3C8C582C82B
:1026E000CAC583CAF0A3C8C582C8CAC583CADFE900
:1026F000DEE780BE90023CE014601B1460432402BD
:10270000705D900246E0B4010A90023C122760D24C
:1027100005D200C203227F02122CB6EF60077F02AF
:10272000120872C205900246E0703490023C7402B6
:10273000F0D203C205C2007F031208727F03022A8F
:10274000807F03122CB6EF60167F0312087290028E
:1027500046E090023C7003F08003122760C203221F
:102760007401F07F021208727F02122A8022CDEFDC
:10277000CD43AD105399EF439A10539BEF902EC069
:102780007402F0147E00C8EDC8088005C333CE3350
:10279000CED8F9FF902EC4EEF0A3EFF0902EC8EE45
:1027A000F0A3EFF07410122F11902EC0E030E2F978
:1027B000902EC0E4F07402F07420122F11902EC0FD
:1027C000E030E2F9902E00E0FEA3E0FF902EC4E49A
:1027D000F0A3F0902EC0F0439910539AEF539BEF63
:1027E0005390EF22C10C41024000410241004102DE
:1027F0003D00410245004201AB03E841024700C1F0
:1028000002C101C1044102460041023C00C103C1B2
:1028100000C1054102E8004102E9004202E3000074
:10282000C106C108C1074102E51041010300410191
:102830000710C10BC10A4101A80002260000046D67
:10284000000000004101061041024800009001AB69
:10285000E07004A3E064017011900247E07004D2BC
:102860008A04F0E49001ABF0A3F090003AE0FC9011
:102870000106E06C603D90003AE0FE900106F090A9
:10288000000BE0900245F0540FF0EEB42005E04458
:1028900020800AECB4100B900245E04410F0900048
:1028A0000BF0C28AE4900247F09001AB7403F0A3EE
:1028B00074E8F0229002D27408F0A3E4F0A3743F0D
:1028C000F0A374DFF0E4FDFCF9758A10538AEF0081
:1028D0009002D2E0FEA3E02DF582EE3CF583E49376
:1028E000FF69F90DBD00010CBC37E5BDDFE29002C8
:1028F000D4122FD8E493699002E67009122FD8A35E
:102900007401F08006122FD8A3E4F0758A50538A20
:10291000EF0022200A06200303300509E4FFFE121F
:1029200023D7C20A2290022DE07002A3E0600512B4
:102930001453703A200003122C311229CE7F011259
:102940002D9D1219DD9002D2EEF0A3EFF07B017AFB
:102950000279D2122B629002D21214181212DB12D8
:10296000135412179A12248E12154212221D122885
:102970004D2290021EE024FE601314602314602791
:102980002403704990021E7402F0122DD17F017E43
:10299000001223D790021E7403F0E490023DF0224F
:1029A00090021E7404F0221226F4122B1A1226F43E
:1029B000900175E07004A3E06401700C900175F063
:1029C000A3F090021E7402F0E4900232F0224389D8
:1029D000025395FD5396FD438002122F4B7F0C123C
:1029E000276ECAEECACBEFCB7F0C12276EEF2BFF00
:1029F000EE3A9002D7F0A3EFF0122F1DF91209D290
:102A000045F07006122F02EE80181209D2FBAAF0D0
:102A1000122F02EF2BFFEE3AC313F9EF13FF122F21
:102A20001DC98FF0120A3522122D16F5828E83A34E
:102A3000E0B4AA031228B4122D16FF122D01E0B43F
:102A40001008EF122D01E4F0D20A122D16FF241BFC
:102A5000122D03E0700DEF241C122D03E0B41003BF
:102A6000122BEE122D162413122D03E0FFB41006C4
:102A70009002467401F0EFB42005E4900246F02283
:102A80009002D2EFF0E024C9122F2BE060037F0107
:102A9000229002D2E0FF24C9122F2B7401F0EF1212
:102AA0002F33E493FE740193FFE4FCFD902F60E06C
:102AB000F8A3E0F9A3E0FAA3E02FFFEA3EFEED3928
:102AC000EC389002D2E0122F3FEEF0A3EFF07F003F
:102AD00022CDEFCD121330122D67ED601C53997F7C
:102AE000122F6E902E5EE4F0A374FFF07F0F122180
:102AF0002B902EC4E4F043998053997F902E42E4AA
:102B0000F0A374FFF0122F8F7F0112212B43890253
:102B10001213364380024399802212145370299075
:102B200001A8E070031213819001A87401F09000D5
:102B300029E0B42008122913120C478003122E58E2
:102B40009002317401F08017E49001A8F090002900
:102B5000E0B42003122913900231E06002E4F00295
:102B60002FAD9002D4EBF0A3EAF0A3E9F09002219C
:102B7000E07002A3E07031900135E0602BE4900139
:102B800035F01229CE1213817508017F01122D9D97
:102B90001219DD9002D41212DB12143B0508E5086D
:102BA000C3941240E61214D822758A50538AEF90CB
:102BB00000027411F09000017422F090000374334D
:102BC000F0E4F5AB75AC1DF5ADF5AF7589FF75910A
:102BD0003F7599FFF59675931CF59BF595F592F564
:102BE0009A5388FCD28A90024704F0D20D22120830
:102BF0002EE4F5F275F30875EEFF75EF3F75EA8187
:102C0000F5F675EB0700E5EC30E7FBE4F5EC900238
:102C1000E6E0FEA3E0FF241BF582E43EF583E5F346
:102C2000F0EF241CF582E43EF583E5F2F075EB301D
:102C30002230073FC207902E42E0FFA3E09002D46B
:102C4000CFF0A3EFF0E4FF122AD1121399EF24443E
:102C5000FFEE34FDFE9001281212DB12143B12131A
:102C6000EF9002D4E0FFA3E0902E42CFF0A3EFF06C
:102C700012138122758B11902F647440F0E4FEE4EE
:102C8000FFEF75F003A4245BF582E43402F583E5DD
:102C9000822EF582E43583F583E4F00FEFB40AE188
:102CA0000EEEB403DA7F099002C9E4F0A3DFFC90D2
:102CB0002F647480F022CBEFCB122F28E060369087
:102CC0002F60A3A3E0FEA3E0FFEB122F3FE0FCA3E5
:102CD000E0FDD39FEC9E501DC3EF9DFFEE9CFEEBED
:102CE000122F33C37401939FE4939E4008122F2840
:102CF000E4F07F01227F0022F582E43CF583EFF0CF
:102D000022241AF582E43EF58322A42440F582E5CC
:102D1000F0342EF583229002E6E0FEA3E022A3F039
:102D2000A37401F0A322746A2FF582E43400F583C2
:102D30002200000000FFFFFFFF0000FFFFFFFFFF7A
:102D4000FFFFFFFF00FF000000FFFF000000FFFF8C
:102D5000FFFFFFFFFF00000000FFFFFFFFFFFFFF7F
:102D6000FFFFFF000000001213EF121504F0FF74C4
:102D7000542FF582E43400F583E0FE75F002EFA4F1
:102D80002400F582E5F0342EF583E49324C0F58227
:102D9000E4342EF583EEF00FEFB416D3229002D771
:102DA000EFF0122D67E4F5099002D7E0FFE509C3C3
:102DB0009F5007120FC4050980EE902EC0E4F01258
:102DC0001ED2900108EEF0A3EFF022122DDB022CB0
:102DD000741214F322D2AF32D2AF32022FAD000000
:102DE0000101AB70E4FF3006169002E6E0FCA3E0C0
:102DF000F5828C83E0FE54F0FFEE540FF0C2062201
:102E0000021103030A160DA00EA60FFF0C020BFF02
:102E100023F724062504070127082A0828042B0481
:102E200029032C032D082E082F082608021103065B
:102E30000A100D400E800FFF0C020BFF23F4240438
:102E40002504070127102A1028042B0429032C032A
:102E50002D202E202F102620E4F5B2F5BA758D20F6
:102E6000438D20538D7F53AAF7F58BE5DB20E211CC
:102E7000200C0EE4F58A758703000000758A50D295
:102E80000A758B112212084E53A87F122BA9120823
:102E90001E122EB143A880122DCB9000FFE06006D9
:102EA00090021E7401F0122DE4122A281229728059
:102EB000F59002E6E0FFA3E09002EACFF0A3EFF086
:102EC000E4F5DA75DA4043DA2075D74075DA5875DB
:102ED000D90143A90875B80875F8082201F400283B
:102EE000002801F4009603E801F403E81770006479
:102EF00003E8003202580258012C01F403E82710BD
:102F000000C89002D7E0FEA3E0FF7C007D1202091A
:102F100074902EC2F0902EC0E04419F0229001254A
:102F2000E0FBA3E0FAA3E02274C92BF582E43402AB
:102F3000F5832225E024F0F582E4342EF583222562
:102F4000E02449F582E43402F58322902EC0740215
:102F5000F0902EC77474F0902ECD74C0F0A374FF5F
:102F6000F0A3F0902EC37401F0902ECAF022121339
:102F7000EF74121213D17410F074061214927402CA
:102F8000F0902EEBF0902EC47480F0A3E4F02212A7
:102F900013EF74111213D17416F074081214927492
:102FA00004F0902EEBF01215047402F022E5B2301A
:102FB000E005E5AA20E013E4900233F075B28E75C7
:102FC000B6F9F5B743B20143AA0122A3E0FCA3E09E
:102FD0002FF582E43CF58322E0FEA3E0F5828E83A8
:102FE00022000000000000000000000000000000BF
:102FF00000000000000000000000000000000000D1
:1030000000000000000000000000000000000000C0
:1030100000000000000000000000000000000000B0
:1030200000000000000000000000000000000000A0
:103FD00000000000000000000000000000000013CE
:103FE00000000000000000000000000000000000D1
:103FF00000000000000000000000000000000000C1
:00000001FF
