:10000000544649530001000064E80100CDCAAD4BDD
:100010000511012316052017483241300511015200
:100020001605201748324130051101061605171430
:1000300048324130030000000000000000000000D2
:10004000544643530020000014D801000000000073
:10005000004001200121000025210000272100008F
:10006000292100002B2100002D2100003D2100004E
:100070003D2100003D2100003D2100002F21000016
:10008000312100003D210000332100007B5700009A
:100090007B580000372100003D210000BD07001003
:1000A000372100007D390000D13900003D210000DA
:1000B0003D2100004F54000037210000372100008F
:1000C00043510000372100003D2100003D21000088
:1000D0000000000000000000000000000000000020
:1000E0000000000000000000000000000000000010
:1000F0000000000000000000000000000000000000
:1001000000000000000000000000000000000000EF
:1001100000000000000000000000000000000000DF
:1001200000000000000000000000000000000000CF
:1001300000000000000000000000000000000000BF
:1001400000000000000000000000000000000000AF
:1001500000F003F800F020F8FEE70D48016821F0F8
:100160000301002001C101C101C101C170470000AC
:10017000940D0010FEE7FEE7FEE7FEE7FEE7FEE770
:10018000FEE7FEE7FEE703480047FEE7FEE7000064
:10019000202100003D21000000F002F800F068F886
:1001A0000AA090E8000C82448344AAF10107DA45D2
:1001B00001D100F05DF8AFF2090EBAE80F0013F0BC
:1001C000010F18BFFB1A43F00103184748C801008C
:1001D00078C801000A444FF0000C10F8013B13F0FE
:1001E000070408BF10F8014B1D1108BF10F8015B90
:1001F000641E05D010F8016B641E01F8016BF9D183
:1002000013F0080F1EBF10F8014BAD1C0C1B09D1D9
:100210006D1E58BF01F801CBFAD505E014F8016B4B
:1002200001F8016B6D1EF9D59142D6D370470000DD
:10023000103A24BF78C878C1FAD8520724BF30C812
:1002400030C144BF04680C607047000000230024E4
:1002500000250026103A28BF78C1FBD8520728BFD6
:1002600030C148BF0B6070471FB51FBD10B510BD32
:10027000DFF80CD0FFF7F8FF05F00CF91AF027FAB9
:100280000040012003B4FFF7F1FF03BC1AF026FA87
:1002900008B5002103200B460A46009119F0ACFB7B
:1002A00008BD38B5AF4D0024AC80EC8019F081FB5F
:1002B000E860FF206870AC48234622460460446032
:1002C00004720120A87003202146009419F094FBC9
:1002D000012038BD38B5A34D02286C7822460DD0D8
:1002E000052814D0A24208BF38BD002003460246AC
:1002F0002146009019F080FB6C7038BD022908BFC0
:100300000224EFD00D2914BF01240024EAE70229BA
:1003100014BF64246524E5E738B5944B944C0A4631
:100320001B7824784FF0010C6343002401465B00E6
:100330006046009419F060FB38BD38B54FF0010CF1
:10034000062400250B46024621466046009519F01A
:1003500053FB38BD2DE9F04104460127002503F089
:100360000700804E8846012804BF0020F08046D058
:10037000022844D1F08804280BD2002818BFB068A6
:1003800002D119F05AFBB06010F8011B2170B06067
:100390002EE0062808D219F052FBF188C1F10501C0
:1003A000C900C840207023E0082808D219F04BFB90
:1003B000F188C1F10701C900C840207018E00C287D
:1003C00008D219F0F6FAF188C1F10B01C900C84052
:1003D00020700DE00E2808D219F0EDFAF188C1F175
:1003E0000D01C900C840207002E0FF2020700027E6
:1003F000F088401C80B2F0800E2828BF012588F8C4
:1004000000503846BDE8F08130B403F00700002406
:10041000DFF850C1012804BFACF80440ACF8064036
:1004200014D05048BCF806308088022B05D2120246
:1004300042EA1020ACF8040005E0DCF80C50184447
:10044000284400F8022C581CACF806000C7030BC94
:100450000020704770B40546002003F0070C414CA3
:100460000646BCF1010F08BFE68008D03D4BBCF149
:10047000020F9B8806D0120242EA1322A2800E705D
:1004800070BC7047E0881A18E368401C9A5C2A70B8
:10049000E0800120F3E738B503F0070000240D46A3
:1004A000012809D12F4821460B46C48084800220B0
:1004B0000A46009419F0A0FA2C70002038BD2A4A90
:1004C0001154704700225A2101200BF0F8BD002280
:1004D0005B2101200BF0F3BD00284FF0000001D09C
:1004E0000CF029B90CF033B91E4900200870704790
:1004F0001C48007870471B49012008707047194953
:10050000002818BF01208870704708B5B9B10023D2
:100510000221012808BF8DF8001017D0022808BF5B
:100520008DF8001015D00522642808BF8DF8002032
:100530000CD0652808BF8DF800200AD00BE0012000
:100540000CF0D0F8012009F0FFF808BD8DF801305B
:1005500001E08DF80110684608F089F908BD0148EE
:100560008078704700400020C84200209E40002054
:100570009F4000207047002818BF0120FE490968ED
:1005800008627047FC480068006A002818BF012014
:100590007047F94A126802EBC00041637047F649A0
:1005A000096801EBC000006B00F480707047F24AEC
:1005B0001021126802EBC00041637047EE490A68DF
:1005C000D2F8402160F30D220868C0F8402170473E
:1005D000E9480068D0F84001C0F305207047E64ABA
:1005E00000F00F03C0F303101268002902EBC312DE
:1005F00002EB4010D0F8401114BF41F0010121F08E
:100600000101C0F840117047DB4A00F00F01C0F350
:100610000310126802EBC11101EB4010D0F8400149
:1006200000F001007047D44900230A681362026891
:10063000D1F800C0CCF800204268D1F800C0CCF856
:1006400004208268D1F800C0CCF80820C268D1F834
:1006500000C0CCF80C20426AD1F800C0CCF8402091
:10066000826AD1F800C0CCF844200269D1F800C0F9
:10067000CCF818204269D1F800C0CCF81C20826B5D
:10068000D1F800C0CCF86020C26BD1F800C0CCF823
:100690007020026CD1F800C0CCF87420426CD1F804
:1006A00000C0CCF87820826CD1F800C0CCF8802053
:1006B000C26CD1F800C0CCF88420026DD1F800C023
:1006C000CCF88820426DD1F800C0CCF88C20426E66
:1006D000D1F800C0CCF89C20826ED1F800C0CCF8D4
:1006E000A020C26ED1F800C0CCF8A420026FD1F8CF
:1006F00000C0CCF8A820826FD1F800C0CCF8C02090
:10070000C26FD1F800C0CCF8C420D0F88020D1F856
:1007100000C0CCF8C820D0F88420D1F800C0CCF8B4
:10072000CC20D0F88820D1F800C0CCF8D020D0F868
:100730008C20D1F800C0CCF8D420D0F89420D1F887
:1007400000C0CCF8DC20D0F89C20D1F800C0CCF858
:10075000F020D0F8A020D1F800C0CCF8F420D0F8D8
:10076000A420D1F800C0CCF8F820D0F8A820D1F807
:1007700000C0CCF8FC20D0F8AC20D1F800C0CCF8F8
:100780000021D0F8B020D1F800C0CCF80421D0F876
:10079000B420D1F800C0CCF80821D0F8B820D1F8A6
:1007A00000C0CCF80C21D0F8BC20D1F800C0CCF8A7
:1007B0001021D0F8C020D1F800C0CCF81421D0F816
:1007C000C420D1F800C0CCF81821D0F8C820D1F846
:1007D00000C0CCF81C21D0F8CC20D1F800C0CCF857
:1007E0002021D0F8D020D1F800C0CCF82421D0F8B6
:1007F000D420D1F800C0CCF83021D0F8D820D1F8DE
:1008000000C0CCF84021D0F8DC20D1F800C0CCF8F2
:100810004421D0F8E020D1F800C0CCF84821D0F82D
:10082000E420D1F800C0CCF84C21D0F8E820D1F871
:1008300000C0CCF85021D0F8EC20D1F800C0CCF8A2
:100840005421D0F8F020D1F800C0CCF85821D0F8CD
:10085000F420D1F800C0CCF85C21D0F81821D1F8F0
:1008600000C0CCF88021D0F81C21D1F800C0CCF811
:100870008421D0F82021D1F800C0CCF88821D0F80C
:100880002421D1F800C0CCF88C21D0F82821D1F84F
:1008900000C0CCF89021D0F82C21D1F800C0CCF8C1
:1008A0009421D0F83021D1F800C0CCF89821D0F8AC
:1008B0003421D1F800C0CCF89C21D0F83821D1F8EF
:1008C00000C0CCF8A021D0F83C21D1F800C0CCF871
:1008D000A421D0F84021D1F800C0CCF8B021D0F844
:1008E0004421D1F800C0CCF8C021D0F84821D1F87B
:1008F00000C0CCF8C421D0F84C21D1F800C0CCF80D
:10090000C821D0F85021D1F800C0CCF8CC21D0F8C3
:100910005421D1F800C0CCF8D021D0F85821D1F81A
:1009200000C0CCF8D421D0F85C21D1F800C0CCF8BC
:10093000D821D0F86021D1F800C0CCF8DC21D0F863
:100940006421D1F800C0CCF8E021D0F86821D1F8BA
:1009500000C0CCF8E421D0F86C21D1F800C0CCF86C
:10096000E821D0F87021D1F800C0CCF8EC21D0F803
:100970007421D1F800C001E038E30100CCF8F02187
:10098000D0F87821D1F800C0CCF8F421D0F87C213F
:10099000D1F800C0CCF8F821D0F88021D1F800C0FF
:1009A000CCF8FC21D1F800C02122CCF83420D1F8B9
:1009B00000C0CCF83C20C269D1F800C0CCF824209B
:1009C000C26AD1F800C0CCF84820026BD1F800C050
:1009D000CCF84C20426FD1F800C0CCF8AC20D0F855
:1009E0009820D1F800C0CCF8E020D0F88421D1F8CC
:1009F00000C0CCF80022D0F88821D1F800C0CCF893
:100A00000422D0F88C21D1F800C0CCF80822D0F80C
:100A10009021D1F800C0CCF80C22D0F89421D1F864
:100A200000C0CCF81022D0F89821D1F800C0CCF842
:100A30001422D0F89C21D1F800C0CCF81822D0F8AC
:100A4000A021D1F800C0CCF81C22D0F8A421D1F804
:100A500000C0CCF82022D0F8A821D1F800C0CCF8F2
:100A60002422D0F8AC21D1F800C0CCF83022D0F844
:100A7000B021D1F800C0CCF84022D0F8B421D1F890
:100A800000C0CCF84422D0F8B821D1F800C0CCF88E
:100A90004822D0F8BC21D1F800C0CCF84C22D0F8C4
:100AA000C021D1F800C0CCF85022D0F8C421D1F830
:100AB00000C0CCF85422D0F8C821D1F800C0CCF83E
:100AC0005822D0F8CC21D1F800C0CCF85C22D0F864
:100AD000D021D1F800C0CCF86022D0F8D421D1F8D0
:100AE00000C0CCF86422D0F8D821D1F800C0CCF8EE
:100AF0006822D0F8DC21D1F800C0CCF86C22D0F804
:100B0000E021D1F800C0CCF87022D0F8E421D1F86F
:100B100000C0CCF87422D0F8E821D1F800C0CCF89D
:100B20007822D0F8EC21D1F800C0CCF87C22FA4A27
:100B3000126832F0FF0C08D1D1F800C0DCF890C088
:100B400062F3030C0A68C2F890C0F44A1370836F12
:100B500013F0010F1CBF02231370D0F8880010F0AF
:100B6000010F03D0107840F0010010700868D0F831
:100B7000C0000A6820F00100C2F8C0000868D0F880
:100B8000D000096820F00100C1F8D0007047E349A7
:100B900008707047E2480068D0F8C00000F001001B
:100BA0007047DF480068C068704770B5DC4D044688
:100BB0002868D0F8400114F0020F20F00D0118BF92
:100BC00041F0010114F0080F18BF41F0040114F0C6
:100BD000040F18BF41F008012868C0F8401114F054
:100BE000010F70D001F075F8064601F075F8014666
:100BF0002868C06800280EBF3046084631460028E5
:100C00002868D0F8C00114BF40F0010020F00100B6
:100C10002A68C2F8C00128680029D0F8E00114BF92
:100C200040F0010020F001002968C1F8E001BB4854
:100C300090F800C01CF0010F5DD0BA480168496C03
:100C4000026841F4803151640168896CC1F3090282
:100C500040F2E73103689B6CC3F30903934202D16E
:100C6000491EF7D117E0B1B11CF0010F07D0286879
:100C7000D0F8D000296840F00100C1F8D0001CF085
:100C8000020F38D02868D0F8C000296840F0010071
:100C9000C1F8C0002FE02968D1F8D0102A6821F0EF
:100CA0000101C2F8D0102968D1F8C0102A6821F0DB
:100CB0000101C2F8C0100168496C006821F480315C
:100CC000416418E0FFE72868D0F8C001296820F0E7
:100CD0000100C1F8C0012868D0F8E001296820F0BF
:100CE0000100C1F8E0012868D0F8C000296820F0B0
:100CF0000100C1F8C00014F0200F18BF002413D069
:100D0000204600F0F0FF0028286800EB4410D0F8DF
:100D1000401214BF41F0010121F00101C0F840125E
:100D2000641C022CECD370BD2868D0F840022968FE
:100D300020F00100C1F840022868D0F8600229685C
:100D400020F00100C1F8600270BD2DE9F003744984
:100D5000024602F00F03D1F800C000200CEBC315CF
:100D6000C2F3031305EB4313D3F8403113F0010F23
:100D70000DD142F01003C3F3031305EB4313D3F873
:100D8000403113F0010F04BFBDE8F00370470CEBD6
:100D9000C214D4F81C31DCF81C10C3F3080901F0AC
:100DA0000807D4F80011C1F30A08002142EA011330
:100DB000C3F3031305EB4313D3F8403113F0010FD2
:100DC00014D004EB4113D3F844C1CCF3080617F157
:100DD000000C1CBFD3F844C1CCF3023CD3F8403123
:100DE00006FA0CFCC3F3054360441844491C02296D
:100DF000DCD300FB08F0C9EB0911BDE8F00300EB00
:100E00004100704770B5464801680968006801F004
:100E10001F064068C0F30C050120FFF796FF04464B
:100E20000220FFF792FF044400F078FB211805FB35
:100E300006F0C0EB001001EB40004FF47A7148431C
:100E400047F23051B0FBF1F070BD2DE9F041344F65
:100E500005463868006810F01F0408BF012401200F
:100E6000FFF773FF06460220FFF76FFF064400F00E
:100E700055FB2D4A3118B5B1B2FBF5F0884298BF49
:100E800000200AD9C4EB0413401A5B00B0FBF3F056
:100E9000B0F5005F88BF41F6FF703B685B6860F3A8
:100EA0000C033868436038684068C0F30C00604346
:100EB000C0EB001001EB4000B2FBF0F0BDE8F081A8
:100EC00070B5174801680968006801F01F0540689F
:100ED000C0F30C060120FFF738FF04460220FFF79D
:100EE00034FF044400F01AFB06FB05F1C1EB0111CD
:100EF00004EB410108440C49B1FBF0F070BD084916
:100F00000A6852680B68C2F30C025B6860F30C035A
:100F10000868436010467047E0FE03001040002060
:100F200038E3010034E3010000389C1CFB480068F2
:100F30004068C0F30C007047F849096801EBC01025
:100F4000D0F800014EF66021C0F30A00B1FBF0F0CA
:100F5000401C400870474EF66022B2FBF1F1491C7C
:100F60004908B2FBF1F2F0B4EC4D521C56082A6865
:100F70004FEA510C02EBC01238B1D2F804318C1F89
:100F800024F00104012806D019E0ACF10603981FF3
:100F900020F0010413E02868D0F8D00010F0010F11
:100FA0000DD04800B0F5006F88BF40F2FF702F6889
:100FB000D7F8E07060F30A072868C0F8E07041EAEB
:100FC0000C40C2F80001C2F80431C2F810413046AA
:100FD000F0BC7047D14A00F00F01C0F30310126853
:100FE00002EBC11101EB4010D0F84401C0F308003E
:100FF0007047CA4A00F00F03126802EBC312D2F81E
:101000001431C0F3031002EB4010CB1AD0F8442186
:1010100061F30802C0F84421D0F844119B1E63F329
:101020001841C0F844117047BC490A68D269096880
:1010300012F0100F00F00F0201EBC211D1F82021C5
:10104000C0F3031001EB4010D2B2D0F84401C0F35A
:10105000080008BF0022801A0004000C08BF01200D
:1010600070474FEA101C0007C00EAD4B02FA00F0AB
:101070001B6803EBCC1303EB810101F5C0410B6846
:10108000184308607047A64B020900071B68C00E92
:1010900003EBC21202EB810101F5C041096821FA9C
:1010A00000F000F0030070479C480068006D704736
:1010B0009A4910200968C8657047984B00F00F02E4
:1010C000C0F303101B6803EBC21202EB4010C0F820
:1010D0004C117047914A00F00F01C0F303101268E1
:1010E00002EBC11101EB4010D0F84C0170478B4B63
:1010F00000211A68D26912F0080F0CD000F00F011D
:101100001A68C0F3031002EBC11101EB4010D0F8D4
:101110004401C0F3023108467047804A1368DB6916
:10112000D2F800C043F00803CCF81C3000F00F03E5
:101130001268C0F3031002EBC31202EB4010D0F8A8
:10114000442161F30E32C0F844217047734B0021F3
:101150001A68D26912F0080F0CD000F00F011A685B
:10116000C0F3031002EBC11101EB4010D0F84801AD
:10117000C0F3024108467047684A00F00F03C0F30D
:101180000310126802EBC31202EB4010D0F84821A2
:1011900061F31242C0F848217047042988BF7047A4
:1011A00030B400235D4C2268D269254612F0080F46
:1011B00000F00F022D68C0F3031005EBC21202EB22
:1011C00040121CBFD2F84401C0F302330020D4F80F
:1011D00000C0DCF81CC01CF0080F1CBFD2F848018E
:1011E000C0F30240C91A0844042803DD081A011D8F
:1011F000042003E00028BCBF0144002019442368F8
:10120000DB69D4F800C043F00803CCF81C30D2F8F6
:10121000443161F30E33C2F84431D2F8481160F31F
:101220001241C2F8481130BC70473C490028086898
:10123000806904D0096840F0080088617047096837
:1012400020F0080088617047344800688069C0F366
:10125000C0007047314A00F00F01C0F3031012685C
:1012600002EBC11101EB4010D0F8480180B2704789
:101270002A4B00211A68D26912F0080F0CD000F036
:101280000F011A68C0F3031002EBC11101EB40100B
:10129000D0F84801C0F30051084670471F490200CA
:1012A000086880690A6800F00100926904D0096842
:1012B00042F001028A617047096822F001028A61E6
:1012C000704730B4022ADDF808C026BF921E5208CB
:1012D0000022022B26BF9B1E5B080023114C00F04E
:1012E0000F05A4FB0C4C4FEA1C14DFF830C0C0F310
:1012F0000310DCF800C00CEBC51C0CEB4010D0F860
:1013000054C161F3196C62F3134C63F30B2C64F357
:10131000070CC0F854C130BC7047000038E301002E
:1013200050E30100CDCCCCCC70B49B4D00F00F0449
:10133000C0F303102D68DDF80CC005EBC41404EBFA
:101340004010D0F854010029C0F30166C0F30345F2
:10135000C0F30324C0B218BF0E6012B16900891C2B
:10136000116013B16100891C1960BCF1000F04BF4A
:1013700070BC704700EB80008000CCF8000070BCAF
:10138000704770B491B000224FF480456C10EC4669
:1013900001E0082A05D2531C03EB8303B5FBF3F3EA
:1013A00004E0D31F03EB8303B4FBF3F35B1A48BFE2
:1013B0005B424CF82230521C102AEAD30026009BD4
:1013C00001215CF821209A42BCBF13460E46491CFD
:1013D0001029F6D3704900F00F02C0F3031009681A
:1013E00001EBC21101EB4011D1F85801C1F858616D
:1013F000082807D2401C00EB8000B5FBF0F011B0CC
:1014000070BC7047C01F00EB8000B4FBF0F011B05F
:1014100070BC7047604A00F00F01C0F303101268FF
:1014200002EBC11101EB4010D0F85801082834BF7D
:10143000401CC01F00EB800034BF4FF480414FF4CC
:101440000051B1FBF0F0704710F00F0F08BF70476C
:10145000514A00F00F000029126802EBC010D0F8CA
:1014600024110CBF21F4803141F48031C0F82411E3
:101470007047002110F00F0F0BD0474A00F00F000B
:10148000126802EBC010D0F8240110F4803F18BF9E
:10149000012108467047404902460868D0F8AC0070
:1014A00012F0010F0A68C0F3C000D2F8AC2005D0DA
:1014B000096842F00802C1F8AC207047096822F0C0
:1014C0000802C1F8AC207047334A136858671068A7
:1014D00081677047304900280868D0F8AC0005D013
:1014E000096840F00200C1F8AC007047096820F0BC
:1014F0000200C1F8AC007047274900280868D0F8FE
:10150000AC0005D0096840F00100C1F8AC0070479C
:10151000096820F00100C1F8AC00704770B41E4E9D
:1015200000203168D1F8401111F0010F04BF70BCE8
:10153000704711F0040F336801F00805D3F81C312F
:10154000D6F800C0C3F30803DCF800C1CCF30804EC
:10155000D6F800C0DCF844C1CCF3080C18BFC1F3C6
:1015600007403268D269C1F3052112F0080204D0A5
:101570003268D2F84421C2F30232002D18BF491C50
:101580000CFA02F201FB0200604370BCC3EB0311D2
:1015900000EB41007047000038E30100FEF7F2BFA6
:1015A00010B5FEF7EFFF012818BF10BD0020FEF7B1
:1015B000E2FF21210020FEF7ECFF2121BDE81040D1
:1015C0000120FEF7E6BF10B5FEF7D4FFFEF7DAFF05
:1015D00001280AD10020FEF7CEFF21210020FEF7CE
:1015E000D8FF21210120FEF7D4FF0121052001F0C1
:1015F000A4FC0121052001F0A0FCFF490020487057
:1016000010BD10B5602001F0EEFCBDE81040602078
:1016100001F0DCBCF84A0146507A002818BF0120CE
:10162000002918BF012151727047F34A91699061F6
:1016300008467047F04800210172C1717047EE48BA
:1016400000210172C17170472DE9F34F00F00F05C1
:101650006800861E9DB0002445EA0410FEF7D4FF02
:10166000002845D01E9AC4EBC400002102EB0017ED
:10167000EC46C1EBC10307EBC30200200CEBC30334
:1016800052F8208043F82080401C0E28F8D3491CD3
:101690000229EED3D9490022301909684FF0020817
:1016A000C0EBC000434601EB001723FA02F101F042
:1016B0000101C2EBC200C1EBC1010CEBC10107EBA0
:1016C000C000B1E8004E00F5E76000F58040521C14
:1016D000A0E8004EB1E8004EA0E8004EB1E8004E90
:1016E000A0E8004ED1E90091C0E900914245DCD369
:1016F000641C022CB0D31FB0BDE8F08F70B5054656
:10170000FEF766FF29460446BC4DC0EBC400C2008C
:10171000286800F5804018F0E7FF2968C4EBC40092
:1017200001EBC00000F58040002101604160816054
:10173000C160016141618161C16101624162816297
:10174000C1620163416370BDAB494861FFF72DBAC7
:10175000AB4801688968AB4A11430268916001682F
:101760000968A94A00681143016000F0BBBE2DE979
:10177000F047A34A06460D4610688068A149014318
:1017800010688160106800689F490843116808600C
:1017900000F0A8FE0024984F002D63D00020FEF733
:1017A000EAFE286820B1FEF73EFF0020FEF7E3FEC8
:1017B00030467E61FFF7F9F90020FEF725FF00288B
:1017C00034D0DFF838826E6816B3FEF701FF814629
:1017D000C0EBC900C200D8F80000314600F58040D7
:1017E00018F082FFD8F80010C9EBC90001EBC00067
:1017F00000F58040046044608460C460046144611A
:101800008461C461046244628462C46204634463A8
:10181000E96841B1D8F800004FF4807200F5C0408B
:1018200018F062FF02E0794800F084FD0120FEF725
:10183000EBFE18B91120FEF7E7FE28B1A9680029D0
:101840001CBF0120FFF700FF0220FEF7DDFE18B9E4
:101850001220FEF7D9FE28B1296900291CBF0220F9
:10186000FFF7F2FE3C72FC71BC61787A002078725E
:10187000602001F0B8FBBDE8F047602001F0A6BB96
:1018800010B50020FEF777FE00F00EFE5C48016800
:101890000968026821F0030141F00D7141F08051A7
:1018A000116001688968006821F0020141F00D7142
:1018B00041F08051816010BD602001F08BBB10B5FC
:1018C000602001F087FBFEF75DFE01280AD10020B1
:1018D000FEF751FE21210020FEF75BFE21210120B1
:1018E000FEF757FE4A480168496C006821F48031D0
:1018F00041640020FEF73FFE00F0D6FD404801683D
:101900000968026821F0030141F00D7141F0805136
:10191000116001688968006821F0020141F00D71D1
:1019200041F08051816010BD10B501F058FB10F0FE
:10193000600018BF012010BD2F48406970472E4835
:101940000078002818BF0120704770B5FEF71AFE16
:10195000002818BF70BD0025274C2572E571212194
:101960002846FEF716FE21210120FEF712FE257003
:10197000BDE870400120FEF7FEBD10B5FEF702FE87
:10198000002818BF10BD00201B4C2072E0712121DF
:10199000FEF7FFFD21210120FEF7FBFD0120FEF7F0
:1019A00006FE01202070BDE81040FEF7E4BD0020D7
:1019B000FEF7E1BD10490020C8710120FEF7DBBD34
:1019C0000D49C86170470C48C069704770B50A4C32
:1019D0000025E069411CE161207800281CBF00203F
:1019E000FEF7C9FD20212846FEF7D3FDA169002995
:1019F0001CBF284688470DE01440002050E301003A
:101A000040E301000200341203003412D4420020EB
:101A100034E30100FE48016841F02001016070BD1F
:101A200070B5FC4C0125E069411CE161207800287B
:101A30001CBF0020FEF79FFD20212846FEF7A9FDD0
:101A4000A16900291CBF28468847F148016841F078
:101A50002001016070BDF0487047F0487047ED48C4
:101A6000006A7047EB48406A7047EA48806A7047EE
:101A70002DE9F00FE84E4FF0000C87B006F1380763
:101A8000E1464FF0FF3806F80C8007F80C900CF197
:101A9000010CBCF11C0FF6DB4FF0000C002807D93D
:101AA00012F80C4006F80C400CF1010C6045F7D818
:101AB0000024A4464FF0010A00280FD93257002A0B
:101AC00009DB082AB4BF1432083A1C2A3CBF0AFAC0
:101AD00002F242EA0C0C641C8442EFD3002214464A
:101AE0006D460AFA02FB1BEA0C0F1ABFAC54641CC9
:101AF00005F80280521C1C2AF3DB0022002817D9AB
:101B000016F902C0BCF1000F0FDBBCF1080FB4BF27
:101B10000CF1140CACF1080CBCF11C0F3ABF15F819
:101B20000CC007F802C007F80280521C8242E7D3BB
:101B3000B84C00220028C4F8209008D917F902C038
:101B4000944501D0276202E0521C8242F6D3B44F82
:101B50000020A7F1540CA7F11C060CF8008006F831
:101B6000009007F80090401C1C28F6DB002000299C
:101B700005D91A5C0CF80020401C8142F9D80020DD
:101B8000024600290BD91CF90230002B04DB1C2B68
:101B90003CBF0AFA03F31843521C8A42F3D30022D3
:101BA00013460AFA02FB1BEA000F1ABFAB545B1C78
:101BB00005F80280521C1C2AF3DB002200290AD9F6
:101BC0001CF90230002B03DB1C2B3CBFEB5CBB542D
:101BD000521C8A42F4D30022C4F82890002907D965
:101BE000BB56934201D0A76202E0521C8A42F7D34F
:101BF00011F0010F18BF1B2209D00AFA02F30342A9
:101C000003D10AFA02F2104301E0521EF5D5002278
:101C100013460AFA02F707421ABFAB545B1C05F8D9
:101C20000280521C1C2AF4DB002000290AD91CF96E
:101C30000020002A03DB1C2A3CBFAA5C3254401C53
:101C40008842F4D30020C4F8249000299EBF07B036
:101C5000BDE8F00F70473256824204D0666207B08A
:101C6000BDE8F00F7047401C8842F4D307B0BDE8D0
:101C7000F00F7047C0EB00106A4900EBC00001EBA9
:101C8000C0007047C0EBC00101EB0010664901EBDA
:101C900080007047DFF87CC1012B8CF802008CF8C3
:101CA000031003D9401C20F00100114600FB01F293
:101CB0004FF6FF718CF8040001EA4202ACF80C20E8
:101CC00001EA4000ACF80E007047524A5071917121
:101CD00070475048807970474E4840797047534A62
:101CE0001070517070475149085C704770B5494D8C
:101CF0000446687A002804BFE87918F0E2FD287AE3
:101D0000002808BF70BD4FF0000C6869634662464A
:101D1000614610F0020F1CBFDFF808C110F0040F7D
:101D200004D0AB893F4E23F00103334410F0010F80
:101D300004D010F0100F0CBF3B4A3B49ED69256001
:101D4000C4E90321C4E901C310F0200F14BF3848CF
:101D500000206061012070BD2E490020087270478C
:101D600010B50446FEF734FCC0EBC000C200314899
:101D7000006800F580412046BDE8104018F0B4BC72
:101D80002DE9F041FEF724FC04460020FFF7A2F9FC
:101D900000220546002C84BF0126264F21D93B682E
:101DA000C2EBC200002103EBC00C06FA01F028428E
:101DB00011D048080CEB800000F58040CB0700688C
:101DC000DB0E20FA03F3C3F30B00B0F57F6F02D9EB
:101DD0000020BDE8F081491C1C29E6D3521CA24218
:101DE000DDD30120BDE8F0812DE9F05F00F00F06A2
:101DF0000024104F8846750046EA0410FEF704FCE4
:101E0000002849D002218A460023C4EBC40013E015
:101E10004440002014400020D4420020F042002022
:101E200044430020D0430020084800201E400020EA
:101E30006448002050E3010008EB001B002000294B
:101E400008D92AFA00F202F001029A421CBF401C93
:101E50008842F6D388421CD2A5F10209A144D7F8E2
:101E600000E0C3EBC302C9EBC9090BEBC20C0EEBDC
:101E70000919C0EBC000002209EBC00909EB820080
:101E800000F58040D0F838074CF82200521C0E2A8A
:101E9000F4D35B1C022BD1D3641C022CACD3BDE861
:101EA000F09F2DE9F05F00F00F0670000025DFF8CD
:101EB0007494A0F10208012746EA051A5046FEF77D
:101EC000A3FB002839D05046FFF711F907FA00F4B8
:101ED000022C88BF02245046FFF7FCF80022002C99
:101EE0002BD908EB0501D9F80030C1EBC10103EB98
:101EF000011BC2EBC20300210BEBC30A07FA01F37B
:101F0000034214D04B080AEB830303F580434FEAE6
:101F1000C17CD3F838374FEADC6C23FA0CF3C3F3F7
:101F20000B03B3F57F6F02D90020BDE8F09F491C79
:101F30001C29E3D3521CA242DBD36D1C022DBBD360
:101F40000120BDE8F09FC1EBC103F6494FF6FF7CCD
:101F5000096801EBC301430801EB830101F58041EE
:101F6000C007C00E0CFA00FC0B6802FA00F023EA6E
:101F70000C03184308607047EA4AC1EBC1011268BC
:101F800002EBC101420801EB820101F58041C0076B
:101F90000968C00E21FA00F080B270472DE9FF4FAA
:101FA000E04883B01D460068109C00F5804017464D
:101FB0000E460190FEF7E6FA5FEA00081CBF00201B
:101FC000FEF7D9FA0020FFF785F8824670190090D5
:101FD000B04284BF4FF0010B4FF6FF7E28D9019825
:101FE000C6EBC6014FF0000C00EBC101039B17E0EC
:101FF0000BFA03F010EA0A0F11D05808DD0751F868
:102000002020ED0E0EFA05F922EA090234F8029BAF
:102010000CF1010C09FA05F52A4341F820205B1C5C
:10202000BC4538BF1C2BE3D30098761C8642D6D320
:10203000B8F1000F04BF07B0BDE8F08F0020BA4927
:10204000C87107B00120BDE8F04FFEF794BA2DE942
:10205000F0470746B3489A46144600680E46089D66
:1020600000F58049FEF78EFA5FEA00081CBF0020E9
:10207000FEF781FA06EB0A03B34284BFAB4907EBD4
:10208000040C1CD9C6EBC6003C4609EBC0000FE0AF
:102090000A571C2A0BD202EBD27A4FEA6A0AD207FD
:1020A00050F82AA0D20E2AFA02F225F8022B641C5C
:1020B000644538BF1C2CEBD3761C9E42E2D3B8F1AA
:1020C000000F08BFBDE8F08700209749C871BDE840
:1020D000F0470120FEF74FBA2DE9F05F0027DFF847
:1020E0004882904A4FF6FF7600280C4647D0116888
:1020F00001F5804900F00F01C0F3031001290EBF64
:1021000000210229BDE8F09F022828BFBDE8F09F0A
:1021100001EB000AFEF736FA05001CBF0020FEF7AF
:102120002AFA0020CAEBCA0109EB0119C0EBC00171
:10213000002209EBC10153084FEAC27C4FEADC6C74
:1021400001EB830306FA0CFBD3F838A704FA0CFC66
:102150002AEA0B0A4AEA0C0C521CC3F838C71C2A9C
:10216000E9D3401C0228E1D3002D08BFBDE8F09F51
:1021700088F80770BDE8F05F0120FEF7FCB9106831
:1021800000F58049FEF7FEF905001CBF0020FEF7B0
:10219000F2F94FF0000CCCEBCC00002209EBC001AF
:1021A0005308D007C00E06FA00FB51F823A004FA2A
:1021B00000F02AEA0B0A4AEA0000521C41F8230008
:1021C0001C2AEDD30CF1010CBCF1210FE3D3002D3F
:1021D000CED1BDE8F09F10B5FEF726FF5249088228
:1021E00010BD514AC1B200F47063128A914288BF97
:1021F00011464FF0640C01FB0CF1B1FBF2F11A0A2D
:1022000002FB0C1189B210F4805F12BF08B2484281
:1022100000B270470028B8BF404280B2B4BF00216E
:102220004FF4805100F4706211433F4AC0B2128AE9
:10223000504341EA102070473D4800F07BB870B52C
:102240003B4800F077F8374840F6F801006800F5A1
:10225000804018F04EFA0020FEF751FE002108469B
:10226000FEF75BFF0020FEF7E0FF00210120FEF7F4
:1022700054FF00211120FEF750FF00210846FEF711
:102280007BFF00210120FEF777FF00211120FEF7E0
:1022900073FF0120FEF750FE04460120FEF79AFE70
:1022A00006461120FEF796FE0546A64288BF264642
:1022B000A54288BF254631460120FEF79AFE2946F1
:1022C0001120FEF796FE0020FEF761FC002102209F
:1022D000FEF723FF00211220FEF71FFF002102203E
:1022E000FEF74AFFBDE8704000211220FEF744BF10
:1022F0000D4910B502204861FEF757FC094C4FF418
:102300008071206800F5C04018F0F3F920684FF4A0
:10231000E76100F5804018F0ECF9BDE810400020BE
:10232000FEF7EDBD50E3010014400020F042002014
:10233000D442002070B5144D04464FF480712868D3
:1023400000F5C04018F0D5F9002101206256002A9E
:1023500015DBD31702EB137C4FEA2C132E682CF0FD
:102360000F0C06EBC31303EB810303F5C043A2EB91
:102370000C0252001E6800FA02F232431A60491C35
:102380001C29E3D370BD000050E3010070B40024A9
:102390006B4982B04FF0010C002814BF0C7081F81B
:1023A00000C0684D28680068674A10432A681060BA
:1023B0000978664A31B113686548D8601368654882
:1023C000986006E013686448D86013684FF0BB70EB
:1023D00098606248006830F0FF0305D11368DB683D
:1023E00060F303031068C36040F2E243C1B11068B8
:1023F0008068166840F01800B0600120009004E08A
:102400000198461E0196FBD20098461E009628BFF2
:102410000193F5D210688068166840F48050B0606F
:102420000120009004E00198461E0196FBD200981E
:10243000461E009628BF0193F5D21068C068166842
:1024400040F03000F0601068D0F8B000166840F03E
:102450000100C6F8B0000120009004E00198461E7B
:102460000196FBD20098461E009628BF0193F5D234
:102470001068C0F87CC013684FF4E0601861106801
:10248000C0F8884000291CBF1068C0F894C02868B4
:102490000068296820F0040040F00D7040F0805082
:1024A000086002B070BC704728480168C9680268BB
:1024B00021F03001D1602249097839B10168896879
:1024C000006821F0180121F4805181601D480168E5
:1024D0000968006821F0040141F00D7141F080515C
:1024E00001607047174801680968174A006811437E
:1024F000016013480178154831B10168896841F2DB
:1025000018021143026891600168C968026841F0CD
:102510003001D1600168D1F8B010006841F00101CC
:10252000C0F8B01070470E49C0B241EA0020074918
:1025300009680864704705490A48096808647047D3
:102540004040002040E30100040034123CE301005D
:10255000057601002000760105F40100D0FE03009D
:1025600013005FA000005FA05948584902689161BC
:102570000268891CD1610268491E516302681268B1
:10258000036822F0030242F00D7242F080521A609A
:1025900002685269036822F0010242F00D7242F0B3
:1025A00080525A610268126911430268116102681F
:1025B0004849916000684849C16048490020086066
:1025C000704770B501F071F9444D2C682CB10020B2
:1025D000286001F06FF9204670BD30BF00F0A3FD08
:1025E0000028F2D000F0B2FD6860EEE72DE9F0417E
:1025F00001F05BF9354E364CDFF8E080771CD8F8F7
:1026000000503DB10020C8F8000001F053F9284601
:10261000BDE8F08172B6206846632068876120BFFC
:10262000206886612068476362B6BFF36F8FBFF38F
:102630004F8F00F078FD0028E1D000F087FDC8F84A
:102640000400DCE7224801680968026821F0030100
:1026500041F00D7141F08051116002682049916094
:10266000016809691F4A00681143016130BF704762
:1026700072B616491648026851630268C91CD161D6
:102680000068891E816162B6704711480168096857
:10269000154A00681143016070470D4801680968D8
:1026A000006821F0030141F00D7141F0805101609B
:1026B000704772B605490648026891610268891C34
:1026C000D1610068491E416362B670470000341250
:1026D00040E301003C003412280034124440002042
:1026E000080034120100341203003412704700282D
:1026F00018BF0120B64909684860704700220029C8
:1027000009D950F8043BB3F1FF3F01D000207047D6
:10271000521C8A42F5D30120704730B44FF0000CB0
:102720006346002A13D950F8044B51F82350AC42A9
:102730001CBF0CF1010C1FFA8CFC5B1C9BB293427A
:10274000F1D3BCF1000F1EBF002030BC7047012048
:1027500030BC70472DE9F041054601F0B0F8002487
:102760009B4B21274FF482582646186807602E603D
:1027700018680068196840F004000860186800686C
:1027800010F0040FFAD11868C0F8008040202946E4
:10279000002251F804CBBCF1FF3F08D01868066056
:1027A000601CC4B2082CE0D30220BDE8F081521CAA
:1027B0008242EED3186806600120BDE8F0812DE961
:1027C000F041044601F07BF80020814B0925844646
:1027D00019680D60C4F800C0196809681A6841F0EA
:1027E000040111601968096811F0040FFAD121463B
:1027F0004FF48066002251F8047BB7F1FF3F09D007
:102800001968C1F800C0401CC0B20328E0D3022000
:10281000BDE8F081521CB242EDD31868C0F800C088
:102820000120BDE8F0812DE9F05F0F4680460426C7
:102830004FF0020A4FF0000BDFF8949101F03FF8DF
:10284000D9F8001044463846C1F800A00F21B0E87E
:102850002C10A4E82C10491EF9D2D9F80000006809
:10286000D9F8001040F004000860D9F800000068B2
:1028700010F0040F07D000BF00BFD9F800000068B7
:1028800010F0040FF7D1D9F80000C0F800B04546A9
:1028900038460F21D5E90023D5E902C4D0F800E07D
:1028A000964504BF42689A4205D18268624504BFDA
:1028B000C268A24208D0761E03D34046FFF74AFF03
:1028C000BCE70220BDE8F09F10301035491EE1D270
:1028D0000120BDE8F09F70B50D46044600F0EFFF03
:1028E0004FF480722146284617F0FEFE012070BD8D
:1028F0002DE9F041C0B014460E46054610F0FF0F1A
:1029000023D025F0FF086F4600F0D9FF4FF4807206
:102910004146384617F0E8FEE8B2C0F58077A74296
:1029200088BF274668443A46314617F0E7FE4046DE
:10293000FFF710FF022843D069464046FFF773FFB8
:10294000022841D03D443E44E41BB4F5807F19D3B6
:102950004FF480723146684617F0D0FE2846FFF7E4
:10296000F9FE02282CD069462846FFF75CFF0228B2
:102970002AD0A4F5807405F5807506F58076B4F547
:10298000807FE5D2C4B16F4600F099FF4FF48072AA
:102990002946384617F0A8FE22463146684617F009
:1029A000ADFE2846FFF7D6FE022809D06946284624
:1029B000FFF739FF022807D040B00120BDE8F081C1
:1029C00040B00A20BDE8F08140B00B20BDE8F081A6
:1029D00024E3010028490A6810600968086100F0D2
:1029E00016B825490A6810600968486100F00FB8F8
:1029F00021490968486770471F4909688867704717
:102A00001D480121026811660068016570471B4A74
:102A10001168096B10F0010F18BF21F4404110F04C
:102A2000020F1CBF21F4405141F4805110F0040FFB
:102A300018BF41F4406110F0080F18BF41F4407115
:102A400010F0100F18BF41F0C00110F0200F18BF98
:102A500041F0300110F0400F18BF41F00C0110F0B0
:102A6000800F18BF41F0030141F4BE00116840F02F
:102A700020400863704700002CE3010034E30100AC
:102A8000FE4801688A68FE4903680A439A60026842
:102A9000D26811430268D16001684969F94A006847
:102AA000114341617047F54801684969026821F0A6
:102AB000010141F00D7141F0805151610168C96817
:102AC000026821F0400141F00D7141F08051D16068
:102AD00001688968006821F0400141F00D7141F002
:102AE00080518160704710B5E44C20688168E448EB
:102AF0002268014391602168C96808432168C86061
:102B000020684069DF49084321684861DE483F2169
:102B10000268D160026800219163026891640068D4
:102B2000C0F8B01003210A2000F007FA0A2000F0D4
:102B300028FA20684069216820F0010040F00D70FB
:102B400040F0805048612068C068216820F0400053
:102B500040F00D7040F08050C860206880682168A7
:102B600020F0400040F00D7040F08050886010BDB3
:102B7000C54A136818601368596048431168886033
:102B80007047C14A1368186013685960484310F0D1
:102B9000010F18BF401C116888607047BA49096866
:102BA000C1F8B0007047B84918B1096801208864BD
:102BB00070470968002088647047B3490A689063C9
:102BC0000868C068096840F00200C8607047DFF814
:102BD000B8C210B4DCF800402062DCF800004162AA
:102BE000DCF800008262DCF80000C362DCF8001050
:102BF00001200863DCF80000406B10F0010F09D0E1
:102C000000BF00BF00BF00BFDCF80000406B10F049
:102C1000010FF5D110F0020018BF4FF0FF3010BCCB
:102C2000704799480168C968006821F00201C160D5
:102C3000704795480168C968006841F00101C160AA
:102C40007047914BD3F800C0CCF82000186841625F
:102C5000186882621968012008641868406C10F0D6
:102C6000010F08D000BF00BF00BF00BF1868406C54
:102C700010F0010FF6D110F0060018BF4FF0FF3032
:102C8000704781480168C968006821F00101C1608E
:102C900070477D480168C968006841F00401C1605F
:102CA0007047027C017B02F03F0241EA0241764A12
:102CB00013689965136801685962136841689962DD
:102CC00013688168D9621368012119651168496D1B
:102CD00011F0010F08D000BF00BF00BF00BF116896
:102CE000496D11F0010FF6D11368DB6D8382136813
:102CF000DB6D1B0CC38213681B6E038313681B6E92
:102D00001B0C438313685B6E83831268526EC2F39D
:102D10000E42C28311F0020018BF4FF0FF3070471F
:102D200059480168C968006821F00401C160704712
:102D300055480168C968006841F00801C1607047E2
:102D4000DFF844C110B4DCF80040A267DCF80020D2
:102D50001062DCF800004362DCF800008162DCF8FD
:102D6000001001200867DCF80000406F10F0010F30
:102D700009D000BF00BF00BF00BFDCF80000406FFB
:102D800010F0010FF5D110F0060018BF4FF0FF3022
:102D900010BC70473C480168C968006821F0080110
:102DA000C160704701684FEA314237490B68C3F888
:102DB00098200A684068C2F89C000868C0680968E2
:102DC00040F02000C86070472F4A136818621068EE
:102DD000416211680120C1F890001068D0F8940099
:102DE00010F0010F09D000BF00BF00BF00BF106886
:102DF000D0F8940010F0010FF5D110F0060018BFC4
:102E00004FF0FF30704720480168C968006821F022
:102E10002001C16070471C480168C968006841F022
:102E20001001C1607047A3F1050C174B10B41C686A
:102E3000C4F888C0D3F800C0CCF8200018684262FB
:102E40001868816219680120C1F880001868D0F8FC
:102E5000840010F0010F09D000BF00BF00BF00BF09
:102E60001868D0F8840010F0010FF5D110F00600BA
:102E700018BF4FF0FF3010BC7047000040E3010066
:102E8000400034120100341244E301000348016899
:102E9000C968006821F01001C160704744E3010077
:102EA000234810B5026802211165026801211166EC
:102EB000036810225A67036841F206025A660368E3
:102EC00000229A660268C2F8881002689021C2F84F
:102ED00084100168D1F88410026841F00101C2F841
:102EE000841002684FF48171116600680166032046
:102EF00000F047F80021032000F01FF8002010BD6B
:102F000010B5032000F048F809484FF480710268BA
:102F1000116602680021116602681021916700683D
:102F200002214165002010BD024900200870704751
:102F300030E301004C400020704700F00303DA004A
:102F40004FF0FF0C0CFA02F24FF0050C0CEBC30330
:102F5000994000F00C03002808DA30480068184453
:102F60004369114093431943416170472C480068FD
:102F70001844D0F80033114093431943C0F80013AC
:102F8000704700F01F01012202FA01F1244A4009B2
:102F9000126842F82010704700F01F01012202FA67
:102FA00001F11F4A4009126802EB8000C0F880104E
:102FB000704700F01F01012202FA01F1184A40098E
:102FC000126802EB8000C0F880117047144909684C
:102FD0000860704712490968C1F8800070471048BE
:102FE0000068006870470E490968C1F880017047A1
:102FF0000A4800688068704708490A68926809684A
:10300000886010467047054A1268926800F1100304
:1030100052F8230042F823107047000020E301001B
:103020001CE3010002210C20FFF787BFC74801689D
:103030008A68C74903680A439A600268D2680068D0
:103040001143C1607047C14801688968026821F472
:10305000805141F00D7141F0805191600168C96863
:10306000006821F4805141F00D7141F08051C16040
:103070007047B84881B00168096F11F4007FFAD138
:103080000168896E11F0010F09D00168D1F8841030
:1030900000910168D1F88410009A9142F9D001683A
:1030A000096F11F4007F03D102684CF271011166BF
:1030B000006842F24131816601B07047A5494FF482
:1030C0000D520B689A660A68126F0B68DA66002860
:1030D00008BF012080B24FF05C5242EA00200A682B
:1030E000506609684FF01140C1F88000C1E7994867
:1030F00081B00168096F11F4007FFAD10168896E0F
:1031000011F0010F09D00168D1F884100091016815
:10311000D1F88410009A9142F9D000684FF40D5113
:10312000816601B0704789480068806810F480505B
:1031300008BF704787480068806E00F00100704744
:1031400084480068406EC0F30F20704781480068D3
:10315000D0F88400704710B50C20FFF72AFF0C2030
:10316000FFF70FFF7B4902200968486710BD7949C6
:1031700010B50968032088670C20FFF70DFFBDE834
:1031800010400C20FFF715BF734A11681060084605
:103190007047704810B50168096F0068C1666E48D5
:1031A0000068002818BF80476C48016841F48051CE
:1031B000016010BD684840687047644810B50168F8
:1031C0008A68634903680A439A600268D2680068A3
:1031D0001143C1605F4C0320216888670C20FFF712
:1031E000DBFE0C20FFF7E5FE00F0B2F95C4B04209B
:1031F0001968C1F8880019684FF6FF70C1F88C0093
:1032000072B621684FF40D5088662068006F2168FF
:10321000C86621685348486621684FF01140C1F8DC
:103220008000FFF726FF19684FF40070086662B649
:1032300010BD38B572B647480168096F11F4007FB8
:10324000FAD10168896E11F0010F09D00168D1F837
:10325000841000910168D1F88410009A9142F9D04D
:1032600002684FF40D5191663D494FF400330A68EE
:10327000136662B60968D1F80412344C002948D0AC
:10328000354B4FF6FF72511A996022689269D4F853
:1032900000C002F00F02DCF81CC00CF00F0C6244FE
:1032A000121D9140A1F5EA42DFF8BCC0313A6245F7
:1032B0002FD20068D0F88400C0F10110D860B0F5BA
:1032C000803F26D20004B0FBF1F040F2C911484320
:1032D0001861B0F57A7F38BF4FF47A70DFF88CC090
:1032E000DCF80810002908BFCCF80800DCF804203E
:1032F000CCF80020DCF80810CCE901108A421FD974
:10330000824205D9814201D9596002E0586000E04B
:103310005A6000F02EF920688068216820F48050FF
:1033200040F00D7040F0805088602068C0682168CF
:1033300020F4805040F00D7040F08050C86038BDDF
:103340008242E5D88142E1D8DEE7000040E3010097
:10335000001034124CE30100504000204440002093
:1033600048E3010000FFFF372F6E16009048002051
:10337000134801688968134A006811438160124844
:1033800001684969026841F4007151610168096985
:10339000026841F00401116101680969006841F0A7
:1033A0001001016170470849096888607047BFF3E0
:1033B0004F8F054905480968C860BFF34F8FFEE786
:1033C00040E301000400341220E301000400FA0588
:1033D000254801688968254A0068114381602448AE
:1033E00001684969026841F0010151610168096B96
:1033F000204A21F440511143026811630168096AAF
:10340000036821F00F021C490A431A621B4B8A1EF3
:103410001B68C3F8C4200068016570471448006841
:10342000006900F070007047114815490268116387
:103430000268144951630168496C026821F4003143
:1034400051640168496C40F2FF32114302685164D3
:103450000168496C006821F4803141647047044878
:10346000006840687047000040E301000400341227
:1034700034E3010000205FA003005FA03CE30100F3
:10348000C08C5FA095995FA0022824BF00207047E0
:10349000B84B53F8202043F820101046704770B501
:1034A000B54C2068006FB34D10F0010F06D02168B5
:1034B0000120C8662868002818BF80472068006F70
:1034C00010F0020F08BF70BD02202168C86668684E
:1034D000002808BF70BDBDE870400047A74810B580
:1034E00001688A68A64903680A439A600268D2683C
:1034F00011430268D160A04902220B681A65D1F815
:1035000000C00123CCF86030D1F800C00323CCF810
:103510006C3009684A6501688968026821F0800199
:1035200041F00D7141F0805191600168C9680068F7
:1035300021F0800141F00D7141F08051C1600920FE
:10354000FFF71FFD0221BDE810400920FFF7F5BC81
:103550008A4801688A688A4903680A439A6002684F
:10356000D26800681143C160834902200968086578
:103570007047814902200968486580480168896868
:10358000026821F0800141F00D7141F0805191609D
:103590000168C968006821F0800141F00D7141F0B7
:1035A0008051C1607047754800688068C0F3C010E2
:1035B000704771480168096F11F4007F04D00068FA
:1035C0004FF440710166704700684FF480710166E6
:1035D000704710B5684C2068C06F10F0020F4FF0B4
:1035E000010018BF03202168486700F0F3F8634921
:1035F0000A689269096802F00F02D040C96922681E
:1036000001F00F01C8400521B0FBF1F04FF4057146
:103610000009C2F8801018F096FD5A4A5A4B18F06B
:10362000A5FD18F063FD2168C1F884002068006FD3
:1036300010F4007F04D021684FF44070086610BD7C
:1036400021684FF48070086610BD4B480168096F0F
:1036500011F4807F04D000684FF440710166704718
:1036600000684FF4007101667047434B30B41A682C
:10367000D26F12F0010F1DBF4FF0030C1A68C2F891
:1036800074C0022204BFD3F800C0CCF874204FF0FD
:10369000020C00EB4005C5EBC0104FF49674C1EB73
:1036A000C0004C4300EB8000384904EB4010A1FB04
:1036B000001032490022C0080C68A469096804F0AF
:1036C0000F04C96901F00F012144C8400521B0FB76
:1036D000F1F0B0F5803F05D3511C4008CAB2B0F5F7
:1036E000803FF9D242EA0C211A6841F01001C2F879
:1036F00088101968C1F88C001868006F10F4807F7A
:1037000005D019684FF44070086630BC70471968DE
:103710004FF40070086630BC704717480168096FA5
:1037200011F4003F04D000684FF440310166704747
:1037300000684FF48031016670470F480168096FD7
:1037400011F4803F04D000684FF4403101667047A7
:1037500000684FF400310166704707480068006F49
:10376000C0F30020704704480068006FC0F3402099
:10377000704700006440002048E3010040E301007E
:10378000800034127B14AE47E17A843FCDCCCCCCA0
:10379000244900200A68906009680860224948604E
:1037A000704710B51F4C2168486021680020886070
:1037B0000221401EFFF7C1FB21680720086010BDF1
:1037C0001849002009680860704717480188491C9B
:1037D000018070471448806870472DE9F041124C11
:1037E000002705462780A0684FF47A71B0FBF1F0FE
:1037F0000C4E401E31684860306887600221C81E48
:10380000FFF79BFB3168072008602188A942FCD3A1
:1038100030680760BDE8F081044948430249886088
:103820007047000018E301006C40002040420F0088
:10383000704770B52C4C05464FF40D5021688866D2
:1038400021680320C86621682848486621684CF230
:103850007100086621682648C1F88000216842F29C
:103860004630886602210020FFF767FB0020FFF743
:1038700088FB002D08BF70BD2068806E42F2413188
:1038800008432168886670BD174810B50268012199
:10389000916700684FF40D5181660020FFF77CFBB3
:1038A000BDE810400020FFF784BB0F4901200968E4
:1038B000486770470C4901200968886770470A49C2
:1038C0004CF27100096808667047074881B04CF2F5
:1038D0007101026811660168096F0268D1660068AB
:1038E000006F009001B0704728E3010007383937B6
:1038F000009C1C9170B5FF4D00244FF480612C702A
:103900006C70FD4816F0F5FE4FF48061FB4816F030
:10391000F0FEFB486C60AC70046044608460C4607E
:10392000046144618461C461046244628462C4626B
:10393000046344638463C463046444648464C4644B
:10394000046544658465C465046644668466C4662B
:10395000EC705821703016F0CCFE5821E94816F072
:10396000C8FEAC6070BDE3488078002818BF012015
:103970007047E048C078002818BF01207047DD4834
:103980004078002818BF01207047DF48704770B5A5
:10399000DE4EDF4D0446014632782878DA4B10447B
:1039A0004200184616F0AAFE32782878D54B10440B
:1039B00042002146184616F0A1FECE490120C870EB
:1039C00070BDCC4880687047CB4870472DE9F04106
:1039D000C84F80463878002814BFCE48CE480578B6
:1039E00014BFCE48CE48047805FB04F6FFF748F82C
:1039F00021462846FFF7BCF8C04A4346A2F580613D
:103A00000846FFF7E4F8FFF74EF872004146BB485E
:103A100016F074FE01207870BDE8F0812DE9F047C2
:103A2000B44D044601462878DFF8CCC2DFF8E482C2
:103A3000DFF8E492B94EBA4F002815BF98F800207D
:103A400099F8002033783B7802FB03F04FEA4002FC
:103A5000604616F053FE2878DFF8A0C22146002801
:103A600015BF98F8002099F8002033783B7802FBC6
:103A700003F04FEA4002604616F040FE01206870F5
:103A8000BDE8F0879B484068704770B5A54C054677
:103A9000014622789A48520016F030FE22782946D4
:103AA0005200A14816F02AFE92490120887070BD8C
:103AB0002DE9F04F8F4DADF2344D95F801B095F8EA
:103AC00002A095F80390FDF769FDCDF82C04FDF7F1
:103AD00036FFCDF82804FDF763FD0020FDF70FFA4F
:103AE000CDF82404FDF749FF00240127CDF8184440
:103AF00004F088FF012811D00DF58060FEF7F6F87C
:103B0000002800F07F810DF5806005F0BFFCDDF836
:103B1000080410B3BAF1000F05D01EE00120CDF863
:103B2000180400F072B906460CB3FEF7A9FF7D4DEC
:103B300001212878FFF71CF87B4A3346A2F13801AF
:103B40000846FFF744F8FEF7AEFF287831464200FA
:103B5000754816F0D3FD67488770DDF80404002827
:103B600000F0B480BBF1000F11D000F0AFB86D4D84
:103B7000314628784200624816F0C0FD2878314668
:103B80004200694816F0BAFD5A488770E5E7DFF849
:103B90006481054698F8000000283DD1D8F80460FB
:103BA00026B35C480078CDF820045C480078CDF856
:103BB0001C04FEF765FFDDF81C14DDF82004FEF799
:103BC000E0FF294632460846FFF73BF8FEF76BFF59
:103BD00056480078022804BF304605F015FA5348CD
:103BE0000078092804BF284605F00EFA50480078EE
:103BF000012811D94D4E3078042804BF284605F01D
:103C000003FA2946684617F0DFFA0546307805289A
:103C100004BF284605F0F8F944B3CDF81C5498F8D1
:103C2000000000280CBF3C483A48057814BF3B48C8
:103C30003B48067805FB06F8FEF722FF314628468A
:103C4000FEF796FF2D4ADDF81C34A2F58061084688
:103C5000FEF7BDFFFEF727FF4FEA48022748DDF8D1
:103C60001C1416F04BFD2348477028E098F800001C
:103C7000214B2946002814BF26482748027814BF44
:103C800026482748007802FB00F04FEA4002184619
:103C900016F034FD98F8002018482946002A14BF71
:103CA0001C4A1D4A127814BF1C4B1D4B1B7802FB8B
:103CB00003F24FEA420216F021FD88F801701B481A
:103CC0000078032804BF0C4805F09EF9DDF81004C5
:103CD000002877D0B9F1000F74D1DFF818800546BD
:103CE00098F8000030BBD8F808601EB30748017888
:103CF000074820E0784000209C4800209C4C002091
:103D00009C540020645500200C550020A340002046
:103D1000A4400020A14000209E400020A24000209E
:103D20009F400020A5400020D45400200D410020D9
:103D3000A040002021E000780844401C4008019089
:103D400002200090FEF79CFEDDE90010FEF719FF4F
:103D5000294632460846FEF774FFFEF7A4FEFE48E9
:103D60000078022804BF304605F064FAFA4800786B
:103D7000092804BF284605F05DFA5CB32E46F748D3
:103D80000178F74800780D18FEF77AFE681C4008A5
:103D90000221FEF7EDFEF34A3346A2F15801084630
:103DA000FEF715FFFEF77FFE6A003146ED4816F07C
:103DB000A5FC88F80370E8480078032804BFEA48A7
:103DC00005F038FAFDF7C8FF641C042C1DD2FDF77E
:103DD000D4FD8DE6E14EE248E34B32780078294687
:103DE00010444200184616F089FCDD483278DD4B5D
:103DF0000078294610444200184616F07FFC88F8E7
:103E00000370D8E701F07CFB72E6FDF7C9FBDDF833
:103E10002404FDF774F8DDF82C0438B1DDF828042B
:103E200010B1FDF7AAFD01E0FDF78FFDDDF81804E4
:103E300030B1CE4880F801B080F802A080F803903D
:103E4000DDF818040DF2344DBDE8F08F10B50024F4
:103E5000FDF772FDC54910F0020F0AD04A78002A1A
:103E600008BF012410F0040F03D08A78002A08BF8D
:103E7000012410F0010F18BF10F0100F03D0C87804
:103E8000002808BF01240020002C08BF10BD00201E
:103E90000870BDE810400BE608B50F2101F0D2FB19
:103EA000012804D1FFF7D2FF009001F021FDAF48B7
:103EB000417800291CBFC178002904D080780028EF
:103EC0001CBF012008BD002008BD08B50F2101F06E
:103ED000B9FB012804D1FFF7B9FF009001F008FDFC
:103EE000A248417800291CBFC178002904D08078FD
:103EF00000281CBF012008BD002008BD70479B4959
:103F0000002048708870C870704710B54FF4806109
:103F1000974816F0EEFBBDE810404FF480619548DD
:103F200016F0E7BB2DE9F047904F814608983978A5
:103F3000002914BF904991490D78A0EB030805FBB7
:103F400008F603FB05F4FEF79BFD41462846FEF705
:103F50000FFE884809EB440500EB4408A0F5806C8F
:103F60000CEB44012B4642460846FEF730FEFEF7B6
:103F70009AFD72002946404616F0C0FB0120787079
:103F8000BDE8F087002818BF0120784948707047C5
:103F900010B5764C002804BF606010BDDFF8E0C1AA
:103FA00075490B7877490A7801465A4352006046B2
:103FB00016F0A4FB7248606010BD734900200860D1
:103FC00048608860C860086148618861C8610862AB
:103FD00048628862C862086348638863C86308648B
:103FE00048648864C864086548658865C86508666B
:103FF00048668866C866704763487047002818BFDF
:1040000001205A498870704710B55821564816F05B
:1040100070FBBDE810405821524816F06ABB0028DA
:1040200018BF01205149C870704710B54F4C002887
:1040300004BFA06010BDDFF854C148490B7848495F
:104040000A7801461A445200604616F057FB4F4862
:10405000A06010BD4549002200284A708A70CA70CD
:1040600018BF0120087023E52DE9F04F87B04FF409
:1040700080613F4816F03DFB4FF480613D4816F0EB
:1040800038FB5821384816F034FB5821354816F0D3
:1040900030FBFDF751FC0446FDF782FA0020FCF7E7
:1040A0002EFF0690FDF769FC00252E4604F0AAFCC1
:1040B000012875D06846FDF719FE002878D06846BB
:1040C00005F0E4F914F0020F1CD02B48DFF8A0B083
:1040D000DDF8049090F800802A48DA460778FEF769
:1040E000CFFC0120FEF75FFD39464046FEF749FD53
:1040F000524649465846FEF7A4FD0020FEF753FD00
:10410000FEF7D1FC14F0010F18BF14F0100F20D0EF
:104110001248DFF854B04FF0020801781048DA4630
:10412000DDF8109000780844401C4708FEF7A8FC12
:104130000120FEF738FD41463846FEF722FD524683
:1041400049465846FEF77DFD0020FEF72CFDFEF7A0
:10415000AAFCFDF701FE1DE012410020A340002053
:10416000A4400020645500200C5500207840002019
:104170009C4800209C4C0020A14000209E40002034
:104180009C500020A24000209C540020BC550020E0
:1041900006E00DE06D1C102D03D2FDF7EEFB85E768
:1041A0000126FDF7FDF90698FCF7A9FE1EB136E0E1
:1041B00001F0A6F97AE714F0020F14D01C481B4B4B
:1041C0004FF0100501781B481A46007848434FF01D
:1041D000000108D032F911C09CFBF5FC23F811C096
:1041E000491C8842F6D814F0010F18BF14F0100FC4
:1041F00015D01248DFF840C04FF010020178104887
:104200006346007809184FF0000008D033F91040D9
:1042100094FBF2F42CF81040401C8142F6D807B011
:104220003046BDE8F08F0120704700009C48002018
:10423000A1400020A24000200C550020A3400020F7
:10424000A4400020FE480078012818BF00207047D5
:104250002DE9FF4FFB4881B0984690F800A0FA483E
:1042600091468B460026057804240E9F06F08DF8B3
:1042700001465FEA0800DFF8C88328D12A1F2046DC
:10428000042AC8BF2A1B09DD31F91030142B01DBC9
:10429000012603E0401C00B29042F5DBB7F1FF3F7E
:1042A00018BF002E13D1B9F1000F10D00198FFF7FD
:1042B0006EFB98F80200052898BF401C08D9281BFF
:1042C00000902346524600215846FFF72BFE00205F
:1042D00088F8020005B0BDE8F08FD948C079012800
:1042E00018BF002070470021D54841720172704705
:1042F0002DE9F05F05468A46408829880024401A47
:1043000001B205EB4A00274630F8042C30F8020CC5
:10431000A046101AA3462646A14600B20829A8BF07
:10432000082807DB08F0DCFA002804BF0123AAF103
:10433000020002D00023AAF1010001B218468B420C
:104340002ADC35F910204245C4BF904600F0FF0931
:1043500098421DDD05EB400C3CF902CCACEB0202AF
:10436000D21D0E2A05D804F1010C0CF0FF0488427E
:104370000ED1A7420BD22746884203D10E2A98BFFE
:1043800046B201D9421E56B2F21B4FFA82FB0024FC
:10439000401C80B28142D4DAAAF10400874205DDD4
:1043A000CB45DEBFB1450020BDE8F09F0120BDE850
:1043B000F09F70B5A64AA54906461478097800EB27
:1043C00044021046FFF794FF054621463046FFF7AA
:1043D0008FFF00229A49002D1CBF00284A7208D185
:1043E000487A401CC0B248720A2882BF4A72002034
:1043F00070BD012070BD2DE9F34F91498BB00020B5
:104400000870DDE90B1202AB009303AB089304AB19
:10441000079305AB06938D4B8046C1461B780993E5
:104420008B4BB1F90050B2F9007093F800A02C4604
:1044300031F91AC032F91A60ADF80C00ADF8140069
:1044400001206346ADF808A0ADF810A0BAF1010F45
:1044500033DD31F910B0AB45C8BF5D4632F910E02D
:10446000BE45B8BF7746A34504DA5C46DDF818B010
:10447000ABF8000001EB400B3BF902BCCDF804B0F7
:1044800031F910E0BBEB0E0B44BFDDF804B0AEEB2E
:104490000B0B0FFA8BFBC3450BDDD846DDF804B0E0
:1044A000F345D4BF8346A0F1010BDDF820E0AEF860
:1044B00000B0401C00B28245CBDCDDF824B00AF12C
:1044C0000100DA44CDF804A082452FDD31F910A0B7
:1044D000E245C8BFD44632F910B0B345B8BF5E4616
:1044E0009A4504DA5346DDF81CA0AAF8000001EB57
:1044F000400A31F910B03AF902ECBEEB0B0A48BFA2
:10450000ABEB0E0A0FFA8AFACA4509DDD146DE4541
:10451000D4BF8246A0F1010ADDF800B0ABF800A0DC
:10452000401CDDF804A000B28245CFDC4FF0010A48
:1045300016F5967FB8BF17F5967F0BDA4049C87914
:1045400060B98879401CC0B288710A2888BF81F898
:1045500007A003E03A4900208871C8713D48ACEBE0
:104560000303006890F81F118B42C4BF2B1B8B42C2
:1045700005DD90F81E114945B8BF414520DB009983
:10458000B0F91C01B1F9001032F91110884217DBA3
:104590000799B1F9001032F9113041428B420FDB1B
:1045A000089BB3F9003032F91330984208DB0698C3
:1045B000B0F9000032F910008142D8BF002400DDBC
:1045C0005446CCB1BDF91410BDF91000CDE900017D
:1045D000BDF90C30BDF90820DDE90B0100F034FE17
:1045E000012808BF4FF0FF340B98FFF7E2FE0028C8
:1045F00008BF4FF0FF3484E0114900204872087270
:1046000010480C9A0678104890F80080002000901E
:10461000B2F90010B2F902C0054602EB4803B1EB53
:104620000C0048BFACEB01000FFA80FC0027012111
:10463000A8F1010BBBF1010F26DD32F911E00BE00F
:10464000844000209E4000209F400020A340002086
:10465000A44000209441002002EB4100B0F90290F8
:10466000BEEB090048BFA9EB0E0000B26045C4BF15
:1046700084464FB2481CC1B25945DEDB002F1CBF37
:10468000A8F10200874203D1BCF1190FC8BF012570
:10469000B3F90010B3F90220881A48BF501A02B2C9
:1046A0000121A6F101094FF00008B9F1010F1ADD4F
:1046B00003EB410033F911C0B0F90270BCEB070005
:1046C00048BFA7EB0C0000B29042C4BF02464FFAAD
:1046D00081F8481CC1B24945EADBB8F1000F1CBFA4
:1046E000B01E804501D1192A04DC0098002808BFBB
:1046F000002D03D0FE4880F801A002E0FC49002014
:1047000048700DB02046BDE8F08F2DE9F04FDFF87E
:10471000E493064685B0D9F8000090F824110029EA
:104720001CBFB0F8380100280AD0FDF74CF9D9F8C1
:10473000001091F82411B0FBF1F201FB120018B146
:1047400005B00120BDE8F08F02F0ACF90546FFF797
:1047500038F90446D9F80000002DB0F93811049159
:10476000B0F93A7168D0E4480078102804BF2846B0
:1047700004F060FDE1484FF00008002C0378E048A9
:1047800002781FBF002113EB020CD9F80000B0F82B
:10479000289109D034F9020B0028B8BF404248459F
:1047A0004CDC491C8C45F5D8CDE90082C64600207A
:1047B000CDE902235DF820A002AA06EB4A0352F8D5
:1047C00020B033F9024B4FF000080121C146A44646
:1047D000BBF1010F0CD933F9022B9442BCBF144634
:1047E00089469445C4BF94468846491C8B45F2D8F7
:1047F000A4EB0C010AB204998A421ADB0AEB090104
:104800000AEB080335F8111035F81330C91A511A9C
:1048100009B20029B4BF4B420B46002AB8BF52422E
:10482000934206DA0029B8BF4942B94201DAF0469C
:1048300004E0401C0228BDD34FF00108B8F1000F7E
:1048400008BF02F039F9404605B0BDE8F08FA8482E
:1048500000214A1E8172C172C2810282418281821C
:104860007047A348C0787047A149C8707047F0B43A
:104870009F4D4FF0000CB5F90E40EE788C420AD1F6
:10488000B5F912409C42B8BF6B8204DBB3EB640FF6
:10489000B8BF4FF0010CB5F910400027844208D191
:1048A000B5F914409442B8BFAA8202DBB2EB640FA0
:1048B00002DBBCF1000F0AD0E87A401CC0B2E872FB
:1048C000B04281BFEF720120F0BC704704E0EF728C
:1048D0006B82AA82E9812882F0BC002070472DE912
:1048E000F04F894685490446B0F900300D78844977
:1048F0004FF0010C0F7800EB47060020B6F90020BE
:10490000014683468246012F0BDD34F91C80984511
:10491000C4BF434661460CF1010C0FFA8CFCBC4548
:10492000F3DB0124012D0BDD36F914C09445C4BF1F
:104930006246204604F1010C0FFA8CF4AC42F3DB22
:10494000DFF8B0C10026002FDCF800C0C8BFBCF9FA
:1049500034400CDD06FB050839F91880A04502DD5E
:104960004FF0010B03E0761C36B2B742F2DC0026B2
:10497000002DC8BFBCF934C00CDD01FB056439F95A
:104980001440644502DD4FF0010A03E0741C26B2B6
:10499000B542F2DC564CBBF1000F1EBFBAF1000F5E
:1049A0004FF0000C84F80AC007D0FFF760FF012821
:1049B00018BF00200CD0BDE8F08F94F80AC00CF1AD
:1049C000010C0CF0FF0C84F80AC0BCF1050FECD907
:1049D000FFF73DFF0120BDE8F08F45490020087337
:1049E0007047434800797047414908717047F0B4F7
:1049F00044493F4F00230A7843493E7991F800C06B
:104A0000194602FB0CF4002C14DD3A4A1268958E0C
:104A100030F91120002AB4BFC2F1000C9446AC4515
:104A200004DD1D323A2A9CBF5A1C93B2491C89B23C
:104A30008C42EDDC0021B3EB640FD8BF397309DD84
:104A4000387B401CC0B23873B04281BF397301203B
:104A5000F0BC70470020F0BC7047F0B5174600244A
:104A6000234D1E460A468446012804BFE8790128E2
:104A700005D0FFF7ECFEBCF1010F07D007E0394687
:104A80001046FFF72CFF002818BF01241EB100209C
:104A900028732046F0BD3846FFF7A9FF002818BF4D
:104AA0000124F6E72DE9F04F97B0054600200F905E
:104AB00014480F46047814480078039000200490AE
:104AC00007F0E3FE18B10EF082FC01282DD0264637
:104AD00000200C900A904FF0060A81460E90804606
:104AE0000590069007904FF00C0B08900EE0000028
:104AF000844000209441002012410020A340002067
:104B0000A44000209E4000209F4000206FF00B003A
:104B10000B90FEF759FF0D9007F0B7FE002844D028
:104B20000EF055FC082806D03FE0FE48006890F8DB
:104B30003D01461CCCE70398A0428CBF401E601E7E
:104B4000C2B20398844234BF601E401EC1B2501EE0
:104B5000C0B20423CDE900300292002309A804F07A
:104B60002BFF9DF825109DF82700884228BF0023C1
:104B700019D39DF824009DF8262082420DD301FB15
:104B80000402DDF834C0401CC0B22CF8123027F803
:104B900012309DF826208242F1D2481CC1B29DF805
:104BA00027008842E5D20220049010A9384605F07B
:104BB000BEFA00B258454ADDDDE90302A0EB020C63
:104BC000944568DD0021002E3CD902FB041083B21D
:104BD00037F913000028B8BF404258452EDD35F99B
:104BE000130058450ADD069B9842C4BF0891CDE9E1
:104BF00006020C9B5B1C1BB20C9306E00B9B9842BD
:104C0000BCBF09F101030FFA83F90E9B5B1C9BB239
:104C10000E930028B4BF43420346DDF828E09E45CA
:104C20000CDA0028ACBF034643429B4506DA002855
:104C3000B8BF404200B2059190460A90481C81B22C
:104C4000B142C2D3501C82B29445BBDC23E0DDE903
:104C50000301A0EB010C8C451DDD0020002E16D9B0
:104C600001FB040293B237F91320002AB8BF524265
:104C70005A4508DD35F913300B9A9A42C4BF09F141
:104C800001020FFA82F9401C80B2B042E8D3481CFE
:104C900081B28C45E1DC0C9850EA09001DD00C98DB
:104CA000002821D040F3478107F0EFFD78B10EF0E6
:104CB0008EFB082824D00EF08AFB012820D00EF0AD
:104CC00086FB09281CD00EF082FB0A2818D09648D3
:104CD0000078012814D000F02EB9934900204873C1
:104CE000487117B0BDE8F08FB9F1000F40F3238190
:104CF0008D4900204873487117B0401EBDE8F08F01
:104D0000601E00F0FF090EF062FB092803D00EF0D0
:104D10005EFB0A280AD10598142807D3484505D810
:104D2000DDE90780059001200F9001E00F98D0B1D8
:104D30000598A6F1010C08FB0400002335F91010BA
:104D400005981FFA8CF288B308FB04091FFA89F949
:104D5000002970DD05EB490939F9029CCA456ADD75
:104D6000401E83B26BE00598A6F1010908FB040020
:104D7000002335F910C005981FFA89F260B308FBCB
:104D8000040189B2BCF1000F11DD35F911B005EB5A
:104D9000410131F9021CBBEB010B04D40029B8BF5F
:104DA0004942514514DA401E83B215E047E00FDA5C
:104DB00035F911B005EB410131F9021CABEB010BE8
:104DC000BBF1000FEFDC0029B8BF49425145EADBD7
:104DD000401E0004000CD2D10598484545DA08FB76
:104DE000040189B2BCF1000F0EDD35F911B005EBFD
:104DF0004101B1F90210BBEB010B2FD40029B8BF60
:104E0000494251452ADB10E00FDA35F911B005EBC4
:104E10004101B1F90210ABEB010BBBF1000F1DDC3E
:104E20000029B8BF4942514518DB401C80B24845B3
:104E3000D5DB1AE0FFE7401E0004000C84D1059882
:104E4000604512DA08FB04091FFA89F9002908DD18
:104E500005EB4909B9F90290CA4502DD401C82B24E
:104E600003E0401C80B26045ECDB059808FB0400C1
:104E700081B208FB043083B208FB04200D9A1FFAAC
:104E800080FC0D9832F9132037F8133030F91100F7
:104E900013441DB20D9B37F8111033F91C3037F84D
:104EA0001CC0014409B29C440FFA8CFCB1EB05080C
:104EB00048BFA5EB0108B1EB0C0548BFACEB010501
:104EC00008EB05010FFA81F8811A48BF111AC21ABE
:104ED00048BF1A1A881805B20F9878B1A8452ADA7F
:104EE00011494879821E032A9CBF401C48716FD922
:104EF0000020487117B0401EBDE8F08F07F0C5FCD8
:104F000018B10EF064FA012813D0A84507DBB8EBFE
:104F1000050048BFA5EB0800B0EB4A0F0BDA4FF0D5
:104F2000FF3003E0944100208440002017B0BDE82A
:104F3000F08FA845F3DB03984FF00009C01E1FFA5D
:104F400080FB06984FEA540CC8464FF4FA65BE2819
:104F50003BDAABF102000CFB00F10E98814234DA2F
:104F6000DDE90302A0EB020E724521DA00231946A7
:104F7000002E13D902FB041080B237F910008245CD
:104F8000BEBF82285B1C9BB24045C8BF8046A8427A
:104F9000B8BF0546481C81B2B142EBD39C453CBF2B
:104FA00009F101001FFA80F9501C82B29645DDDC40
:104FB00007F06BFC48B9B8F1BE0F06DAD94504D347
:104FC00015F11E0FC8BF0320ABDCFF480221417161
:104FD0000120A6E72DE9F05FDFF8F0A38046002668
:104FE000DAF80000374690F8241100291CBFB0F809
:104FF000300100286CD0FCF7E6FCDAF8001091F8DC
:105000002411B0FBF1F201FB1200002860D101F085
:10501000B7FC5FEA00095BD0ED480078102804BFB8
:10502000484603F0F1FFEB484FF0000C444690F87F
:1050300000B0E948634690F800E0BEF1000F19DDCA
:1050400034F9020B0125BBF1010F10DD34F9022BFD
:10505000101A01B20029B8BF494208B2604502DD0A
:1050600084461E462F466D1C10465D45EEDB5B1CDC
:105070007345E5DBDAF80020B2F83001844527DB20
:1050800006FB0B7008EB400338F8101033F8023CB5
:10509000C91A39F8103009EB400009B230F8020C97
:1050A000181A081A00B20028B4BF43420346002968
:1050B000B8BF49428B420BDA0028B8BF4042B2F871
:1050C0003211884204DA01F0F7FC0020BDE8F09FBD
:1050D0000120BDE8F09F70B515460E46044607F066
:1050E0001BFB002C18BF70BD042818BF052806D074
:1050F000B648006890F82400A84288BF70BD3046CA
:10510000BDE8704015F05ABD2DE9F84F1E46DDE9A7
:105110000A7B90460C46054607F0FEFA824607F0E9
:10512000B4FBDFF8A49278B10EF051F908284FD003
:105130000EF04DF901284BD00EF049F9092847D05F
:105140000EF045F90A2843D0002E41D007F09DFB10
:1051500040BB38460C99CDF800B00027234601F03B
:10516000FF0B012C04BF99F80710012904D0FFF7A9
:105170006EFB012B06D008E00099FFF7B0FB00287A
:1051800018BF0127BBF1000F06D0002089F80C00E2
:1051900047B14FF0FF340FE00098FFF728FC0028DC
:1051A000F7D1F5E7012C07D199F8000001281CBFC1
:1051B000002DB5F1FF3F0BD007F067FB80B10EF07B
:1051C00006F9092806D00EF002F90A2802D007E0F5
:1051D0002C46F1E707F089FB012808BF4FF0FF34A8
:1051E000B4F1FF3F0CD0002C18BFBDE8F88FBAF126
:1051F000040F18BFBAF1050F17D00D9878B114E05D
:10520000B8F1000F1CBF4046FEF708FC002E08BF97
:10521000BDE8F88F3046BDE8F84FFEF7B8BB99F807
:105220000700012818BFBDE8F88FB8F1000F1CBFB8
:105230004046FEF7CBFB002E08BFBDE8F88F304696
:10524000BDE8F84F15F09ABC2DE9FF4F0E46044615
:10525000634962488BB091F800B00078002158444F
:105260000690401ECDE904B0ABF10100CDE902107B
:105270000D9888468A4634F9100008900E988946A1
:10528000474634F91000009101910790FEF77DFB2D
:1052900005460020014609904B48407801280AD075
:1052A0000E98814222DC34F91030079AB3EBA20F3A
:1052B00018DA02901AE00E98022102280BDB0E98F1
:1052C000ABF10302824206DB0698C21E0D988242B1
:1052D000A8BF0228E4DA3C48012101700FB0002089
:1052E000BDE8F08F401E00B28142DCDD0E98ABEBD2
:1052F000010282420BDD34F910C0079BBCEBA30F07
:1053000001DA039003E0401C00B29042F3DB0D98F9
:105310000BEB010282420BDC34F910C0089BBCEBA2
:10532000A30F01DA049003E0401E00B28242F3DDD5
:10533000069A0D98511A81420BDD34F91030089A03
:10534000B3EBA20F01DA059003E0401C00B28842E3
:10535000F3DBDDE9042082422ADA06EB420036F96B
:105360001230B0F90210581A48BFC81A01990844FF
:1053700000B2019005EB420035F91210B0F902308D
:10538000C81A48BF581A0099084400B2009004EBAC
:10539000420034F91230B0F90210581A48BFC81A46
:1053A00050440FFA80FA501C02B205988242D4DBB6
:1053B000DDE90201884236DA06EB400136F91030A9
:1053C000B1F90220991A0DE0844000209441002098
:1053D0000D4100209E4000209F400020A34000205F
:1053E000A440002048BFD11A41440FFA81F805EBD0
:1053F000400135F91020B1F90230D11A48BF991A8D
:1054000049440FFA81F904EB400134F91020B1F955
:105410000230D11A48BF991A39440FB2401C03997F
:1054200000B28842C8DBDDE90010081A0024B0EBA6
:105430006A0FDCBFA9EB0800B0EB670F16DC07F0C2
:105440004FFA68B9189835F9101010480068B0F98B
:105450001C0181420ADC199935F91110814205DCE1
:105460000998002804BF0A4804720BD00849087A3A
:10547000401CC0B20872032881BF0C7201200FB01B
:10548000BDE8F08F00200FB0BDE8F08F9441002000
:105490008440002010B505F0BBFB05F045FC002062
:1054A00010BD0000FE4800787047FD4800780228D3
:1054B00005D005281CBF0020704704F05AB907F03A
:1054C0002BB9F7490870704710B50446062C28BF61
:1054D00010BDDFE804F01203070F120B084600F0BE
:1054E00013FA0AE0084607F00CF906E0084604F053
:1054F00035F902E0084606F0A3FEE948047010BD45
:10550000E84900200968B1F8641011F4807F08BFF1
:105510007047FDF756B8E34900200968B1F86410F8
:1055200011F4807F08BF7047FDF760B8DD490020A7
:105530000968B1F8641011F4007F08BF704715F0D6
:105540003DBAD84900200968B1F8641011F4806FA1
:1055500008BF704715F071BAD149487800281CBFC0
:10556000401E4870704770B5CF490868D0F8CC002D
:10557000CB4C10F0030F0BD0096840F4BE0040F094
:105580002040C1F8C8006078002804BF0120607086
:10559000C64800688068C34D10F0020F296807D123
:1055A000C3480068406910F0010F01D0607840B135
:1055B000B1F86410002011F4807F18BFFDF716F8D1
:1055C00007E0B1F86410002011F4806F18BF15F0E7
:1055D00034FAB849084208BF70BD2968496E090C01
:1055E000617070BD10B572B6FEF74EF9BDE810409F
:1055F000FDF7DDBE10B54FF42F30FDF7ABF872B6F6
:10560000FEF742F9BDE81040FDF7D1BEA44800699D
:105610007047A348C0687047A14948617047A048D7
:10562000406970479E49886170479D48806970470E
:105630009C48026802F5B073118A508A02F5A07284
:10564000FCF716BA2DE9F04FDFF8549295B00E46EC
:10565000C9F8100005F042FAC9F80C0000287DD006
:1056600090F800C089F802C0417889F80310837867
:1056700004460CF1010089F8043000F0FE0089F8BE
:105680000500E27889F80620207989F8070060791A
:1056900089F8080009F10A004FF0000B80F800B00B
:1056A00080F801B0207889F809006046FCF7F2FA2A
:1056B00099F8081099F80700FCF707FB694620469F
:1056C00005F029FA608AD9F8145000281CBF6843F5
:1056D000050B678BD9F81880002F08BF4FF480574F
:1056E0004FF4805A002016F0020F18BF112016F058
:1056F000040F18BF40F00A0016F0080F18BF40F062
:10570000040016F0010F18BF40F02000616A01EAA2
:105710000006009810900498119008981290019833
:105720001390CDF850B010A93046FCF720F816F0D1
:10573000020F72D004F0DFFE5FEA000B35D004F0F8
:10574000F1FE6843050B59460020FBF704FC218A53
:1057500000291CBF0020FBF74CFC00E018E004F01F
:1057600001FF08FB00F0000B00F50060020A0820B2
:10577000012101FA00F3134201D1401EF9D5A0F135
:105780000408A07B002818BFA0F1010B17D112E07C
:1057900044480068B0F8640010F4807F18BFFCF73C
:1057A00025FF002015B0BDE8F08FB4F80CB0BBF1B8
:1057B000000FC8D1CBE70020FBF799FC8346E07BC4
:1057C000002814BF401EFBF7C1FC0BEB08010429A5
:1057D00005DDA8EB010101F10408042104E0002922
:1057E000BCBFA8EB010800218044B8F1040F05DD1F
:1057F000A8F10400C5404FF0040807E0B8F1000F1D
:1058000004DAC8F1000085404FF000080020FBF7E3
:1058100084FC41460020FBF7AFFC16F0010F30D0AE
:10582000A18A00291CBF0120FBF795FBB4F8188062
:10583000B8F1000F07D041460120FBF7DAFB4146E3
:105840001120FBF7D6FB94F81680B8F1000F09D0B1
:10585000A8F101010120FBF760FCA8F10101112072
:10586000FBF75BFC94F81780B8F1000F09D0A8F1A2
:1058700001010120FBF780FCA8F101011120FBF7D9
:105880007BFCE07A00281CBF0001FBF7DEFA0298DF
:1058900004F087F8039898B12B4699F803200BE0A1
:1058A0009C400020944100203CE3010040E30100C3
:1058B00034E301000800030099F8021004F0A8F88E
:1058C00052463946284604F058F90598FEF760FB21
:1058D000069800F0D1FF16F0100F05D00998FEF7DA
:1058E000A4FB0A9801F056F815B00120BDE8F08F2E
:1058F00010B5FBF7E4FF04F05CF802490020C86033
:10590000012010BD9C400020FE4948707047FD48B2
:1059100040787047FC4810B4FC4A0168914218D1A5
:105920004168B1F5887F14D80022D0F808C003463A
:105930001146B2EB9C0F24BF10BC704753F82140B6
:10594000491C2244B1EB9C0FF8D3002A04BF10BCC1
:105950007047002010BC7047EB48FCF7FBBEE949DC
:10596000012048707047E7490020087070472DE912
:10597000F34FDDB000208A4646904D904C9072B6B1
:10598000FBF7DAFF0546FDF70EFE48B1FDF7E5FE31
:105990004D90FDF7C2FEFDF7E6FE4C90FDF7CDFE03
:1059A000FBF7D6FEFBF7FAFD5690FBF7C8FF5590C4
:1059B000FBF7F6FDFDF7B7FB5490FDF798FB4FF4AE
:1059C0009350FDF710FB62B60022914630AE46F8C8
:1059D0002290521C062AFAD3CD4F15F0020F4FF039
:1059E000010407D0309438684FF4E76100F5804037
:1059F00014F07FFEC64A15F0010F44F238701268A9
:105A000002EB000510D04FF4E071284614F071FE4F
:105A10000120FAF7F9FD002818BF32941120FAF797
:105A2000F3FD002818BF3394DFF8E8B2DFF8D48222
:105A3000309868B30020FBF74DFB00909BF8000006
:105A40008DF80400B4480078012894BFB348B448E6
:105A500000788DF805000020FBF70AFC002818BF2D
:105A60004FF0FF3003908DF806A0B8F80400ADF8B1
:105A700008000020FBF7D8FAADF80A00386800F5F6
:105A80008040059038680690386800F5005007900F
:105A900031984FF0FF0A48B30020FBF71BFB08903A
:105AA0009BF800008DF824008DF82540CDF82C904F
:105AB0008DF826A0B8F80400ADF828000020FBF708
:105AC000B3FAADF82A009DF805003A68C0EBC001B2
:105AD00002EBC10101F580410D919DF8041048438E
