:100000005446495300010000042E020055BD223E13
:1000100009140104160530094E36593009140151EE
:10002000160530094E3659300914010516053009F8
:100030004E36594C03000000000000000000000094
:1000400054464353002000007C0E020000000000D4
:1000500000000210012100002521000027210000DE
:10006000292100002B2100002D2100003D2100004E
:100070003D2100003D2100003D2100002F21000016
:10008000312100003D21000033210000935F00007A
:1000900093600000372100003D2100004DF9001061
:1000A000372100007F3E0000853E00003D2100001A
:1000B0003D210000C35A0000615000008B3E00004B
:1000C000C9570000372100003D2100003D210000FC
:1000D0000000000000000000000000000000000020
:1000E0000000000000000000000000000000000010
:1000F0000000000000000000000000000000000000
:1001000000000000000000000000000000000000EF
:1001100000000000000000000000000000000000DF
:1001200000000000000000000000000000000000CF
:1001300000000000000000000000000000000000BF
:1001400000000000000000000000000000000000AF
:1001500000F003F800F020F8FEE70D480168890878
:100160008900002001C101C101C101C17047000027
:100170006CFE0010FEE7FEE7FEE7FEE7FEE7FEE7A7
:10018000FEE7FEE7FEE703480047FEE7FEE7000064
:10019000202100003D21000000F002F800F068F886
:1001A0000AA090E8000C82448344AAF10107DA45D2
:1001B00001D100F05DF8AFF2090EBAE80F0013F0BC
:1001C000010F18BFFB1A43F001031847BC0D0100D3
:1001D000EC0D01000A444FF0000C10F8013B13F045
:1001E000070408BF10F8014B1D1108BF10F8015B90
:1001F000641E05D010F8016B641E01F8016BF9D183
:1002000013F0080F1EBF10F8014BAD1C0C1B09D1D9
:100210006D1E58BF01F801CBFAD505E014F8016B4B
:1002200001F8016B6D1EF9D59142D6D370470000DD
:10023000103A24BF78C878C1FAD8520724BF30C812
:1002400030C144BF04680C607047000000230024E4
:1002500000250026103A28BF78C1FBD8520728BFD6
:1002600030C148BF0B6070471FB51FBD10B510BD32
:10027000DFF80CD0FFF7F8FF05F0F4F810F04CF8B9
:100280000000021003B4FFF7F1FF03BC10F04CF8BC
:1002900008B5002103200B460A4600910FF050FBE1
:1002A00008BD38B5EC4D0024AC80EC802C810FF0FB
:1002B00024FB2861FF206870E8482346224604603A
:1002C000446004720120A8700320214600940FF0BE
:1002D00037FB012038BD38B5DF4D02286C78224647
:1002E0000DD0052810D0A24208BF38BD002003461B
:1002F0000246214600900FF023FB6C7038BD0229A6
:1003000014BF01240224EEE7022914BF64246524EB
:10031000E9E738B5D24BD34C0A461B7824784FF026
:10032000010C6343002401465B00604600940FF01B
:1003300007FB38BD38B54FF0010C062400250B46ED
:1003400002462146604600950FF0FAFA38BD2DE9C5
:10035000F04104460127002503F00700BE4E884601
:10036000012804BF0020308146D0022844D13089C2
:1003700004280BD2002818BFF06802D10FF001FB4F
:10038000F06010F8011B2170F0602EE0062808D202
:100390000FF0F9FA3189C1F10501C900C840207098
:1003A00023E0082808D20FF0F2FA3189C1F10701E1
:1003B000C900C840207018E00C2808D20FF09DFA40
:1003C0003189C1F10B01C900C84020700DE00E2831
:1003D00008D20FF094FA3189C1F10D01C900C8406B
:1003E000207002E0FF20207000273089401C80B27E
:1003F00030810E2828BF012588F800503846BDE816
:10040000F08130B403F007000024DFF84CC201286B
:100410000BD06046BCF808308088022B0CD2120248
:1004200042EA1020ACF804000CE0ACF80440ACF850
:100430000640ACF8084008E0DCF8105018442844A6
:1004400000F8022C581CACF808000C7030BC0020DE
:100450007047F0B40746002003F007047E4D0646BF
:10046000012C08BF2E8117D0DFF8ECC1022CBCF89C
:1004700006C003D013F0070F0AD00DE028892B69BE
:100480000CEB0002401C9A5C3A702881012003E0CA
:10049000120242EA1C22EA800E70F0BC704738B5A6
:1004A00003F0070000240D4601280AD16A482146BE
:1004B0000B4604818480C48002200A4600940FF019
:1004C0003FFA2C70002038BD30B583B0DDE9064519
:1004D00000EB051C002C18BF022C16D00021012CAB
:1004E0006CD0032C1CBF03B030BD0F22027003225E
:1004F000427041808180C180018141818181817B05
:1005000021F00101817303B030BD0CF8105C0CF8D0
:100510000F4CB1F8AC302CF80E3CB1F8AE302CF8E2
:100520000C3C91F88A302CF80A3C91F88B302CF86E
:10053000083C91F88C302CF8063C8B8A2CF8043C53
:1005400092F848301CF8022C63F300020CF8022CDD
:1005500091F8E820012A1CBF03B030BD62228DF85B
:10056000002091F891208DF8012091F8912000EB66
:10057000021232F80E2C120A8DF8022091F8912006
:1005800000EB021212F80E2C8DF8032091F8912046
:1005900000EB021232F80C2C120A8DF8042091F8AC
:1005A0009110062200EB0110694610F80C0C8DF832
:1005B000050001200BF07EFA03B030BD0CF8105C92
:1005C00001200CF80F0C2CF80E1C2CF80C1C2CF82D
:1005D0000A1C2CF8081C2CF8061C2CF8041C1CF80F
:1005E000020C062220F001000CF8020C63208DF8AA
:1005F00000008DF8015058886946000A8DF8020005
:1006000098788DF803009888000A8DF8040018790E
:100610008DF8050001200BF04DFA03B030BD0E49F6
:100620000020087070470C48007870470A49012084
:1006300008707047094A1154704700225A2101205E
:100640000BF011BA70470449002818BF01208870C8
:100650007047014880787047000001105003011076
:10066000CA000110CB0001107047FE480068D0F8A6
:10067000C00000F00100704710B5044601F0ADFB6A
:1006800000280CBF012100212142F64909D0086849
:10069000D0F8C00010F0010F03D00A68002090606D
:1006A00002E00A6801209060002C14BF01200020A5
:1006B0000968086210BDEB480068006A002818BF8E
:1006C00001207047E74A126802EBC000416370479F
:1006D000E449096801EBC000006B00F480707047CA
:1006E000E04A1021126802EBC00041637047DD4907
:1006F0000A68D2F8402160F30D220868C0F8402152
:100700007047D8480068D0F84001C0F30520704712
:10071000D44A00F00F03C0F303101268002902EB63
:10072000C31202EB4010D0F8401114BF41F0010198
:1007300021F00101C0F840117047CA4A00F00F01D2
:10074000C0F30310126802EBC11101EB4010D0F8A6
:10075000400100F001007047C2494FF0000C0A68E8
:10076000C2F820C003680A68136042680B685A60C8
:1007700082680B689A60C2680B68DA60426A0B682C
:100780001A64826A0B685A6403690A689361426951
:100790000B68DA61426B0B681A66836B0A68136731
:1007A000C26B0B685A67026C0B689A67426C0B68E5
:1007B000C3F88020826C0B68C3F88420C26C0B687D
:1007C000C3F88820026D0B68C3F88C20026E0B689A
:1007D000C3F89C20426E0B68C3F8A020826E0B68A1
:1007E000C3F8A420C26E0B68C3F8A820C26F0B68C0
:1007F000C3F8C020D0F880300A68C2F8C430D0F8FE
:1008000084200B68C3F8C820D0F888200B68C3F890
:10081000CC20D0F88C200B68C3F8D020D0F89C20D6
:100820000B68C3F8E020D0F8A4200B68C3F8F020D0
:10083000D0F8A8200B68C3F8F420D0F8AC200B68DF
:10084000C3F8F820D0F8B0300A68C2F8FC300B6862
:1008500021225A630B68DA63C2690B685A62C26A62
:100860000B689A64026B0B68DA64026F0B68C3F85A
:10087000AC20D0F890300A68C2F8D430D0F8942078
:100880000B68C3F8D820D0F8A0200B68C3F8E42088
:10089000426F0B68C3F8B020826F0B68C3F8B420B6
:1008A000D0F8F8210B68C3F88022D0F8FC210B683F
:1008B000C3F88422D0F800220B68C3F88822D0F84D
:1008C00004220B68C3F88C22D0F808320A68C2F8F8
:1008D0009032D0F80C220B68C3F89422D0F8102282
:1008E0000B68C3F89822D0F814220B68C3F89C2236
:1008F000D0F818220B6822F48032C3F8B022D0F866
:10090000B4200B68C3F80021D0F8B8200B68C3F8F6
:100910000421D0F8BC200B68C3F80821D0F8C0200F
:100920000B68C3F80C21D0F8C4200B68C3F8102161
:10093000D0F8C8200B68C3F81421D0F8CC200B687D
:10094000C3F81821D0F8D0200B68C3F81C21D0F8C8
:10095000D4200B68C3F82021D0F8D8200B68C3F846
:100960002421D0F8DC200B68C3F83021D0F8E02037
:100970000B68C3F84021D0F8E4200B68C3F8442189
:10098000D0F8E8200B68C3F84821D0F8EC200B68B9
:10099000C3F84C21D0F8F0200B68C3F85021D0F8F0
:1009A000F4200B68C3F85421D0F8F8200B68C3F882
:1009B0005821D0F8FC200B68C3F85C21D0F8202126
:1009C0000B68C3F88021D0F824210B68C3F8842178
:1009D000D0F828210B68C3F88821D0F82C210B68A7
:1009E000C3F88C21D0F830210B68C3F89021D0F8DF
:1009F00034210B68C3F89421D0F838210B68C3F870
:100A00009821D0F83C210B68C3F89C21D0F84031E4
:100A10000A68C2F8A031D0F844210B68C3F8A421B9
:100A2000D0F848210B68C3F8B021D0F84C210B68EE
:100A3000C3F8C021D0F850210B68C3F8C421D0F806
:100A400054210B68C3F8C821D0F858210B68C3F8AB
:100A5000CC21D0F85C210B68C3F8D021D0F86021FC
:100A60000B6801E0E02B0100C3F8D421D0F8642129
:100A70000B68C3F8D821D0F868210B68C3F8DC21D3
:100A8000D0F86C210B68C3F8E021D0F870210B6816
:100A9000C3F8E421D0F874210B68C3F8E821D0F83A
:100AA00078210B68C3F8EC21D0F87C210B68C3F8DF
:100AB000F021D0F880210B68C3F8F421D0F88431FC
:100AC0000A68C2F8F831D0F888210B68C3F8FC2115
:100AD000D0F88C210B68C3F80022D0F890210B6865
:100AE000C3F80422D0F894210B68C3F80822D0F888
:100AF00098210B68C3F80C22D0F89C210B68C3F82E
:100B00001022D0F8A0210B68C3F81422D0F8A42139
:100B10000B68C3F81822D0F8A8210B68C3F81C2270
:100B2000D0F8AC210B68C3F82022D0F8B0210B68B4
:100B3000C3F82422D0F8B4210B68C3F83022D0F8CF
:100B4000B8210B68C3F84022D0F8BC210B68C3F869
:100B50004422D0F8C0210B68C3F84822D0F8C42141
:100B60000B68C3F84C22D0F8C8210B68C3F8502298
:100B7000D0F8CC210B68C3F85422D0F8D0210B68F0
:100B8000C3F85822D0F8D4210B68C3F85C22D0F8FF
:100B9000D8210B68C3F86022D0F8DC210B68C3F8B9
:100BA0006422D0F8E0210B68C3F86822D0F8E42171
:100BB0000B68C3F86C22D0F8E8210B68C3F87022E8
:100BC000D0F8EC210B68C3F87422D0F8F0210B6840
:100BD000C3F87822D0F8F4210B68C3F87C22FE4ACF
:100BE000126832F0FF0307D10B68D3F8903062F33C
:100BF00003030A68C2F89030F84A82F801C0C36F54
:100C000013F0010F1CBF01235370D0F88C3013F088
:100C1000010F03D0537843F0020353700B68D3F8ED
:100C2000C030D1F800C023F00103CCF8C0300B680D
:100C3000D3F8D030D1F800C023F00103CCF8D03085
:100C4000D0F8900010F0010F03D0507840F004006D
:100C500050700868D0F8D400096820F00100C1F88D
:100C6000D4007047DD4800787047DC4880787047D2
:100C7000DA49C8707047D948C0787047D74988604A
:100C80007047D7480068C06870472DE9F047DFF823
:100C90004C93D34C064610F0010F18BF16F4801F7A
:100CA0007ED001F089F800287AD099F8010040F050
:100CB000020089F801002068D0F8AC00216820F01B
:100CC0000800C1F8AC002068D0F800022168C1F823
:100CD00080012068D0F804022168C1F884012068EE
:100CE000D0F808022168C1F888012068D0F80C0209
:100CF0002168C1F88C012068D0F810022168C1F881
:100D000090012068D0F814022168C1F8940120688D
:100D1000D0F818022168C1F898012068D0F81C02A8
:100D20002168C1F89C012068D0F820022168C1F830
:100D3000A0012068D0F824022168C1F8A40120682D
:100D4000D0F830022168C1F8B0012068D0F8400224
:100D50002168C1F8C0012068D0F844022168C1F8B8
:100D6000C4012068D0F848022168C1F8C801206891
:100D7000D0F84C022168C1F8CC012068D0F85002AC
:100D80002168C1F8D0012068D0F854022168C1F868
:100D9000D4012068D0F858022168C1F8D80100E0D9
:100DA00035E02068D0F85C022168C1F8DC012068D9
:100DB000D0F860022168C1F8E0012068D0F8640230
:100DC0002168C1F8E4012068D0F868022168C1F800
:100DD000E8012068D0F86C022168C1F8EC012068B5
:100DE000D0F870022168C1F8F0012068D0F87402D0
:100DF0002168C1F8F4012068D0F878022168C1F8B0
:100E0000F8012068D0F87C022168C1F8FC0199F84B
:100E1000010099F8031016F4003F00EA010518BF1D
:100E200025F0010516F4802F18BF25F0020516F4F1
:100E3000002F18BF25F004052068D0F8B002216803
:100E400020F48030C1F8B00215F0070F72D020688E
:100E5000D9F808704FF00008D0F8B802216840F0C7
:100E60000100C1F8B8022068D0F8B802216820F06B
:100E70000100C1F8B8022068D0F8B002216840F43F
:100E80008030C1F8B00240F2E73A0FE003F023F9F6
:100E900050462168D1F8B81211F0010F02D04FF07E
:100EA000010803E0011EA0F10100F2DC381EA7F1E9
:100EB000010702DDB8F1000FE8D0B8F1000F39D01A
:100EC000206815F0010FD0F8C0000CBF20F0010021
:100ED00040F001002168C1F8C000206815F0020F41
:100EE000D0F8D00014BF40F0010020F001002168CC
:100EF000C1F8D000206815F0040FD0F8D40014BF5A
:100F000040F0010020F001002168C1F8D40089F808
:100F10000250012089F80000D9F80400C9F808003F
:100F20002068D0F8B002216840F48030C1F8B002E7
:100F300045E0FFE72068D0F8C000216820F00100FC
:100F4000C1F8C0002068D0F8D000216820F001006E
:100F5000C1F8D0002068D0F8D400216820F001004A
:100F6000C1F8D400002089F80200F5B1022089F808
:100F700000000120C9F808002068D0F8B0022168FC
:100F800040F48030C1F8B0022068D0F8B80221687F
:100F900040F00100C1F8B8022068D0F8B80221681A
:100FA00020F00100C1F8B80209E02168D1F8B012C0
:100FB000226821F48031C2F8B01289F8000020685C
:100FC000D0F8400116F0020F20F00D0018BF40F0DD
:100FD000010016F0080F05E0E0FE03001400011008
:100FE000E02B010018BF40F0040016F0040F18BFFA
:100FF00040F008002168C1F8400116F0010F44D00C
:1010000001F0C9F8054601F0C9F801462068C0683A
:1010100000280EBF28460846294600282068D0F838
:10102000C00114BF40F0010020F001002268C2F8A6
:10103000C00141B12068D0F8E001216840F0010012
:10104000C1F8E00107E02068D0F8E001216820F055
:101050000100C1F8E00116F0200F18BF00251DD0D7
:10106000284601F0A2F80028206800EB4510D0F8CF
:10107000401214BF41F0010121F00101C0F84012FB
:101080006D1C022DECD3BDE8F0872068D0F8C001BC
:10109000216820F00100C1F8C001D4E72068D0F831
:1010A0004002216820F00100C1F840022068D0F819
:1010B0006002216820F00100C1F86002BDE8F087FD
:1010C0002DE9F003FA49024602F00F03D1F800C0FF
:1010D00000200CEBC315C2F3031305EB4313D3F845
:1010E000403113F0010F0DD142F01003C3F303138D
:1010F00005EB4313D3F8403113F0010F04BFBDE8F3
:10110000F00370470CEBC214D4F81C31DCF81C104F
:10111000C3F3080901F00807D4F800111FFA81F899
:10112000002142EA0113C3F3031305EB4313D3F881
:10113000403113F0010F14D004EB4113D3F844C134
:10114000CCF3080617F1000C1CBFD3F844C1CCF354
:10115000023CD3F8403106FA0CFCC3F3054360446B
:101160001844491C0229DCD300FB08F0C9EB091123
:10117000BDE8F00300EB4100704770B5CC4E30681D
:10118000006800F01F040120FFF79AFF05460220C7
:10119000FFF796FF054400F0E8FB31682844D1F8DA
:1011A000C01011F0010F09D03168D1F8C410C1F39B
:1011B00009016143C1EB011100EB41004FF47A7169
:1011C000484347F23051B0FBF1F070BD2DE9F041DA
:1011D000B74E05463068006810F01F0408BF0124B0
:1011E0000120FFF76DFF07460220FFF769FF074464
:1011F00000F0BBFB3918AF4F002D18BF002953D0AA
:1012000030680022D0F8C00010F0010F37D07820ED
:10121000B0EB151F306809D9D0F8CC00336820F046
:101220000F0040F00100C3F8CC002DE0D0F8C4005E
:10123000A14BC0F309006043A0EB001003EB400C8E
:101240009E48A0FB0530430ABCFBF1F0102828BFE4
:101250000F20834298BF1846002808BF012005D000
:10126000012884BF00FB11C2B2FBF0F23368D3F84F
:10127000CC3060F303033068C0F8CC3004E0B7FB37
:10128000F5F0884288BF421AC4EB04104000B2FB5C
:10129000F0F0B0F5005F28BF41F6FF703268526889
:1012A00060F30C023068426030684068C0F30C00A4
:1012B0006043C0EB001001EB4000B7FBF0F0BDE86D
:1012C000F08170B57A4801680968006801F01F056F
:1012D0004068C0F30C060120FFF7F2FE044602202E
:1012E000FFF7EEFE044400F040FB06FB05F1C1EB06
:1012F000011104EB410108446E49B1FBF0F070BDEF
:101300006B480068D0F8CC0000F00F0070476849C7
:101310000A6852680B68C2F30C025B6860F30C0346
:101320000868436010467047614800684068C0F331
:101330000C0070475E49096801EBC010D0F800014D
:101340004EF6602180B2B1FBF0F0401C40087047BF
:1013500030B44EF6602331B1B3FBF1F1491C4A08B9
:10136000B2F5804F01D343F6FF72B3FBF2F1491C93
:101370004D084F4953080028096801EBC01107BF09
:10138000981FA3F10C0CD1F8040180B218BFA2F190
:10139000060C2CF0010CD1F8004162F30F04C1F8E7
:1013A0000041D1F8002163F31F42C1F80021D1F8B8
:1013B000042160F30F02C1F80421D1F810016CF38D
:1013C0000F00C1F81001284630BC70473849096841
:1013D00001EBC010D0F80001000C7047344B1A68C4
:1013E00002EBC012D2F800C161F31F4CC2F800C179
:1013F000002818BF7047881F1A680C3921F00101B6
:10140000D2F8042160F30F021868C0F804211868AC
:10141000D0F8100161F30F001968C1F8100170478E
:10142000234A00F00F01C0F30310126802EBC11150
:1014300001EB4010D0F84401C0F3080070471C4A8B
:1014400000F00F03126802EBC312D2F81431C0F39C
:10145000031002EB4010CB1AD0F8442161F30802CC
:10146000C0F84421D0F844119B1E63F31841C0F822
:10147000441170470E490A68D269096812F0100FCA
:1014800000F00F0201EBC211D1F82021C0F30310CC
:1014900001EB4010D2B2D0F84401C0F3080008BFFD
:1014A0000022801A0004000C08BF012070470000D1
:1014B000E02B010000389C1C1B810700898888886C
:1014C0004FEA101C0007C00EFC4B02FA00F01B682C
:1014D00003EBCC1303EB810101F5C0410B6818430A
:1014E00008607047F54B020900071B68C00E03EB4C
:1014F000C21202EB810101F5C041096821FA00F036
:1015000000F003007047EE4B00F00F02C0F3031031
:101510001B6803EBC21202EB4010C0F84C1170477D
:10152000E74A00F00F01C0F30310126802EBC1118B
:1015300001EB4010D0F84C017047E14B00211A68D4
:10154000D26912F0080F0CD000F00F011A68C0F336
:10155000031002EBC11101EB4010D0F84401C0F3BD
:10156000023108467047D64A1368DB69D2F800C0DA
:1015700043F00803CCF81C3000F00F031268C0F3EE
:10158000031002EBC31202EB4010D0F8442161F3C8
:101590000E32C0F844217047C94B00211A68D26945
:1015A00012F0080F0CD000F00F011A68C0F30310FE
:1015B00002EBC11101EB4010D0F84801C0F3024129
:1015C00008467047BE4A00F00F03C0F303101268CC
:1015D00002EBC31202EB4010D0F8482161F3124233
:1015E000C0F848217047042988BF704730B40023F1
:1015F000B34C2268D269254612F0080F00F00F02A2
:101600002D68C0F3031005EBC21202EB40121CBFA1
:10161000D2F84401C0F302330020D4F800C0DCF853
:101620001CC01CF0080F1CBFD2F84801C0F30240D8
:10163000C91A0844042803DD081A011D042003E028
:101640000028BCBF0144002019442368DB69D4F89A
:1016500000C043F00803CCF81C30D2F8443161F3E9
:101660000E33C2F84431D2F8481160F31241C2F887
:10167000481130BC7047924900280868806904D03E
:10168000096840F0080088617047096820F0080088
:10169000886170478A4800688069C0F3C00070475D
:1016A000874A00F00F01C0F30310126802EBC1116A
:1016B00001EB4010D0F8480180B27047804B002108
:1016C0001A68D26912F0080F0CD000F00F011A68E6
:1016D000C0F3031002EBC11101EB4010D0F8480138
:1016E000C0F30051084670470120704730B4022A09
:1016F000DDF808C026BF921E52080022022B26BF2A
:101700009B1E5B0800236F4C00F00F05A4FB0C4CE4
:101710004FEA1C14DFF8A8C1C0F30310DCF800C0C6
:101720000CEBC51C0CEB4010D0F854C161F31B6CE2
:1017300062F3134C63F30B2C64F3070CC0F854C131
:1017400030BC704770B45E4D00F00F04C0F303105E
:101750002D68DDF80CC005EBC41404EB4010D0F884
:1017600054010029C0F30366C0F30345C0F303240A
:10177000C0B218BF0E6012B16900891C116013B1AC
:101780006100891C1960BCF1000F04BF70BC704778
:1017900000EB80008000CCF8000070BC704770B493
:1017A00091B000224FF480456C10EC4601E0082A0D
:1017B00005D2531C03EB8303B5FBF3F304E0D31F03
:1017C00003EB8303B4FBF3F35B1A48BF5B424CF8B3
:1017D0002230521C102AEAD30026009B01215CF81B
:1017E00021209A42BCBF13460E46491C1029F6D34D
:1017F000334900F00F02C0F30310096801EBC21176
:1018000001EB4011D1F85801D1F8582100F00F0038
:1018100066F30302C1F85821082807D2401C00EBE8
:101820008000B5FBF0F011B070BC7047C01F00EB3A
:101830008000B4FBF0F011B070BC7047204A00F09B
:101840000F01C0F30310126802EBC11101EB40104D
:10185000D0F8580100F00F00082834BF401CC01F0A
:1018600000EB800034BF4FF480414FF40051B1FBD6
:10187000F0F0704710F00F0F08BF7047104A00F0EB
:101880000F000029126802EBC010D0F824110CBF21
:1018900021F4803141F48031C0F8241170470021D7
:1018A00010F00F0F12D0064A00F00F00126802EB82
:1018B000C010D0F8240110F4803F05E0F82B01009F
:1018C000E02B0100CDCCCCCC18BF012108467047DD
:1018D000444902460868D0F8AC0012F0010F0A68CB
:1018E000C0F3C000D2F8AC2005D0096842F008026D
:1018F000C1F8AC207047096822F00802C1F8AC209A
:101900007047384A136858671068816770473549CF
:1019100000280868D0F8AC0005D0096840F0020043
:10192000C1F8AC007047096820F00200C1F8AC00B3
:1019300070472C4900280868D0F8AC0005D0096829
:1019400040F00100C1F8AC007047096820F00100C8
:10195000C1F8AC00704723480068D0F8DC0070473D
:1019600020490968C1F8E000704770B41D4E00209E
:101970003168D1F8401111F0010F04BF70BC7047FD
:1019800011F0040F336801F00805D3F81C31D6F8C4
:1019900000C0C3F30803DCF800C11FFA8CF4D6F8CA
:1019A00000C0DCF844C1CCF3080C18BFC1F30740F9
:1019B0003268D269C1F3052112F0080204D03268FE
:1019C000D2F84421C2F30232002D18BF491C0CFA90
:1019D00002F201FB0200604370BCC3EB031100EB99
:1019E00041007047E02B0100FEF765BE10B5FEF721
:1019F00062FE012818BF10BD0020FEF73DFE212128
:101A00000020FEF75FFE2121BDE810400120FEF717
:101A100059BE10B5FEF728FEFEF74DFE01280AD18B
:101A20000020FEF729FE21210020FEF74BFE212198
:101A30000120FEF747FE0121052001F0BAFD01213A
:101A4000052001F0B6FDFF490020487110BD10B51A
:101A50004FF4066001F003FEBDE810404FF406604D
:101A600001F0F0BDF74A0146507B002818BF012065
:101A7000002918BF012151737047F24A516A506220
:101A800008467047EF4900200873C8708870704797
:101A9000EC4900200873C870887070472DE9F34F37
:101AA00000F00F056800861EA1B0002445EA04106E
:101AB000FEF743FE00283BD02298002100EBC4171C
:101AC000EC46002007EB81120CEB811352F82080CA
:101AD00043F82080401C1028F8D3491C0229F0D379
:101AE000D94900224FF0020809683019434601EB3A
:101AF000C01723FA02F101F0010107EB82100CEB91
:101B00008111A0F55F50B1E8004E00F50040521C75
:101B1000A0E8004EB1E8004EA0E8004EB1E8004E4B
:101B2000A0E8004E91E8020E80E8020E4245E0D3A4
:101B3000641C022CBAD323B0BDE8F08F70B5064602
:101B4000FEF7DFFDC04D0446EEB12868A201314624
:101B500000F580400EF0EEFB2868002100EB8410B9
:101B600000F58040016041608160C16001614161B8
:101B70008161C161016241628162C162016341634D
:101B80008163C16370BD81012868BDE8704000F5C4
:101B900080400EF0D4BB10B5AA4CE061FFF775F899
:101BA000FFF760F8A1696FF30F01A161A269C1B2EB
:101BB00042EA0121A161022818BF10BDA06940F0CE
:101BC0000100A06110BDA14801688968A04A1143C5
:101BD00002689160016809689E4A006811430160CB
:101BE00000F001BF70B5994A05460C46106883683D
:101BF0009748116818438860106800689549084341
:101C00001168086000F0EFFE002C4FD00020FEF7B6
:101C100033FD206820B1FEF79FFD0020FEF72CFD6C
:101C20002846FFF7B8FF0020FEF787FDC8B16068BF
:101C3000FFF784FF844DE16839B128684FF4807262
:101C400000F5C0400EF076FB02E0834800F089FD0D
:101C5000616959B128684FF4807200F500400EF0B8
:101C600069FB0120FEF769FD60B907E028684FF4C1
:101C7000807100F500400EF062FBF2E71120FEF7E4
:101C80005CFD28B1A16800291CBF0120FFF706FFF9
:101C90000220FEF752FD18B91220FEF74EFD28B1C2
:101CA000216900291CBF0220FFF7F8FE00206549CA
:101CB0000873C87088704862487B002048734FF4EE
:101CC000066001F0CCFCBDE870404FF4066001F006
:101CD000B9BC10B50020FEF7CFFC00F069FE5948F2
:101CE0000079002808BF10BD5848016809680268DB
:101CF00021F0030141F00D7141F080511160016844
:101D00008968006821F0020141F00D7141F08051B5
:101D1000816010BD4FF4066001F098BC10B54FF41F
:101D2000066001F093FCFEF7C6FC01280AD10020F2
:101D3000FEF7A2FC21210020FEF7C4FC2121012096
:101D4000FEF7C0FC45480168D1F8B012006821F4E4
:101D50008031C0F8B0120020FEF78EFC00F028FEA3
:101D600038480079002808BF10BD38480168096864
:101D7000026821F0030141F00D7141F080511160C2
:101D800001688968006821F0020141F00D7141F09D
:101D90008051816010BD10B501F05DFC10F0600055
:101DA00018BF012010BD2748C06970472549002889
:101DB00018BF01200870704722480078002818BF1B
:101DC000012070471F488069704772B61D498A69B3
:101DD00022EA0000886162B670471A4840780028FD
:101DE00018BF0120704770B5FEF765FC002818BFCA
:101DF00070BD0024134D2C73EC70AC702121204673
:101E0000FEF760FC21210120FEF75CFC6C70BDE850
:101E100070400120FEF730BC70B50446FEF74BFC65
:101E2000002818BF70BD0021064D2973E970A97004
:101E300021210020FEF746FC21210120FEF742FC73
:101E4000022C0DE020000110F82B0100E82B01000E
:101E500002003412030034125C030110E02B010075
:101E60003CBF0120FEF73CFC012068702C62BDE8FD
:101E70007040FEF701BC10B5FEF71DFC002818BF2E
:101E800010BD0020FB4C2073E070A0702121FEF7F4
:101E900019FC21210120FEF715FC0120FEF720FC92
:101EA000012060702062BDE81040FEF7E5BB002015
:101EB000FEF7E2BBEF490020C87088700120FEF7F2
:101EC000DBBBEC4988627047EA48806A70470020B3
:101ED00000F070BC012000F06DBC10B5FFF73BFDB9
:101EE0000446FFF73DFDE448044208BF10BDE14849
:101EF000816941F0040181610E2101EAD43104F0CD
:101F000001020A43816962F31F418161DB48016874
:101F100041F02001016010BD002818BF0120D54903
:101F200008717047D6487047D6487047D148C06A94
:101F30007047D048006B7047CE48406B70472DE922
:101F4000F00FCF4E4FF0000C88B006F14007E1468D
:101F50004FF0FF3806F80C8007F80C900CF1010CDC
:101F6000BCF1200FF6DB4FF0000C002807D912F867
:101F70000C4006F80C400CF1010C6045F7D800222B
:101F800094464FF0010A00280BD9B456002C05DB0B
:101F9000202C3CBF0AFA04F444EA0C0C521C824286
:101FA000F3D3002214466D460AFA02FB1BEA0C0F1B
:101FB0001ABFAC54641C05F80280521C202AF3DBC3
:101FC0000022002810D916F902C0BCF1000F08DB6E
:101FD000BCF1200F3ABF15F80CC007F802C007F893
:101FE0000280521C8242EED3A24C00220028C4F888
:101FF0002C9008D917F902C0944501D0E76202E09D
:10200000521C8242F6D3A04F0020A7F1600CA7F12A
:1020100020060CF8008006F8009007F80090401C9D
:102020002028F6DB0020002905D91A5C0CF80020D6
:10203000401C8142F9D80020024600290BD91CF926
:102040000230002B04DB202B3CBF0AFA03F31843B9
:10205000521C8A42F3D3002213460AFA02FB1BEAFF
:10206000000F1ABFAB545B1C05F80280521C202ADB
:10207000F3DB002200290AD91CF90230002B03DB14
:10208000202B3CBFEB5CBB54521C8A42F4D3002291
:10209000C4F83490002907D9BB56934201D0676336
:1020A00002E0521C8A42F7D311F0010F18BF1F2221
:1020B00009D00AFA02F3034203D10AFA02F21043EA
:1020C00001E0521EF5D5002213460AFA02F7074234
:1020D0001ABFAB545B1C05F80280521C202AF4DBAB
:1020E000002000290AD91CF90020002A03DB202A3D
:1020F0003CBFAA5C3254401C8842F4D30020C4F890
:10210000309000299EBF08B0BDE8F00F70473256EE
:10211000824204D0266308B0BDE8F00F7047401C2F
:102120008842F4D308B0BDE8F00F7047574900EB80
:10213000401001EB8010704700EBC000544900EBE9
:10214000400001EB80007047DFF828C1012B8CF8BC
:1021500006008CF8071003D9401C20F0010011463E
:102160008CF808008CF8091000FB01F24FF6FF71A3
:1021700001EA4202ACF8122001EA4000ACF8140077
:1021800070473C48407A70473A48007A7047394A6D
:102190009072D17270473748C07A70473548807A5C
:1021A00070473C4A1070517070473A49085C70475C
:1021B0002DE9F047DFF8BCA004469AF80D0000288E
:1021C00004BF9AF802000EF0BFF89AF80C0000283D
:1021D00008BFBDE8F0874FF00009DAF81C00C846D8
:1021E0004F464E464D4610F0020F1CBFDFF89C9044
:1021F00010F0040F06D0BAF81210244A21F00101A1
:1022000001EB020810F0010F04D010F0100F0CBF0A
:102210001F4F1F4E10F0200F18BF1F4DDAF8280077
:102220002060FEF722FD10F0010F06D0FFF768F8DE
:10223000022828BF9AF8030000D20020C4E901094F
:10224000C4E90565C4E903870120BDE8F0870949B1
:1022500000200873704710B50446FEF752FA820159
:102260000E48006800F580412046BDE810400EF0A1
:1022700061B8000020000110010007005C0001109F
:102280005C0301107C030110DC030110FC0301104E
:102290003C0C01102E000110140D0110F82B010050
:1022A0002DE9F041FEF72DFA04460020FFF738F93A
:1022B0000022002C24D9F94F012541F6F0763B6825
:1022C000002103EB821C05FA01F3034212D04B08F4
:1022D0000CEB830303F580434FEAC1781B684FEA98
:1022E000D86823FA08F3C3F30C03B34202D90020E1
:1022F000BDE8F081491C2029E5D3521CA242DED35F
:102300000120BDE8F0812DE9F05F00F00F06002408
:10231000E24F8846750046EA0410FEF70EFA60B3F5
:1023200002218A46002308EBC41B0020002908D99B
:102330002AFA00F202F001029A421CBF401C8842B5
:10234000F6D3884216D2A5F10209D7F800E0A144DD
:102350000EEBC9190BEB831C002209EB801909EB6A
:10236000820000F58040D0F840084CF82200521C52
:10237000102AF4D35B1C022BD7D3641C022CCAD3C3
:10238000BDE8F09F2DE9F05F00F00F06700000251A
:10239000A0F1020B012741F6F07846EA05194846FC
:1023A000FEF7CBF9002834D04846FFF7C6F807FA05
:1023B00000F4022C88BF02244846FFF7B1F800223F
:1023C000002C26D9B54B0BEB05011B6803EBC11A9A
:1023D00000210AEB821907FA01F3034213D04B08DC
:1023E00009EB830303F580434FEAC17CD3F84038FF
:1023F0004FEADC6C23FA0CF3C3F30C03434502D918
:102400000020BDE8F09F491C2029E4D3521CA242C1
:10241000DED36D1C022DC0D30120BDE8F09F9F4B81
:102420004FF6FF7C1B6803EB8111430801EB83012E
:1024300001F58041C007C00E0CFA00FC0B6802FADF
:1024400000F023EA0C03184308607047934A1268AF
:1024500002EB8111420801EB820101F58041C007C6
:102460000968C00E21FA00F080B270472DE9FF4FD5
:102470008A4883B01D460068109C00F580401746CE
:102480000E460190FEF717F95FEA00081CBF002016
:10249000FEF7F2F80020FFF743F88246701900902B
:1024A000B04284BF4FF0010B4FF6FF7E26D9019852
:1024B0004FF0000C00EB8611039B17E00BFA03F0C2
:1024C00010EA0A0F11D05808DD0751F82020ED0E50
:1024D0000EFA05F922EA090234F8029B0CF1010C0C
:1024E00009FA05F52A4341F820205B1CBC4538BF9A
:1024F000202BE3D30098761C8642D8D3B8F1000F86
:1025000004BF07B0BDE8F08F00206549C87088702F
:1025100007B00120BDE8F04FFEF7AEB82DE9F04757
:1025200007465E489A46144600680E46089D00F528
:102530008049FEF7C0F85FEA00081CBF0020FEF7E4
:102540009BF806EB0A03B34284BF564907EB040C21
:102550001AD93C4609EB86100FE00A57202A0BD205
:1025600002EBD27A4FEA6A0AD20750F82AA0D20EBA
:102570002AFA02F225F8022B641C644538BF202C8D
:10258000EBD3761C9E42E4D3B8F1000F08BFBDE840
:10259000F08700204249C8708870BDE8F0470120EC
:1025A000FEF76AB82DE9F05F3D4E3C4A4FF0000857
:1025B0004FF6FF7700280C4645D0116801F5804999
:1025C00000F00F01C0F3031001290EBF0021022902
:1025D000BDE8F09F022828BFBDE8F09F01EB000A8C
:1025E000FEF769F805001CBF0020FEF745F8002043
:1025F00009EBCA19002209EB801153084FEAC27C8B
:102600004FEADC6C01EB830307FA0CFBD3F840A81C
:1026100004FA0CFC2AEA0B0A4AEA0C0C521CC3F816
:1026200040C8202AE9D3401C0228E3D3002D08BF6C
:10263000BDE8F09F86F8038086F80280BDE8F05F71
:102640000120FEF719B8106800F58049FEF733F84D
:1026500005001CBF0020FEF70FF84FF0000C002211
:1026600009EB8C115308D007C00E07FA00FB51F894
:1026700023A004FA00F02AEA0B0A4AEA0000521CDE
:1026800041F82300202AEDD30CF1010CBCF1210FFD
:10269000E5D3002DCED1BDE8F09F0000F82B01005E
:1026A000200001107C03011010B5FEF7E3FE624923
:1026B000088210BD604AC1B200F4F853128A9142F8
:1026C00088BF11464FF0640C01FB0CF1B1FBF2F135
:1026D0001A0A02FB0C1189B210F4005F12BF08B293
:1026E000484200B270470028B8BF404280B2B4BF31
:1026F00000214FF4005100F4F85211434E4AC0B289
:10270000128A504341EA102070474C4800F029B823
:1027100010B54A4800F025F849484FF42461006894
:10272000BDE8104000F580400DF009BE424810B5EC
:10273000808B00F48170FFF72EFA414C4FF48071CA
:10274000206800F5C0400DF0FAFD20684FF40461E8
:1027500000F580400DF0F3FDBDE810400020FEF7CD
:10276000D6BD70B5364D04464FF48071286800F52B
:10277000C0400DF0E4FD002101206256002A15DB67
:10278000D31702EB137C4FEA2C132E682CF00F0C9E
:1027900006EBC31303EB810303F5C043A2EB0C026A
:1027A00052001E6800FA02F232431A60491C2029C6
:1027B000E3D370BD70B5204C0546A06A401CA062F2
:1027C000607850B1206A10B1206A401E2062206AF1
:1027D000002804BF0020FDF74FFF20212846FDF709
:1027E00071FF616A00291CBF28468847FEF73AFA44
:1027F00002281AD113480168D1F8B81211F0010F5C
:1028000013D00168D1F8B812026841F00101C2F892
:10281000B8120168D1F8B812006821F00101C0F8BF
:10282000B812A06940F00200A0610748016841F0B9
:102830002001016070BD0000200001105C03011048
:10284000F82B0100E02B01005C000110F0B4002423
:102850007D4E012382B0002808BF337019D00128B3
:10286000347018BF747014D0784D286800687849A7
:102870000143286801603178764A61B110684BF6EF
:10288000083CC0F80CC01068DFF8CCC1C0F808C024
:102890000CE07370E8E7D2F800C07048CCF80C0088
:1028A000D2F800C04FF0BB70CCF808006C4800684C
:1028B00030F0FF0C08D1D2F800C0DCF80CC060F397
:1028C000030C1068C0F80CC040F2E24CC9B11068AB
:1028D000806840F01807106887600120009004E0CD
:1028E0000198471E0197FBD20098471E009728BF0A
:1028F000CDF804C0F4D210688068176840F48050A6
:10290000B8600120009004E00198471E0197FBD2B7
:102910000098471E009728BFCDF804C0F4D2707805
:1029200028B11068C068166840F03000F060106888
:10293000D0F8B000166840F00100C6F8B0000120E1
:10294000009004E00198461E0196FBD20098461EB6
:10295000009628BFCDF804C0F4D21068C367D2F83F
:1029600000C04FF4E060CCF810001068C0F8884058
:1029700000291CBF1068C0F894301068C068116846
:1029800020F03000C86010688068116820F01800DE
:1029900020F48050886028680068296820F00400CE
:1029A00040F00D7040F08050086002B0F0BC7047FD
:1029B00028480168C968026821F03001D1600168C7
:1029C0008968006821F0180121F4805181601F4856
:1029D00001680968006821F0040141F00D7141F0BF
:1029E000805101607047194801680A6818490068F9
:1029F00011430160144917480A7832B1026892689D
:102A000041F218031A4303689A60497829B10168B2
:102A1000C968026841F03001D1600168D1F8B01096
:102A2000006841F00101C0F8B01070470D49C0B214
:102A300041EA0020074909680864704705490A48C7
:102A4000096808647047000058000110E82B010075
:102A500004003412E42B01002000BB0005F4010047
:102A6000D0FE030013005FA000005FA05948584942
:102A7000026891610268891CD1610268491E516334
:102A800002681268036822F0030242F00D7242F0FD
:102A900080521A6002685269036822F0010242F013
:102AA0000D7242F080525A61026812691143026845
:102AB000116102684849916000684849C16048490D
:102AC00000200860704770B501F0FBFA444D2C6897
:102AD0002CB10020286001F0F9FA204670BD30BF0B
:102AE00000F064FE0028F2D000F073FE6860EEE7AC
:102AF0002DE9F04101F0E5FA354E364CDFF8E08083
:102B0000771CD8F800503DB10020C8F8000001F053
:102B1000DDFA2846BDE8F08172B620684663206879
:102B2000876120BF206886612068476362B6BFF373
:102B30006F8FBFF34F8F00F039FE0028E1D000F017
:102B400048FEC8F80400DCE722480168096802680A
:102B500021F0030141F00D7141F0805111600268D4
:102B600020499160016809691F4A006811430161A9
:102B700030BF704772B61649164802685163026842
:102B8000C91CD1610068891E816162B67047114815
:102B900001680968154A00681143016070470D48D3
:102BA00001680968006821F0030141F00D7141F0EE
:102BB00080510160704772B605490648026891610C
:102BC0000268891CD1610068491E416362B6704782
:102BD00000003412E82B01003C00341228003412AB
:102BE0005C0001100800341201003412030034129A
:102BF0007047002818BF0120F549096848607047F0
:102C00000022B2EBD10F26D20368B3F1FF3F04BF1D
:102C10004368B3F1FF3F17D18368B3F1FF3F04BFAF
:102C2000C368B3F1FF3F0FD10369B3F1FF3F04BFA6
:102C30004369B3F1FF3F07D18369B3F1FF3F04BF9D
:102C4000C369B3F1FF3F01D0002070472030521C10
:102C5000B2EBD10FD8D30120704710B40023B3EBEF
:102C6000D20F30D2D0F800C00C68A44522D1D0F8E1
:102C700004C04C68A4451DD1D0F808C08C68A44598
:102C800018D1D0F80CC0CC68A44513D1D0F810C02E
:102C90000C69A4450ED1D0F814C04C69A44509D1E3
:102CA000D0F818C08C69A44504D1D0F81CC0CC69F8
:102CB000A44502D010BC00207047203020315B1C9E
:102CC000B3EBD20FCED310BC012070472DE9F041F9
:102CD000054601F000FA0020BD4A21264FF4825734
:102CE000844611680E60C5F800C011680968136851
:102CF00041F0040119601168096811F0040FFAD15C
:102D000011680F6040232C460021D4F80080B8F1F0
:102D1000FF3F04BFD4F80480B8F1FF3F1DD1D4F8C1
:102D20000880B8F1FF3F04BFD4F80C80B8F1FF3F32
:102D300013D1D4F81080B8F1FF3F04BFD4F8148049
:102D4000B8F1FF3F09D1D4F81880B8F1FF3F04BFB4
:102D5000D4F81C80B8F1FF3F09D01168C1F800C059
:102D6000401CC0B20828BCD30220BDE8F081491C39
:102D70002034B1EBD30FC8D31068C0F800C00120D5
:102D8000BDE8F0812DE9F041054601F0A4F90020ED
:102D90008F4B0926844619680E60C5F800C0196873
:102DA00009681A6841F0040111601968096811F096
:102DB000040FFAD12C464FF4806200212768B7F146
:102DC000FF3F04BF6768B7F1FF3F17D1A768B7F1AE
:102DD000FF3F04BFE768B7F1FF3F0FD12769B7F1A5
:102DE000FF3F04BF6769B7F1FF3F07D1A769B7F19C
:102DF000FF3F04BFE769B7F1FF3F09D01968C1F889
:102E000000C0401CC0B20328C5D30220BDE8F08139
:102E1000491C2034B1EBD20FD0D31868C0F800C0E1
:102E20000120BDE8F0812DE9F05F0F4680460426C1
:102E30004FF0020A4FF0000BDFF8949101F04BF9CC
:102E4000D9F8001044463846C1F800A00F21B0E878
:102E50002C10A4E82C10491EF9D2D9F80000006803
:102E6000D9F8001040F004000860D9F800000068AC
:102E700010F0040F07D000BF00BFD9F800000068B1
:102E800010F0040FF7D1D9F80000C0F800B04546A3
:102E900038460F21D5E90023D5E902C4D0F800E077
:102EA000964504BF42689A4205D18268624504BFD4
:102EB000C268A24208D0761E03D34046FFF706FF41
:102EC000BCE70220BDE8F09F10301035491EE1D26A
:102ED0000120BDE8F09F70B50D46044601F0FBF8F7
:102EE0004FF48072214628460DF024FA012070BD6F
:102EF0002DE9F041C0B014460E46054610F0FF0F14
:102F000023D025F0FF086F4601F0E5F84FF48072FA
:102F1000414638460DF00EFAE8B2C0F58077A74278
:102F200088BF274668443A4631460DF012FA4046BB
:102F3000FFF7CCFE022843D069464046FFF773FFF7
:102F4000022841D03D443E44E41BB4F5807F19D3B0
:102F50004FF48072314668460DF0FBF92846FFF7C2
:102F6000B5FE02282CD069462846FFF75CFF0228F0
:102F70002AD0A4F5807405F5807506F58076B4F541
:102F8000807FE5D2C4B16F4601F0A5F84FF480729E
:102F9000294638460DF0CEF92246314668460DF0F6
:102FA000D8F92846FFF792FE022809D0694628463C
:102FB000FFF739FF022807D040B00120BDE8F081BB
:102FC00040B00A20BDE8F08140B00B20BDE8F081A0
:102FD000CC2B010034490A6810600968086100F0D0
:102FE00016B831490A6810600968486100F00FB8E6
:102FF0002D490968486770472B49096888677047F9
:103000002948012102681166006801657047274A56
:103010001168096B10F0010F18BF21F4404110F046
:10302000020F1CBF21F4405141F4805110F0040FF5
:1030300018BF21F4406110F0080F18BF41F440712F
:1030400010F0100F18BF41F0C00110F0200F18BF92
:1030500041F0300110F0400F18BF41F00C0110F0AA
:10306000800F18BF41F0030141F4BE01136841F025
:10307000204119631168D1F8901010F4807F1CBFB3
:1030800021F0030141F0020110F4007F1CBF21F088
:103090000C0040F0080141F4BE00116840F02040EF
:1030A000C1F8900070470000D42B0100DC2B010018
:1030B0007047F74801688A68F64903680A439A60CE
:1030C0000268D26811430268D16001684969F24A16
:1030D0000068114341617047ED4801684969026821
:1030E00021F0010141F00D7141F080515161016801
:1030F000C968026821F0400141F00D7141F0805132
:10310000D16001688968006821F0400141F00D71CB
:1031100041F080518160704710B5DD4C20688168B6
:10312000DC482268014391602168C968084321682E
:10313000C86020684069D849084321684861D74879
:1031400043F63F710268D160026800219163026812
:1031500091640068C0F8B01003210A2000F029FA39
:103160000A2000F04AFA20684069216820F0010036
:1031700040F00D7040F0805048612068C0682168C0
:1031800020F0400040F00D7040F08050C860206892
:103190008068216820F0400040F00D7040F08050C1
:1031A000886010BDBD4A13681860136859604843B1
:1031B000116888607047B94A1368186013685960CD
:1031C000484310F0010F18BF401C11688860704719
:1031D000B2490968C1F8B0007047B04918B1096830
:1031E0000120886470470968002088647047AB49F3
:1031F0000A6890630868C068096840F00200C86007
:103200007047DFF898C210B4DCF800402062DCF8A8
:1032100000004162DCF800008262DCF80000C3625A
:10322000DCF8001001200863DCF80000406B10F0AF
:10323000010F06D020BFDCF80000406B10F0010F3A
:10324000F8D110F0020018BF4FF0FF3010BC7047EB
:1032500092480168C968006821F00201C1607047A6
:103260008E480168C968006841F00101C16070477B
:103270008A4BD3F800C0CCF8200018684162186867
:1032800082621968012008641868406C10F0010F10
:1032900005D020BF1868406C10F0010FF9D110F074
:1032A000060018BF4FF0FF3070477C480168C968BE
:1032B000006821F00101C160704778480168C96861
:1032C000006841F00401C1607047027C017B02F09C
:1032D0003F0241EA0241714A136899651368016827
:1032E000596213684168996213688168D9621368EA
:1032F000012119651168496D11F0010F05D020BF3A
:103300001168496D11F0010FF9D11368DB6D8382EB
:103310001368DB6D1B0CC38213681B6E0383136879
:103320001B6E1B0C438313685B6E83831268526EA3
:10333000C2F30E42C28311F0020018BF4FF0FF30FB
:10334000704756480168C968006821F00401C160EF
:10335000704752480168C968006841F00801C160BF
:103360007047DFF838C110B4DCF80040A267DCF821
:1033700000201062DCF800004362DCF8000081628B
:10338000DCF8001001200867DCF80000406F10F046
:10339000010F06D020BFDCF80000406F10F0010FD5
:1033A000F8D110F0060018BF4FF0FF3010BC704786
:1033B0003A480168C968006821F00801C160704797
:1033C00001684FEA314235490B68C3F89C200A680E
:1033D0004068C2F8A0000868C068096840F0200092
:1033E000C860704701684FEA31422C490B68C3F846
:1033F0009C200A688088C2F8A0000868C068096834
:1034000040F02000C8607047244BD3F800C0CCF8CF
:103410002000186842621868816219680120C1F8AA
:1034200094001868D0F8980010F0010F06D020BF63
:103430001868D0F8980010F0010FF8D110F00600CD
:1034400018BF4FF0FF307047144A136818621068B5
:10345000416211680120C1F890001068D0F898000E
:1034600010F0010F06D020BF1068D0F8980010F0BF
:10347000010FF8D110F0060018BF4FF0FF30704771
:1034800006480168C968006821F02001C1607047E2
:10349000E82B01004000341201003412EC2B010033
:1034A0001B480168C968006841F01001C16070479D
:1034B000A3F1050C164B10B41C68C4F888C0D3F8EF
:1034C00000C0CCF820001868426218688162196850
:1034D0000120C1F880001868D0F8840010F0010FB6
:1034E00006D020BF1868D0F8840010F0010FF8D182
:1034F00010F0060018BF4FF0FF3010BC70470448B2
:103500000168C968006821F01001C16070470000BF
:10351000EC2B0100244810B50268022111650268F5
:1035200001211166026810215167026841F206010B
:10353000516602680021916602680421C2F8881071
:1035400002689021C2F884100168D1F884100268E2
:1035500041F00101C2F8841002684FF481711166D4
:1035600000680166032000F048F80021032000F005
:1035700020F8002010BD10B5032000F049F80A48DB
:103580004FF48071026811660268002111660268BA
:1035900010219167006802214165002010BD034998
:1035A0000020087070470000D82B01006400011053
:1035B000704700F00303DA004FF0FF0C0CFA02F240
:1035C0004FF0050C0CEBC303994000F00C030028EE
:1035D00008DA30480068184443691140934319439E
:1035E000416170472C4800681844D0F800331140FE
:1035F00093431943C0F80013704700F01F010122E4
:1036000002FA01F1244A4009126842F8201070477A
:1036100000F01F01012202FA01F11F4A400912685D
:1036200002EB8000C0F88010704700F01F010122FB
:1036300002FA01F1184A4009126802EB8000C0F852
:103640008011704714490968086070471249096879
:10365000C1F88000704710480068006870470E4944
:103660000968C1F8800170470A480068806870479F
:1036700008490A6892680968886010467047054AD8
:103680001268926800F1100352F8230042F82310E8
:1036900070470000C82B0100C42B010002210C2040
:1036A000FFF787BFCB4801688A68CB4903680A43A4
:1036B0009A600268D26800681143C1607047C548CB
:1036C00001688968026821F4805141F00D7141F070
:1036D000805191600168C968006821F4805141F00F
:1036E0000D7141F08051C1607047BC4881B00168E4
:1036F000096F11F4007FFAD10168896E11F0010F92
:1037000009D00168D1F8841000910168D1F88410C3
:10371000009A9142F9D00168096F11F4007F03D13A
:1037200002684CF271011166006842F24131816613
:1037300001B07047A9494FF40D520B689A660A68A8
:10374000126F0B68DA66012898BF012005D9401E68
:10375000B0F5803F28BF4FF6FF7080B24FF05C524B
:1037600042EA00200A68506609684FF01140C1F82B
:103770008000BAE7994881B00168096F11F4007FB1
:10378000FAD10168896E11F0010F09D00168D1F8F2
:10379000841000910168D1F88410009A9142F9D008
:1037A00000684FF40D51816601B070478948006888
:1037B000806810F4805008BF704788480068806EA9
:1037C00000F00100704785480068406EC0F30F208C
:1037D000704782480068D0F88400704710B50C200C
:1037E000FFF723FF0C20FFF708FF7C490220096840
:1037F000486710BD794910B50968032088670C2017
:10380000FFF706FFBDE810400C20FFF70EBF744A1B
:103810001168106008467047704810B50168096F5C
:103820000068C1666E480068002818BF80476D4870
:10383000016841F48051016010BD694840687047DB
:10384000644810B501688A68634903680A439A604E
:103850000268D26800681143C160604C032021688F
:1038600088670C20FFF7D4FE0C20FFF7DEFE00F087
:10387000A9F95D4B04201968C1F8880019684FF652
:10388000FF70C1F88C0072B621684FF40D50886645
:103890002068006F2168C86621685448486621681E
:1038A0004FF01140C1F88000FFF71FFF19684FF477
:1038B0000070086662B610BDF8B572B64748016878
:1038C000096F11F4007FFAD10168896E11F0010FC0
:1038D00009D00168D1F8841000910168D1F88410F2
:1038E000009A9142F9D002684FF40D5191663E4919
:1038F0004FF400330A68136662B60968D1F80412FF
:10390000344D00294AD0364C4FF6FF73591AA16046
:103910002A689269D5F800C002F00F02DCF81CC0DA
:103920000CF00F0C6244121D01FA02F2A2F5EA41FA
:10393000DFF8BCC03139614530D20068D0F884006E
:10394000191AE160B1F5803F28D22A4B4FF0000CE4
:10395000A1FB03070CFB037301FB0C3163460CF066
:10396000FDFC401C40082061B0F57A7F38BF4FF461
:103970007A70214B9968002908BF98605A681A60CC
:103980009968C3E901108A421FD9824205D9814250
:1039900001D9616002E0606000E0626000F023F93C
:1039A00028688068296820F4805040F00D7040F04D
:1039B000805088602868C068296820F4805040F0F2
:1039C0000D7040F08050C860F8BD8242E5D8814259
:1039D000E1D8DEE7E82B010000103412F42B0100DF
:1039E000680001105C000110F02B010000FEFF37A1
:1039F0002F6E160000879303580D011013480168BD
:103A00008968134A00681143816012480168496956
:103A1000026841F40071516101680969026841F06E
:103A20000401116101680969006841F01001016138
:103A300070470849096888607047BFF34F8F054990
:103A400005480968C860BFF34F8FFEE7E82B010007
:103A500004003412C82B01000400FA051E48016856
:103A600089681E4A0068114381601D4801684969E0
:103A7000026841F0010151610168096A036821F09F
:103A80000F0218490A431A62174B8A1E1B68C3F8B3
:103A9000C42000680165704711480068006900F0A3
:103AA000700070470E48114902681163026810499E
:103AB000516302680F49C2F890100068491FC0F8AE
:103AC0009410704706480168496C00291ABF0068C5
:103AD0004068094870470000E82B010004003412D8
:103AE000DC2B010003005FA0E42B0100C0845FA079
:103AF00095995FA00A005FA061B66505022824BF02
:103B000000207047FE4B53F8202043F82010104649
:103B1000704770B5FB4C2068006FF94D10F0010F35
:103B200006D021680120C8662868002818BF804791
:103B30002068006F10F0020F08BF70BD02202168DE
:103B4000C8666868002808BF70BDBDE870400047BF
:103B5000ED4810B501688A68EC4903680A439A6029
:103B60000268D26811430268D160E64902220B68FC
:103B70001A65D1F800C00123CCF86030D1F800C03C
:103B80000323CCF86C3009684A65016889680268CB
:103B900021F0800141F00D7141F080519160016888
:103BA000C968006821F0800141F00D7141F0805139
:103BB000C1600920FFF721FD0221BDE81040092066
:103BC000FFF7F7BCD04801688A68D04903680A4308
:103BD0009A600268D26800681143C160C949022036
:103BE000096808657047C749022009684865C648E2
:103BF00001688968026821F0800141F00D7141F08F
:103C0000805191600168C968006821F0800141F02D
:103C10000D7141F08051C1607047BB4800688068F9
:103C2000C0F3C0107047B7480168096F11F4007FF6
:103C300004D000684FF440710166704700684FF48B
:103C400080710166704710B5AE4C2068C06F10F0EF
:103C5000020F4FF0010018BF03202168486700F0F1
:103C6000C5F9A9490A689269096802F00F02D040B3
:103C7000C969226801F00F01C8400521B0FBF1F0CD
:103C80004FF405710009C2F880100CF06CFBA04ADB
:103C9000A04B0CF06DFB0CF070FB2168C1F88400A8
:103CA0002068006F10F4007F04D021684FF440704A
:103CB000086610BD21684FF48070086610BD9148F9
:103CC0000168096F11F4807F04D000684FF44071DF
:103CD0000166704700684FF4007101667047894BB8
:103CE00030B41A68D26F12F0010F1DBF4FF0030CF1
:103CF0001A68C2F874C0022204BFD3F800C0CCF81E
:103D000074204FF0020C00EB4005C5EBC0104FF4DF
:103D10009674C1EBC0004C4300EB80007E4904EB7D
:103D20004010A1FB001078490022C0080C68A4696B
:103D3000096804F00F04C96901F00F012144C8406B
:103D40000521B0FBF1F0B0F5803F05D3511C4008D0
:103D5000CAB2B0F5803FF9D242EA0C211A6841F0AC
:103D60001001C2F888101968C1F88C001868006F3B
:103D700010F4807F05D019684FF44070086630BC9D
:103D8000704719684FF40070086630BC70475D4892
:103D90000168096F11F4003F04D000684FF440310E
:103DA0000166704700684FF48031016670475548DE
:103DB0000168096F11F4803F04D000684FF440316E
:103DC0000166704700684FF40031016670474D4846
:103DD0000068006FC0F3002070474A480068006F19
:103DE000C0F340207047484909688968C1F3C01191
:103DF000002904BF002070474249002808680CBF12
:103E0000D0F80002D0F8040270473F4B1A6892685D
:103E1000C2F3C012002A04BF00207047394A0028AC
:103E200010680CBFD0F88000D0F88800C0F30A20DA
:103E300012680CBFD2F88020D2F8882002F00F025E
:103E4000D3F800C0DCF818C01B680CF00F0CDB695D
:103E500003F00F0363441A449140012202EB400037
:103E600048432E49A1FB0010000970472C4901204E
:103E70000870704770B4244BC1EB011149001A68F7
:103E80009269D3F800C002F00F02DCF81CC00CF0FD
:103E90000F0C6244121DD14008BF012104D0B1F5BE
:103EA000803F28BF4FF6FF711A689268C2F3C012B4
:103EB000002A1CBF70BC70471A68D2F808C0134AA9
:103EC0001C684CEA020CC4F808C0D3F800C0DCF847
:103ED0000CC04CEA0202D3F800C0CCF80C20094A0E
:103EE0000224D2F800C0CCF8504015684FF4003CD2
:103EF000C5F860C016680425C6F88850156811E03A
:103F000080000110F02B0100E82B0100800034122A
:103F10007B14AE47E17A843FCDCCCCCC89888888AD
:103F20007C000110C5F88C1011681B4DCD6611681E
:103F30004C671A4902283CBF194E46F82010002150
:103F40001848017016684FF400713166017819B98C
:103F500020BF01780029FBD01068C0F860C010684D
:103F600085671068C56610684465186880681968B8
:103F700020F0800040F00D7040F08050886018689C
:103F8000C068196820F0800040F00D7040F080504B
:103F9000C86070BC70470000020002021D5E000095
:103FA000800001107C000110244900200A68906004
:103FB0000968086022494860704710B51F4C2168A5
:103FC00048602168002088600221401EFFF7F1FA56
:103FD00021680720086010BD1849002009680860A2
:103FE000704717480188491C018070471448806851
:103FF00070472DE9F041124C002705462780A06844
:104000004FF47A71B0FBF1F00C4E401E31684860FD
:10401000306887600221C81EFFF7CBFA316807209D
:1040200008602188A942FCD330680760BDE8F081B0
:10403000044948430249886070470000C02B0100D2
:104040008800011040420F00704770B52C4C0546A7
:104050004FF40D502168886621680320C8662168E6
:104060002848486621684CF2710008662168264895
:10407000C1F88000216842F24630886602210020A3
:10408000FFF797FA0020FFF7B8FA002D08BF70BDC0
:104090002068806E42F2413108432168886670BD15
:1040A000174810B502680121916700684FF40D515F
:1040B00081660020FFF7ACFABDE810400020FFF752
:1040C000B4BA0F4901200968486770470C490120BC
:1040D0000968886770470A494CF2710009680866E8
:1040E0007047074881B04CF271010268116601689F
:1040F000096F0268D1660068006F009001B07047D8
:10410000D02B010007383937009C1C9170B5FF4D4A
:1041100000244FF400612C706C70AC70FC480CF003
:104120000EF94FF40061FB480CF009F9FA48AC6055
:10413000EC70046044608460C46004614461846124
:10414000C461046244628462C4620463446384633D
:10415000C463046444648464C4640465446584651D
:10416000C465046644668466C466046744678467FD
:10417000C4672C71682180300CF0E1F86821E748B1
:104180000CF0DDF8EC6070BDE0490020487070472D
:10419000DE4840787047DD48C078002818BF01200D
:1041A0007047DA480079002818BF01207047D748C7
:1041B0008078002818BF01207047D448407800EB71
:1041C000800101EBC000D64901EBC00070472DE92A
:1041D000F041CE4D0446D2496A78D24F02EB8200BC
:1041E00000EBC200D04E01EBC0033A783078214694
:1041F0001044420018460CF0ACF86A78C74902EB4C
:10420000820000EBC20001EBC0033A78307821460F
:104210001044420018460CF09CF801202871BDE8BB
:10422000F081BA48C0687047B849B948497800EB8E
:10423000C12070472DE9F041B44E07463078002880
:1042400014BFBA48BA48047814BFBA48BA480578C7
:1042500004FB05F8FEF72DFF29462046FEF7A2FFD6
:10426000AC4C7078A4F5006104EBC02201EBC020D7
:104270003B460146FEF7C5FFFEF72EFF70784FEA7A
:10428000480204EBC02039460CF063F80120B070FE
:10429000BDE8F0812DE9F0479C4D04469C486978C3
:1042A000DFF8888200EBC12C2878DFF88492A14ED9
:1042B000A14F2146002815BF98F8002099F800204A
:1042C00033783B7802FB03F04FEA400260460CF083
:1042D00040F89048697800EBC12C287821460028E6
:1042E00015BF98F8002099F8002033783B7802FB3E
:1042F00003F04FEA400260460CF02BF80120A87052
:10430000BDE8F08781488068704770B58B4C0546E2
:1043100001462278804852000CF01BF8227829468A
:10432000520087480CF015F878490120C87070BD1C
:104330002DE9F04FDFF8D481ADF63C0D98F802007E
:10434000CDF8200898F803B098F804A0FDF74CFBCE
:10435000CDF83808FDF741FDCDF83408FCF7E4FF4F
:10436000CDF83008FCF781FCCDF82408FDF73EFBC2
:10437000DDF8240810F0010F02D0FDF734FD04E051
:104380000020FCF7C4FFFDF776FD002425464FF022
:104390000109CDF81C4804F053FC012814D00DF598
:1043A0000060FDF705FF002800F0E9810DF50060D1
:1043B00005F08FF9002088F80100DDF80C0828B31B
:1043C000BBF1000F05D021E00120CDF81C0800F062
:1043D000BCB9002C18BF002D074621D0FEF769FE9E
:1043E000564E01213078FEF7DDFE554A3B46A2F1DC
:1043F00040010846FEF705FFFEF76EFE30783946AD
:1044000042004F480BF0A5FF88F80390DDF808083C
:10441000002800F0EF80DDF8200888B100F0EAB84D
:10442000464E3946307842003B480BF092FF3078D8
:104430003946420042480BF08CFF88F80390E5E7CC
:1044400098F80000DDF8086800283DD1D8F8087019
:1044500027B336480078CDF82C0836480078CDF8D8
:104460002808FEF726FEDDF82818DDF82C08FEF7F0
:10447000A2FE31463A460846FEF7FAFEFEF72CFE4B
:1044800030480078022804BF384604F0F9FE2D4871
:104490000078092804BF304604F0F2FE2A4800786C
:1044A000012811D9274F3878042804BF304604F07A
:1044B000E7FE314668460BF065FF0646387805286A
:1044C00004BF304604F0DCFE002C18BF002D56D08F
:1044D000CDF8286898F80000002814BF1348144845
:1044E000077814BF13481448067807FB06F0CDF888
:1044F0002C08FEF7DEFD31463846FEF753FE054E2A
:1045000098F8010006EBC02220E0000094000110A2
:10451000640D011064150110642501104C26011072
:10452000E4250110CF000110D0000110CD000110D2
:10453000CA000110CE000110CB000110D100011003
:10454000A425011051010110CC000110A6F5006155
:1045500001EBC0200146DDF82838FEF752FEFEF7D9
:10456000BBFDDDF82C08DDF82818420098F80100A2
:1045700006EBC0200BF0EDFE88F802902FE0FD481E
:1045800098F8011098F8002000EBC1203146002A6D
:1045900014BFF94AF94A137814BFF94AF94A127854
:1045A00003FB02F24FEA42020BF0D3FEF64898F802
:1045B000011098F8002000EBC1203146002A14BFFA
:1045C000ED4AEE4A127814BFED4BEE4B1B7802FB1E
:1045D00003F24FEA42020BF0BCFE88F80290EB486F
:1045E0000078032806D1E34898F8011000EBC120B9
:1045F00004F046FEDDF8140800287CD0BAF1000F64
:1046000079D1064698F8000038BBD8F80C7027B36B
:10461000DF480178DF4800780844401C40080190DA
:1046200002200090FEF745FDDDE90010FEF7C3FD16
:1046300031463A460846FEF71BFEFEF74DFDD648CA
:104640000078022804BF384604F01EFFD2480078E4
:10465000092804BF304604F017FF002C18BF002DB6
:1046600032D0CB4800960178CA4800780E18FEF781
:1046700020FD701C40080221FEF794FD98F801000F
:10468000C64F00EB800101EBC000A7F1680107EB0A
:10469000C00201EBC0010846009BFEF7B2FDFEF729
:1046A0001BFD98F80100720000EB800101EBC000D7
:1046B00007EBC00000990BF04CFE88F80490B64858
:1046C0000078032834D128E098F80100B04FB14AAF
:1046D00000EB800101EBC001B1483B78127800EBA0
:1046E000C1001A44314652000BF033FE98F8010025
:1046F00000EB800100E01BE001EBC001A7483A7825
:1047000000EBC103A348314600781044420018462C
:104710000BF01FFE88F80490D1E798F8010000EB39
:10472000800101EBC0019E4800EBC10004F0ACFE2B
:10473000FDF78DFDD8F81400641C6D1C844228BF61
:10474000854214D3D8F8100088B10420C8F81400AA
:10475000FDF74CF9DDF83008FCF7D9FDDDF8380835
:1047600090B1DDF8340868B1FDF785FB0CE0DDF8A9
:10477000240810F0010F08BFFDF77DFB0BE600F0E9
:10478000C0FE08E6FDF72FFBDDF81C0838B1DDF8A8
:10479000200888F8020088F803B088F804A0DDF843
:1047A0001C080DF63C0DBDE8F08F10B50024FDF798
:1047B000FAFA7C4910F0020F0AD08A78002A08BF62
:1047C000012410F0040F03D0CA78002A08BF012486
:1047D00010F0010F18BF10F0100F03D00879002857
:1047E00008BF01240020002C08BF10BD0020087065
:1047F000BDE810409CE508B50F2100F02EFF012810
:1048000004D1FFF7D2FF009001F093F8654881785A
:1048100000291CBF0179002904D0C07800281CBFE2
:10482000012008BD002008BD08B50F2100F015FFCC
:10483000012804D1FFF7B9FF009001F07AF8594838
:10484000817800291CBF0179002904D0C078002894
:104850001CBF012008BD002008BD70475149002041
:104860008870C870087100F0A9BC10B54FF40061E1
:1048700040480BF064FDBDE810404FF40061424831
:104880000BF05DBD2DE9F047464F8046089839781A
:10489000002914BF384939490D78A0EB030905FBFD
:1048A00009F603FB05F4FEF704FC49462846FEF72B
:1048B00079FC354D787808EB440805EBC02101EB15
:1048C0004402A5F5006101EBC02000EB4400434623
:1048D0000146FEF796FCFEF7FFFB7878720005EBC9
:1048E000C02000EB440041460BF033FD0120B870BE
:1048F000BDE8F087002818BF01202A49887070475A
:1049000070B5284D040004BFA86070BD02F02DF9F9
:1049100050B91948244B2146027819480078504371
:10492000420018460BF015FD1F48A86070BD1F49D6
:104930000020086048608860C8600861486188613C
:10494000C861086248628862C86208634863886315
:10495000C863086448648864C864086548658865F5
:10496000C865086648668866C866086748678867D5
:10497000C8677047640D0110CD000110CA00011016
:10498000CE000110CB00011064150110510101107F
:10499000CF000110D0000110560101104C2601106B
:1049A000E425011094000110641D0110642501101C
:1049B00086487047002818BF01208549C870704795
:1049C00010B5682183480BF0BAFCBDE8104068219F
:1049D00081480BF0B4BC002818BF01207C49087145
:1049E000704710B57A4C002804BFE06010BD682203
:1049F00001467A480BF0ADFC7848E06010BD744980
:104A00004861704770B5724C00210546A170E17095
:104A1000217100F0D3FB002D14BF01200020207075
:104A2000BDE8704084E42DE9F04F8BB04FF4006195
:104A30006B480BF084FC682168480BF080FCFDF7A4
:104A4000B2F90446FCF7D0FF0990FDF7C6F90890CB
:104A5000FCF76AFC0790FCF7C9FF0020FCF757FC45
:104A6000FDF709FA00252E4604F0EAF8012856D091
:104A70006846FDF79DFB00285ED0684604F029FEDD
:104A800014F0020F1CD05748DFF854B1DDF808903D
:104A900090F800805448DA460778FEF70AFB0120B8
:104AA000FEF79BFB39464046FEF785FB52464946DA
:104AB0005846FEF7DDFB0020FEF78FFBFEF70CFBF0
:104AC00014F0010F18BF14F0100F20D04748DFF882
:104AD0000CB14FF0020801784548DA46DDF8149031
:104AE00000780844401C4708FEF7E3FA0120FEF76F
:104AF00074FB41463846FEF75EFB5246494658462F
:104B0000FEF7B6FB0020FEF768FBFEF7E5FAFDF7BF
:104B10009EFB6D1C102D03D2FDF7ADF9A4E7012615
:104B2000FCF764FF0798FCF7F2FB099848B1089876
:104B300028B1FDF7A0F904E000F0E3FC94E7FDF7ED
:104B400052F9E6BB224F14F0020F19D02548DFF8C6
:104B500090C0017824486346007801FB00F21020E1
:104B60000021002A0AD933F9118008EB5008B8FB5C
:104B7000F0F52CF81150491C8A42F4D81848B86056
:104B800014F0010F18BF14F0100F18D01748134B72
:104B9000017817489C4600780A184FF010014FF032
:104BA00000000AD03CF9105005EB5105B5FBF1F4BB
:104BB00023F81040401C8242F4D80848F8600BB03B
:104BC0003046BDE8F08F01207047000064250110D9
:104BD00094000110E42501104C260110B4260110A8
:104BE000641D0110CD000110CE000110CF00011096
:104BF000D00001102DE9FF4F81B0984691468B46B9
:104C00000026FE4804240E9F90F800A0FC4805787A
:104C10000BF0BDFB01465FEA0800DFF8E88328D10E
:104C20002A1F2046042AC8BF2A1B09DD31F910308B
:104C3000142B01DB012603E0401C00B29042F5DB9F
:104C4000B7F1FF3F18BF002E13D1B9F1000F10D0FC
:104C50000198FFF7BCFA98F80000052898BF401C9F
:104C600008D9281B00902346524600215846FFF7DA
:104C700009FE002088F8000005B0BDE8F08FE1488B
:104C80004078012818BF002070470021DD48C1701E
:104C9000817070472DE9F05F00248A46B0F900204A
:104CA000B0F9021005462746A046A3462646A1466F
:104CB000501A48BF881A03B205EB4A0030F9021CAB
:104CC00030F9042C881A48BF501A00B2082BA8BF2C
:104CD000082807DB07F046FB002804BF0123AAF1E0
:104CE000020002D00023AAF1010001B218468B4253
:104CF0002ADC35F910204245C4BF904600F0FF0978
:104D000098421DDD05EB400C3CF902CCACEB0202F5
:104D1000D21D0E2A05D804F1010C0CF0FF048842C4
:104D20000ED1A7420BD22746884203D10E2A98BF44
:104D300046B201D9421E56B2F21B4FFA82FB002442
:104D4000401C80B28142D4DAAAF10400874205DD1A
:104D5000CB45DEBFB1450020BDE8F09F0120BDE896
:104D6000F09F70B5A94AA84906461478097800EB67
:104D700044021046FFF78EFF054621463046FFF7F6
:104D800089FF00229F49002D1CBF0028CA7008D14E
:104D9000C878401CC0B2C8700A2882BFCA70002000
:104DA00070BD012070BD2DE9F34F91B00CA8119991
:104DB000079003A80590944800270DF1080E00788D
:104DC0000090019091480DF1100B3E46027806923A
:104DD000B1F9005031F912C0ADF8302001202C4655
:104DE0006346ADF80870ADF80C20ADF81070012ADC
:104DF00024DD31F91080A845C8BF4546A045BCBF99
:104E00004446ABF8000001EB400831F9109038F946
:104E100002ACBAEB090848BFA9EB0A080FFA88F8F8
:104E2000B84507DD4746CA45D4BF8046A0F1010812
:104E3000AEF80080401C00B28242DADCDDF804806B
:104E4000501C08EB020A824524DD31F9102062452E
:104E5000C8BF94469A4202DA1346059A108001EBC5
:104E6000400231F9108032F9029CB9EB080248BFC8
:104E7000A8EB090212B2B24208DD1646C145D4BF02
:104E80000246421EDDF81C80A8F80020401C00B23B
:104E90008245DADC5E48ACEB03030268012092F83D
:104EA0001F118B42C4BF2B1B8B4205DD92F81E11D4
:104EB0008E42C8BF8F4200DC00200890002800F01E
:104EC0000D81DDE91145BDF930000590BDF90800FF
:104ED000079000980F90069E0020CDE90A060F98D3
:104EE000771E3044A0F101080690059834F91000AF
:104EF0000E90079834F910000D900020009001905A
:104F00008346824681460990FFF757F90146002003
:104F100002461090079800280BDB34F910C00D9B57
:104F2000BCEBA30F01DA0A9003E0401E00B28242FC
:104F3000F3DD0798B31A83420CDD34F910E0DDF895
:104F400034C0BEEBAC0F01DA074603E0401C00B2F0
:104F50009842F2DB0598B31883420CDC34F910E078
:104F6000DDF838C0BEEBAC0F01DA0B9003E0401E59
:104F700000B28342F2DDDDE905039B1A83420BDDBB
:104F800034F910C00E9ABCEBA20F01DA804603E0A0
:104F9000401C00B29842F3DB0B9840453DDA05EB2C
:104FA000400235F91030B2F902C0B3EB0C0248BF31
:104FB000ACEB0302019B1A4412B2019201EB4002D6
:104FC00031F91030B2F902C0B3EB0C0248BFACEBC0
:104FD0000302009B1A4412B2009204EB400234F91F
:104FE0001030B2F902C0B3EB0C0248BFACEB0302C5
:104FF000099B401C1A4412B200B20BE0CA00011017
:10500000CB000110AC000110CF000110D000011046
:10501000DC01011009924045C1DB0A98B8422DDA43
:1050200005EB400235F910C0B2F90230BCEB0302C7
:1050300048BFA3EB0C0252440FFA82FA01EB400284
:1050400031F910C0B2F90230BCEB030248BFA3EB48
:105050000C025A440FFA82FB04EB400234F9103080
:10506000B2F902C0B3EB0C0248BFACEB03024A44F6
:10507000401C00B20FFA82F9B842D1DBDDE9000131
:10508000411A0998B1EB600FDFBFABEB0A00B0EB40
:10509000690F109800280AD0EB498878401CC0B2EC
:1050A0008870032884BF002088701BD912E0E6496D
:1050B000002088700B98A8EB00010F98B1EB600FEF
:1050C00004DC0A98381AB0EB660F0BDD2046FFF7B8
:1050D00048FE38B94FF0FF30089003E0DA4900206D
:1050E000C8708870089813B0BDE8F08F0120704731
:1050F000D548008B80B270470120704770B51546C7
:105100000E46044606F0F7FF002C18BF70BD0428B9
:1051100018BF052806D0CD48006890F82400A842A2
:1051200088BF70BD3046BDE870400BF035B9C64849
:10513000407B7047DDF800C001434FF0000008BF1E
:105140008CF8000052EA030108BF8CF80000704799
:105150002DE9F047994614460D468246089E06F012
:105160007BFFB94F4FF0060828B9B4EB450FC8BF15
:10517000A6F800800BDC06F06FFF012807D1B9F11B
:10518000000F0CBFBAF1FF3F002004D03872BD827F
:10519000FC82BDE8F087B7F91400B7F9161008448F
:1051A0002919884202DA387A401C3872387A06287F
:1051B00024BFA6F800800520E9D3E7E7A248002134
:1051C0008182C18206F04BBF9F490020C87248838C
:1051D000087370472DE9F04790468946044606F06B
:1051E0003BFF994E002750B3B6F91A008442C8BF5E
:1051F000748320460BF0D5F804460D46B6F91A0024
:105200000BF0CFF8924A934B0BF0B2F822462B46A4
:105210000BF0E0FA18D2B9F1010F15D0F07A401C6A
:10522000C0B2F0720A2898BFBDE8F087F7727783A2
:1052300001203073FF2088F80000BDE8F087F77286
:1052400077833773BDE8F087F772BDE8F08782494E
:105250000180418081800021C180018142F20F7272
:1052600042818181C1810182418270472DE9F047ED
:1052700005467A4892460F4690F8009078480A26EC
:10528000002490F8008006F0E7FE01466E480129F0
:1052900016D0B0F91810012930DD1E23428A0021F2
:1052A000A2421CBF44828173002219EB080C12D069
:1052B00035F912409C420ADD81730020BDE8F08779
:1052C0003C2301240526BAF1000FE7DDE5E7521C77
:1052D00092B29445ECD8827B0123521CD2B28273E5
:1052E000B24288BFC37302D8C27B012A06D14FF0F5
:1052F000FF323A60C371C173817301720020BDE84F
:10530000F08770B515460C4606F0A6FE01281ED1A2
:105310004D4B4FF0000C002DC2BF83F810C0002091
:1053200070BD187C0121401CC0B218740A2888BFC7
:10533000597402D8587C012809D14FF0FF30206001
:10534000D97183F811C083F810C083F808C0002019
:1053500070BD10B5044606F09BFF002808BF10BDC5
:105360000BF024F8092804D00BF020F80A2818BF05
:1053700010BD06F0FCFF012818BF10BD4FF0FF3034
:10538000314920600120C87110BD2DE9F84F1D463C
:10539000DDE90A499246064606F0ADFE00962A4E21
:1053A0000027777306F074FF4FF0010858B106F03C
:1053B0006FFFD8B10AF0FAFF09280FD00AF0F6FF04
:1053C0000A280BD012E04A4669465046FFF74EFFC6
:1053D0004A4669465046FFF794FF07E006F0C7FFCC
:1053E000012803D1801E009086F807800098B0F154
:1053F000FF3F15D00098002806BF70790128BDE84E
:10540000F88F777186F80D80002D1CBF2846FEF7B7
:1054100011FF002C1CBF20460AF0CDFFBDE8F88F1D
:10542000F079012818BFBDE8F88FF77186F80D8074
:10543000002D1CBF2846FEF72DFF002C1CBF204668
:10544000FEF7C5FED6E70000AC000110DC0101103C
:10545000CDCCCCCCCCCCE43FF1D8FFFFCF000110B9
:10546000D000011010B504F0CBFF05F053F8002078
:1054700010BD0000FE4800787047FD480078022803
:1054800005D005281CBF0020704704F09ABA06F02A
:1054900032BEF7490870704770B5F54D04460E46A8
:1054A0002878A04211D0022817D0052814BF002068
:1054B00004F087FA44EA06212A7841EA024141EAE7
:1054C00000621521012006F0CEFA062C28BF70BD1F
:1054D000DFE804F015060A12150E06F00CFEE9E7E7
:1054E000304600F033FA0AE0304606F0F9FD06E0F7
:1054F000304604F05BFA02E0304606F05DFB2C70AB
:1055000070BDDC4900200968B1F8641011F4807F97
:1055100008BF7047FDF7D7BAD64900200968B1F82F
:10552000641011F4807F08BF7047FDF7E1BAD149DC
:1055300000200968B1F8641011F4007F08BF7047BB
:105540000AF03EBFCB4900200968B1F8641011F49D
:10555000806F08BF70470AF038BFC54948780028F7
:105560001CBF401E4870704770B5C3490868D0F82A
:10557000CC00BF4C10F0030F0BD0096840F4BE0004
:1055800040F02040C1F8C8006078002804BF012026
:105590006070BA4800688068B64D10F0020F296844
:1055A00007D1B7480068406910F0010F01D060785A
:1055B00040B1B1F86410002011F4807F18BFFDF7EE
:1055C00097FA07E0B1F86410002011F4806F18BF5B
:1055D0000AF0FBFEAB49084208BF70BD2968496E5E
:1055E000090C617070BD10B572B6FEF759FDBDE8CB
:1055F0001040FEF722BA10B5012802D0022805D0CB
:1056000008E04FF42F30FDF761FB03E09C499E4812
:105610000968086772B6FEF743FDBDE81040FEF763
:105620000CBA9348006970479148C0687047904928
:10563000486170478E48406970478D49886170475E
:105640008B48806970478B48026802F5B073118AF5
:10565000508A02F5A072FCF772BC2DE9F04FDFF81A
:10566000109297B00E46C9F8100004F02DFEC9F84C
:105670000C0000287DD090F800C089F802C0417865
:1056800089F80310837804460CF1010089F804308E
:1056900000F0FE0089F80500E27889F806202079FC
:1056A00089F80700607989F8080009F10A004FF0CD
:1056B000000B80F800B080F801B0207889F809006C
:1056C0006046FCF741FD99F8081099F80700FCF7CF
:1056D0005EFD6946204604F014FE606A10F4801FE7
:1056E00008D0FCF769FB28B10C9808900D98099038
:1056F0000E980A90608AD9F8145000281CBF68439D
:10570000050B678BD9F81880002F08BF4FF480571E
:105710004FF4805A002016F0020F18BF40F21120FB
:1057200016F0040F18BF40F4857016F0080F18BF6C
:1057300040F0040016F0010F18BF40F48460616A65
:1057400008406FF30F0141EA00060098109004989A
:105750001190089812900198139007981590CDF821
:1057600050B010A93046FCF73DFA16F0020F72D087
:1057700000E02BE004F0A5FA5FEA000B33D004F060
:10578000B7FA6843050B59460020FBF7E1FD218A73
:1057900000291CBF0020FBF752FE04F0C9FA08FBE9
:1057A00000F0000B00F50060010A0820012202FA57
:1057B00000F30B4201D1401EF9D5A0F10408A07BF3
:1057C000002818BFA0F1010B17D112E0294800688A
:1057D000B0F8640010F4807F18BFFDF789F900204D
:1057E00017B0BDE8F08FB4F80CB0BBF1000FCAD110
:1057F000CDE70020FBF7A1FE8346E07B002814BF25
:10580000401EFBF7C9FE0BEB0801042905DDA8EBE0
:10581000010101F10408042104E00029BCBFA8EB48
:10582000010800218044B8F1040F05DDA8F104004F
:10583000C5404FF0040807E0B8F1000F04DAC8F1E2
:10584000000085404FF000080020FBF78CFE414629
:105850000020FBF7B7FE16F0010F40D0A18A002907
:105860001CBF0120FBF774FDB4F818800EE00000A7
:10587000C8000110DC010110E42B0100E82B01003D
:10588000DC2B010008000300AD2007B0B8F1000FC9
:1058900007D041460120FBF7D2FD41461120FBF71E
:1058A000CEFD94F81680B8F1000F09D0A8F10101DF
:1058B0000120FBF758FEA8F101011120FBF753FE70
:1058C00094F81780B8F1000F09D0A8F10101012068
:1058D000FBF778FEA8F101011120FBF773FEE07AD7
:1058E00000281CBF0001FBF771FC029804F0C5F909
:1058F000039830B12B4699F8032099F802100AF06A
:1059000069FD5246394628460AF069FD0598FEF7BA
:10591000F7FF069800F0F7FF16F0100F05D0099872
:10592000FFF75FF80A9801F07CF817B00120BDE896
:10593000F08F10B5FCF7F2F904F0A7F90249002046
:10594000C860012010BD0000C8000110FE49487069
:105950007047FD4840787047FC4810B4FC4A016825
:10596000914218D14168B1F5887F14D80022D0F84F
:1059700008C003461146B2EB9C0F24BF10BC704711
:1059800053F82140491C2244B1EB9C0FF8D3002A64
:1059900004BF10BC7047002010BC7047EB48FDF7F7
:1059A00095B9E949012048707047E749002008701F
:1059B00070472DE9F34FDFB000200F4647904E901F
:1059C0004D9072B6FCF7EFF90646FEF726F948B19E
:1059D000FEF7FDF94E90FEF7DAF9FEF7FEF94D906D
:1059E000FEF7E5F9FCF7EFF8FBF7FEFF5790FCF741
:1059F000F4F95690FBF7FAFFFDF7D8FE5590FDF746
:105A0000B9FE4FF49350FDF72AFE62B60022154608
:105A100030AC44F82250521C062AFAD3DFF83493F3
:105A200016F0020F4FF0010809D0CDF8C080D9F868
:105A300000004FF4046100F580400AF080FCC54A84
:105A400016F0010F44F64000126802EB000612D077
:105A50004FF4007130460AF072FC0120FAF76DFE37
:105A6000002818BFCDF8C8801120FAF766FE00287C
:105A700018BFCDF8CC80DFF8E0B2DFF8CCA23098C8
:105A800080B30020FBF74CFD00909BF800008DF8E0
:105A90000400B2480078012894BFB148B1480078AA
:105AA0008DF805000020FBF709FE002818BF4FF015
:105AB000FF3003908DF80670BAF80400ADF80800C6
:105AC0000020FBF7D7FCADF80A00D9F8000000F57C
:105AD00080400590D9F800000690D9F8000000F544
