:10000000434D43533554414703000000434D4A4993
:1000100054000000A01F0000A00500004E00540086
:10002000434D00000000000040250000A005000036
:100030004E004E0043530000000000004025000029
:10004000A00500004E0054000A000000C419000082
:10005000FFFFFFFFC819000020102010CC1900007E
:10006000FFFFFFFFD0190000FFFFFFFFD4190000C2
:10007000FFFFFFFFD819000005000000DC19000099
:10008000AC0DAC0DE0190000D80EFF0FE419000014
:1000900000000000E819000000000000434D0000CF
:1000A00000000000000014000000140038FFC80029
:1000B0007805280A7805280A2C01740E2C01740E84
:1000C0007805280A7805280AC0190000640D000088
:1000D00000010030080100300401003008700040C9
:1000E0000074004000400030800200005001000019
:1000F00000280000800200005001000000280000DD
:10010000800200005001000000280000E4289281D5
:1001100029504CD04717CACC4717CACC3825000005
:100120003C25000038FFC80038FFC800000200006E
:1001300054055F05510544053905300522051505AF
:100140000C05FC04EF04DE04CE04C204B804AD04C4
:10015000A6049A049404890481047C0477046F043F
:100160006A04670467046504700489045F04DB049F
:1001700046052405270522051C0517050B05000566
:10018000F904E904DD04CD04BE04B304AA049F0409
:1001900097048B0484047A0471046B0466045C0481
:1001A0005904520450044A044B044A044D041104F7
:1001B00021050B0512050E0509050605FC04F204D0
:1001C000EC04DD04D204C104B504A904A10496041E
:1001D0008E0482047A047204670462045D0452048B
:1001E0005004490446043F043E043B0437042604FB
:1001F0000A05FC0403050305FD04FA04F104E80400
:10020000E204D304C704B804AB04A00499048E0428
:1002100086047B047504690462045B0455044C0481
:100220004A04440440043904380434042E04090404
:10023000F504EB04F404F404F104EF04E704DD0432
:10024000D904CA04C004B104A5049B04930488041F
:1002500082047704710467045E045804520449045C
:1002600047043F043B04350434042E042804FC03F3
:10027000E004DC04E504E604E504E404DC04D4045E
:10028000D004C404B904AB049F0496048E0484040F
:100290007F0474046D0464045C0455044F04460434
:1002A00042043B04370430042F042A042304F403DB
:1002B000CA04CA04D604D904DB04DC04D604D0047E
:1002C000CE04C204B804AC04A004980492048804C8
:1002D000840479047304690461045B0455044C04C8
:1002E000480441043D043404340430042904F80370
:1002F000B404B904C604CA04CD04CF04CA04C604B5
:10030000C604BB04B304A6049B0494048D048404B3
:100310007F047504700467045E04590452044A049F
:1003200045043E043A04340431042D042704F80340
:100330009F04A804B704BD04C004C404C004BD04E1
:10034000BE04B504AE04A304990492048B04830490
:100350007F0475047004670461045C0457044E0450
:100360004A0442043E043704370431042B04FE03DC
:100370008D049A04A904B104B504BB04B804B504FF
:10038000B704AF04A9049F04960490048A0482046D
:100390007E0475047004670461045B0456044F0412
:1003A0004C04450441043A04380433042E04040484
:1003B000840491049F04A504A904AE04AB04A90419
:1003C000A904A1049C049304890484047F04780490
:1003D00074046A0467045E04580452044E0446041C
:1003E00045043E043A04330431042C042704020477
:1003F0006F048504920498049D04A2049F049D0444
:100400009F0497049304880482047C047904730491
:100410007004670462045A0453044E044A044204FC
:100420003F04390435042F042B0428042204070454
:1004300079047D0489048E0492049704940494043E
:1004400095048E048A0482047B04760473046D048C
:100450006C0464045E0457044F044C0447044004D5
:100460003D04360434042C042B042604240416040E
:1004700084047B04850489048D0492048F048F0412
:1004800094048C0487047F047904750471046B045C
:100490006A0462045D0455044F044C0447043F049D
:1004A0003B04360433042B042B04280429043C04A5
:1004B0008B0479047F048204850488048504850400
:1004C0008B0485048104790472046E046B04660451
:1004D00065045D04590453044C0449044604400473
:1004E0003D043704350430043104310440047304FE
:1004F000C4048F0485047F047E047F047A04790495
:100500007B0474046E0466045F045B0458045204A4
:100510004F04480445043E043904370435043004CC
:1005200031042D042F042F043C04550473042804C3
:10053000E108F308DD08C608B408A6088E087808A4
:100540006A084E0839081C080208EE07DE07CB07C8
:10055000C007AC07A1078F078107790771076307F9
:100560005C0756075607530765078F0749071708A3
:10057000CA08920896088E0884087B0867085608FF
:1005800049082F081B080008E807D507C607B30766
:10059000A70793078607760767075D075407440791
:1005A0003F07340730072607270726072B07C7060C
:1005B0008D08670873086C08650860084E083E08D7
:1005C00034081B080808ED07D907C507B707A407B3
:1005D000970784077607680757074E0745073407CC
:1005E000300724071F07130712070D070607EA063F
:1005F00066084E085A085A0851084C083D082E084B
:1006000023080A08F707DE07C707B607A9079707F1
:100610008A0777076D0759074E07430739072907E8
:1006200026071C071607090708070107F806B90679
:1006300043083308420842083C0839082B081B08C5
:100640001408FC07EA07D107BD07AD079F078E070F
:10065000830771076707570748073D0734072407D3
:10066000210713070D0703070107F706EE06A40687
:100670002008190829082A08280826081A080C083A
:100680000608F107DF07C707B307A4079707860720
:100690007F076C0761075207440739072F071F07B9
:1006A00018070D070707FA06F906F006E50696068D
:1006B000FB07FC071008150817081A080F0805089B
:1006C0000208EE07DE07CA07B607A8079E078D07D0
:1006D000860775076B0759074C07430739072A0731
:1006E00022071707110702070107FA06EF069E0601
:1006F000D607DF07F407FC0700080308FC07F40728
:10070000F407E307D507C007AD07A10795078607DC
:100710007E076D076507560747073F07340726071B
:100720001D0712070B070107FD06F506EB069D06E0
:10073000B307C207DB07E507EA07F207EA07E507A1
:10074000E707D907CC07BB07A9079E0793078507CB
:100750007F076D07660757074C0744073B072C07C1
:1007600026071807120707070607FD06F206A80660
:100770009507AC07C507D107D807E207DD07D907FA
:10078000DB07CE07C407B307A4079A0790078307C0
:100790007C076D07650757074C0743073A072E0785
:1007A00029071D0717070C070807FF06F706B106FC
:1007B00086079C07B307BD07C407CC07C707C40754
:1007C000C507B707AE079F078F0786077F07720722
:1007D0006C075C07560748073E0733072C072007BE
:1007E0001D0712070B07FF06FC06F406EB06AE0614
:1007F000630789079E07A807B007B807B307B107C3
:10080000B307A6079F078E0783077A0774076A074F
:10081000650756074E07400735072C0726071807B8
:10082000130709070307F906F306ED06E306B60604
:1008300074077B078F0798079E07A607A207A107E3
:10084000A307980790078407770770076A07600770
:100850005E07510747073B072F07290721071607A0
:10086000110704070107F406F206EA06E606CF06BA
:100870008607770788078F0795079E0799079907C7
:10088000A10794078B077F0774076D0767075D074C
:100890005C074E07450739072E072A07210713076C
:1008A0000D070407FF06F306F206ED06EF060E0736
:1008B000920774077E07830788078E0789078907D1
:1008C0009207880781077407680762075D07540766
:1008D000530745073F073507290725072007150751
:1008E000100707070307FA06FC06FD0616076A0746
:1008F000F107990789077F077C077E07760774074A
:1009000077076C0762075407490743073D0733071A
:100910002E0722071D071207090706070307FA0615
:10092000FC06F506F906F9060E0739076A07ED0613
:10093000AC0D9411AC0D9411040000000C10BC1906
:100940000C805C0DEB070000F2FE0000F740047025
:10095000C67482072F6707002662A1362471F2F958
:10096000E1F000000470C67482062F670200913621
:100970002471F2FAE1F000003C101000D1C106E24F
:1009800006D3EB4C00003870680D57E126E7B1DE66
:1009900050C12C101000E1F0773104701461343133
:1009A000C6368205305224242675F2FA0627E1F075
:1009B0003C102000D9C11000D18108C0003006A22F
:1009C00004D00CB06C0D2CC00040307B069B187717
:1009D0000900C6D7321904E0307918370800C6E399
:1009E0003211062DCB690000262E06725771267C27
:1009F00030772F620200266A5C70FF0FA17624E137
:100A0000F2EC24D1F2E358C1100050812C102000E8
:100A1000E1F00000341466320421B1F10B02000051
:100A20008B4C0000042006320B02000030F124142D
:100A3000E1F000003C10180008700030D9C1080037
:100A40002C700001B970680D0C70C0190421B970C8
:100A50006C0DC1A1CB4B0000EB4C00003870680D51
:100A60000420B10738706C0D38D0680D203708C0ED
:100A700070140B030000B92D0800386D0800B96030
:100A8000402508700001B97D0C0008B07D1E08D01B
:100A90007D0E0CA0D0CD2B4E00002CC070992CB038
:100AA00070C726AD3870680D086001003077D676C3
:100AB0008205062C0430EB0600003870680D3067A4
:100AC000D46192043067D462820B30275423AB2563
:100AD000000006320C2070C7262DEB06000038609F
:100AE000680D3076DC701000820A30265C20100021
:100AF000AB2500000632062BEB0600003860680DBF
:100B00003076DC702000820D30265C202000AB2582
:100B10000000063208207D7E2C2070C7EB06000006
:100B20003870680D3077DC70000182094B3B0000A3
:100B300006320C2000C5262DEB0600003870680D2B
:100B4000086000013077D67682096B4000000632DB
:100B50000C207021262DEB0600003870680DB07750
:100B600032A2062A0431EB060000F29D0840003054
:100B70000C70285F08503F000C30385F0C60B00DDF
:100B800026742C50FFFF142126343047B1463847D5
:100B900010005645B9460400B107B9071000B9273F
:100BA0008000B95790002474C673246892EFE1F076
:100BB000087000802C701F00D672320634711C60E1
:100BC00020006676247186220461536732032C204C
:100BD0001F00E72257210C50B00D26520420067248
:100BE000D77126753077D67692052421C42492F8E1
:100BF0001421E1F0C440573108700030821ACC2033
:100C00001F00120B0C50285F2657046126535362B5
:100C1000B1652C70A85FF20A0C50385F265704614A
:100C200026535362B1652C70B85F26731566F218AF
:100C30000C60285F26672663B1060C60A85F2667F4
:100C400026631451B1560C60385F26672663B106DF
:100C50002C70B85F08603F0026732C60FFFFB167FF
:100C6000E1F00000066208700010E7612C70271D9B
:100C70003C1010002676D1C1577130E7152257215C
:100C800073E20870003054EF2C70085CD7312FD716
:100C90000300062E04356B570000572126D2043579
:100CA000062E7B69000030DD2F72020026272622E7
:100CB00073D2062D50C15C203F002C101000E1F0D3
:100CC0003C102000D9C11000D18106B2AB11000048
:100CD0000C20402504300C40A00508C000306B01FA
:100CE00000002CC0004004E0062ECB13000014715D
:100CF000C62706D2920B24E1CCE0360092F658C10A
:100D0000100050812C102000E1F0063D0441062E19
:100D1000EB15000004252B510000063D062E044073
:100D2000EB150000063D062E6B19000038A06C0D77
:100D3000068204D00C904025187A0900C6D732DC10
:100D4000183A0800062DCB69000026280672577154
:100D50002F620200267C2F560B00307720555C70E6
:100D6000FF0FC6752669B203A106F2033675A17698
:100D700024D1F2E33C102000D18106B20425D9C170
:100D800010002B51000038A06C0D08C0003004D0BA
:100D90002CC000400C904025187A0900C6D7B2201C
:100DA00004E0183A0800C6E3B219062DCB6900002A
:100DB000262E067257712F620200267C2F560B00DA
:100DC000307720555C70FF0FC6752669B203A10607
:100DD000F2033675A17624E1F2E524D1F2DE58C1A2
:100DE000100050812C102000E1F000003C10140095
:100DF000D9C1040006E204204B5600000B5200004B
:100E00000621AB55000004252B510000062E8B5304
:100E10000000062D0C20001ACB030000C4E2062DB2
:100E20009207062D0C20001AEB210000F218CCE0EE
:100E30001000920638706C0D38672400F208CCE080
:100E40002000920938706C0D386728000870003057
:100E5000B967AC630C20001A4B1C000058C1040099
:100E600004202C101400E1F03C102400D98104006F
:100E700038B06C0DD9C1140004E006A2069306CE6A
:100E80000451187B0900C6C7322204D0183B080061
:100E9000C6D3321B062CB151CB690000262D384039
:100EA0006C0D30512F7202002F670A002066283423
:100EB0002200C636A20528442000C646C204267970
:100EC000A15724E124D1F2E324C1F2DC062E58C15B
:100ED0001400588104002C102400E1F038706C0DCF
:100EE0000460183709001877080014412637067681
:100EF000C673320D2F57070026522055C656D2030F
:100F00000656F202064724710665F2F30624E1F064
:100F10003C101400D9C1040038D06C0DB1B106C228
:100F2000187D0900C637320F18ED08000623063E6B
:100F3000CB6900002622262C04302F4E0E00AB0079
:100F40000000F2133FB7030004E0187D0900C6E774
:100F5000320C183D0800062ECB690000262B2622F5
:100F6000262CA10224E1F2F258C1040030B12C1069
:100F70001400E1F03C102000D9C1100038E06C0DE5
:100F8000D18106A3184E0900187E08000692264754
:100F9000062326440430AB00000006BA04C0187EC5
:100FA0000900C6C7321F04D0183E0800C6D3321746
:100FB000062CCB690000262D262226292072C4711A
:100FC000920C207B2471A17B187E0900267D267758
:100FD000267A20672461A16724D1F2E724C124B2D4
:100FE000F2DF58C1100050812C102000E1F0000009
:100FF0003C102000D9C1100006C20430062E0C207F
:10100000001A0C40A00538D06C0DD181AB00000057
:10101000062B0C20A01F04300C40A005AB000000E4
:10102000062C063E0C30001A8B2900000470C627DF
:1010300006CE0231069E0C90001A185D0800186D4D
:10104000090004A12665C67626A73225062C0C20A9
:10105000001A063B0C30A01FEB310000062B0C20C1
:10106000A01F2B2D000086E222160629063ECB2E5D
:101070000000187D0900C6E732043850600DF20404
:1010800038505C0D36E730750461536E6676B17585
:10109000067AF2D458C1100050812C102000E1F0E3
:1010A0003C102000042AD9C11000D1812B5100002E
:1010B00004204B5600000B52000004252B51000069
:1010C000062D0C204025CB0300000C2000018B5383
:1010D000000004252B510000062B0C20001ACB0326
:1010E000000038C06C0D04E006AD0CA040250CB02B
:1010F000001A0C90FF0F182C0800183C0900CB694F
:101100000000C6E232132F5E0E002F650A00265B38
:10111000204620753F770400C470320216773F776F
:10112000090024E1A17623EEF2E7062D0C204025EC
:10113000CB35000058C11000508104202C10200035
:10114000E1F0000038706C0D3C1034000C601800A9
:10115000D9C124002667D9811400206618E7080049
:10116000B96104000469266710660C20001A0C306F
:10117000FF0F0C40A005B9610800AB00000004306F
:101180000C40A0050C20A01FAB00000004204B5613
:1011900000000621AB550000042A2B5100003071DD
:1011A00008C00030B97C4466066E067E267E576114
:1011B000B9710C00B961100004D02CC00040386136
:1011C0000400C6D6220938C06C0D04D00CB0A01F94
:1011D0000CA0001AF2370450064506353871080095
:1011E000C637322A04700CA0A01F0CB0001A0627C4
:1011F0002F9C050026A426B4C62E32162F670700A2
:10120000266930662FF70A00208F5C60FF0FC686C4
:10121000B202A16F2FF70B00208FC686C202A16F0A
:1012200024212472F2EA38710C0038611000243154
:1012300026472656F2D404212B51000024D1F2C0B7
:1012400024D1187C0900C6D7321504E0183C0800E8
:10125000C6E332F7062DCB690000262E26222F7218
:101260000B00262A2057206224E13F660500A16773
:10127000F2EE58C124005881140004202C103400D0
:10128000E1F0000008700040C43038675410065781
:10129000820406766672F203157256760860ADDE39
:1012A0002C607040B9650010B9755410E1F0000071
:1012B000C4200C70100082030C70A0000860004075
:1012C000B9767410E1F00000046108700040B9675D
:1012D0007010E1F00860003038762800D47492FD78
:1012E000E1F0000034140C707800B17130711461B9
:1012F000C4702667B16192FB2414E1F034180C200D
:1013000000200431C1E16B4A00006B4D000008E091
:101310000040387E60740860F9FF2C60FEFF56764E
:101320006471B97E60746B4D00000C700940B97E29
:10133000047040E12418E1F008700040386708703C
:10134000B96708700461B9670070E1F00860004097
:1013500038760870D47182FDE1F000003418C1E1E4
:1013600006E2C4E082070B500000AB50000034E1FD
:10137000F2F940E12418E1F0085000300C706C657F
:101380000860FFCF26750C20700D2C60949A2C50AD
:10139000AC6530372F4207002646B134B1072474BC
:1013A000C67592F8E1F000000850003034140C705B
:1013B0006C650860FFCF0C30AC65B1F12675342147
:1013C0000C40700D2C60949A08F0FFFF2635C42164
:1013D0002F57040026563055C202565FB157247469
:1013E000C67392F630F12414E1F00000087000306A
:1013F00038674466B1626462B9674466E1F0000030
:1014000008700040C4203867F87482070850BFFF96
:101410002C50FFFF5665F204085040006665B9671E
:10142000F874E1F00440A6222544C643BA9E0000A9
:10143000A6222544C643BA9D0000A6222544C643E1
:10144000BA9C0000A6222544C643BA9B0000A622EF
:101450002544C643BA9A0000A6222544C643BA9939
:101460000000A6222544C643BA980000A6222544BF
:10147000C643BA970000A6222544C643BA96000088
:10148000A6222544C643BA950000A6222544C64399
:10149000BA940000A6222544C643BA930000A622AF
:1014A0002544C643BA920000A6222544C643BA91F9
:1014B0000000A6222544C643BA900000A622254477
:1014C000C643BA8F0000A6222544C643BA8E000048
:1014D000A6222544C643BA8D0000A6222544C64351
:1014E000BA8C0000A6222544C643BA8B0000A6226F
:1014F0002544C643BA8A0000A6222544C643BA89B9
:101500000000A6222544C643BA880000A62225442E
:10151000C643BA870000A6222544C643BA86000007
:10152000A6222544C643BA850000A6222544C64308
:10153000BA840000A6222544C643BA830000A6222E
:101540002544C643BA820000A6222544C643BA8178
:101550000000A6222544C643BA800000A6222544E6
:10156000C643BA7F0000E1F036432421FA62FFFF50
:1015700036432421FA63FFFF36432421FA64FFFF38
:1015800036432421FA65FFFF36432421FA66FFFF24
:1015900036432421FA67FFFF36432421FA68FFFF10
:1015A00036432421FA69FFFF36432421FA6AFFFFFC
:1015B00036432421FA6BFFFF36432421FA6CFFFFE8
:1015C00036432421FA6DFFFF36432421FA6EFFFFD4
:1015D00036432421FA6FFFFF36432421FA70FFFFC0
:1015E00036432421FA71FFFF36432421FA72FFFFAC
:1015F00036432421FA73FFFF36432421FA74FFFF98
:1016000036432421FA75FFFF36432421FA76FFFF83
:1016100036432421FA77FFFF36432421FA78FFFF6F
:1016200036432421FA79FFFF36432421FA7AFFFF5B
:1016300036432421FA7BFFFF36432421FA7CFFFF47
:1016400036432421FA7DFFFF36432421FA7EFFFF33
:1016500036432421FA7FFFFF36432421FA80FFFF1F
:1016600036432421E1F0066F6B5700000624E16049
:10167000C430044004500C6020005203A6422550A0
:10168000B4610206A6442555A63342F9F2FA0624AF
:101690000635E1F03C25000038250000010000007F
:1016A000B94000008F48120000000000161C1020F6
:1016B000060604040404020200000000000000000A
:1016C00000000000101F020410100101007DFF0F38
:1016D0001300C43000F0FFA054F40100FA006400CD
:1016E000020810100F080000515501000200000010
:1016F000551A600100F0FF00800F800F800F00007E
:1017000041010000000000001400000008079808D4
:1017100008079808080798080918300060000000BA
:1017200020004200320032000000000000000000F3
:101730000040000000000000000000000000000069
:10174000000000A010201020FF0FFF0F000000007D
:1017500000000000000000000000000050005000E9
:1017600050005000500050000500000003420042AD
:10177000808848000000000096E001200000000082
:10178000000043000000000000F0FF0000F0FF0038
:101790002AC8000020201000000000000000000007
:1017A0000000000000000000000000000000000039
:1017B0000000000000000000000000000000000029
:1017C0000000000000000000000000000000000019
:1017D0000000000000000000000000000000000009
:1017E00000000000000000000000000000000000F9
:1017F00000000000000000000000000000000000E9
:1018000000000000000000000000000000000000D8
:1018100000000000000000000000000000000000C8
:1018200000000000000000000000000000000000B8
:1018300000000000000000000000000000000000A8
:101840000000000000000000000000000000000098
:101850000000000000000000000000000000000088
:101860000000000000000000000000000000000078
:101870000000000000000000000000000000000068
:101880000000000000000000000000000000000058
:101890000000000000000000000000000000000048
:1018A0000000000000000000000000000000000038
:1018B0000000000000000000000000000000000028
:1018C0000000000000000000000000000000000018
:1018D00000000000000000000E6800000000000092
:1018E0000000000000000000100000000A000000DE
:1018F00010101010101010101010101010101010E8
:101900001010101000000000000000000000000097
:101910000A0A0A0A0A0A0000000000000030050452
:10192000FFFCF30F0000F00F4523014200000067A9
:10193000FFFCF30FFFFCF30F0000000000000000AD
:101940000000000000000000000000000000000097
:101950000000000000000000000000000000000087
:101960000000000000000000000000007D000000FA
:101970007D0000005000000001000020B5000100C3
:101980000000000011010000000000000000000045
:1019900000000000211A1A000204040000400402A2
:1019A0000000000000000000000000000000000037
:1019B0000000000000336300452301FF4523016759
:1019C000230167FF2301674565F7674565072143E5
:1019D000000F21430000000000000000FFFFFFFF98
:1019E000FFFF3F00000000000000000000000000BA
:1019F0000000000000000000FFFFFFFFFFFF3F00AE
:101A000000000000000000000000000000000000D6
:101A10000000000000000000D0070000D007000018
:101A2000D0070000B5000100B5000100B5000100BD
:101A3000B5000100B5000100B50001000000000084
:101A4000000000000000000000000000B5000100E0
:101A5000B5000100B5000100B5000100B5000100AE
:101A6000B5000100B5000100B500010028CEFC1D45
:101A700070EE48EE7DEE44EE5FEEFEAD28EE3EAE3B
:101A800037EE246EF2ED30EEF5ED0BCEF5EDADBD9B
:101A900022EEFD9D31EE030E12EEBCADD2EDF7ADA0
:101AA000DCEDD85D9BEDEACD98EDBE9D88ED5C7DCB
:101AB000BCEDB62DCFEDBFCDBAED7DCD80EDBA0D2D
:101AC00090ED9CDD51EDB08D4BED7D8D43ED1ACD4C
:101AD00084ED7F8D9EED900D92ED5BDD76EDB21D78
:101AE000AEEDC3AD55CDBD2D3F8E9FAEEFEDB14DEB
:101AF00007EEDD0D2CEEF30D18EEB96DE1EDFA8D6C
:101B0000F6EDE82DB5EDF5BDBCEDD57DBDED7DADBA
:101B1000ECEDD05DFEEDD5FDE2ED91BDA2EDCB7D0E
:101B2000ADEDAC2D6EEDBCDD6CED91CD57ED30ED36
:101B300086ED8A0DA1ED93ED8DED540D56ED8F5D83
:101B400064ED721D27ED82DD1FED51DD19EDE9EC2D
:101B500055ED499D69ED552D56ED1BDD28ED5F2DA9
:101B600039ED450D0CED6E5DD8CC105DC7ED7F1DD8
:101B7000F0EDC07D15EED65D04EE9FEDCBEDE1AD51
:101B8000E3EDD25D9EEDE28DA9EDC29DA6ED6C0D5B
:101B9000D8EDBEADE6EDC56DC9ED821D8DEDB93D4B
:101BA00099ED9CFD5BEDAC9D59ED828D49ED1C3DA1
:101BB00079ED774D92ED815D7EED432D47ED7E6DA4
:101BC00056ED622D17ED74BD11ED40ED0DEDDF3CCE
:101BD00049ED3FAD5DED4A4D48ED0EED16ED4F3D43
:101BE00026ED34FDE8EC4B7DF2EC2B4DB1ED670DAD
:101BF000E0EDAB8D07EEC74DF6ED92ADBFEDD47DB8
:101C0000D6EDC42D90EDD29D9AEDB54D95ED5E1DAE
:101C1000C7EDB1EDD7EDB79DBCED771D81EDAD2DD5
:101C20008BED91CD4FEDA18D4FED776D44ED180DFE
:101C30007AED70BD8EED7A5D7AED3D0D40ED764D1D
:101C40004EED5A1D0FED69DD07ED39CD03EDD3ECF7
:101C500040ED349D51ED3F2D3EED03CD0AED44EDB9
:101C600017ED28CDDBEC3D5DC6ECFE5C91ED4FAD94
:101C7000C7ED9B3DEFEDB80DE1ED82BDADEDC66D5D
:101C8000C3EDB6ED82EDC67D8DEDA94D87ED50AD6E
:101C9000BCEDA48DCCEDAD2DB1ED6ACD78EDA4FDFC
:101CA00082ED889D48ED9A6D48ED715D45ED126DB0
:101CB0007BED6C2D8EED75DD78ED378D3DED719DF5
:101CC0004AED555D0BED660D04ED35EDF8ECD18C6C
:101CD00035ED303D49ED3AED36EDFFCC04ED3FFDFD
:101CE00011ED24BDD4EC384DB4ECEB4C79ED37ADAF
:101CF000B3ED88FDDDEDA50DCEED739D9CEDB58DAD
:101D0000B4EDA71D72EDB84D80ED9D0D82ED463D01
:101D1000B6ED9BDDC8EDA3ADADED624D74ED9C6DF0
:101D20007FED80ED41ED928D42ED697D3BED0B7DC8
:101D300073ED66ED87ED6FCD6FED327D36ED6B9D0A
:101D400044ED503D05ED61DDFFEC2FDDF2ECCD9C67
:101D500032ED2D5D42ED390D2FEDFBDCFEEC3C0D3F
:101D60000DED1FCDCFEC324DAAECE15C58ED197DA5
:101D700096ED70CDC2ED8F9DB7ED5F5D8BEDA66DDD
:101D8000A5ED981D68EDAC9D75ED943D7FED414D41
:101D9000B2ED96CDC6EDA09DACED623D72ED9B4DD2
:101DA00080ED80DD44ED949D45ED6D8D42ED103D5F
:101DB00077ED69DD8DED73AD76ED347D3BED6E9D98
:101DC0004AED532D0AED66DD04ED36ADF2ECCF9C05
:101DD00031ED2E7D44ED3BFD31EDFF9C02ED3FFDED
:101DE0000EED22EDD2EC374DACECE2AC3CED012D2A
:101DF0007DED59BDABED79CDA4ED4A5D79ED936DE7
:101E000092ED87FD58ED9E8D68ED881D76ED3A0DBB
:101E1000ABED8FBDBEED9A9DA7ED5A5D6CED943D87
:101E200079ED79DD3CED8DAD3EED676D33ED07DD90
:101E300069ED626D7DED6A8D68ED2DFD31ED6A2DE8
:101E400041ED4E0D04ED618DFEEC318DF2ECCC5C7C
:101E500030ED2B1D43ED35ED2FEDFB7CFEEC3CCD45
:101E60000EED1FADD0EC351DAAECE16C2BEDEA4C6C
:101E700070ED46DDA1ED6ACD98ED3B7D6CED854DB5
:101E800089ED7B0D4CED915D5DED7D0D6CED2E0DC5
:101E9000A2ED84BDB7ED91BDA0ED524D65ED8E4D27
:101EA00075ED75CD38ED897D3BED646D33ED053D08
:101EB00068ED5EED7FED6A9D6AED2D5D33ED6B7D26
:101EC00042ED4F5D04ED63ADFFEC33BDF7ECCEBCEE
:101ED00034ED2E7D47ED3C0D34EDFF9C02ED3F0DC2
:101EE00010ED23CDD3EC364DAEECE84C10EDD29C8A
:101EF0005CED34CD8DED57ED88ED299D5BED766D74
:101F000079ED6D1D3FED854D50ED710D59ED206D55
:101F100091ED796DA9ED865D93ED490D5DED863D01
:101F20006BED6DDD31ED845D36ED5F5D2DED05AD65
:101F300066ED5F5D7BED6B4D67ED2D0D31ED6A3D1F
:101F400040ED4F3D04ED62ADFEEC339DF8ECCFDC8F
:101F500035ED2EBD48ED3D4D35ED00ED02ED3F2D4B
:101F600012ED242DD4EC396DB3ECEC7C0BEDCE7C72
:101F700051ED2DCD81ED50ED7AED1EDD4EED69ED8B
:101F80006BED609D2FED761D41ED62BD46ED129D1E
:101F90007FED6A8D97ED784D82ED3B1D4BED792DF0
:101FA0005CED5FED23ED764D27ED523D1F6DF2FCAC
:101FB000556D4E7D6B6D5D3D586D1E2D256D5B5DC8
:101FC000356D422DF86C55CDF36C26DDEB6CC72CCE
:101FD0002A6D25DD3D6D347D296DF74CF76C378D0D
:101FE000066D1B8DCB6C302DAF6CEA3CEA6CAD8C72
:101FF0003F6D1DBD6E6D3ECD656D107D3C6D5A6DA6
:10200000576D4EFD1E6D663D306D53DD3A6D054DCD
:10201000726D5B6D8B6D6BFD776D2EDD406D6CFDB4
:10202000516D54AD176D6B6D1D6D484D186DECAC59
:102030004E6D472D676D55ED536D18DD1C6D55BD0B
:102040002C6D397DF16C4EEDEC6C21CDE46CC0DC77
:10205000226D218D366D300D226DF2CCF26C321D69
:10206000FF6C15DDC56C2B5DB56CF03CF16CBA6C8A
:102070002E6D119D5C6D338D526D034D296D4D4D4F
:10208000466D40CD0D6D584D226D46CD2A6DF6EC56
:10209000626D4FAD7A6D606D686D232D336D632D6C
:1020A000436D4ADD0A6D634D116D404D0F6DE5FCCA
:1020B000486D40BD5F6D4E7D4C6D123D176D4E7D80
:1020C000276D352DEB6C49ADE76C1CBDDE6CB98C12
:1020D0001C6D186D306D261D1F6DE9DCEE6C2BFD3F
:1020E000FD6C11BDC46C2C3DC36CFF4C016DD12C3B
:1020F0002D6D168D576D337D4D6DFF5C236D4A6DD3
:10210000406D3E2D046D52BD186D3F7D266DF41C53
:102110005F6D4AFD786D5ACD626D1EBD2C6D5DBD43
:102120003F6D466D046D5D0D0A6D3BDD0A6DE21C71
:10213000436D3C9D5B6D4B5D476D0E5D0F6D4B4D73
:10214000226D311DE36C467DE26C198DD26CB56C4D
:10215000136D162D276D23AD176DE79CE86C29DDF7
:10216000F96C119DC76C320DF06C32BD116DE05CE5
:10217000346D1A9D586D328D4D6DFB6C1E6D457D15
:10218000396D381DFC6C4D9D106D396D1E6DF24C16
:10219000576D4A0D716D58DD5E6D1D9D276D5B9D00
:1021A000386D444DFD6C58ED066D39DD026DDB5C1C
:1021B0003B6D371D546D45CD406D09AD0D6D47FD2F
:1021C0001F6D307DE26C455DE16C1A3DD46CBAEC5C
:1021D000156D1C8D2A6D2B1D1A6DEE3CEF6C366D46
:1021E000066D230DE76C599D485D95ED8A5D6CED9C
:1021F0006F6D5FCD7A6D5BFD606D170D2D6D582D88
:10220000436D469D006D563D116D40DD166DF2EC3F
:102210004E6D49CD646D567D506D1A2D1B6D566DFA
:102220002A6D3EDDF06C518DF86C315DF36CD04C55
:102230002B6D2B0D426D39CD336DFBDCFD6C3BDD21
:102240000F6D249DD46C3C1DD36C102DD36CB4FC4D
:10225000146D189D2F6D2E1D246DF8FC056D4F2DEE
:102260003E6D628D465DC2AD2A0D842DFF6FDC0789
:10227000FF6FCE07FF6FCB07FF6FD607FF6FE90732
:10228000FF6FEA07FF6FC207FF6FE807FF6FE60700
:10229000FF6FD507FF6FCF07FF6FCA07FF6FC50737
:1022A000FF6FC607FF6FE807FF6FE807FF6FCB07F9
:1022B000FF6FB607FF6FCD07FF6FD207FF6F99075C
:1022C000FF6FA007FF6F8F07FF6F8707FF6F7F0705
:1022D000FF6F9807FF6F7C07FF6F7D07FF6F940705
:1022E000FF6FB607FF6FA207FF6F9307FF6FA90786
:1022F000FF6F9207FF6FCF07FF6F9C07FF6FB40759
:10230000FF6FA407FF6FB207FF6FB307FF6F9D0753
:10231000FF6F9F07FF6FAA07FF6FA307FF6FC40739
:10232000FF6FE407FF6FC707FF6FB407FF6FE20798
:10233000FF6FEA07FF6FE607FF6FCE07FF6FC70764
:10234000FF6FC907FF6FCC07FF6FCE07FF6FD9077D
:10235000FF6FDA07FF6FE407FF6FC807FF6FCB0758
:10236000FF6FE507FF6FE907FF6FC907FF6FFA0708
:10237000FF6FE007FF6FC607FF6FC907FF6FEA0730
:10238000FF6FDC07FF6FED07FF6FD807FF6FD50703
:10239000FF6FDD07FF6FF407FF6FDF07FF6FA30716
:1023A000FF6F9B07FF6FB107FF6FA807FF6FE8077D
:1023B000FF6FAD07FF6FEC07FF6FC107FF6FC1072E
:1023C000FF6FB207FF6FCE07FF6FC707FF6FC5072D
:1023D000FF6FAE07FF6FB007FF6FB907FF6FB3075F
:1023E000FF6FC907FF6F9507FF6FCF07FF6FD70715
:1023F000FF6FB207FF6FB807FF6FD707FF6FDB07ED
:10240000FF6FB007FF6FB907FF6FC9076862680207
:10241000696269026A626A026B626B026C626C02D8
:102420006D626D026E626E026F626F0270627002A8
:102430007162710272627202736273027462740278
:102440007562750276627602776277027862780248
:10245000796279027A627A027B627B027C627C0218
:102460007D627D027E627E027F627F0280628002E8
:1024700081628102826282028362830284628402B8
:102480008562850286628602876287028862880288
:10249000896289028A628A028B628B028C628C0258
:1024A0008D628D028E628E028F628F029062900228
:1024B00091629102926292029362930294629402F8
:1024C00095629502966296029762970298629802C8
:1024D000996299029A629A029B629B029C629C0298
:1024E0009D629D029E629E029F629F02A062A00268
:1024F000A162A102A262A202A362A302A462A40238
:10250000A562A502A662A602A762A702A862A80207
:10251000A962A902AA62AA02AB62AB02AC62AC02D7
:10252000AD62AD02AE62AE02AF62AF02B062B002A7
:10253000B162B102B262B202B362B302B462B40277
:10254000B562B502B662B602B762B702B862B80247
:10255000B962B902BA62BA02BB62BB02BC62BC0217
:10256000BD62BD02BE62BE02BF62BF02C062C002E7
:10257000C162C102C262C202C362C302C462C402B7
:10258000C562C502C662C602C762C702C862C80287
:10259000C962C902CA62CA02CB62CB02CC62CC0257
:1025A000CD62CD02CE62CE02CF62CF021F1F1F1FAF
:1025B0001F1F1F1F1F1F1F1F1F1F1F1F1F1F1F1F2B
:1025C0001F1F1F1F1F1F1F1F1F1F1F1F1F1F1F1F1B
:1025D0001F1F1F1F1F1F1F1F1F1F1F1F1F1F1F1F0B
:1025E0001F1F1F1F1F1F1F1F1F1F1F1F0808080857
:1025F000080808080808080808080808080808085B
:10260000080808080808080808080808D00D8D0DF3
:102610007B0D6F0D640D5B0D580D4E0D4A0D430D76
:10262000350D2A0D210D1E0D200D260D5E0D920D6E
:10263000BA0DAC0D7C0D950D560D650D6B0DA00DF5
:10264000B40D9C0D630D710D350D380D300D660DFB
:102650007C0D680D310D400D030DFE0CF40C330D97
:10266000470D350D070D1B0DE50CE60C86038B039E
:102670000000000000000000F0F0F0F0F0F0F0F0DA
:10268000F0F0F0F0F0F0F0F0F0F0F0F0F0F0F0F04A
:10269000F0F0F0F0F0F0F0F0F0F0F0F0F0F0F0F03A
:1026A000F0F0F0F0F0F0F0F0F0F0F0F0F0F0F0F02A
:1026B000F0F0F0F0F0F0F0F0F0F0F0F0F0F0F0F01A
:1026C000F0F0F0F0F0F0F0F0F0F0F0F0F0F0F0F00A
:1026D000F0F0F0F0F0F0F0F0F0F0F0F0F0F0F0F0FA
:1026E000F0F0F0F0F0F0F0F0F0F0F0F0F0F0F0F0EA
:1026F000F0F0F0F0F0F0F0F0F0F0F0F0F0F0F0F0DA
:10270000F0F0F0F0F0F0F0F0F0F0F0F0F0F0F0F0C9
:10271000F0F0F0F0F0F0F0F0F0F0F0F0F0F0F0F0B9
:10272000F0F0F0F0F0F0F0F0F0F0F0F0F0F0F0F0A9
:10273000F0F0F0F0F0F0F0F0F0F0F0F0F0F0F0F099
:10274000F0F0F0F0F0F0F0F0F0F0F0F0F0F0F0F089
:10275000F0F0F0F0F0F0F0F0F0F0F0F0F0F0F0F079
:10276000F0F0F0F0F0F0F0F0F0F0F0F0F0F0F0F069
:10277000F0F0F0F0F0F0F0F0F0F0F0F0F0F0F0F059
:10278000F0F0F0F0F0F0F0F0F0F0F0F0F0F0F0F049
:10279000F0F0F0F0F0F0F0F0F0F0F0F0F0F0F0F039
:1027A000F0F0F0F0F0F0F0F0F0F0F0F0F0F0F0F029
:1027B000F0F0F0F0F0F0F0F0F0F0F0F0F0F0F0F019
:1027C000F0F0F0F0F0F0F0F0F0F0F0F0F0F0F0F009
:1027D000F0F0F0F0F0F0F0F0F0F0F0F0F0F0F0F0F9
:1027E000F0F0F0F0F0F0F0F0F0F0F0F0F0F0F0F0E9
:1027F000F0F0F0F0F0F0F0F0F0F0F0F0F0F0F0F0D9
:10280000F0F0F0F0F0F0F0F0F0F0F0F0F0F0F0F0C8
:10281000F0F0F0F0F0F0F0F0F0F0F0F0F0F0F0F0B8
:10282000F0F0F0F0F0F0F0F0F0F0F0F0F0F0F0F0A8
:10283000F0F0F0F0F0F0F0F0F0F0F0F0F0F0F0F098
:10284000F0F0F0F0F0F0F0F0F0F0F0F0F0F0F0F088
:10285000F0F0F0F0F0F0F0F0F0F0F0F0F0F0F0F078
:10286000F0F0F0F0F0F0F0F0F0F0F0F0F0F0F0F068
:10287000F0F0F0F0F0F0F0F0D0D0D0D0D0D0D0D058
:10288000D0D0D0D0D0D0D0D0D0D0D0D0D0D0D0D048
:10289000D0D0D0D0D0D0D0D0D0D0D0D0D0D0D0D038
:1028A000D0D0D0D0D0D0D0D0D0D0D0D0D0D0D0D028
:1028B000D0D0D0D0D0D0D0D0D0D0D0D0D0D0D0D018
:1028C000D0D0D0D0D0D0D0D0D0D0D0D0D0D0D0D008
:1028D000D0D0D0D0D0D0D0D0D0D0D0D0D0D0D0D0F8
:1028E000D0D0D0D0D0D0D0D0D0D0D0D0D0D0D0D0E8
:1028F000D0D0D0D0D0D0D0D0D0D0D0D0D0D0D0D0D8
:10290000D0D0D0D0D0D0D0D0D0D0D0D0D0D0D0D0C7
:10291000D0D0D0D0D0D0D0D0D0D0D0D0D0D0D0D0B7
:10292000D0D0D0D0D0D0D0D0D0D0D0D0D0D0D0D0A7
:10293000D0D0D0D0D0D0D0D0D0D0D0D0D0D0D0D097
:10294000D0D0D0D0D0D0D0D09B2002008E2002009A
:102950008F200200872002008320020081200200D5
:1029600075200200752002008520020086200200EA
:1029700088200200812002007B2002007A200200D1
:10298000702002006F2002007C2002007E200200E6
:1029900081200200792002007620020075200200CA
:1029A0006C2002006B2002007720020079200200D8
:1029B0007B200200762002007520020077200200B2
:1029C0007B200200E5200200872002008720020011
:1029D00089200200832002007D2002007C2002006A
:1029E0007220020072200200812002008320020077
:1029F000842002007C200200782002007720020060
:102A00006D2002006D200200792002007B20020070
:102A10007D20020076200200732002007220020056
:102A20006920020068200200732002007520020065
:102A300077200200712002006F2002006E20020049
:102A4000672002007120020083200200842002001F
:102A500087200200812002007B2002007B200200F0
:102A600071200200702002007E20020081200200FE
:102A7000832002007B2002007720020075200200E4
:102A80006C2002006B200200782002007A200200F5
:102A90007B200200752002007220020071200200DB
:102AA00067200200672002007220020074200200EA
:102AB000762002006F2002006D2002006D200200CF
:102AC00065200200642002008120020083200200B1
:102AD000852002007E2002007A2002007920020078
:102AE0006F2002006F2002007D2002007E20020085
:102AF000822002007A200200762002007520020067
:102B00006B2002006B200200772002007920020077
:102B10007B20020074200200712002006F2002005E
:102B2000672002006620020071200200732002006C
:102B3000752002006F2002006D2002006B20020051
:102B400063200200612002007D200200812002003B
:102B5000842002007D2002007920020078200200FB
:102B60006E2002006E2002007C2002007E20020007
:102B700081200200792002007520020074200200EA
:102B80006B2002006A2002007620020078200200FA
:102B90007A20020073200200712002006F200200E0
:102BA00067200200662002007120020073200200EC
:102BB000752002006F2002006C2002006B200200D2
:102BC000632002005F2002007C2002007E200200C1
:102BD000832002007C200200772002007720020080
:102BE0006D2002006D2002007B2002007D2002008B
:102BF0007F2002007820020075200200732002006E
:102C00006B2002006A20020076200200772002007A
:102C100079200200732002006F2002006F20020062
:102C2000662002006520020071200200732002006D
:102C3000752002006E2002006B2002006B20020053
:102C4000632002005E2002007A2002007D20020044
:102C5000812002007B200200772002007620020003
:102C60006D2002006D2002007B2002007D2002000A
:102C70007E200200782002007520020073200200EE
:102C80006A2002006A2002007620020078200200FA
:102C90007920020073200200702002006F200200E1
:102CA00066200200662002007120020073200200EC
:102CB000752002006F2002006C2002006B200200D1
:102CC000632002005E200200792002007B200200C7
:102CD0007E2002007920020076200200752002008A
:102CE0006B2002006C2002007A2002007C2002008F
:102CF0007E20020077200200742002007320020070
:102D00006A2002006920020075200200772002007C
:102D100079200200732002006F2002006F20020061
:102D2000662002006520020071200200732002006C
:102D3000752002006E2002006C2002006B20020051
:102D4000632002005E200200772002007A20020049
:102D50007D2002007820020075200200742002000D
:102D60006B2002006B200200792002007B20020011
:102D70007D200200772002007320020073200200F1
:102D80006A200200692002007520020077200200FC
:102D900079200200732002006F2002006F200200E1
:102DA00066200200652002007120020073200200EC
:102DB000752002006E2002006C2002006B200200D1
:102DC000632002005E2002007520020079200200CC
:102DD0007C20020077200200732002007320020092
:102DE0006A2002006B200200792002007B20020092
:102DF0007D20020076200200732002007220020073
:102E0000692002006920020075200200772002007C
:102E100079200200732002006F2002006F20020060
:102E2000662002006520020071200200732002006B
:102E3000752002006F2002006C2002006B2002004F
:102E4000632002005E20020075200200792002004B
:102E50007B20020076200200732002007220020014
:102E60006920020069200200772002007920020018
:102E70007B200200752002007220020071200200F7
:102E800069200200682002007520020076200200FE
:102E900078200200722002006F2002006E200200E3
:102EA00065200200652002006F20020072200200EF
:102EB000742002006E2002006B2002006B200200D2
:102EC000622002005E2002007320020077200200D0
:102ED0007B20020075200200722002007120020097
:102EE000682002006920020076200200792002009A
:102EF0007B20020075200200712002007120020078
:102F00006720020067200200742002007620020081
:102F100077200200722002006E2002006D20020065
:102F200065200200642002006F200200722002006F
:102F3000732002006D2002006B2002006A20020054
:102F4000622002005F20020074200200772002004D
:102F50007A20020075200200712002007120020018
:102F6000672002006720020076200200782002001D
:102F70007A20020074200200712002006F200200FB
:102F80006720020067200200732002007520020003
:102F900077200200712002006E2002006D200200E6
:102FA00065200200642002006F20020072200200EF
:102FB000732002006D2002006B2002006A200200D4
:102FC00062200200612002007520020077200200CA
:102FD0007A20020075200200712002007020020099
:102FE000672002006720020075200200782002009E
:102FF0007A20020073200200702002006F2002007D
:103000006720020066200200732002007520020083
:1030100077200200712002006E2002006D20020065
:1030200065200200642002006F200200712002006F
:10303000732002006D2002006B2002006A20020053
:103040006320020065200200772002007720020042
:103050007A20020074200200712002006F2002001A
:10306000662002006720020075200200772002001F
:103070007920020073200200702002006F200200FD
:103080006620020066200200732002007520020004
:1030900077200200712002006E2002006D200200E5
:1030A00065200200642002006F20020072200200EE
:1030B000732002006E2002006B2002006B200200D1
:1030C0006520020073200200882002007C2002009C
:1030D0007C20020076200200712002007120020094
:1030E000672002006720020075200200772002009E
:1030F00079200200732002006F2002006E2002007F
:103100006620020066200200722002007420020085
:10311000762002006F2002006D2002006C20020069
:1031200064200200632002006F2002007120020070
:10313000732002006E2002006D2002006F2002004A
:1031400074200200C1200200FF4F0400FF4F040062
:10315000FF4F0400FF4F0400FF4F0400FF4F040027
:10316000FF4F0400FF4F0400FF4F0400FF4F040017
:10317000FF4F0400FF4F0400FF4F0400FF4F040007
:10318000FF4F0400FF4F0400FF4F0400FF4F0400F7
:10319000FF4F0400FF4F0400FF4F0400FF4F0400E7
:1031A000FF4F0400FF4F0400FF4F0400FF4F0400D7
:1031B000FF4F0400FF4F0400FF4F0400FF4F0400C7
:1031C000FF4F0400FF4F0400FF4F0400FF4F0400B7
:1031D000FF4F0400FF4F0400FF4F0400FF4F0400A7
:1031E000FF4F0400FF4F0400FF4F0400FF4F040097
:1031F000FF4F0400FF4F0400FF4F0400FF4F040087
:10320000FF4F0400FF4F0400FF4F0400FF4F040076
:10321000FF4F0400FF4F0400FF4F0400FF4F040066
:10322000FF4F0400FF4F0400FF4F0400FF4F040056
:10323000FF4F0400FF4F0400FF4F0400FF4F040046
:10324000FF4F0400FF4F0400FF4F0400FF4F040036
:10325000FF4F0400FF4F0400FF4F0400FF4F040026
:10326000FF4F0400FF4F0400FF4F0400FF4F040016
:10327000FF4F0400FF4F0400FF4F0400FF4F040006
:10328000FF4F0400FF4F0400FF4F0400FF4F0400F6
:10329000FF4F0400FF4F0400FF4F0400FF4F0400E6
:1032A000FF4F0400FF4F0400FF4F0400FF4F0400D6
:1032B000FF4F0400FF4F0400FF4F0400FF4F0400C6
:1032C000FF4F0400FF4F0400FF4F0400FF4F0400B6
:1032D000FF4F0400FF4F0400FF4F0400FF4F0400A6
:1032E000FF4F0400FF4F0400FF0F0000FF0F00001E
:1032F000FF0F0000FF0F0000FF0F0000FF0F000096
:10330000FF0F0000FF0F0000FF0F0000FF0F000085
:10331000FF0F0000FF0F0000FF0F0000FF0F000075
:10332000FF0F0000FF0F0000FF0F0000FF0F000065
:10333000FF0F0000FF0F0000FF0F0000FF0F000055
:10334000FF0F0000FF0F0000FF0F0000FF0F000045
:10335000FF0F0000FF0F0000FF0F0000FF0F000035
:10336000FF0F0000FF0F0000FF0F0000FF0F000025
:10337000FF0F0000FF0F0000FF0F0000FF0F000015
:10338000FF0F0000FF0F0000FF0F0000FF0F000005
:10339000FF0F0000FF0F0000000000000000000011
:1033A000000000000000000000000000000000001D
:1033B000000000000000000000000000000000000D
:1033C00000000000000000000000000000000000FD
:1033D00000000000000000000000000000000000ED
:1035F00000080000210800004208000063080000E5
:1036000084080000A5080000C6080000E7080000C4
:1036100008090000290900004A0900006B090000A0
:103620008C090000AD090000CE090000EF09000080
:10363000100A0000310A0000520A0000730A00005C
:10364000940A0000B50A0000D60A0000F70A00003C
:10365000000000000000000000000000000000006A
:10366000000000000000000000000000000000005A
:103670000000000040200C048571FC3F48A22C0C87
:103680008DF3FC3F50244D149575FD3F58A66D1CDD
:103690009DF7FD3F0000000000000000000000005A
:1036A000000000000000000000000000000000001A
:1036B000000000000000000000000000000000000A
:1036C00000000000000000000000000000000000FA
:1036D00000000000000000000000000000000000EA
:1036E00000000000000000000000000000000000DA
:1036F00000000000000000000000000000000000CA
:1037000000000000000000000000000000000000B9
:1037100000000000000000000000000000000000A9
:103720000000000000000000000000000000000099
:103730000000000000000000000000000000000089
:103740000000000000000000000000000000000079
:103750000000000000000000000000000000000069
:103760000000000000000000000000000000000059
:103770000000000000000000000000000000000049
:103780000000000000000000000000000000000039
:103790000000000000000000000000000000000029
:1037A0000000000000000000000000000000000019
:1037B00000000000000010000000080000000400ED
:1037C0000000020000000100008000000040000036
:1037D00000200000001000000008000000040000AD
:1037E0000002000000010000800000004000000016
:1037F00020000000000000000000000000000000A9
:1038000000000000000000000000000000000000B8
:1038100000000000000000000000000000000000A8
:103820000000000000000000000000000000000098
:103830000000000000000000000000000000000088
:103840000000000000000000000000000000000078
:103850000000000000000000000000000000000068
:103860000000000000000000000000000000000058
:103870000000000000000000000000000000000048
:103880000000000000000000000000000000000038
:103890000000000000000000000000000000000028
:1038A0000000000000000000000000000000000018
:1038B0000000000000000000000000000000000008
:1038C00000000000000000000000000000000000F8
:1038D00000000000FFFFFFFFFFFFFFFFFFFFFFFFF4
:1038E000FFFFFFFFFFFFFFFFFFFFFFFFFFFFFFFFE8
:1038F000FFFFFFFFFFFFFFFFFFFFFFFFFFFFFFFFD8
:10390000FFFFFFFFFFFFFFFFFFFFFFFFFFFFFFFFC7
:10391000FFFFFFFFFFFFFFFFFFFFFFFFFFFFFFFFB7
:10392000FFFFFFFFFFFFFFFFFFFFFFFFFFFFFFFFA7
:10393000FFFFFFFFFFFF2F00FFFF3700FFFF3B00F0
:10394000FFFF3D00FFFF3E00FF7F3F00FFBF3F0046
:10395000FFDF3F00FFEF3F00FFF73F00FFFB3F00AF
:10396000FFFD3F00FFFE3F007FFF3F00BFFF3F0026
:10397000DFFF3F00FFFF3F00FFFF3F00FFFF3F0073
:10398000FFFF3F00FFFF3F00FFFF3F00FFFF3F0043
:10399000FFFF3F00FC03000000FC0C000000F00FE4
:1039A000000000F000000000000000000000000027
:1039B0000F000000000000000000000000000000F8
:1039C00000000000000000000000000000000000F7
:1039D00000000000000000000000000000000000E7
:1039E00000000000000000000000000000000000D7
:1039F00000000000000000000000000000000000C7
:103A000000000000000000000000000000000000B6
:103A10000000000003FCFFFFFF03F3FFFFFF0FF0B8
:103A2000FFFFFF0FFFFF3F00FFFF3F00FFFF3F00D3
:103A3000F0FF3F0000000000000000000000000058
:103A40000000000000000000000000000000000076
:103A50000000000000000000000000000000000066
:103A60000000000000000000000000000000000056
:103A70000000000000000000000000000000000046
:103A80000000000000000000000000000000000036
:103A900000000000FF00FF00000000000000000028
:103AA0000000000000000000000000000000000016
:103AB00000000000FF00FF00000000000000000008
:103AC00000000000000000000000000000000000F6
:103AD0000000000006F8D16706F8E2070AF8D317DD
:103AE00013F8E7471FF8D3D708F8D30712F8E327EE
:103AF00008F8DF5706F8EB6704F8DAC731F8E7F79C
:103B000002F8EE570FF8DF6717F8E99707F8E307B1
:103B1000FFF7EC3708F8C4F7FCF7DDB702F8E62743
:103B200010F8CE6719F8DC270BF8E9171AF8DB77DD
:103B3000FBF7DF071BF8D65707F8E7171DF8D5770F
:103B4000FEF7DD570FF8160800F8DF0712F8B7F791
:103B500001F8E537F0F7E13700F8FB170DF8BCE79F
:103B60000EF8FA2747F8AA470DF80E180778D63747
:103B70000978D4170678EB070478E447FE77F367F3
:103B80000078D7570878D9370078CE770178CC57A6
:103B90001078C1E7E107C4270000E44700000000F7
:103BA0000000000000000000000000000A0A0A0AED
:103BB0000A0A0A0AA0A0A0A0A0A0A0A0A0A0A0A05D
:103BC000A0A0A0A0A0A0A0A0A0A0A0A0A0A0A0A0F5
:103BD000A0A0A0A0A0A0A0A0A0A0A0A0A0A0A0A0E5
:103BE000A0A0A0A0F0F0F0F0F0F0F0F0AD2DF2FF0A
:103BF000B62CF2FF9D2CF2FFA12CF2FF8B2CF2FFD2
:103C0000982CF2FFC92CF2FFE92DF2FFF32DF2FF01
:103C1000CE2CF2FF9F2CF2FF912CF2FF8B2CF2FFA7
:103C2000972CF2FFC12CF2FFA92DF2FF6F25F2FFB6
:103C30004525F2FF3825F2FF3525F2FF2F25F2FF4B
:103C40003225F2FF3B25F2FF9A25F2FF9725F2FF7E
:103C50002F25F2FF1F25F2FF1D25F2FF1625F2FF8B
:103C60001B25F2FF2D25F2FFBE25F2FFC025F2FF36
:103C70002325F2FF0A25F2FF0325F2FFFF24F2FFBE
:103C80000125F2FF1C25F2FFDA25F2FFD625F2FF0F
:103C90001225F2FFF924F2FFF124F2FFEC24F2FFE7
:103CA000F424F2FF1225F2FFE325F2FFFF2FF2FFCB
:103CB000FF2FF2FFFF2FF2FFFF2FF2FFFF2FF2FF88
:103CC000FF2FF2FFFFFFFFFFFFFFFFFFFFFFFFFFE1
:103CD000FFFFFFFFFFFFFFFFFFFFFFFFFFFFFFFFF4
:103CE00000000000000000000000000000000000D4
:103CF00000000000000000000000000000000000C4
:103D000000000000000000000000000000000000B3
:103D10000000000000000000FF946200FF946200B9
:103D2000FF186300FF186300FF186300FF186300AB
:103D3000001863000018630000000FF000000FF08F
:103D400000000FF000000FF000000FF000000FF077
:103D500000000FF000000FF040200C048571FC3FC4
:103D600048A22C0C8DF3FC3F50244D149575FD3F5B
:103D700058A66D1C9DF7FD3F60288E24A579FE3F57
:103D800068AAAE2CADFBFE3FFFFFFF3FFFFFFF3FEA
:103D9000FFFFFF3FFFFFFF3FFFFFFFFFFFFFFFFFB3
:103DA00003FCFFFFFF03F3FFFFFF0FF0FFFFFF0F19
:103DB000FFFFFFFFFFFFFFFFFF1F20001FE03F008F
:103DC000FFFF3F00FFFF3F00FFFF3F00F0FF3F000E
:103DD000FFFF3F00FFFF3F00000000000000000069
:103DE000FC03000000FC0C000000F00F000000F0DD
:103DF000000000000000000000E01F00E01F0000C5
:103E00000000000000000000000000000F000000A3
:103E10000000000000000000402818000000000022
:103E20000000000000000000000000000000000092
:103E30000000000000000000000000000000000082
:103E40000000000000000000000000000000000072
:103E5000000000000000FF004028180000000000E3
:103E60000000000000000000000000000000000052
:103E70000000000000000000000000000000000042
:103E80000000000000000000000000000000000032
:103E900000000000FF0000001800401000000000BB
:103EA0000000000000000000000000000000000012
:103EB0000000000000000000000000000000000002
:103EC00000000000000000000000000000000000F2
:103ED0000000000000003E004F4B272300000000C0
:103EE00000000000000000000000000000000000D2
:103EF00000000000000000000000000000000000C2
:103F000000000000000000000000000000000000B1
:103F100000000000777239341809FF00000000002B
:103F20000000000000000000000000000000000091
:103F30000000000000000000000000000000000081
:103F40000000000000000000000000000000000071
:103F5000000000001572FF000000000000000000DB
:103F60000000000000000000000000000000000051
:103F70000000000000000000000000000000000041
:103F80000000000000000000000000000000000031
:103F9000000000003E0000002000002000000000A3
:103FA0000000000000000000000000000000000011
:103FB0000000000000000000000000000000000001
:103FC00000000000000000000000000000000000F1
:103FD0000000000000000000482020480000000011
:103FE00000000000000000000000000000000000D1
:103FF00000000000000000000000000000000000C1
:1040000000000000000000000000000000000000B0
:1040100000000000000000000000000000000000A0
:104020000823000022181A00184A40224A40221889
:10403000270065FA002828000000004041281900E8
:104040004B46231E0648FF0B1E144A0E14463C1E08
:10405000463C1E141446460000000000000000000C
:1040600058565452605E5C5A68666462706E6C6A40
:1040700078767472807E7C7A88868482908E8C8A30
:104080000000000000000000000000001F1F0204EC
:1040900010100101087DFF0F1300C43000F0FFA0D5
:1040A00053F40100FA006400020410100804000038
:1040B0005155010002000000551A600100F0FF0098
:1040C000000F000F000F0000420100000000000080
:1040D000140F0000000000000000000000000000BD
:1040E000000000000000000000000000E8240000C4
:1040F000342A1A00157253347268342A270065FA7C
:104100000000000032000020FF00FF005F5A2D2851
:104110000403CF0C28230804005A32285A552823B8
:10412000005A55000000000000000000A3A2A1A05A
:10413000A7A6A5A4ABAAA9A8AFAEADACB3B2B1B0C7
:10414000B7B6B5B4BBBAB9B8BFBEBDBC202001007C
:10415000322D005F50321E000A1F020400000101D0
:10416000007DFF0F1000903100F0FFA042F401002D
:10417000C8006400020810100F080000515501002B
:1041800002000000551A800100F0FF00000F000F30
:10419000000F00004301000000000000140F0000A9
:1041A000000000000000000000000000000000000F
:1041B000E8240000342A1A00157253347268342A35
:1041C000270065FA0000000032000020FF00FF0019
:1041D0005F5A2D280201000C28230804005A3228B7
:1041E0005A552823005A5500000000000000000026
:1041F000A3A2A1A0A7A6A5A4ABAAA9A8AFAEADAC47
:10420000B3B2B1B0B7B6B5B4BBBAB9B8BFBEBDBC36
:104210002A2A0100322D005F50321E000A1F0204BC
:1042200000000101007DFF0F1000903100F0FFA0A1
:1042300042F40100C8006400020810100F080000DA
:104240005155010002000000551A800100F0FF00E6
:10425000000F000F000F00004301000000000000ED
:10426000140F00000000000000000000010000002A
:10427000B94000008F98120000000000161C1020AA
:10428000060604040404020200000000000000000E
:10429000000000000000000000000000000000001E
:1042A000000000000000000000000000000000000E
:1042B00000000000000000000000000000000000FE
:1042C00000000000000000000000000000000000EE
:1042D000000000000000000000000000080798082F
:1042E00008079808080798080918300060000000BF
:1042F00020004200320032000000000000000000F8
:10430000004000000000000000000000000000006D
:10431000000000A010201020FF0FFF0F0000000081
:1043200000000000000000000000000050005000ED
:1043300050005000500050000500000003420042B1
:10434000808848000000000096E001200000000086
:10435000000043000000000000F0FF0000F0FF003C
:104360002AC800002020100000000000000000000B
:10437000000000000000000000000000000000003D
:10438000000000000000000000000000000000002D
:10439000000000000000000000000000000000001D
:1043A000000000000000000000000000000000000D
:1043B00000000000000000000000000000000000FD
:1043C00000000000000000000000000000000000ED
:1043D00000000000000000000000000000000000DD
:1043E00000000000000000000000000000000000CD
:1043F00000000000000000000000000000000000BD
:1044000000000000000000000000000000000000AC
:10441000000000000000000000000000000000009C
:10442000000000000000000000000000000000008C
:10443000000000000000000000000000000000007C
:10444000000000000000000000000000000000006C
:10445000000000000000000000000000000000005C
:10446000000000000000000000000000000000004C
:10447000000000000000000000000000000000003C
:10448000000000000000000000000000000000002C
:10449000000000000000000000000000000000001C
:1044A000000000000000000000000000000000000C
:1044B00000000000000000000000000000000000FC
:1044C00000000000000000000000000000000000EC
:1044D00000000000000000000000000000000000DC
:1044E0000000000000000000000000000030050493
:1044F000FFFCF30F0000F00F4523014200000067AE
:10450000FFFCF30FFFFCF30F0000000000000000B1
:10451000000000000000000000000000000000009B
:10452000000000000000000000000000000000008B
:104530000000000000000000000000007D000000FE
:104540007D0000005000000001000020B5000100C7
:104550000000000011010000000000000000000049
:1045600000000000211A1A000204040000400402A6
:10457000000000000000000000000000000000003B
:104580000000000000336300452301FF452301675D
:10459000230167FF2301674565F7674565072143E9
:1045A000000F21430000000000000000FFFFFFFF9C
:1045B000FFFF3F00000000000000000000000000BE
:1045C0000000000000000000FFFFFFFFFFFF3F00B2
:1045D00000000000000000000000000000000000DB
:1045E0000000000000000000D0070000D00700001D
:1045F000D0070000000000000000000000000000E4
:1046000000000000000000000000000000000000AA
:10461000000000000000000000000000000000009A
:10462000000000000000000000000000000000008A
:10463000000000000000000000000000E2BDE5DD19
:1046400037BE39DE3CBE3FFE1CBE20FEF1BDF00D84
:10465000FCBDFB1DBBBDBD0DBEBDBFEDC5BDC6DDFB
:10466000E6BDE5CDEDBDED0DCDBDCEFD9BBD9B0DFC
:10467000A0BD9FDD68BD681D64BD64ED5FBD5CBD10
:1046800088BD82CD95BD900D7FBD7BDD4FBD4DEDCD
:104690005BBD56FD22BD220D1BBD18FD19BD190DB8
:1046A0004DBD4C2D5FBD602D53BD541D42BD412DF0
:1046B00075BD741DEABDEA0DE28DE21DCABDCC3D9B
:1046C000D4BDD60DF0BDF14DDCBDDD5DAEBDAF1D81
:1046D000BEBDC01D82BD831D89BD892D92BD946D57
:1046E000B5BDB76DBEBDBF7DA3BDA2AD6DBD6ECD69
:1046F00074BD74CD3CBD3DED3CBD3BFD32BD30CD08
:1047000055BD52BD67BD64DD53BD52DD26BD24EDF0
:1047100030BD2CEDF9BCF8ECF2BCF10CEFBCEEDCDA
:1047200021BD20DD2DBD2ECD1CBD1C0DF6BCF6FC23
:1047300004BD030DDEBCDD1C29BDCC3CA6BDA4FD23
:10474000C0BDBEDDDBBDDBFDC8BDC81D99BD982D5C
:10475000ACBDAA1D6DBD6C4D76BD761D80BD7EFDC8
:10476000A2BDA11DADBDACED92BD900D5CBD5B1DAC
:1047700063BD631D2CBD2B2D2ABD2A1D21BD24BD6B
:1047800046BD47CD57BD59CD43BD46CD16BD16FDDF
:1047900020BD200DEABCEB0CE3BCE30CE2BCE30C57
:1047A00015BD13DD20BD1FFD0DBD0CEDE4BCE41CEB
:1047B000F0BCEEECBCBCBC2C93BC3FAC8BBD86FD0E
:1047C000ABBDA5CDC9BDC6ADB7BDB2CD89BD879DB9
:1047D0009BBD999D5EBD5D5D68BD655D6BBD6C0DEE
:1047E00090BD8FED9BBD9AFD7FBD801D4DBD4C3DA5
:1047F00055BD533D20BD1F4D1DBD1E1D1BBD1B3D89
:1048000043BD412D52BD503D3CBD3A4D0DBD0C4DFB
:1048100017BD163DE1BCE13CDABCD93CD9BCD6ACF5
:1048200009BD057D15BD137D01BDFF7CDABCD77CBC
:10483000E4BCE06CB0BCAE4C6ABC188C73BD74DDDB
:1048400099BD97FDB9BDB82DA6BDA81D7BBD7B2D1B
:104850008EBD8C2D50BD512D5BBD593D61BD623D5E
:1048600087BD854D91BD916D76BD776D46BD455D2A
:104870004EBD4E4D18BD191D18BD182D17BD194D33
:1048800041BD40FD4DBD4F3D37BD393D0ABD094DD0
:1048900015BD151DDDBCDD2CD6BCD61CD3BCD10C82
:1048A00002BD00FD0FBD0E1DFBBCFA2CD5BCD31CF8
:1048B000DFBCDDFCA9BCA80C5ABC0A4C56BD551D7A
:1048C00082BD7E0DA1BD9F2D91BD901D6CBD691D4A
:1048D0007DBD7C1D43BD43FD4DBD4E0D59BD576D86
:1048E00080BD7C5D8ABD887D70BD6E6D40BD3F3DE5
:1048F00048BD473D11BD124D13BD112D14BD16FD10
:104900003CBD3ECD4ABD4CFD34BD350D04BD050D4D
:104910000FBD10EDD9BCD82CD1BCD21CCBBCC81C4F
:10492000FBBCF9CC08BD05FDF4BCF2FCCEBCCD0C43
:10493000D8BCD70CA3BCA12C4FBC012C3ABD38FD70
:1049400069BD68CD8DBD8B1D81BD7FFD5CBD5B2DBF
:1049500071BD70FD38BD383D45BD450D52BD55FD9D
:1049600079BD7BCD86BD891D6FBD70ED3EBD3F0D10
:1049700047BD490D13BD121D13BD150D16BD118D7B
:104980003FBD3A5D4CBD498D38BD338D09BD063DF7
:1049900013BD114DDCBCDC1CD4BCD42CCDBCCCDC98
:1049A000FDBCFDCC0ABD0BEDF7BCF7ECD1BCD20CC5
:1049B000DCBCDAFCA7BCA51C52BC044C1EBD235DAC
:1049C00051BD553D77BD7B4D6CBD6F5D49BD4C2DD7
:1049D00061BD622D2ABD2B2D38BD392D4EBD4C0D2C
:1049E00074BD73CD81BD811D6ABD690D39BD380DA2
:1049F00043BD420D0CBD0D0D10BD0F0D0FBD0B4D78
:104A000037BD360D46BD451D30BD301D01BD012DE4
:104A10000EBD0C1DD8BCD62CD1BCD11CCCBCCB0C33
:104A2000FCBCFADC08BD081DF6BCF40CD0BCCF1CE5
:104A3000DBBCD82CA4BCA32C50BC025C0DBD0F3D2C
:104A400044BD451D6ABD6C2D61BD622D3DBD3E2D31
:104A500057BD574D1FBD202D2FBD302D3EBD3F4DA5
:104A600067BD663D76BD763D60BD601D31BD324D92
:104A70003CBD3D2D08BD090D0BBD0C0D0ABD0AED59
:104A800031BD33DD42BD42FD2EBD2EED01BD021D07
:104A90000DBD0C1DD8BCD80CD1BCD20CCFBCD21CC7
:104AA000FFBC011D0BBD0F1DF9BCFA3CD3BCD31CD0
:104AB000DDBCDF0CA8BCA80C57BC085CF7BCFA7CBA
:104AC00031BD355D59BD5E9D51BD549D2FBD2FDD5E
:104AD00047BD48CD11BD11FD22BD23CD35BD325D91
:104AE0005EBD5C2D6FBD6E2D5ABD583D2BBD2B2D6F
:104AF00037BD361D03BD031D06BD06FD0ABD090DEC
:104B000033BD32DD42BD42FD2FBD2E1D01BD021D54
:104B10000EBD0DFDD8BCD80CD2BCD20CD3BCD63C3B
:104B200002BD051D0FBD133DFCBCFD6CD4BCD54CB6
:104B3000DFBCDF4CA9BCA92C5ABC0C5CF2BCEB5C02
:104B400028BD214D4FBD4A4D46BD413D22BD1E4DA4
:104B50003ABD362D02BDFF5C13BD114D20BD223D77
:104B60004ABD4C0D5CBD5C5D46BD490D1ABD1B2D9B
:104B700026BD281DF5BCF51CF8BCF81CFB3CF82C28
:104B8000223D21DD353D323D213D200DF53CF52C0A
:104B9000023D00FDCB3CCB2CC73CC60CC63CC7FC41
:104BA000F73CF6FC043D04FDF03CF1FCCA3CCA0CA9
:104BB000D53CD3FC9F3C9F1C563C073CD13CCFAC22
:104BC000153D139D3C3D3ABD323D31AD103D0FCDFD
:104BD000283D25FDF23CF11C033D040D193D14BD9B
:104BE000433D3DAD543D4FCD3D3D3BAD113D0FDD12
:104BF0001E3D1A0DEB3CE83CEF3CEF0CF03CF2FCA8
:104C0000183D1ADD2A3D2CED183D1A0DEB3CEEDC6B
:104C1000F73CF7FCC53CC41CBF3CC10CBE3CBACC45
:104C2000EC3CEC7CFB3CFA8CE73CE78CC33CC33CA3
:104C3000CB3CCA4C9A3C994C593C0A6CD83CD85C49
:104C4000063D056D2B3D2B6D203D204DFF3C003D6D
:104C5000163D154DE33CE31CF53CF35C0B3D0C9D10
:104C6000353D35AD473D478D313D329D073D05DD35
:104C7000123D12DDDF3CDF0CE53CE5FCEF3CEC4C8B
:104C8000193D162D293D282D163D150DE83CE70C44
:104C9000F63CF51CC13CBF2CBC3CBD0CB53CB60C75
:104CA000E53CE5FCF53CF5ECE33CE3DCBE3CBE0C4E
:104CB000C73CC90C993C981C663C175CE73CE45C1B
:104CC000053D041D283D253D1B3D19FDF83CF62CF6
:104CD000103D0F2DD93CD94CEB3CEB2C043D025D33
:104CE0002E3D2B4D3F3D3D6D2B3D2A2DFE3CFD2C99
:104CF0000B3D0B1DD73CD72CDE3CDE0CE43CE12CFD
:104D00000F3D0CFD203D1D1D0D3D0C0DE03CDF4C0D
:104D1000EE3CEE1CB83CB72CB53CB52CAE3CB01C00
:104D2000DF3CDFFCEF3CF00CDD3CDDFCBA3CBA1CA8
:104D3000C63CC60C9D3C9B3C913C3EACEE3CF33CDF
:104D4000033D072D1F3D233D113D142DF03CF04C3C
:104D5000063D072DD03CD21CE13CE41CF73CFBECAB
:104D6000213D25ED353D36FD213D23FDF43CF71C6D
:104D7000033D04EDD03CD12CD83CD82CDA3CD89C57
:104D8000073D047D183D159D063D056DDD3CDA7C33
:104D9000EA3CE94CB63CB53CB33CB35CB13CB52C09
:104DA000E23CE51CF23CF63CE13CE51CC13CC31C8A
:104DB000D33CD52CBC3CBD3C403DE46CFA3CF6FCFD
:104DC000463D42CD4A3D47ED2E3D2CDD023D00FDE6
:104DD000143D12FDD53CD61CE43CE50CF53CF7CC6B
:104DE0001E3D1FCD2E3D30ED193D1ADDED3CEDFC95
:104DF000F93CFA0CC43CC60CCB3CCC0CCD3CCCFCF6
:104E0000F93CF8DC0B3D0AFDF83CF8DCCF3CCE0C5D
:104E1000DD3CDC0CA93CA91CA73CA7FCAC3CAA6C63
:104E2000DF3CDD4CF43CF27CEA3CE75CD63CD34C06
:104E30000A3D085D763D754DDF0CDF2CFF6FDC070A
:104E4000FF6FCE07FF6FCB07FF6FD607FF6FE90736
:104E5000FF6FEA07FF6FC207FF6FE807FF6FE60704
:104E6000FF6FD507FF6FCF07FF6FCA07FF6FC5073B
:104E7000FF6FC607FF6FE807FF6FE807FF6FCB07FD
:104E8000FF6FB607FF6FCD07FF6FD207FF6F990760
:104E9000FF6FA007FF6F8F07FF6F8707FF6F7F0709
:104EA000FF6F9807FF6F7C07FF6F7D07FF6F940709
:104EB000FF6FB607FF6FA207FF6F9307FF6FA9078A
:104EC000FF6F9207FF6FCF07FF6F9C07FF6FB4075D
:104ED000FF6FA407FF6FB207FF6FB307FF6F9D0758
:104EE000FF6F9F07FF6FAA07FF6FA307FF6FC4073E
:104EF000FF6FE407FF6FC707FF6FB407FF6FE2079D
:104F0000FF6FEA07FF6FE607FF6FCE07FF6FC70768
:104F1000FF6FC907FF6FCC07FF6FCE07FF6FD90781
:104F2000FF6FDA07FF6FE407FF6FC807FF6FCB075C
:104F3000FF6FE507FF6FE907FF6FC907FF6FFA070C
:104F4000FF6FE007FF6FC607FF6FC907FF6FEA0734
:104F5000FF6FDC07FF6FED07FF6FD807FF6FD50707
:104F6000FF6FDD07FF6FF407FF6FDF07FF6FA3071A
:104F7000FF6F9B07FF6FB107FF6FA807FF6FE80781
:104F8000FF6FAD07FF6FEC07FF6FC107FF6FC10732
:104F9000FF6FB207FF6FCE07FF6FC707FF6FC50731
:104FA000FF6FAE07FF6FB007FF6FB907FF6FB30763
:104FB000FF6FC907FF6F9507FF6FCF07FF6FD70719
:104FC000FF6FB207FF6FB807FF6FD707FF6FDB07F1
:104FD000FF6FB007FF6FB907FF6FC907686268020C
:104FE000696269026A626A026B626B026C626C02DD
:104FF0006D626D026E626E026F626F0270627002AD
:10500000716271027262720273627302746274027C
:10501000756275027662760277627702786278024C
:10502000796279027A627A027B627B027C627C021C
:105030007D627D027E627E027F627F0280628002EC
:1050400081628102826282028362830284628402BC
:10505000856285028662860287628702886288028C
:10506000896289028A628A028B628B028C628C025C
:105070008D628D028E628E028F628F02906290022C
:1050800091629102926292029362930294629402FC
:1050900095629502966296029762970298629802CC
:1050A000996299029A629A029B629B029C629C029C
:1050B0009D629D029E629E029F629F02A062A0026C
:1050C000A162A102A262A202A362A302A462A4023C
:1050D000A562A502A662A602A762A702A862A8020C
:1050E000A962A902AA62AA02AB62AB02AC62AC02DC
:1050F000AD62AD02AE62AE02AF62AF02B062B002AC
:10510000B162B102B262B202B362B302B462B4027B
:10511000B562B502B662B602B762B702B862B8024B
:10512000B962B902BA62BA02BB62BB02BC62BC021B
:10513000BD62BD02BE62BE02BF62BF02C062C002EB
:10514000C162C102C262C202C362C302C462C402BB
:10515000C562C502C662C602C762C702C862C8028B
:10516000C962C902CA62CA02CB62CB02CC62CC025B
:10517000CD62CD02CE62CE02CF62CF021F1F1F1FB3
:105180001F1F1F1F1F1F1F1F1F1F1F1F1F1F1F1F2F
:105190001F1F1F1F1F1F1F1F1F1F1F1F1F1F1F1F1F
:1051A0001F1F1F1F1F1F1F1F1F1F1F1F1F1F1F1F0F
:1051B0001F1F1F1F1F1F1F1F1F1F1F1F080808085B
:1051C000080808080808080808080808080808085F
:1051D0000808080808080808080808089E0D5D0D5A
:1051E000470D390D300D270D230D1B0D160D110D1B
:1051F000040DF90CF20CED0CEF0CF50C360D650DF1
:10520000830D730D4D0D610D280D350D440D6B0D86
:10521000790D610D310D3B0D060D090D090D310D97
:10522000410D2D0D000D0C0DD60CD00CCE0CFE0C2E
:105230000C0DFB0CD70CE80CCB0C9C0C86038B03E1
:105240000000000000000000E0C0C0C0C0C0C0C03E
:10525000C0C0C0C0C0C0C0C0C0C0C0C0C0C0C0C04E
:10526000C0C0C0C0C0C0C0FFC0C0C0C0C0C0C0C0FF
:10527000C0C0C0C0C0C0C0C0C0C0C0C0C0C0C0C02E
:10528000C0C0C0C0C0C0C0C8C0C0C0C0C0C0C0C016
:10529000C0C0C0C0C0C0C0C0C0C0C0C0C0C0C0C00E
:1052A000C0C0C0C0C0C0C0C8C0C0C0C0C0C0C0C0F6
:1052B000C0C0C0C0C0C0C0C0C0C0C0C0C0C0C0C0EE
:1052C000C0C0C0C0C0C0C0C8C0C0C0C0C0C0C0C0D6
:1052D000C0C0C0C0C0C0C0C0C0C0C0C0C0C0C0C0CE
:1052E000C0C0C0C0C0C0C0C8C0C0C0C0C0C0C0C0B6
:1052F000C0C0C0C0C0C0C0C0C0C0C0C0C0C0C0C0AE
:10530000C0C0C0C0C0C0C0C8C0C0C0C0C0C0C0C095
:10531000C0C0C0C0C0C0C0C0C0C0C0C0C0C0C0C08D
:10532000C0C0C0C0C0C0C0C8C0C0C0C0C0C0C0C075
:10533000C0C0C0C0C0C0C0C0C0C0C0C0C0C0C0C06D
:10534000C0C0C0C0C0C0C0C8C0C0C0C0C0C0C0C055
:10535000C0C0C0C0C0C0C0C0C0C0C0C0C0C0C0C04D
:10536000C0C0C0C0C0C0C0C8C0C0C0C0C0C0C0C035
:10537000C0C0C0C0C0C0C0C0C0C0C0C0C0C0C0C02D
:10538000C0C0C0C0C0C0C0C8C0C0C0C0C0C0C0C015
:10539000C0C0C0C0C0C0C0C0C0C0C0C0C0C0C0C00D
:1053A000C0C0C0C0C0C0C0C8C0C0C0C0C0C0C0C0F5
:1053B000C0C0C0C0C0C0C0C0C0C0C0C0C0C0C0C0ED
:1053C000C0C0C0C0C0C0C0C8C0C0C0C0C0C0C0C0D5
:1053D000C0C0C0C0C0C0C0C0C0C0C0C0C0C0C0C0CD
:1053E000C0C0C0C0C0C0C0C8C0C0C0C0C0C0C0C0B5
:1053F000C0C0C0C0C0C0C0C0C0C0C0C0C0C0C0C0AD
:10540000C0C0C0C0C0C0C0C8C0C0C0C0C0C0C0C094
:10541000C0C0C0C0C0C0C0C0C0C0C0C0C0C0C0C08C
:10542000C0C0C0C0C0C0C0C8E0C0C0C0C0C0C0C054
:10543000C0C0C0C0C0C0C0C0C0C0C0C0C0C0C0C06C
:10544000C0C0C0C0C0C0C0FFD0D0D0D0D0D0D0D09D
:10545000D0D0D0D0D0D0D0D0D0D0D0D0D0D0D0D04C
:10546000D0D0D0D0D0D0D0D0D0D0D0D0D0D0D0D03C
:10547000D0D0D0D0D0D0D0D0D0D0D0D0D0D0D0D02C
:10548000D0D0D0D0D0D0D0D0D0D0D0D0D0D0D0D01C
:10549000D0D0D0D0D0D0D0D0D0D0D0D0D0D0D0D00C
:1054A000D0D0D0D0D0D0D0D0D0D0D0D0D0D0D0D0FC
:1054B000D0D0D0D0D0D0D0D0D0D0D0D0D0D0D0D0EC
:1054C000D0D0D0D0D0D0D0D0D0D0D0D0D0D0D0D0DC
:1054D000D0D0D0D0D0D0D0D0D0D0D0D0D0D0D0D0CC
:1054E000D0D0D0D0D0D0D0D0D0D0D0D0D0D0D0D0BC
:1054F000D0D0D0D0D0D0D0D0D0D0D0D0D0D0D0D0AC
:10550000D0D0D0D0D0D0D0D0D0D0D0D0D0D0D0D09B
:10551000D0D0D0D0D0D0D0D09B2002008E2002009E
:105520008F200200872002008320020081200200D9
:1055300075200200752002008520020086200200EE
:1055400088200200812002007B2002007A200200D5
:10555000702002006F2002007C2002007E200200EA
:1055600081200200792002007620020075200200CE
:105570006C2002006B2002007720020079200200DC
:105580007B200200762002007520020077200200B6
:105590007B200200E5200200872002008720020015
:1055A00089200200832002007D2002007C2002006E
:1055B000722002007220020081200200832002007B
:1055C000842002007C200200782002007720020064
:1055D0006D2002006D200200792002007B20020075
:1055E0007D2002007620020073200200722002005B
:1055F000692002006820020073200200752002006A
:1056000077200200712002006F2002006E2002004D
:105610006720020071200200832002008420020023
:1056200087200200812002007B2002007B200200F4
:1056300071200200702002007E2002008120020002
:10564000832002007B2002007720020075200200E8
:105650006C2002006B200200782002007A200200F9
:105660007B200200752002007220020071200200DF
:1056700067200200672002007220020074200200EE
:10568000762002006F2002006D2002006D200200D3
:1056900065200200642002008120020083200200B5
:1056A000852002007E2002007A200200792002007C
:1056B0006F2002006F2002007D2002007E20020089
:1056C000822002007A20020076200200752002006B
:1056D0006B2002006B20020077200200792002007C
:1056E0007B20020074200200712002006F20020063
:1056F0006720020066200200712002007320020071
:10570000752002006F2002006D2002006B20020055
:1057100063200200612002007D200200812002003F
:10572000842002007D2002007920020078200200FF
:105730006E2002006E2002007C2002007E2002000B
:1057400081200200792002007520020074200200EE
:105750006B2002006A2002007620020078200200FE
:105760007A20020073200200712002006F200200E4
:1057700067200200662002007120020073200200F0
:10578000752002006F2002006C2002006B200200D6
:10579000632002005F2002007C2002007E200200C5
:1057A000832002007C200200772002007720020084
:1057B0006D2002006D2002007B2002007D2002008F
:1057C0007F20020078200200752002007320020072
:1057D0006B2002006A20020076200200772002007F
:1057E00079200200732002006F2002006F20020067
:1057F0006620020065200200712002007320020072
:10580000752002006E2002006B2002006B20020057
:10581000632002005E2002007A2002007D20020048
:10582000812002007B200200772002007620020007
:105830006D2002006D2002007B2002007D2002000E
:105840007E200200782002007520020073200200F2
:105850006A2002006A2002007620020078200200FE
:105860007920020073200200702002006F200200E5
:1058700066200200662002007120020073200200F0
:10588000752002006F2002006C2002006B200200D5
:10589000632002005E200200792002007B200200CB
:1058A0007E2002007920020076200200752002008E
:1058B0006B2002006C2002007A2002007C20020093
:1058C0007E20020077200200742002007320020074
:1058D0006A20020069200200752002007720020081
:1058E00079200200732002006F2002006F20020066
:1058F0006620020065200200712002007320020071
:10590000752002006E2002006C2002006B20020055
:10591000632002005E200200772002007A2002004D
:105920007D20020078200200752002007420020011
:105930006B2002006B200200792002007B20020015
:105940007D200200772002007320020073200200F5
:105950006A20020069200200752002007720020000
:1059600079200200732002006F2002006F200200E5
:1059700066200200652002007120020073200200F0
:10598000752002006E2002006C2002006B200200D5
:10599000632002005E2002007520020079200200D0
:1059A0007C20020077200200732002007320020096
:1059B0006A2002006B200200792002007B20020096
:1059C0007D20020076200200732002007220020077
:1059D0006920020069200200752002007720020081
:1059E00079200200732002006F2002006F20020065
:1059F0006620020065200200712002007320020070
:105A0000752002006F2002006C2002006B20020053
:105A1000632002005E20020075200200792002004F
:105A20007B20020076200200732002007220020018
:105A3000692002006920020077200200792002001C
:105A40007B200200752002007220020071200200FB
:105A50006920020068200200752002007620020002
:105A600078200200722002006F2002006E200200E7
:105A700065200200652002006F20020072200200F3
:105A8000742002006E2002006B2002006B200200D6
:105A9000622002005E2002007320020077200200D4
:105AA0007B2002007520020072200200712002009B
:105AB000682002006920020076200200792002009E
:105AC0007B2002007520020071200200712002007C
:105AD0006720020067200200742002007620020086
:105AE00077200200722002006E2002006D2002006A
:105AF00065200200642002006F2002007220020074
:105B0000732002006D2002006B2002006A20020058
:105B1000622002005F200200742002007720020051
:105B20007A2002007520020071200200712002001C
:105B30006720020067200200762002007820020021
:105B40007A20020074200200712002006F200200FF
:105B50006720020067200200732002007520020007
:105B600077200200712002006E2002006D200200EA
:105B700065200200642002006F20020072200200F3
:105B8000732002006D2002006B2002006A200200D8
:105B900062200200612002007520020077200200CE
:105BA0007A2002007520020071200200702002009D
:105BB00067200200672002007520020078200200A2
:105BC0007A20020073200200702002006F20020081
:105BD0006720020066200200732002007520020088
:105BE00077200200712002006E2002006D2002006A
:105BF00065200200642002006F2002007120020074
:105C0000732002006D2002006B2002006A20020057
:105C10006320020065200200772002007720020046
:105C20007A20020074200200712002006F2002001E
:105C30006620020067200200752002007720020023
:105C40007920020073200200702002006F20020001
:105C50006620020066200200732002007520020008
:105C600077200200712002006E2002006D200200E9
:105C700065200200642002006F20020072200200F2
:105C8000732002006E2002006B2002006B200200D5
:105C90006520020073200200882002007C200200A0
:105CA0007C20020076200200712002007120020098
:105CB00067200200672002007520020077200200A2
:105CC00079200200732002006F2002006E20020083
:105CD000662002006620020072200200742002008A
:105CE000762002006F2002006D2002006C2002006E
