:100000000110230031000000A0340000FF000000B8
:10001000021A54E49002BAF0A3F022022D4D43F8E4
:100020000875CD4053CC7F43CC4043CC2043CC100B
:1000300043CC0453CCFD43CB0243CB0153CBBFD2C3
:10004000EB43F50343900343ED0322022AF57F7649
:100050007E107D017C00780412034FD3120286408B
:1000600003C21822D218220229AEFF0222B8BB0115
:100070000689828A83E0225002E722BBFE02E32245
:1000800089828A83E49322BB010989828A83F8E00A
:1000900028F022500327F722BBFE05F8E328F322BD
:1000A0008A838982F8E4932822BB010689828A83A5
:1000B000F0225002F722BBFE01F322EF8DF0A4A83C
:1000C000F0CF8CF0A428CE8DF0A42EFE22C5F0F83F
:1000D000A3E028F0C5F0F8E582158270021583E0F0
:1000E00038F022BB0110E58229F582E5833AF583D9
:1000F000E0F5F0A3E0225009E92582F886F008E651
:1001000022BBFE0AE92582F8E2F5F008E222E58347
:100110002AF583E993F5F0A3E99322F8BB0111E5F1
:100120008229F582E5833AF583E8F0E5F0A3F02231
:100130005009E92582C8F608A6F022BBFE09E92588
:1001400082C8F2E5F008F222EF2BFFEE3AFEED391D
:10015000FDEC38FC22C3EF9BFFEE9AFEED99FDEC1F
:1001600098FC22E88FF0A4CC8BF0A42CFCE98EF054
:10017000A42CFC8AF0EDA42CFCEA8EF0A4CDA8F00F
:100180008BF0A42DCC3825F0FDE98FF0A42CCD35D3
:10019000F0FCEB8EF0A4FEA9F0EB8FF0A4CFC5F03D
:1001A0002ECD39FEE43CFCEAA42DCE35F0FDE43C36
:1001B000FC2275F008758200EF2FFFEE33FECD3381
:1001C000CDCC33CCC58233C5829BED9AEC99E582C8
:1001D00098400CF582EE9BFEED9AFDEC99FC0FD554
:1001E000F0D6E4CEFBE4CDFAE4CCF9A88222B80044
:1001F000C1B90059BA002DEC8BF084CFCECDFCE50F
:10020000F0CBF97818EF2FFFEE33FEED33FDEC3332
:10021000FCEB33FB10D703994004EB99FB0FD8E5B7
:10022000E4F9FA227818EF2FFFEE33FEED33FDEC00
:1002300033FCC933C910D7059BE99A4007EC9BFCF6
:10024000E99AF90FD8E0E4C9FAE4CCFB2275F01082
:10025000EF2FFFEE33FEED33FDCC33CCC833C810A7
:10026000D7079BEC9AE899400AED9BFDEC9AFCE8D5
:1002700099F80FD5F0DAE4CDFBE4CCFAE4C8F92222
:10028000EB9FF5F0EA9E42F0E99D42F0EC6480C8F5
:1002900064809845F022EB9FF5F0EA9E42F0E99DDC
:1002A00042F0E89C45F022E8600FECC313FCED132C
:1002B000FDEE13FEEF13FFD8F122E8600FEFC3331A
:1002C000FFEE33FEED33FDEC33FCD8F122BB010D24
:1002D000E58229F582E5833AF58302032B5007E98D
:1002E0002582F802044DBBFE07E92582F802033798
:1002F000E58229F582E5833AF583020459BB0107BB
:1003000089828A830203B15005E9F8020486BBFEA4
:1003100005E9F80203BD22BB010DE58229F582E55E
:10032000833AF5830203B15007E92582F802048677
:10033000BBFE07E92582F80203BD22E0FCA3E0FD35
:10034000A3E0FEA3E0FF22E2FC08E2FD08E2FE08D3
:10035000E2FF22E0F8A3E0F9A3E0FAA3E0FB22E247
:10036000FB08E2F908E2FA08E2CBF822BB010789B0
:10037000828A830203435005E9F8020469BBFE0543
:10038000E9F802034F89828A830204767401FF33FD
:1003900095E0FEFDFCA3A3A3E0CF2FF0E58215823C
:1003A00070021583E0CE3EF0E5821582700215835F
:1003B000E0CD3DF0E582158270021583E0CC3CF083
:1003C00022ECF0A3EDF0A3EEF0A3EFF022ECF208A4
:1003D000EDF208EEF208EFF222A8828583F0D083D6
:1003E000D0821203E01203E01203E01203E0E47390
:1003F000E493A3C583C5F0C583C8C582C8F0A3C56F
:1004000083C5F0C583C8C582C822D083D082E49357
:10041000F208740193F208740293F208740393F2E1
:10042000740473A42582F582E5F03583F58322FAFE
:10043000E6FB0808E6F925F0F618E6CA3AF622E0E7
:10044000FBA3E0FAA3E0F922EBF0A3EAF0A3E9F0C2
:1004500022E493FB740193FA740293F922E6FC08F8
:10046000E6FD08E6FE08E6FF22E493FC740193FD36
:10047000740293FE740393FF22E6FB08E6F908E694
:10048000FA08E6CBF822E493F8740193F974029326
:10049000FA740393FB22ECF608EDF608EEF608EF8B
:1004A000F62290027FEEF0A3EFF0A3ECF0ED121431
:1004B000E0400D900281E0FFA3E090028502073A40
:1004C00090005CE09002831207489002891214A405
:1004D000120748900287EEF0A3EFF09001E9E09058
:1004E0000283F075F0029001DD1214641207879008
:1004F000028D1214A4F075F0029001DD1214641242
:10050000078790028BEEF0A3EFF090020AE09002D2
:100510008312147B9002971203B11214A912147B58
:100520009002931203B1900281121430C006C007EA
:100530009001EA12155BD007D00612014590028F98
:100540001203B1900281121430C004C005C006C06D
:10055000079001EAE0FEA3E0FFE490029F1203B1DE
:10056000D007D006D005D0041230AA90021512038D
:10057000B120002CD37817E2949418E29411502003
:1005800090021AE0601A900263E09400900262E028
:100590009400500C30020990026FE070030206F9DB
:1005A000900244E07002A3E0700A900239E0700209
:1005B000A3E0600812157F50030206F93000121202
:1005C0001518400D9002527402F090028404F080DD
:1005D0005CD390025FE0940090025EE094004007DC
:1005E0009002527408801B12157F400E90025274C4
:1005F00019F09002847414F0803330000890025295
:10060000740BF080243016099002527402F0E480DA
:100610001890020BE0900252B4010A7403F09002A9
:100620008414F080087401F0E4900284F030001922
:1006300012151840149002971203C9000000009090
:1006400002931203C90000000075F0AF1214F09E6F
:10065000400B12144640031216150206BC900252BB
:10066000E0FD75F096A4FF1214F895F05010ED75AA
:10067000F0C8A4FF1215D995F050030206F09002BD
:1006800084E02408FFE433FEC390028AE09F9002D6
:1006900089E09E40141214D19001EE1203B17F0E36
:1006A0001231419002460206E9D3900247E09400DD
:1006B000900246E0940040030206F075F096121492
:1006C000F09E4013121446400312161512160F9096
:1006D00002931207658022900252E075F0C8A4FFD1
:1006E000AEF01215D99E4021121446400312161581
:1006F00012160F900297120765EEF0A3EFF0800933
:100700001214D19001EE1203B190022BE07004A3F9
:10071000E064017003122798900281121430900156
:10072000EE120343120145122A1D900285EEF0A33A
:10073000EFF0A3E0FEA3E0FFA3E0FCA3E0FD1223A3
:100740007F7812E2FF08E2900213CFF0A3EFF0905F
:100750000285E0FEA3E0FF22F025E02450F582E4CC
:100760003400F583E0FCA3E0FD90027FE0FEA3E00F
:10077000FF1233C2221203431201459001EE12030D
:10078000B17F0D123141900244EEF0A3EFF07F18DB
:1007900012314190026822900281E0FEA3E0FF1234
:1007A00033C222900288EFF012153FE0FEA3E0FF73
:1007B00075F002ED9000BE1214641233C2D3EF94B0
:1007C000C8EE940040089002897401F08014D3EFC1
:1007D0009464EE940090028940057402F0800374E2
:1007E00003F0900288E075F004A424D0F974003579
:1007F000F0FA7B01121426900289E090029AF0121E
:100800002C02900288E012153FEEF0A3EFF0ED7598
:10081000F004A42441F9740135F0FA7B01900288B8
:1008200012142690029A7406F0122C02900288E0AC
:10083000900131121543EEF0A3EFF090028B1203FA
:10084000C900000000E4900289F090028B12032B93
:10085000C004C005C006C007900288E0FD75F01412
:100860009000E0120413C083C082900289E0D0821D
:10087000D083121543E0FEA3E0FFED12145E1233A5
:10088000C2AB07AA06E4F9F8D007D006D005D00419
:1008900012013890028B1203B1900289E004F0E05B
:1008A000C3940A40A590028B12032B900288E0901B
:1008B000016312160090024AE07002A3E0703A90C1
:1008C0000130E075F00A84E5F0F0E4FFEF12145E09
:1008D00075F014EF9000E0120413C083C082900101
:1008E00030E0D082D083121543ECF0A3EDF00FEF8F
:1008F000B404D9900130E004F0301F030209D13074
:1009000007030209D1900244E07002A3E0600302F1
:1009100009D1900239E07002A3E060030209D178A6
:1009200016E2FE08E2FFC39494EE9411501890343E
:100930005E740193249CFDE49334FFFCD3EF9DEEA1
:100940009C40030209D1900288E06403600302091D
:10095000D190028F1203C9FFFFFFFFE490028AF0DB
:10096000900289F0900289E0FFC39404502D75F045
:1009700004EF9001631214BF90028F120343D3124D
:100980000286400F900289E0A3F01214B990028F02
:100990001203B1900289E004F080C99001B8E0121E
:1009A00014B9E47B1E1215D2503790028AE09001F0
:1009B000B8F0A3E090013912142A9001B41214DAAD
:1009C000C006C0079001B8E075F00290013912042A
:1009D0001312155BD007D0061201459001B4120323
:1009E000B1900288E0B403169001B8E075F00212ED
:1009F0001609E0FFA3E09000C6CFF0A3EFF090014E
:100A0000B412032B9000C7E02FFF9000C6E03E9089
:100A10000161F0A3EFF09001B8E0A3F0900288E04C
:100A2000FF90013112146175F002EF900139120448
:100A300013ECF0A3EDF07A0179A31214C57418F049
:100A40009001611215A47A017973122F287B017A23
:100A50000179737D181224F4AF41AE40AD3FAC3E36
:100A60009001A40203B190027EEEF0A3EFF0E4A3A4
:100A7000F0D3900234E09400900233E094004006FA
:100A8000121CFF020C9C900225E0FEA3E0FFD39411
:100A900000EE94005005121C83401E121CDC40081E
:100AA0009001CCEAF0A3EBF09001CCE0FDA3E0785C
:100AB00014CDF208EDF2020CA2200003020B76D353
:100AC000900228E09400900227E094005003020B6B
:100AD00076121CDC40089001CCEAF0A3EBF0D3EFD7
:100AE0009400EE94005005121C834003020B9E12EA
:100AF0001C905065EDAE047802CEC313CE13D8F926
:100B0000FFC3EB9FEA9E40069001CFE0604B120CC2
:100B1000F94011121D6A7802CEC313CE13D8F91210
:100B20001D0E5035A215301401B3402D121D7C0846
:100B3000121CF89FEC9E5009C3EF9404EE942940D8
:100B400018D3EF9404EE94295003020CA2D3ED9431
:100B500004EC94295003020CA29001CF7401F09090
:100B60000280F0D37813E2940418E29429401578B7
:100B700015E2940418E29429500A7429F2087404C6
:100B8000F2020CA28028200003020C099001CCE0A4
:100B9000FEA3E0121CF6D39FEC9E40089001CCEC23
:100BA000F0A3EDF0121CC65005121C834006121D66
:100BB0002D020CA2121C905054EDAE047802CEC34C
:100BC00013CE13D8F9FFC3EB9FEA9E40069001CFE6
:100BD000E0603A120CF94011121D6A7802CEC3137C
:100BE000CE13D8F9121D0E5024A215301401B340B3
:100BF0001C121D7CFF7815E29F18E29E4003020C38
:100C0000A2C3EF94F8EE942A4003020CA29001CF05
:100C10007401F0121D2D020C9C900070120343C051
:100C200000121D7CFFE4FCFDD00012013890007022
:100C30001203B1900076E475F0011200BD121D6A36
:100C4000C3121D0F50387808E2FE08E2FF90004AF8
:100C5000E0FCA3E0FD1233C2D3EF9414EE940050F5
:100C60001DA215301401B34015900237E0FEA3E039
:100C7000FFD3900236E09F900235E09E4034900012
:100C800076E0FEA3E0FFFBAA06E4F9F890007012FC
:100C9000032B1201DE121D54400E7815E22FFF18AF
:100CA000E23EC313FEEF13FFEE121D359002807477
:100CB00001F0900280E06050E4900076F0A3F090A4
:100CC00000701203C900000000E49001CAF0A3F014
:100CD00090345E93FE7401937802CEC313CE13D882
:100CE000F92410FFEE3427FED39001CDE09F900150
:100CF000CCE09E40077427F0A37410F0121CFF1282
:100D00001D62900235121CD4227808E2FE08E2FF30
:100D100090004AE0FCA3E0FD1233C2D3EF9414EE3E
:100D2000940022E49002A0F0EF7003020ECC123285
:100D3000D19001B01203C900000000E49002A1F0BC
:100D40009002A61203C9000000009002A1E0FF1269
:100D50002E76121C209002A21203B1E490029FF0A2
:100D60009002A212032B9002A1E075F00C90007982
:100D7000120413C083C08290029FE0D082D083759A
:100D8000F0041204131203B1121C32E0B403D17840
:100D90005C9002A2121C0F9002A21203B19002A159
:100DA000E0FF9000BE121B7A9000C8121B799001E0
:100DB00031121B7975F002EF900139121B7D75F02D
:100DC00004EF9000D01204131203C9009C4000905D
:100DD00002A1E0FB75F0049001411204131203C953
:100DE000009C4000121BBB75F004EB9001511204F3
:100DF000131203B1E490029FF090029FE0FFC394AE
:100E00000A50159002A1E075F0149000E01204134E
:100E1000121B79121C3280E19002A6120343121BAE
:100E2000BB1201389002A61203B19002A1E004F0B7
:100E3000C394045003020D3A900161121B8090008C
:100E4000C6121B80900161E0FEA3E0FF9002A0E0CB
:100E500075F002900173120413EEF0A3EFF090010D
:100E6000B0120343900161E0FEA3E0FFE4FCFD1239
:100E700001389001B01203B19002A0E004F0C394D5
:100E8000185003020D2B121C3C9001A4121C399027
:100E900001A8121C3978061202AA9001AC1203B103
:100EA000E49001B8F0A3F0A3F09001B41203C900DC
:100EB000000000E490029FF090029FE0FFC39405C1
:100EC000500F75F002EF9001BD121B7D121C328095
:100ED000E79001C8121B80E49002D8F09001A412A0
:100EE0001BBE90006A1203B19000701203C900008B
:100EF0000000E4900076F0A3F078147427F20874F0
:100F000010F278127427F2087410F2E47816F208DE
:100F1000F2900211F0A3F09001BB121B80E490014B
:100F2000CAF0A3F09001D0121B80A31203C90009DC
:100F3000C4009001D6121B80A31203C90009C4008B
:100F40009001DC740AF09001EC121B8090020D12EB
:100F500003C9000000009001EA121B809001EE120C
:100F600003C900000000E490029FF090029FE0FBA4
:100F700075F0049001F21204131203C9000000007E
:100F800075F002EB9001DD121B7D121C32E0B406FD
:100F9000DAE490024CF0A3F0A3F0A3F0900266F024
:100FA000A3F0A3F0A3F090020BF0A3F0229002199B
:100FB000E090021EF0121CC65005121C834007E48C
:100FC000900219F08008122E36900219EFF0121DCF
:100FD0005440030211CE900219E0FF122F61EF700E
:100FE0000D121CC65008121C8350030211CE900231
:100FF0001AE0705890026FF090026BF0A3F090002E
:1010000063F0A3F0900266F0A3F0C21EC212122693
:10101000FC1232637F01123141D390022EE0940022
:1010200090022DE09400401E30140DEF7803CEC3E3
:1010300013CE13D8F9FF800EEEC4F854F0C868FE42
:10104000EFC4540F48FF120A56021142900063E0A9
:101050007002A3E07013900063121D027F1712311B
:1010600041900266EEF0A3EFF0900266E07004A3F8
:10107000E06401702A900063E0FEA3E0FF2496FD87
:10108000E43EFC7808121CE64004D21E8011EF24D6
:101090006AFFEE34FFFEC3EB9FEA9E5002D212308D
:1010A0001E3F121CB6D39DEE9C500302114212113A
:1010B000CF40030211427F14123141EF7802CEC3B8
:1010C00013CE13D8F9121D3C7F151231417C007DDF
:1010D000031200AB90025EEEF0A3EFF0C21E02110D
:1010E00042301224121CB6D39DEE9C40651211CFE3
:1010F00050607F14123141EF7802CEC313CE13D863
:10110000F9121D3CC212804A301647121CB6D39DFC
:10111000EE9C403E1233C2C390345E7401939FE450
:10112000939E502E121CBD7816E2FC08E2FD12338D
:10113000C2AA06AB07121CBD7C007D031200ABEFF8
:101140007802CEC313CE13D8F9C39BEE9A50031284
:10115000279890025CE07004A3E0640170031227FA
:101160009890021AE0FFA3E06F603E122DEA7F190B
:1011700012314190026DEEF0A3EFF090021CE030CE
:10118000E421D3121C835005121CC74009E49002CD
:1011900033F0A3F0800D7F07123141900233EEF05F
:1011A000A3EFF090021AE0A3F090021AE0602F90F3
:1011B000026DE07004A3E0640170237816E2FE087B
:1011C000E2FF90026BEEF0A3EFF0C394DCEE940527
:1011D000500790026F7401F022E490026FF0221227
:1011E00033C2AC06AD07900211E0C313FEA3E013B7
:1011F000C39DEE9C2290021FE475F0011200BDD346
:10120000900224E09400900223E094004003123204
:10121000ADD3900226E09400900225E094004003B4
:101220001232ADD3900263E09400900262E0940029
:1012300040031232ADD390022AE09400900229E0DC
:10124000940040031232ADD390022CE0940090023F
:101250002BE0940040031232ADD3900232E09400B0
:10126000900231E09400400F1232AD900231E070F4
:1012700002A3E07002D210D3900230E094009002FA
:101280002FE0940040031232ADD390022EE0940080
:1012900090022DE0940040031232AD900219E0302C
:1012A000E011E4900233F0A3F0A3F0A3F0A3F0A3C5
:1012B000F08042D3900234E09400900233E0940036
:1012C000401A1232AD900233E07002A3E0700D7F3D
:1012D0000B123141900237EEF0A3EFF0D3900238B9
:1012E000E09400900237E09400400A900235E475E3
:1012F000F0011200BDD390023CE0940090023BE06C
:10130000940040031232ADD3900245E09400900265
:1013100044E0940040031232ADD3900247E09400C1
:10132000900246E0940040031232ADD3900249E0AF
:101330009400900248E0940040031232ADD3900232
:101340004BE0940090024AE0940040051232AD80D8
:101350000D7F1012314190024AEEF0A3EFF0D390CE
:10136000024DE0940090024CE0940040031232AD34
:10137000D390024FE0940090024EE094004003129C
:1013800032ADD3900251E09400900250E0940040BE
:10139000031232ADD390025FE0940090025EE094BD
:1013A0000040031232ADD390025DE0940090025CE5
:1013B000E0940040031232ADD3900261E0940090BB
:1013C0000260E0940040031232ADD3900267E094D3
:1013D00000900266E0940040031232ADD39002699F
:1013E000E09400900268E0940040031232ADD39084
:1013F000023AE09400900239E0940040031232ADCA
:10140000D390026EE0940090026DE09400400312CD
:1014100032ADD3900228E09400900227E09400407F
:10142000031232AD227F9C74FFFE900281FDFC12FC
:101430000343D3020270E09000BE75F00212041361
:10144000E0FEA3E0FFE4FCFD22E47FE87E03FDFC78
:101450001203430201539001CDE02FFF9001CCE035
:101460003EFED3900282E09F900281E09E22900097
:10147000C875F002120413E0FCA3E0FD2290005CAA
:10148000E0245DF582E43400F58322F075F00490E9
:1014900001F21204131203439001EE12032B020116
:1014A0004590027EE075F00CA42479F9740035F0C3
:1014B000FA7B0122EEF0A3EFF0900283E02403F028
:1014C000E075F00684AFF0EF2290016375F004122E
:1014D000041302032B7B01900296120438900299A8
:1014E000229001EE12032B90028F12034302013867
:1014F000A3F0D3900226E09400900225E09400220D
:10150000900252E0A4FFAEF0C390028CE09F9002E4
:101510008BE0229002A21203B190029A1203439030
:1015200002A212032B0201DED3900228E094009065
:101530000227E094002290029612042F02005EFF20
:10154000E4FCFDFE12034F1201537807020297FDDF
:101550009000C875F00202041324FFFFEE34FFFE72
:101560003395E0FDFC12035C020153E0FEA3E0FBB7
:10157000AA06E4F9F82274FF7FF1FEFDFC900281D7
:10158000120343C302027012042F7401020077D3C6
:1015900090022CE0940090022BE094002275F0045D
:1015A000A4F58285F0832290028812043890028B81
:1015B0007403F022E0FFA3E090029ACFF0A3EFF0D3
:1015C000221202978F278E268D258C2422120297B5
:1015D0008F278E268D258C2422785CE6FFE4FCFD87
:1015E000FE22FAF9F8C3020286C390028EE09F90B1
:1015F000028DE022E0FF74017E00A807082212039A
:10160000B190029E02032B12033790028C0203B1A9
:1016100075F0041204130203B19000BE020413908B
:1016200001EE02032B9001CE7401F0227B017A01BE
:1016300079D2E4FCFD90028D7405F0122BAD90017F
:10164000D0EEF0EF1214E0400280339001BB121490
:1016500030C006C0079001D012155BD007D006122B
:1016600001459002811203B1E47FFA121419400679
:101670009002850216BBE47FB4121419400990024F
:10168000857405F00216BEE47F64121419400280CE
:10169000121215664008900285740AF08030121408
:1016A0001540089002857408F080237F4C121417AF
:1016B00040089002857406F0801474FF7F061214AF
:1016C0001990028540057404F080037401F0300025
:1016D00060E47F907E0112141A4006900285021782
:1016E0001EE47FC81214194005900285803BE47FF8
:1016F000641214194002801D121566400280051202
:1017000014154008900285740AF0802574FF7F4C00
:1017100012141940089002857408F0801474FF7F39
:101720003812141990028540057406F08003740382
:10173000F0900285E09001DCF09001BB1214309033
:101740000285E090028DF07B017A0179D8122BADF1
:1017500090027FEEF0A3EFF0900248E07002A3E069
:1017600060030217D67F0F123141EEC313FEEF1351
:10177000FF900248EEF0A3EFF07B017A00795C1253
:1017800014C77406F07808E2FF08E2A3CFF0A3EFD5
:10179000F07A007950122F287B017A0179E912142E
:1017A000C77406F090027F1215A47A0179DD122F1A
:1017B000287B017A02790A90028912043890028CFF
:1017C0007406F012160F90028D1203B17A0179F2AD
:1017D000122FD17816E2FF08E2900211CFF0A3EFAA
:1017E000F012146DE4F090027FE0FEA3E0FF22E42B
:1017F00090027FF07B017A00793D121597780012F4
:1018000015F77A007931122F9A7B017A007931121B
:1018100019007B321215D2500690027F7401F090AD
:1018200002D8E090027EF0E4900280F0121491C0A1
:1018300002C0017A0079A9121597780A1215F7D01B
:1018400001D002122F9A1214911219007BF47A011E
:101850001215D350069002807401F03000459002BA
:101860007FE07004A3E0603BD21A7B017A007931FB
:101870001218CE785B1215CB9002811214407807B3
:1018800012029778041203BD1214911218CE121589
:10189000C99002811214407807120297780E120341
:1018A000BD8038C21A785BE6780012152F780412D2
:1018B00003BD7804120337EC4D4E4F70037F0222B4
:1018C000785CE6780A12152F780E1203BD780E1296
:1018D0000337EC4D4E4F70037F02227F04227D03BD
:1018E000122043C3E5419539FFE5409538FEE53FB9
:1018F0009537FDE53E9536FCC3EF953DFFEE953CF3
:10190000FEED953BFDEC953AFC9002811203B1226D
:101910007D03122043C3E539953DFFE538953CFE34
:10192000E537953BFDE536953AFCE42290028812B6
:1019300003B11214E2405B90028812032B90003E28
:101940001203B1E47F50FEFDFC90003E121440787B
:101950000A1202979000421203B1E4900291F090B3
:101960000291E0FFC39404502975F00CEF900081C0
:10197000120413120343C0001215C9D00012153708
:10198000900291E09000AA121600900291E004F0FB
:1019900080CD900290E09000AA1214BCE47B0AFA79
:1019A000F9F8120153780A1202979000BA1203B1A3
:1019B00090004212034390003E12148BC004C005F5
:1019C000C006C00790004212034390028812148B95
:1019D00090029A1203B190029E1203C90001000006
:1019E000D007D006D005D0041225A99000461203D6
:1019F000B19000BA12034390028C12148BC004C041
:101A000005C006C00790029A1203C90001000090A9
:101A1000004612032B90029E1203B1D007D006D0CD
:101A200005D0041225A99002921203B19000BA12B7
:101A3000032BAB07AA0690029212032BEF2BFBEEAF
:101A40003AFA900290E0F975F0049001511214BF37
:101A5000C3EB9FFFEA9EFE75F002E9121609EEF055
:101A6000A3EFF022439F04E453C6DFE5C600B5C6EA
:101A7000F375830075820775FD0DE4E5FEF4FF75CF
:101A8000830075820675FD0DE4E5FEB50704F59E3D
:101A90008003759E0078100000D8FC53C6E043C652
:101AA0000843C6807596077597097583007582048B
:101AB00075FD0DE5FD0404F58F75830075820375D2
:101AC000FD0DE4E5FEF4FF75830075820275FD0DE2
:101AD000E4E5FEB50704F595800375958375BE0EA4
:101AE0005392FE9001007F007E02E4F0A3DFFCDE53
:101AF000FA78007F00E4F208DFFC78FFE4F6D8FD16
:101B00007581C5021B34020000022653E493A3F83A
:101B1000E493A34003F68001F208DFF48029E49304
:101B2000A3F85407240CC8C333C4540F4420C883FB
:101B30004004F456800146F6DFE4800B01020408FD
:101B4000102040809033ACE47E019360BCA3FF542E
:101B50003F30E509541FFEE493A360010ECF54C04B
:101B600025E060A840B8E493A3FAE493A3F8E493D3
:101B7000A3C8C582C8CAC583CAF0A3C8C582C8CADB
:101B8000C583CADFE9DEE780BEEF75F002120413F9
:101B90007427F0A37410F02212015390027E1203F6
:101BA000B190025812034390027E12032B1201DE01
:101BB000780812029790027E1203B17F0FE4FEFDB7
:101BC000FC90027E120343D30202869002A212030B
:101BD0002BEF24F0FFEE34D8FEED34FFFDEC34FFA4
:101BE000FC2290001BE0903455932290027E120359
:101BF0002BC3EF940FFFEE9400FEED9400FDEC94E8
:101C000000FC90027E0203B175A9A075AC0375AD0E
:101C1000C075AEC022E5BAF053BA0F43BA1022E63F
:101C2000FFE4FCFDFE120343120153780702029702
:101C30001231C790001BE0FF022A93900069E04236
:101C4000F42290029FE004F0221203B19001B0024E
:101C5000032B900069E0FFF452F4EF428022E0F59C
:101C6000B3A3E0F5B2A3E0F5B12290001AE09034FE
:101C70005593F5AB2275BF0F43B92053B9FD2290A0
:101C8000028312032B90027F2290028312032B9077
:101C9000027F2290022AE09400900229E094002220
:101CA000900076E475F0011200BD90027EE0FCA386
:101CB000E0FDECC313FEED13FF900076E0FAA3E025
:101CC000FBC39FEA9E227816E2FC08E2FD90021117
:101CD000E0FEA3E0FF22D3900226E09400900225CC
:101CE000E0940022F0A3F0A3F0A3F0229001CCE056
:101CF000FCA3E0FD7812E2FA08E2FBD39DEA9C2205
:101D00007814E2FE08E27812FFE2FC08E2FD22907D
:101D1000004A7808E2FF08E2CFF0A3EFF022D3FFF9
:101D2000900077E09F900076E09E2290023EE4755E
:101D3000F0011200BDFCD3E5F09FEC9E229001CC97
:101D4000E0FFA3E0CF7814F208EFF22290025CFFEC
:101D5000EEF0A3EFF0227814E2FE08E2FFD394F84D
:101D6000EE942A22D3900263E09400900262E09401
:101D70000022E490023EF0A3F02290027EE0FEA357
:101D8000E022C37815E29DFF18E29C227812E2FE61
:101D900008E22230111512346F745AF07F0A1231A2
:101DA0004190022FEEF0A3EFF0C211A21492153071
:101DB00002028020D3900226E09400900225E09455
:101DC000005011900230E0940090022FE0940050F7
:101DD0000320100A12346F745AF0C21480081234AF
:101DE0006F7403F0D21430141890026AE0B4010446
:101DF0007F01800790026AE07004FF12310F1233F6
:101E000012A215301401B3502890021AE06012D2C9
:101E1000167812E2FF08E2900253CFF0A3EFF080B1
:101E2000107F0212314190022DEEF0A3EFF0122745
:101E3000982014173015147F03123141EEC313FE9E
:101E4000EF13FF900262EEF0A3EFF07812E2FE08CB
:101E5000E2FF900253E0FCA3E0FDD39FEC9E401212
:101E6000ED9FFFEC9EFED3EF94DCEE940540031251
:101E7000279890021AE0700F301603122798C216A6
:101E8000E4900253F0A3F022E49002A0F0EF607B14
:101E90001232D19000291203C9000000001231C78C
:101EA000900029122A8B1201389000291203B19058
:101EB00002A0E004F0C3941840E3E0FFFBE4FAF969
:101EC000F890002912032B1201DE9002A11203B137
:101ED000785B9002A1121C0F78041203BDE49002FB
:101EE0009FF090029FE0FBC39403501F9002A11249
:101EF000032BEB25E025E02431F582E43400F58363
:101F00001203B190029FE004F080D77804120337E7
:101F1000EF24D0FFEE348A121BC89000251203B1C3
:101F200090004A7475F0A37430F0A31203C9001D29
:101F30004C00E490029FF090029FE0FFC394065093
:101F400027EF25E02450F582E43400F5837475F022
:101F5000A37430F0745D2FF582E43400F583E4F06F
:101F600090029FE004F080CFE490005CF078087469
:101F700075F2087430F22220CA03022042E546704E
:101F800003022042E4FF74462FF8E6FE747F2FF52B
:101F900082E43402F583EEF0E4F60FEFB405E79047
:101FA000027FE0FF54F0FEEF540F90027EF0AF0688
:101FB000EF24A0602424F0602824D0603824E0704E
:101FC0000302203624E070030220392490600302CB
:101FD00020427858E6440180057858E654FEF680A1
:101FE00061E4FF123367785AEFF67856BFFF037645
:101FF000232276FF2290027EE0FD700B7858E630B7
:10200000E2501232FC803BEDB4010B7858E620E23E
:1020100041123307802C90027EE0FDB40211785803
:10202000E630E22E1232FC90026A7401F08013ED69
:102030006403701E7858E620E218123307E4900219
:102040006AF0751C0222022798E4900225F0A3F0A2
:10205000D21F22900285120438900288EDF0E4F538
:1020600028F527F526F52574FFF52CF52BF52AF52F
:1020700029E4F530F52FF52EF52DF524900288E0B2
:10208000FFE524C39F507090028512042F75F00461
:10209000E524A4F58285F0831202BD8F348E338D42
:1020A000328C31AF28AE27AD26AC25D31232C640D4
:1020B0000C853428853327853226853125AF2CAE13
:1020C0002BAD2AAC29C31232C6500C85342C853373
:1020D0002B85322A853129E5302534FFE52F35332C
:1020E000FEE52E3532FDE52D35318F308E2F8D2ECC
:1020F000F52D052402206C8528398527388526375B
:10210000852536852C3D852B3C852A3B85293A85BE
:102110003041852F40852E3F852D3E900288AF307F
:10212000AE2FAD2EAC2D1232B4227B077A0790026F
:102130007F1203C9000000001232D1EB601A740153
:102140007E00A803088005C333CE33CED8F9FFAD97
:10215000ACEF5D70031B80E3EA601A74017E00A897
:1021600002088005C333CE33CED8F9FFADAEEF5DA4
:1021700070031A80E3AF037401A807088002C33319
:10218000D8FCF5AC7401A802088002C333D8FCFF68
:10219000F5AD8FAE53AACF43AA0490027E121C0560
:1021A000121BD242AB121C209002831203B1121CEC
:1021B00079120343C31202865006121C791203B12E
:1021C00090027F120343C00090027F12032B78031A
:1021D000120297D00012013890027F1203B19002D0
:1021E0007F12032B9000651203B143AA3053AAFB60
:1021F00090027EE0F5BA121BD2F452AB121BFB2206
:102200007B077A0790027F1203C900000000123298
:10221000D1EB601A74017E00A803088005C333CE99
:1022200033CED8F9FFADACEF5D70031B80E3EA60FD
:102230001A74017E00A802088005C333CE33CED8BD
:10224000F9FFADAEEF5D70031A80E3AF037401A830
:1022500007088002C333D8FCF5AC7401A8020880DB
:1022600002C333D8FCFFF5AD8FAE53AACF90027EE8
:10227000121C051231C7122A8E9002831203B1126A
:102280001C6F120343C31202865006121C6F120306
:10229000B190027F120343C00090027F12032B789B
:1022A00003120297D00012013890027F1203B190FE
:1022B000027F12032B9000201203B143AA30900238
:1022C0007EE0F5BA121BFB22C0E0C0F0C083C082E2
:1022D000C0D075D008C2CFD21130CD0302237420F4
:1022E000CC6030CB2285CE54E554C3948040167523
:1022F000F003E5549027BF1204131204418B518A56
:102300005289538063807385CE35E5547022E5355C
:10231000B410099002D9E0F452808066E535B4200B
:10232000089002D9E0428080598535460554805294
:10233000E554C39405500774462554F8A635055452
:102340008040E554B4C0057546C08036E554B4C23B
:10235000107858E630E2057546A080267546A180C3
:1023600021E554C3948040107851E475F0011204C3
:102370001F12005EF5CE800A0554E5502554F8E69C
:10238000F5CED210D0D0D082D083D0F0D0E0329031
:10239000029BECF0A3EDF0E4FD90020BE07034C37F
:1023A000EF940AEE9400400612146D7401F01214BA
:1023B0006DE07002C21DE4FF745D2F121473E070B3
:1023C00004C21D80130DEDB40602D21D0FEFB4063A
:1023D000E7800512146DE4F090024EE07002A3E075
:1023E000705790024CE07002A3E0704D90020BE039
:1023F000701B301D187F1112314190024CEEF0A37A
:10240000EFF090020B7401F0D21BC21D2290020B60
:10241000E064017036C390029CE0940A90029BE055
:10242000940050277F121231417C007D0C1200ABCA
:1024300090024EEEF0A3EFF02290024EE07004A363
:10244000E06401700690020BF0D21C221232D1908F
:10245000027F121C0578001203FA000000009002AF
:102460007E7405F075ABFF1231C7780012034F126E
:102470002A8E12013878001203BDE4F5AB1231C781
:102480007800120337C004C005C006C007122A8EA8
:10249000A804A905AA06AB07D007D006D005D0042A
:1024A00012014578001203BD90027EE014F0E07046
:1024B000B3780012034F7F007E817D297C001201DA
:1024C000DE9002801203B190028012032B90029FD3
:1024D0001203B17F967E007D007C001230AAE47B5F
:1024E00032FAF9F8C31202865006785B7696800AB3
:1024F00090028012032B785BA60790027FE0F5BA6A
:10250000121C5A22900293120438900296EDF0E4C5
:10251000F525F52674FFF527F528E4F52EF52DF5BC
:102520002CF52BF524900296E0FFE524C39F50592B
:1025300090029312042F75F002E524A4F58285F031
:10254000831200D3F52A85F029D39526E529952510
:102550004006852925852A26C3E52A9528E529955B
:10256000275006852927852A28E4FCFDE52E252A03
:10257000FFE52D3529FEED352CFDEC352B8F2E8E0C
:102580002D8D2CF52B0524809CE485263985253856
:10259000F537F53685283D85273CF53BF53A852E00
:1025A00041852D40852C3F852B3E900296AF2EAE67
:1025B0002DAD2CAC2B1232B4229002961203B1E452
:1025C0007BE87A03F9F89002961215129002A6128F
:1025D00003B19002A6121439A804A905AA06AB07F4
:1025E00090029612148B9002AA1215EE9002A61277
:1025F00014401215039002AE1203B190029A120316
:102600002B9002AE121440A804A905AA06AB0790AD
:1026100002A212148B9002B21215EE9002AA1214AA
:10262000409002A21203B19002A2120343C000C064
:1026300001C002C0039002B2121439D003D002D0FC
:1026400001D0001201381215039002B61203B1E452
:102650007FE87E03FDFC9002AE1214409002B61299
:1026600014DA2212319C12347C123462122D9C1224
:10267000333112000E123401D2AF751C01E51C2457
:10268000FE601E1460361460561460602404706787
:102690001234451233D81233EE12337EE4FF122E79
:1026A000EED2D8E490021FF0A3F09002BAF0A3F0AB
:1026B000123074E51D70FC1233958036D2D8E51DBA
:1026C00070FC1217DF8F1C121D839002D8E090005F
:1026D00078F09002D804F012303E123395801B122D
:1026E000323E8F1C1228301211E5800E120F9D12FF
:1026F00031F0751C038003751C01120057E51C6442
:1027000004700302266D121F6702266D900233E0EB
:102710007002A3E06003022797300054121CF0C33C
:102720009FEC9E5049121D7290027EF0FCA3EFF0C8
:10273000FD90345EE493C313FE74019313FFD3ED55
:102740009FEC9E40297F05123141EF25E0FFEE33DB
:10275000FE121D1B4051121D62900268E07002A320
:10276000E070449001CFE06401703C022798803211
:10277000121CF0C39FEC9E502B121D72FE90027E25
:10278000F0A3EFF0D39432EE940040167F0512319F
:1027900041EEC313FEEF13FF121D1B400A122798D0
:1027A00080028000121D6222E51D70FCE4FF121EF3
:1027B00078E4FF120D13E490021AF090021CF090DE
:1027C000023DF0900233121CD4A3F0A3F090023B20
:1027D000F0A3F0900240121CD4A3F0A3F0900239B1
:1027E000F0A3F0900246121CD4900063F0A3F09086
:1027F00001CEF0A3F0A208300001B350227F0412F2
:102800003141900229EEF0A3EFF07F04123141EF45
:102810007802CEC313CE13D8F990022B121D3F308D
:10282000001D90022BE07002A3E070137814742A4C
:10283000F20874F8F29001CC7427F0A37410F0221F
:102840007F8590345EE493FC740193FD1234357FF0
:102850008790345E740193249CFDE49334FFFC1252
:1028600034357F897D647C001234357F8F301818B1
:102870007D397C301234357F8D7D397C3012343592
:102880007F917D397C30801F7812E2FC08E2FD12D6
:1028900034357F8D7816E2FC08E2FD1234357F91E5
:1028A0007814E2FC08E2FD1234357F9F900274E058
:1028B000FCA3E0FD1234357F9D900276E0FCA3E09E
:1028C000FD1234357FA17D027C00123435022B5578
:1028D000780E1203379002831203B1780412033783
:1028E000122EB49001B01203B190006A12032B9023
:1028F00001B0120343C312028650037F02229001EB
:10290000B012032B122CAB9001BBEEF0A3EFF090B2
:1029100001D6E0FFA3E09001EACFF0A3EFF0900131
:10292000BBE0FEA3E0FF12161C9001D6EEF0FCA364
:10293000EFF0FD7808E2FE08E2FF1204929001EC4D
:10294000EEF0A3EFF07812EEF208EFF27F0522012D
:102950000079FE000E0100BE0100C80101B40101B2
:10296000610101B00101BB0101D00101D60101ECFF
:10297000FE0012FE0014FE0016FE0018FE0000FE0F
:10298000000401003E010042010046FE0008010271
:102990007401027C01028401028C01024A0100E000
:1029A0000101630102700102780101B80100D00148
:1029B000016301020B01024C01024E01022590024B
:1029C00055E030E1091229FD201803122A0D90026A
:1029D00055E054FDF090021CE0540FFF6027900278
:1029E00055E0FE30E2067864A6078010EE30E31C66
:1029F00090021CE0540FC454F07864F620180612BC
:102A000029FD122A0D900255E054F3F022C2107FE6
:102A100008123141900231EEF0A3EFF022C2927F12
:102A2000217E007D007C0012334FD2922290029BC7
:102A30001203B1E47F607EEA90029B12141D4004F1
:102A4000D2078002C207E47FFF7EFFFDFC90029B5D
:102A500012141F400C90029B1203C90000FFFF805C
:102A600033E4FFFEFDFC90029B12141F5026122738
:102A700098301E167F151231417C007D031200AB89
:102A800090025EEEF0A3EFF0C21E90029B1203C90B
:102A90000000271090029B12032B22120343900088
:102AA0001AE0FFEFC39404500553B9EF800343B914
:102AB00010EF6003B4040B85B71985B61A85B51BF2
:102AC000803AEF64016004EFB4050B85EB1985EAE9
:102AD0001A85E91B8026EF64026004EFB4060B85BB
:102AE000F31985F21A85F11B8012EF64036004EF7D
:102AF000B4070985FB1985FA1A85F91BAF1BAE1AB5
:102B0000AD19AC1822C0E0C0F0C083C082C0D0753F
:102B1000D01053B9FDE51D64017022122A8E780091
:102B20001203BD121C2B7F011232889002D8E0FFE5
:102B3000122E7643B901D2D8751D05801DE51D649E
:102B4000057017121C23780A1203BD121BD2F4520F
:102B5000AB53AAFB121C42751D00D0D0D082D0838B
:102B6000D0F0D0E032E47F557E06FDFC7800120301
:102B70004F121B884003121BDB7FFF121BAD400668
:102B800078C576FF800A90027E12032B78C5A607CF
:102B9000E47FD67E0BFDFC900081120343121B885C
:102BA0004003121BDBE47FFF121BAE4005789376D7
:102BB000FF2290027E12032B7893A60722900289AF
:102BC0001203B190028612043890028912032B7806
:102BD000061202AA9002891203B190028D1215E426
:102BE0008005C333CE33CED8F9121549900289122D
:102BF00014DA90028DE0F9F81215B19002861204F1
:102C00002F1202EDAF27AE26AD25AC2478061215A3
:102C1000B1229002961203B19002931204389002EE
:102C20009612032B780A1202AA9002961203B19010
:102C3000029A1215E48005C333CE33CED8F91215AB
:102C4000499002961214DA90029AE0F9F81215BD32
:102C500090029312042F1202EDAF27AE26AD25ACE1
:102C600024780A1215BD229002581203C9000000F0
:102C700000E4FF12317075ABFF1231C79002581299
:102C80002A8B1201389002581203B1E4F5AB1231CD
:102C9000C790025812032BC004C005C006C007121B
:102CA0002A8EA804A905AA06AB07D007D006D0052E
:102CB000D0041201459002580203B190006A120339
:102CC00043120145122A1D90027FEEF0A3EFF07A25
:102CD0000179C71214C57405F0A3EEF0A3EFF07AE2
:102CE0000179BD122F28A215301401B350157B01B4
:102CF0007A0179BD7D051224F49001C8E544F0A362
:102D0000E545F090027FE0FEA3E0FF2230001C12B8
:102D1000151840177814E2FE08E2FF900213E0FC59
:102D2000A3E0FDD39FEC9E402180147814E2FE08BE
:102D3000E2FF7812E2FC08E2FDD39FEC9E400BED2F
:102D40009F7817F2EC9E18F28006E47816F208F2EB
:102D50007816E2FF08E208CFF208EFF222C0E0C0E6
:102D6000F0C083C082C0D075D000C000C28D758C09
:102D700032758AEB9002BAE475F0011200BDC3907F
:102D800002BBE094149002BAE09400401290021F3B
:102D9000A3E0785FF690021FE4F0A3F0120004D0E5
:102DA00000D0D0D082D083D0F0D0E032E4FF123314
:102DB00067785AEFF67856BFFF047623800276FFD5
:102DC000E47864F67857763108F690345E93FE74B2
:102DD0000193FF7885A60608A607EF249C7888F65D
:102DE000EE34FF18F678897600087664E41232F241
:102DF000F61232F2765075505522A907E4FEFD9086
:102E00000255E0FC703FEF5401FB90021BE05401BF
:102E10006B600D30020A201807EC4402900255F056
:102E200090021BE030E006EE4410FE8004EE440108
:102E3000FEE930E006ED4401FD8004ED4410FDEEB6
:102E40005D90021CF022E4FF90021AE070169034AC
:102E50005E93FC740193FDC37819E29D18E29C40D7
:102E60001F0F801C90345E740193249CFDE4933406
:102E7000FFFCC37819E29D18E29C4004EF4401FF77
:102E80009002D7EFF022121C2B9002D8E0D39403CB
:102E90004002E4F0EF14601214601714601D240364
:102EA0007021121BD2F452AB800D121BD2F452AB24
:102EB000800E121BD242AB53AAFB22121BD242AB92
:102EC00043AA042290027F1203B1900078E090029E
:102ED00087F090028312032B90028C1203B19002B0
:102EE00087E0900290F090027F12032B12191C9041
:102EF0000287E0FF1207939001A412032B22EF60D8
:102F000003D38001C3920A92027858A60790022147
:102F1000E4F0A3745AF07F09123141900225EEF0DB
:102F2000A3EFF07F1A1231417C007D031200AB90B9
:102F30000227EEF0A3EFF02290029AE0FEA3E0FF5A
:102F4000C003C002C00112152675F002121590D000
:102F500001D002D003EE8FF012010B9002961215F1
:102F600077121526FF900299E0B50704E412009944
:102F7000227E05EF5401FD90021AE054016D6007B6
:102F8000EFF0E490023DF07858E630E00890021A45
:102F9000E070027E2890023DE004F0C39E50037F63
:102FA000002290023DEEF07F012290028C12032B52
:102FB000C003C002C00190028812152912158DD0DD
:102FC00001D002D0031203079002881215779002F5
:102FD00088121529FF90028BE0B50704E4120099CE
:102FE0002290028D12032BC003C002C001900289FF
:102FF00012152912158DD001D002D00312030790AB
:103000000289121577900289121529FF90028CE02F
:10301000B50704E412009922000501080202030129
:103020000401050106060701080109070A010B0151
:103030000C030D050E0A0F011001110A123C1301B9
:103040001401153C1601173C180219021A3C121CF7
:103050002BE4FF123170121C0875BB01900069E06F
:10306000FF900024E04FF5B4E4F5B3F5B275B1106C
:10307000121C6553BAFE43B901D2D8E5B930E1FB61
:10308000E4F5BF227858E6F520A208300001B350DD
:10309000147F04123141900229EEF0A3EFF01227C1
:1030A00098A2009208A20A300201B35004A2029230
:1030B0000A301305122798C2132290029B1203B103
:1030C00090029F12032B90029B120343D31202869D
:1030D000400B90029F12034390029B800990029B39
:1030E00012034390029F12032B12014522900025E8
:1030F00012032BAB07AA067804120337C3EF9BFF1A
:10310000EE9AFE7B017A00794CE4FCFD90028D740E
:1031100008F0122BAD7808EEF208EFF27F0522E4FA
:10312000F51D53B9FD53B9DF43CC02C2D9539FFDFE
:10313000438760C28DEF700675BD0D75BC011234FA
:103140001375BE0CD28C20C9034387030000000016
:10315000227D017C00EFC3941B5020EF25E0240961
:10316000F582E43430F583E493FF7E00900221E0A1
:10317000FCA3E0FD1200ABAC06AD07AE04AF052228
:1031800053BA0F43BA3075BBFF121BF8900024E00E
:10319000F5B4EF700AF5B375B27575B1308006906D
:1031A0000021121C4E121C5A53AAFB22E4F5E343E1
:1031B0009F107F03FEFDFC12334F439F027F037E6F
:1031C000007D007C0012334F539FEF75BE0EE4F577
:1031D000BFF5B975927622121C2B75BF0F00000047
:1031E000000000000000000000000000000000D20D
:1031F000D853B9FD43B901E5B930E1FBE4F5BF228D
:1032000090021DE0FF90021CE0FE6F60143002048B
:103210007864A606E4FF123141900239EEF0A3EF84
:10322000F090021CE0A3F02290001AE09034559335
:10323000FF900024F090001BE090345593FE900026
:1032400069F0EF4E42D442F442E4F452DC229002A0
:103250007E7405F01230DD1228C090027EEFF0BFC0
:103260000205D213E0FF22122CFC12003E90027ED7
:10327000E0FF22300010121D465019C3EF9428EED3
:1032800094235013800E121D465009C3EF9428EE6C
:10329000942350031227982253BA0F43BA2075BBC8
:1032A000E6121BF8900069E0F5B4EF7009F5B3750C
:1032B000B2AF75B1C822900066121C4E2274FFF5A1
:1032C000F00200BDE0FBE4FAF9F81201DE8F458E52
:1032D000448D438C4222AB34AA33A932A831020276
:1032E0008653BAFEE5B920E004E51D6005E5B93076
:1032F000E1FBE4F5BF53B9FD53B9FE121C42E4F5FE
:103300001D2208F608F608F608F6082254FBF69087
:103310000255E04408F0224404F6900255E04404CB
:10332000F022E490027EF075BE0E439F027F03FE02
:10333000FDFC12334F75BC02E4F5BFD2D953CCFD6E
:1033400022438901C28DD2A953B8FD120003900215
:103350001FF0A3F0758C32758AEBD28CD2AF22901D
:10336000027F1203B190027F74FF12037EEC4D4E78
:103370004F60030080EF22E4FFF582F5837440FE86
:10338000E493F42FFFA3EEB583F6227F0022E490AE
:103390000231F0A3F07F0A12314190022FEEF0A328
:1033A000EFF0D21022121C2B7F01123170751D011B
:1033B000121C6543BA0143B901D2D82241001A0553
:1033C00041001B0644001CFFFFFFFF041800000023
:1033D0000000D3EF9DEE9C4007EF9DFFEE9CFE2288
:1033E000C3ED9FFFEC9EFE22E4FF12317012243CDD
:1033F0001221F07F01123170121E78022C57E4FF67
:1034000012328812347612211A7F01123288020D8C
:1034100013903460E493FF74019390006ECFF0A397
:10342000EFF022438901C28CC28F120003758CFB1E
:10343000758AED2243D50453F5FB43ED04E4900275
:1034400055F0D2922220C90CC2AFA807A60408A644
:1034500005D2AF222275AA3B53BAF343BA0C43B943
:103460002053B9BF22010204081020408007028ABD
:103470000064C2DA53D80F43D8D0D2D8D2D9229020
:103480000221E4F0A322785BE608F6221232180249
:103490003424FFFFFFFFFFFFFFFFFFFFFFFFFFFFE2
:1034A000FFFFFFFFFFFFFFFFFFFFFFFFFFFFFFFF2C
:00000001FF
